{
	"RPS.sol": {
		"RPS": {
			"abi": [
				{
					"inputs": [],
					"name": "addPlayer",
					"outputs": [],
					"stateMutability": "payable",
					"type": "function"
				},
				{
					"inputs": [
						{
							"internalType": "uint256",
							"name": "choice",
							"type": "uint256"
						}
					],
					"name": "input",
					"outputs": [],
					"stateMutability": "nonpayable",
					"type": "function"
				},
				{
					"inputs": [],
					"name": "numInput",
					"outputs": [
						{
							"internalType": "uint256",
							"name": "",
							"type": "uint256"
						}
					],
					"stateMutability": "view",
					"type": "function"
				},
				{
					"inputs": [],
					"name": "numPlayer",
					"outputs": [
						{
							"internalType": "uint256",
							"name": "",
							"type": "uint256"
						}
					],
					"stateMutability": "view",
					"type": "function"
				},
				{
					"inputs": [
						{
							"internalType": "address",
							"name": "",
							"type": "address"
						}
					],
					"name": "player_choice",
					"outputs": [
						{
							"internalType": "uint256",
							"name": "",
							"type": "uint256"
						}
					],
					"stateMutability": "view",
					"type": "function"
				},
				{
					"inputs": [
						{
							"internalType": "address",
							"name": "",
							"type": "address"
						}
					],
					"name": "player_not_played",
					"outputs": [
						{
							"internalType": "bool",
							"name": "",
							"type": "bool"
						}
					],
					"stateMutability": "view",
					"type": "function"
				},
				{
					"inputs": [
						{
							"internalType": "uint256",
							"name": "",
							"type": "uint256"
						}
					],
					"name": "players",
					"outputs": [
						{
							"internalType": "address",
							"name": "",
							"type": "address"
						}
					],
					"stateMutability": "view",
					"type": "function"
				},
				{
					"inputs": [],
					"name": "reward",
					"outputs": [
						{
							"internalType": "uint256",
							"name": "",
							"type": "uint256"
						}
					],
					"stateMutability": "view",
					"type": "function"
				}
			],
			"devdoc": {
				"kind": "dev",
				"methods": {},
				"version": 1
			},
			"evm": {
				"assembly": "    /* \"RPS.sol\":76:2974  contract RPS {... */\n  mstore(0x40, 0x80)\n    /* \"RPS.sol\":120:121  0 */\n  0x00\n    /* \"RPS.sol\":96:121  uint public numPlayer = 0 */\n  dup1\n  sstore\n    /* \"RPS.sol\":149:150  0 */\n  0x00\n    /* \"RPS.sol\":128:150  uint public reward = 0 */\n  0x01\n  sstore\n    /* \"RPS.sol\":360:361  0 */\n  0x00\n    /* \"RPS.sol\":337:361  uint public numInput = 0 */\n  0x05\n  sstore\n    /* \"RPS.sol\":76:2974  contract RPS {... */\n  callvalue\n  dup1\n  iszero\n  tag_1\n  jumpi\n  0x00\n  dup1\n  revert\ntag_1:\n  pop\n  dataSize(sub_0)\n  dup1\n  dataOffset(sub_0)\n  0x00\n  codecopy\n  0x00\n  return\nstop\n\nsub_0: assembly {\n        /* \"RPS.sol\":76:2974  contract RPS {... */\n      mstore(0x40, 0x80)\n      jumpi(tag_1, lt(calldatasize, 0x04))\n      shr(0xe0, calldataload(0x00))\n      dup1\n      0x90d5d0c3\n      gt\n      tag_10\n      jumpi\n      dup1\n      0x90d5d0c3\n      eq\n      tag_6\n      jumpi\n      dup1\n      0xa040478d\n      eq\n      tag_7\n      jumpi\n      dup1\n      0xce6e1c4e\n      eq\n      tag_8\n      jumpi\n      dup1\n      0xf71d96cb\n      eq\n      tag_9\n      jumpi\n      jump(tag_1)\n    tag_10:\n      dup1\n      0x086f7815\n      eq\n      tag_2\n      jumpi\n      dup1\n      0x190cf745\n      eq\n      tag_3\n      jumpi\n      dup1\n      0x228cb733\n      eq\n      tag_4\n      jumpi\n      dup1\n      0x27b5db8a\n      eq\n      tag_5\n      jumpi\n    tag_1:\n      0x00\n      dup1\n      revert\n        /* \"RPS.sol\":337:361  uint public numInput = 0 */\n    tag_2:\n      callvalue\n      dup1\n      iszero\n      tag_11\n      jumpi\n      0x00\n      dup1\n      revert\n    tag_11:\n      pop\n      tag_12\n      tag_13\n      jump\t// in\n    tag_12:\n      mload(0x40)\n      tag_14\n      swap2\n      swap1\n      tag_15\n      jump\t// in\n    tag_14:\n      mload(0x40)\n      dup1\n      swap2\n      sub\n      swap1\n      return\n        /* \"RPS.sol\":248:297  mapping(address => bool) public player_not_played */\n    tag_3:\n      callvalue\n      dup1\n      iszero\n      tag_16\n      jumpi\n      0x00\n      dup1\n      revert\n    tag_16:\n      pop\n      tag_17\n      0x04\n      dup1\n      calldatasize\n      sub\n      dup2\n      add\n      swap1\n      tag_18\n      swap2\n      swap1\n      tag_19\n      jump\t// in\n    tag_18:\n      tag_20\n      jump\t// in\n    tag_17:\n      mload(0x40)\n      tag_21\n      swap2\n      swap1\n      tag_22\n      jump\t// in\n    tag_21:\n      mload(0x40)\n      dup1\n      swap2\n      sub\n      swap1\n      return\n        /* \"RPS.sol\":128:150  uint public reward = 0 */\n    tag_4:\n      callvalue\n      dup1\n      iszero\n      tag_23\n      jumpi\n      0x00\n      dup1\n      revert\n    tag_23:\n      pop\n      tag_24\n      tag_25\n      jump\t// in\n    tag_24:\n      mload(0x40)\n      tag_26\n      swap2\n      swap1\n      tag_15\n      jump\t// in\n    tag_26:\n      mload(0x40)\n      dup1\n      swap2\n      sub\n      swap1\n      return\n        /* \"RPS.sol\":370:1018  function addPlayer() public payable {... */\n    tag_5:\n      tag_27\n      tag_28\n      jump\t// in\n    tag_27:\n      stop\n        /* \"RPS.sol\":96:121  uint public numPlayer = 0 */\n    tag_6:\n      callvalue\n      dup1\n      iszero\n      tag_29\n      jumpi\n      0x00\n      dup1\n      revert\n    tag_29:\n      pop\n      tag_30\n      tag_31\n      jump\t// in\n    tag_30:\n      mload(0x40)\n      tag_32\n      swap2\n      swap1\n      tag_15\n      jump\t// in\n    tag_32:\n      mload(0x40)\n      dup1\n      swap2\n      sub\n      swap1\n      return\n        /* \"RPS.sol\":157:203  mapping (address => uint) public player_choice */\n    tag_7:\n      callvalue\n      dup1\n      iszero\n      tag_33\n      jumpi\n      0x00\n      dup1\n      revert\n    tag_33:\n      pop\n      tag_34\n      0x04\n      dup1\n      calldatasize\n      sub\n      dup2\n      add\n      swap1\n      tag_35\n      swap2\n      swap1\n      tag_19\n      jump\t// in\n    tag_35:\n      tag_36\n      jump\t// in\n    tag_34:\n      mload(0x40)\n      tag_37\n      swap2\n      swap1\n      tag_15\n      jump\t// in\n    tag_37:\n      mload(0x40)\n      dup1\n      swap2\n      sub\n      swap1\n      return\n        /* \"RPS.sol\":1026:1434  function input(uint choice) public  {... */\n    tag_8:\n      callvalue\n      dup1\n      iszero\n      tag_38\n      jumpi\n      0x00\n      dup1\n      revert\n    tag_38:\n      pop\n      tag_39\n      0x04\n      dup1\n      calldatasize\n      sub\n      dup2\n      add\n      swap1\n      tag_40\n      swap2\n      swap1\n      tag_41\n      jump\t// in\n    tag_40:\n      tag_42\n      jump\t// in\n    tag_39:\n      stop\n        /* \"RPS.sol\":304:328  address[] public players */\n    tag_9:\n      callvalue\n      dup1\n      iszero\n      tag_43\n      jumpi\n      0x00\n      dup1\n      revert\n    tag_43:\n      pop\n      tag_44\n      0x04\n      dup1\n      calldatasize\n      sub\n      dup2\n      add\n      swap1\n      tag_45\n      swap2\n      swap1\n      tag_41\n      jump\t// in\n    tag_45:\n      tag_46\n      jump\t// in\n    tag_44:\n      mload(0x40)\n      tag_47\n      swap2\n      swap1\n      tag_48\n      jump\t// in\n    tag_47:\n      mload(0x40)\n      dup1\n      swap2\n      sub\n      swap1\n      return\n        /* \"RPS.sol\":337:361  uint public numInput = 0 */\n    tag_13:\n      sload(0x05)\n      dup2\n      jump\t// out\n        /* \"RPS.sol\":248:297  mapping(address => bool) public player_not_played */\n    tag_20:\n      mstore(0x20, 0x03)\n      dup1\n      0x00\n      mstore\n      keccak256(0x00, 0x40)\n      0x00\n      swap2\n      pop\n      sload\n      swap1\n      0x0100\n      exp\n      swap1\n      div\n      0xff\n      and\n      dup2\n      jump\t// out\n        /* \"RPS.sol\":128:150  uint public reward = 0 */\n    tag_25:\n      sload(0x01)\n      dup2\n      jump\t// out\n        /* \"RPS.sol\":370:1018  function addPlayer() public payable {... */\n    tag_28:\n        /* \"RPS.sol\":437:438  2 */\n      0x02\n        /* \"RPS.sol\":425:434  numPlayer */\n      sload(0x00)\n        /* \"RPS.sol\":425:438  numPlayer < 2 */\n      lt\n        /* \"RPS.sol\":417:439  require(numPlayer < 2) */\n      tag_50\n      jumpi\n      0x00\n      dup1\n      revert\n    tag_50:\n        /* \"RPS.sol\":472:514  0x5B38Da6a701c568545dCfcB03FcB875f56beddC4 */\n      0x5b38da6a701c568545dcfcb03fcb875f56beddc4\n        /* \"RPS.sol\":458:514  msg.sender == 0x5B38Da6a701c568545dCfcB03FcB875f56beddC4 */\n      0xffffffffffffffffffffffffffffffffffffffff\n      and\n        /* \"RPS.sol\":458:468  msg.sender */\n      caller\n        /* \"RPS.sol\":458:514  msg.sender == 0x5B38Da6a701c568545dCfcB03FcB875f56beddC4 */\n      0xffffffffffffffffffffffffffffffffffffffff\n      and\n      eq\n        /* \"RPS.sol\":458:591  msg.sender == 0x5B38Da6a701c568545dCfcB03FcB875f56beddC4 ||... */\n      dup1\n      tag_51\n      jumpi\n      pop\n        /* \"RPS.sol\":549:591  0xAb8483F64d9C6d1EcF9b849Ae677dD3315835cb2 */\n      0xab8483f64d9c6d1ecf9b849ae677dd3315835cb2\n        /* \"RPS.sol\":535:591  msg.sender == 0xAb8483F64d9C6d1EcF9b849Ae677dD3315835cb2 */\n      0xffffffffffffffffffffffffffffffffffffffff\n      and\n        /* \"RPS.sol\":535:545  msg.sender */\n      caller\n        /* \"RPS.sol\":535:591  msg.sender == 0xAb8483F64d9C6d1EcF9b849Ae677dD3315835cb2 */\n      0xffffffffffffffffffffffffffffffffffffffff\n      and\n      eq\n        /* \"RPS.sol\":458:591  msg.sender == 0x5B38Da6a701c568545dCfcB03FcB875f56beddC4 ||... */\n    tag_51:\n        /* \"RPS.sol\":458:668  msg.sender == 0x5B38Da6a701c568545dCfcB03FcB875f56beddC4 ||... */\n      dup1\n      tag_52\n      jumpi\n      pop\n        /* \"RPS.sol\":626:668  0x4B20993Bc481177ec7E8f571ceCaE8A9e22C02db */\n      0x4b20993bc481177ec7e8f571cecae8a9e22c02db\n        /* \"RPS.sol\":612:668  msg.sender == 0x4B20993Bc481177ec7E8f571ceCaE8A9e22C02db */\n      0xffffffffffffffffffffffffffffffffffffffff\n      and\n        /* \"RPS.sol\":612:622  msg.sender */\n      caller\n        /* \"RPS.sol\":612:668  msg.sender == 0x4B20993Bc481177ec7E8f571ceCaE8A9e22C02db */\n      0xffffffffffffffffffffffffffffffffffffffff\n      and\n      eq\n        /* \"RPS.sol\":458:668  msg.sender == 0x5B38Da6a701c568545dCfcB03FcB875f56beddC4 ||... */\n    tag_52:\n        /* \"RPS.sol\":458:746  msg.sender == 0x5B38Da6a701c568545dCfcB03FcB875f56beddC4 ||... */\n      dup1\n      tag_53\n      jumpi\n      pop\n        /* \"RPS.sol\":704:746  0x78731D3Ca6b7E34aC0F824c42a7cC18A495cabaB */\n      0x78731d3ca6b7e34ac0f824c42a7cc18a495cabab\n        /* \"RPS.sol\":690:746  msg.sender == 0x78731D3Ca6b7E34aC0F824c42a7cC18A495cabaB */\n      0xffffffffffffffffffffffffffffffffffffffff\n      and\n        /* \"RPS.sol\":690:700  msg.sender */\n      caller\n        /* \"RPS.sol\":690:746  msg.sender == 0x78731D3Ca6b7E34aC0F824c42a7cC18A495cabaB */\n      0xffffffffffffffffffffffffffffffffffffffff\n      and\n      eq\n        /* \"RPS.sol\":458:746  msg.sender == 0x5B38Da6a701c568545dCfcB03FcB875f56beddC4 ||... */\n    tag_53:\n        /* \"RPS.sol\":450:747  require(msg.sender == 0x5B38Da6a701c568545dCfcB03FcB875f56beddC4 ||... */\n      tag_54\n      jumpi\n      0x00\n      dup1\n      revert\n    tag_54:\n        /* \"RPS.sol\":774:775  0 */\n      0x00\n        /* \"RPS.sol\":762:771  numPlayer */\n      dup1\n      sload\n        /* \"RPS.sol\":762:775  numPlayer > 0 */\n      gt\n        /* \"RPS.sol\":758:837  if (numPlayer > 0) {... */\n      iszero\n      tag_55\n      jumpi\n        /* \"RPS.sol\":814:821  players */\n      0x04\n        /* \"RPS.sol\":822:823  0 */\n      0x00\n        /* \"RPS.sol\":814:824  players[0] */\n      dup2\n      sload\n      dup2\n      lt\n      tag_56\n      jumpi\n      tag_57\n      tag_58\n      jump\t// in\n    tag_57:\n    tag_56:\n      swap1\n      0x00\n      mstore\n      keccak256(0x00, 0x20)\n      add\n      0x00\n      swap1\n      sload\n      swap1\n      0x0100\n      exp\n      swap1\n      div\n      0xffffffffffffffffffffffffffffffffffffffff\n      and\n        /* \"RPS.sol\":800:824  msg.sender != players[0] */\n      0xffffffffffffffffffffffffffffffffffffffff\n      and\n        /* \"RPS.sol\":800:810  msg.sender */\n      caller\n        /* \"RPS.sol\":800:824  msg.sender != players[0] */\n      0xffffffffffffffffffffffffffffffffffffffff\n      and\n      sub\n        /* \"RPS.sol\":792:825  require(msg.sender != players[0]) */\n      tag_60\n      jumpi\n      0x00\n      dup1\n      revert\n    tag_60:\n        /* \"RPS.sol\":758:837  if (numPlayer > 0) {... */\n    tag_55:\n        /* \"RPS.sol\":868:875  1 ether */\n      0x0de0b6b3a7640000\n        /* \"RPS.sol\":855:864  msg.value */\n      callvalue\n        /* \"RPS.sol\":855:875  msg.value == 1 ether */\n      eq\n        /* \"RPS.sol\":847:876  require(msg.value == 1 ether) */\n      tag_61\n      jumpi\n      0x00\n      dup1\n      revert\n    tag_61:\n        /* \"RPS.sol\":897:906  msg.value */\n      callvalue\n        /* \"RPS.sol\":887:893  reward */\n      0x01\n      0x00\n        /* \"RPS.sol\":887:906  reward += msg.value */\n      dup3\n      dup3\n      sload\n      tag_62\n      swap2\n      swap1\n      tag_63\n      jump\t// in\n    tag_62:\n      swap3\n      pop\n      pop\n      dup2\n      swap1\n      sstore\n      pop\n        /* \"RPS.sol\":949:953  true */\n      0x01\n        /* \"RPS.sol\":917:934  player_not_played */\n      0x03\n        /* \"RPS.sol\":917:946  player_not_played[msg.sender] */\n      0x00\n        /* \"RPS.sol\":935:945  msg.sender */\n      caller\n        /* \"RPS.sol\":917:946  player_not_played[msg.sender] */\n      0xffffffffffffffffffffffffffffffffffffffff\n      and\n      0xffffffffffffffffffffffffffffffffffffffff\n      and\n      dup2\n      mstore\n      0x20\n      add\n      swap1\n      dup2\n      mstore\n      0x20\n      add\n      0x00\n      keccak256\n      0x00\n        /* \"RPS.sol\":917:953  player_not_played[msg.sender] = true */\n      0x0100\n      exp\n      dup2\n      sload\n      dup2\n      0xff\n      mul\n      not\n      and\n      swap1\n      dup4\n      iszero\n      iszero\n      mul\n      or\n      swap1\n      sstore\n      pop\n        /* \"RPS.sol\":964:971  players */\n      0x04\n        /* \"RPS.sol\":977:987  msg.sender */\n      caller\n        /* \"RPS.sol\":964:988  players.push(msg.sender) */\n      swap1\n      dup1\n      0x01\n      dup2\n      sload\n      add\n      dup1\n      dup3\n      sstore\n      dup1\n      swap2\n      pop\n      pop\n      0x01\n      swap1\n      sub\n      swap1\n      0x00\n      mstore\n      keccak256(0x00, 0x20)\n      add\n      0x00\n      swap1\n      swap2\n      swap1\n      swap2\n      swap1\n      swap2\n      0x0100\n      exp\n      dup2\n      sload\n      dup2\n      0xffffffffffffffffffffffffffffffffffffffff\n      mul\n      not\n      and\n      swap1\n      dup4\n      0xffffffffffffffffffffffffffffffffffffffff\n      and\n      mul\n      or\n      swap1\n      sstore\n      pop\n        /* \"RPS.sol\":999:1008  numPlayer */\n      0x00\n      dup1\n        /* \"RPS.sol\":999:1010  numPlayer++ */\n      dup2\n      sload\n      dup1\n      swap3\n      swap2\n      swap1\n      tag_65\n      swap1\n      tag_66\n      jump\t// in\n    tag_65:\n      swap2\n      swap1\n      pop\n      sstore\n      pop\n        /* \"RPS.sol\":370:1018  function addPlayer() public payable {... */\n      jump\t// out\n        /* \"RPS.sol\":96:121  uint public numPlayer = 0 */\n    tag_31:\n      sload(0x00)\n      dup2\n      jump\t// out\n        /* \"RPS.sol\":157:203  mapping (address => uint) public player_choice */\n    tag_36:\n      mstore(0x20, 0x02)\n      dup1\n      0x00\n      mstore\n      keccak256(0x00, 0x40)\n      0x00\n      swap2\n      pop\n      swap1\n      pop\n      sload\n      dup2\n      jump\t// out\n        /* \"RPS.sol\":1026:1434  function input(uint choice) public  {... */\n    tag_42:\n        /* \"RPS.sol\":1094:1095  2 */\n      0x02\n        /* \"RPS.sol\":1081:1090  numPlayer */\n      sload(0x00)\n        /* \"RPS.sol\":1081:1095  numPlayer == 2 */\n      eq\n        /* \"RPS.sol\":1073:1096  require(numPlayer == 2) */\n      tag_68\n      jumpi\n      0x00\n      dup1\n      revert\n    tag_68:\n        /* \"RPS.sol\":1115:1132  player_not_played */\n      0x03\n        /* \"RPS.sol\":1115:1144  player_not_played[msg.sender] */\n      0x00\n        /* \"RPS.sol\":1133:1143  msg.sender */\n      caller\n        /* \"RPS.sol\":1115:1144  player_not_played[msg.sender] */\n      0xffffffffffffffffffffffffffffffffffffffff\n      and\n      0xffffffffffffffffffffffffffffffffffffffff\n      and\n      dup2\n      mstore\n      0x20\n      add\n      swap1\n      dup2\n      mstore\n      0x20\n      add\n      0x00\n      keccak256\n      0x00\n      swap1\n      sload\n      swap1\n      0x0100\n      exp\n      swap1\n      div\n      0xff\n      and\n        /* \"RPS.sol\":1107:1145  require(player_not_played[msg.sender]) */\n      tag_69\n      jumpi\n      0x00\n      dup1\n      revert\n    tag_69:\n        /* \"RPS.sol\":1174:1175  0 */\n      0x00\n        /* \"RPS.sol\":1164:1170  choice */\n      dup2\n        /* \"RPS.sol\":1164:1175  choice == 0 */\n      eq\n        /* \"RPS.sol\":1164:1190  choice == 0 || choice == 1 */\n      dup1\n      tag_70\n      jumpi\n      pop\n        /* \"RPS.sol\":1189:1190  1 */\n      0x01\n        /* \"RPS.sol\":1179:1185  choice */\n      dup2\n        /* \"RPS.sol\":1179:1190  choice == 1 */\n      eq\n        /* \"RPS.sol\":1164:1190  choice == 0 || choice == 1 */\n    tag_70:\n        /* \"RPS.sol\":1164:1205  choice == 0 || choice == 1 || choice == 2 */\n      dup1\n      tag_71\n      jumpi\n      pop\n        /* \"RPS.sol\":1204:1205  2 */\n      0x02\n        /* \"RPS.sol\":1194:1200  choice */\n      dup2\n        /* \"RPS.sol\":1194:1205  choice == 2 */\n      eq\n        /* \"RPS.sol\":1164:1205  choice == 0 || choice == 1 || choice == 2 */\n    tag_71:\n        /* \"RPS.sol\":1164:1220  choice == 0 || choice == 1 || choice == 2 || choice == 3 */\n      dup1\n      tag_72\n      jumpi\n      pop\n        /* \"RPS.sol\":1219:1220  3 */\n      0x03\n        /* \"RPS.sol\":1209:1215  choice */\n      dup2\n        /* \"RPS.sol\":1209:1220  choice == 3 */\n      eq\n        /* \"RPS.sol\":1164:1220  choice == 0 || choice == 1 || choice == 2 || choice == 3 */\n    tag_72:\n        /* \"RPS.sol\":1164:1235  choice == 0 || choice == 1 || choice == 2 || choice == 3 || choice == 4 */\n      dup1\n      tag_73\n      jumpi\n      pop\n        /* \"RPS.sol\":1234:1235  4 */\n      0x04\n        /* \"RPS.sol\":1224:1230  choice */\n      dup2\n        /* \"RPS.sol\":1224:1235  choice == 4 */\n      eq\n        /* \"RPS.sol\":1164:1235  choice == 0 || choice == 1 || choice == 2 || choice == 3 || choice == 4 */\n    tag_73:\n        /* \"RPS.sol\":1156:1236  require(choice == 0 || choice == 1 || choice == 2 || choice == 3 || choice == 4) */\n      tag_74\n      jumpi\n      0x00\n      dup1\n      revert\n    tag_74:\n        /* \"RPS.sol\":1275:1281  choice */\n      dup1\n        /* \"RPS.sol\":1247:1260  player_choice */\n      0x02\n        /* \"RPS.sol\":1247:1272  player_choice[msg.sender] */\n      0x00\n        /* \"RPS.sol\":1261:1271  msg.sender */\n      caller\n        /* \"RPS.sol\":1247:1272  player_choice[msg.sender] */\n      0xffffffffffffffffffffffffffffffffffffffff\n      and\n      0xffffffffffffffffffffffffffffffffffffffff\n      and\n      dup2\n      mstore\n      0x20\n      add\n      swap1\n      dup2\n      mstore\n      0x20\n      add\n      0x00\n      keccak256\n        /* \"RPS.sol\":1247:1281  player_choice[msg.sender] = choice */\n      dup2\n      swap1\n      sstore\n      pop\n        /* \"RPS.sol\":1324:1329  false */\n      0x00\n        /* \"RPS.sol\":1292:1309  player_not_played */\n      0x03\n        /* \"RPS.sol\":1292:1321  player_not_played[msg.sender] */\n      0x00\n        /* \"RPS.sol\":1310:1320  msg.sender */\n      caller\n        /* \"RPS.sol\":1292:1321  player_not_played[msg.sender] */\n      0xffffffffffffffffffffffffffffffffffffffff\n      and\n      0xffffffffffffffffffffffffffffffffffffffff\n      and\n      dup2\n      mstore\n      0x20\n      add\n      swap1\n      dup2\n      mstore\n      0x20\n      add\n      0x00\n      keccak256\n      0x00\n        /* \"RPS.sol\":1292:1329  player_not_played[msg.sender] = false */\n      0x0100\n      exp\n      dup2\n      sload\n      dup2\n      0xff\n      mul\n      not\n      and\n      swap1\n      dup4\n      iszero\n      iszero\n      mul\n      or\n      swap1\n      sstore\n      pop\n        /* \"RPS.sol\":1340:1348  numInput */\n      0x05\n      0x00\n        /* \"RPS.sol\":1340:1350  numInput++ */\n      dup2\n      sload\n      dup1\n      swap3\n      swap2\n      swap1\n      tag_75\n      swap1\n      tag_66\n      jump\t// in\n    tag_75:\n      swap2\n      swap1\n      pop\n      sstore\n      pop\n        /* \"RPS.sol\":1377:1378  2 */\n      0x02\n        /* \"RPS.sol\":1365:1373  numInput */\n      sload(0x05)\n        /* \"RPS.sol\":1365:1378  numInput == 2 */\n      sub\n        /* \"RPS.sol\":1361:1427  if (numInput == 2) {... */\n      tag_76\n      jumpi\n        /* \"RPS.sol\":1395:1415  _checkWinnerAndPay() */\n      tag_77\n        /* \"RPS.sol\":1395:1413  _checkWinnerAndPay */\n      tag_78\n        /* \"RPS.sol\":1395:1415  _checkWinnerAndPay() */\n      jump\t// in\n    tag_77:\n        /* \"RPS.sol\":1361:1427  if (numInput == 2) {... */\n    tag_76:\n        /* \"RPS.sol\":1026:1434  function input(uint choice) public  {... */\n      pop\n      jump\t// out\n        /* \"RPS.sol\":304:328  address[] public players */\n    tag_46:\n      0x04\n      dup2\n      dup2\n      sload\n      dup2\n      lt\n      tag_79\n      jumpi\n      0x00\n      dup1\n      revert\n    tag_79:\n      swap1\n      0x00\n      mstore\n      keccak256(0x00, 0x20)\n      add\n      0x00\n      swap2\n      pop\n      sload\n      swap1\n      0x0100\n      exp\n      swap1\n      div\n      0xffffffffffffffffffffffffffffffffffffffff\n      and\n      dup2\n      jump\t// out\n        /* \"RPS.sol\":1442:2833  function _checkWinnerAndPay() private {... */\n    tag_78:\n        /* \"RPS.sol\":1491:1504  uint p0Choice */\n      0x00\n        /* \"RPS.sol\":1507:1520  player_choice */\n      0x02\n        /* \"RPS.sol\":1507:1532  player_choice[players[0]] */\n      0x00\n        /* \"RPS.sol\":1521:1528  players */\n      0x04\n        /* \"RPS.sol\":1529:1530  0 */\n      0x00\n        /* \"RPS.sol\":1521:1531  players[0] */\n      dup2\n      sload\n      dup2\n      lt\n      tag_82\n      jumpi\n      tag_83\n      tag_58\n      jump\t// in\n    tag_83:\n    tag_82:\n      swap1\n      0x00\n      mstore\n      keccak256(0x00, 0x20)\n      add\n      0x00\n      swap1\n      sload\n      swap1\n      0x0100\n      exp\n      swap1\n      div\n      0xffffffffffffffffffffffffffffffffffffffff\n      and\n        /* \"RPS.sol\":1507:1532  player_choice[players[0]] */\n      0xffffffffffffffffffffffffffffffffffffffff\n      and\n      0xffffffffffffffffffffffffffffffffffffffff\n      and\n      dup2\n      mstore\n      0x20\n      add\n      swap1\n      dup2\n      mstore\n      0x20\n      add\n      0x00\n      keccak256\n      sload\n        /* \"RPS.sol\":1491:1532  uint p0Choice = player_choice[players[0]] */\n      swap1\n      pop\n        /* \"RPS.sol\":1543:1556  uint p1Choice */\n      0x00\n        /* \"RPS.sol\":1559:1572  player_choice */\n      0x02\n        /* \"RPS.sol\":1559:1584  player_choice[players[1]] */\n      0x00\n        /* \"RPS.sol\":1573:1580  players */\n      0x04\n        /* \"RPS.sol\":1581:1582  1 */\n      0x01\n        /* \"RPS.sol\":1573:1583  players[1] */\n      dup2\n      sload\n      dup2\n      lt\n      tag_85\n      jumpi\n      tag_86\n      tag_58\n      jump\t// in\n    tag_86:\n    tag_85:\n      swap1\n      0x00\n      mstore\n      keccak256(0x00, 0x20)\n      add\n      0x00\n      swap1\n      sload\n      swap1\n      0x0100\n      exp\n      swap1\n      div\n      0xffffffffffffffffffffffffffffffffffffffff\n      and\n        /* \"RPS.sol\":1559:1584  player_choice[players[1]] */\n      0xffffffffffffffffffffffffffffffffffffffff\n      and\n      0xffffffffffffffffffffffffffffffffffffffff\n      and\n      dup2\n      mstore\n      0x20\n      add\n      swap1\n      dup2\n      mstore\n      0x20\n      add\n      0x00\n      keccak256\n      sload\n        /* \"RPS.sol\":1543:1584  uint p1Choice = player_choice[players[1]] */\n      swap1\n      pop\n        /* \"RPS.sol\":1595:1619  address payable account0 */\n      0x00\n        /* \"RPS.sol\":1630:1637  players */\n      0x04\n        /* \"RPS.sol\":1638:1639  0 */\n      0x00\n        /* \"RPS.sol\":1630:1640  players[0] */\n      dup2\n      sload\n      dup2\n      lt\n      tag_88\n      jumpi\n      tag_89\n      tag_58\n      jump\t// in\n    tag_89:\n    tag_88:\n      swap1\n      0x00\n      mstore\n      keccak256(0x00, 0x20)\n      add\n      0x00\n      swap1\n      sload\n      swap1\n      0x0100\n      exp\n      swap1\n      div\n      0xffffffffffffffffffffffffffffffffffffffff\n      and\n        /* \"RPS.sol\":1595:1641  address payable account0 = payable(players[0]) */\n      swap1\n      pop\n        /* \"RPS.sol\":1652:1676  address payable account1 */\n      0x00\n        /* \"RPS.sol\":1687:1694  players */\n      0x04\n        /* \"RPS.sol\":1695:1696  1 */\n      0x01\n        /* \"RPS.sol\":1687:1697  players[1] */\n      dup2\n      sload\n      dup2\n      lt\n      tag_91\n      jumpi\n      tag_92\n      tag_58\n      jump\t// in\n    tag_92:\n    tag_91:\n      swap1\n      0x00\n      mstore\n      keccak256(0x00, 0x20)\n      add\n      0x00\n      swap1\n      sload\n      swap1\n      0x0100\n      exp\n      swap1\n      div\n      0xffffffffffffffffffffffffffffffffffffffff\n      and\n        /* \"RPS.sol\":1652:1698  address payable account1 = payable(players[1]) */\n      swap1\n      pop\n        /* \"RPS.sol\":1735:1743  p1Choice */\n      dup3\n        /* \"RPS.sol\":1730:1731  3 */\n      0x03\n        /* \"RPS.sol\":1725:1726  1 */\n      0x01\n        /* \"RPS.sol\":1714:1722  p0Choice */\n      dup7\n        /* \"RPS.sol\":1714:1726  p0Choice + 1 */\n      tag_94\n      swap2\n      swap1\n      tag_63\n      jump\t// in\n    tag_94:\n        /* \"RPS.sol\":1713:1731  (p0Choice + 1) % 3 */\n      tag_95\n      swap2\n      swap1\n      tag_96\n      jump\t// in\n    tag_95:\n        /* \"RPS.sol\":1713:1743  (p0Choice + 1) % 3 == p1Choice */\n      eq\n        /* \"RPS.sol\":1713:1793  (p0Choice + 1) % 3 == p1Choice || ... */\n      dup1\n      tag_97\n      jumpi\n      pop\n        /* \"RPS.sol\":1774:1775  3 */\n      0x03\n        /* \"RPS.sol\":1762:1770  p0Choice */\n      dup5\n        /* \"RPS.sol\":1762:1775  p0Choice == 3 */\n      eq\n        /* \"RPS.sol\":1762:1792  p0Choice == 3 && p1Choice == 0 */\n      dup1\n      iszero\n      tag_98\n      jumpi\n      pop\n        /* \"RPS.sol\":1791:1792  0 */\n      0x00\n        /* \"RPS.sol\":1779:1787  p1Choice */\n      dup4\n        /* \"RPS.sol\":1779:1792  p1Choice == 0 */\n      eq\n        /* \"RPS.sol\":1762:1792  p0Choice == 3 && p1Choice == 0 */\n    tag_98:\n        /* \"RPS.sol\":1713:1793  (p0Choice + 1) % 3 == p1Choice || ... */\n    tag_97:\n        /* \"RPS.sol\":1713:1842  (p0Choice + 1) % 3 == p1Choice || ... */\n      dup1\n      tag_99\n      jumpi\n      pop\n        /* \"RPS.sol\":1823:1824  4 */\n      0x04\n        /* \"RPS.sol\":1811:1819  p0Choice */\n      dup5\n        /* \"RPS.sol\":1811:1824  p0Choice == 4 */\n      eq\n        /* \"RPS.sol\":1811:1841  p0Choice == 4 && p1Choice == 3 */\n      dup1\n      iszero\n      tag_100\n      jumpi\n      pop\n        /* \"RPS.sol\":1840:1841  3 */\n      0x03\n        /* \"RPS.sol\":1828:1836  p1Choice */\n      dup4\n        /* \"RPS.sol\":1828:1841  p1Choice == 3 */\n      eq\n        /* \"RPS.sol\":1811:1841  p0Choice == 4 && p1Choice == 3 */\n    tag_100:\n        /* \"RPS.sol\":1713:1842  (p0Choice + 1) % 3 == p1Choice || ... */\n    tag_99:\n        /* \"RPS.sol\":1713:1891  (p0Choice + 1) % 3 == p1Choice || ... */\n      dup1\n      tag_101\n      jumpi\n      pop\n        /* \"RPS.sol\":1872:1873  2 */\n      0x02\n        /* \"RPS.sol\":1860:1868  p0Choice */\n      dup5\n        /* \"RPS.sol\":1860:1873  p0Choice == 2 */\n      eq\n        /* \"RPS.sol\":1860:1890  p0Choice == 2 && p1Choice == 4 */\n      dup1\n      iszero\n      tag_102\n      jumpi\n      pop\n        /* \"RPS.sol\":1889:1890  4 */\n      0x04\n        /* \"RPS.sol\":1877:1885  p1Choice */\n      dup4\n        /* \"RPS.sol\":1877:1890  p1Choice == 4 */\n      eq\n        /* \"RPS.sol\":1860:1890  p0Choice == 2 && p1Choice == 4 */\n    tag_102:\n        /* \"RPS.sol\":1713:1891  (p0Choice + 1) % 3 == p1Choice || ... */\n    tag_101:\n        /* \"RPS.sol\":1713:1940  (p0Choice + 1) % 3 == p1Choice || ... */\n      dup1\n      tag_103\n      jumpi\n      pop\n        /* \"RPS.sol\":1921:1922  3 */\n      0x03\n        /* \"RPS.sol\":1909:1917  p0Choice */\n      dup5\n        /* \"RPS.sol\":1909:1922  p0Choice == 3 */\n      eq\n        /* \"RPS.sol\":1909:1939  p0Choice == 3 && p1Choice == 2 */\n      dup1\n      iszero\n      tag_104\n      jumpi\n      pop\n        /* \"RPS.sol\":1938:1939  2 */\n      0x02\n        /* \"RPS.sol\":1926:1934  p1Choice */\n      dup4\n        /* \"RPS.sol\":1926:1939  p1Choice == 2 */\n      eq\n        /* \"RPS.sol\":1909:1939  p0Choice == 3 && p1Choice == 2 */\n    tag_104:\n        /* \"RPS.sol\":1713:1940  (p0Choice + 1) % 3 == p1Choice || ... */\n    tag_103:\n        /* \"RPS.sol\":1713:1989  (p0Choice + 1) % 3 == p1Choice || ... */\n      dup1\n      tag_105\n      jumpi\n      pop\n        /* \"RPS.sol\":1970:1971  1 */\n      0x01\n        /* \"RPS.sol\":1958:1966  p0Choice */\n      dup5\n        /* \"RPS.sol\":1958:1971  p0Choice == 1 */\n      eq\n        /* \"RPS.sol\":1958:1988  p0Choice == 1 && p1Choice == 3 */\n      dup1\n      iszero\n      tag_106\n      jumpi\n      pop\n        /* \"RPS.sol\":1987:1988  3 */\n      0x03\n        /* \"RPS.sol\":1975:1983  p1Choice */\n      dup4\n        /* \"RPS.sol\":1975:1988  p1Choice == 3 */\n      eq\n        /* \"RPS.sol\":1958:1988  p0Choice == 1 && p1Choice == 3 */\n    tag_106:\n        /* \"RPS.sol\":1713:1989  (p0Choice + 1) % 3 == p1Choice || ... */\n    tag_105:\n        /* \"RPS.sol\":1713:2038  (p0Choice + 1) % 3 == p1Choice || ... */\n      dup1\n      tag_107\n      jumpi\n      pop\n        /* \"RPS.sol\":2019:2020  0 */\n      0x00\n        /* \"RPS.sol\":2007:2015  p0Choice */\n      dup5\n        /* \"RPS.sol\":2007:2020  p0Choice == 0 */\n      eq\n        /* \"RPS.sol\":2007:2037  p0Choice == 0 && p1Choice == 4 */\n      dup1\n      iszero\n      tag_108\n      jumpi\n      pop\n        /* \"RPS.sol\":2036:2037  4 */\n      0x04\n        /* \"RPS.sol\":2024:2032  p1Choice */\n      dup4\n        /* \"RPS.sol\":2024:2037  p1Choice == 4 */\n      eq\n        /* \"RPS.sol\":2007:2037  p0Choice == 0 && p1Choice == 4 */\n    tag_108:\n        /* \"RPS.sol\":1713:2038  (p0Choice + 1) % 3 == p1Choice || ... */\n    tag_107:\n        /* \"RPS.sol\":1713:2087  (p0Choice + 1) % 3 == p1Choice || ... */\n      dup1\n      tag_109\n      jumpi\n      pop\n        /* \"RPS.sol\":2068:2069  1 */\n      0x01\n        /* \"RPS.sol\":2056:2064  p0Choice */\n      dup5\n        /* \"RPS.sol\":2056:2069  p0Choice == 1 */\n      eq\n        /* \"RPS.sol\":2056:2086  p0Choice == 1 && p1Choice == 4 */\n      dup1\n      iszero\n      tag_110\n      jumpi\n      pop\n        /* \"RPS.sol\":2085:2086  4 */\n      0x04\n        /* \"RPS.sol\":2073:2081  p1Choice */\n      dup4\n        /* \"RPS.sol\":2073:2086  p1Choice == 4 */\n      eq\n        /* \"RPS.sol\":2056:2086  p0Choice == 1 && p1Choice == 4 */\n    tag_110:\n        /* \"RPS.sol\":1713:2087  (p0Choice + 1) % 3 == p1Choice || ... */\n    tag_109:\n        /* \"RPS.sol\":1709:2804  if ((p0Choice + 1) % 3 == p1Choice || ... */\n      iszero\n      tag_111\n      jumpi\n        /* \"RPS.sol\":2137:2145  account1 */\n      dup1\n        /* \"RPS.sol\":2137:2154  account1.transfer */\n      0xffffffffffffffffffffffffffffffffffffffff\n      and\n        /* \"RPS.sol\":2137:2162  account1.transfer(reward) */\n      0x08fc\n        /* \"RPS.sol\":2155:2161  reward */\n      sload(0x01)\n        /* \"RPS.sol\":2137:2162  account1.transfer(reward) */\n      swap1\n      dup2\n      iszero\n      mul\n      swap1\n      mload(0x40)\n      0x00\n      mload(0x40)\n      dup1\n      dup4\n      sub\n      dup2\n      dup6\n      dup9\n      dup9\n      call\n      swap4\n      pop\n      pop\n      pop\n      pop\n      iszero\n      dup1\n      iszero\n      tag_113\n      jumpi\n      returndatasize\n      0x00\n      dup1\n      returndatacopy\n      revert(0x00, returndatasize)\n    tag_113:\n      pop\n        /* \"RPS.sol\":1709:2804  if ((p0Choice + 1) % 3 == p1Choice || ... */\n      jump(tag_114)\n    tag_111:\n        /* \"RPS.sol\":2215:2223  p0Choice */\n      dup4\n        /* \"RPS.sol\":2210:2211  3 */\n      0x03\n        /* \"RPS.sol\":2205:2206  1 */\n      0x01\n        /* \"RPS.sol\":2194:2202  p1Choice */\n      dup6\n        /* \"RPS.sol\":2194:2206  p1Choice + 1 */\n      tag_115\n      swap2\n      swap1\n      tag_63\n      jump\t// in\n    tag_115:\n        /* \"RPS.sol\":2193:2211  (p1Choice + 1) % 3 */\n      tag_116\n      swap2\n      swap1\n      tag_96\n      jump\t// in\n    tag_116:\n        /* \"RPS.sol\":2193:2223  (p1Choice + 1) % 3 == p0Choice */\n      eq\n        /* \"RPS.sol\":2193:2272  (p1Choice + 1) % 3 == p0Choice ||... */\n      dup1\n      tag_117\n      jumpi\n      pop\n        /* \"RPS.sol\":2253:2254  3 */\n      0x03\n        /* \"RPS.sol\":2241:2249  p1Choice */\n      dup4\n        /* \"RPS.sol\":2241:2254  p1Choice == 3 */\n      eq\n        /* \"RPS.sol\":2241:2271  p1Choice == 3 && p0Choice == 0 */\n      dup1\n      iszero\n      tag_118\n      jumpi\n      pop\n        /* \"RPS.sol\":2270:2271  0 */\n      0x00\n        /* \"RPS.sol\":2258:2266  p0Choice */\n      dup5\n        /* \"RPS.sol\":2258:2271  p0Choice == 0 */\n      eq\n        /* \"RPS.sol\":2241:2271  p1Choice == 3 && p0Choice == 0 */\n    tag_118:\n        /* \"RPS.sol\":2193:2272  (p1Choice + 1) % 3 == p0Choice ||... */\n    tag_117:\n        /* \"RPS.sol\":2193:2321  (p1Choice + 1) % 3 == p0Choice ||... */\n      dup1\n      tag_119\n      jumpi\n      pop\n        /* \"RPS.sol\":2302:2303  4 */\n      0x04\n        /* \"RPS.sol\":2290:2298  p1Choice */\n      dup4\n        /* \"RPS.sol\":2290:2303  p1Choice == 4 */\n      eq\n        /* \"RPS.sol\":2290:2320  p1Choice == 4 && p0Choice == 3 */\n      dup1\n      iszero\n      tag_120\n      jumpi\n      pop\n        /* \"RPS.sol\":2319:2320  3 */\n      0x03\n        /* \"RPS.sol\":2307:2315  p0Choice */\n      dup5\n        /* \"RPS.sol\":2307:2320  p0Choice == 3 */\n      eq\n        /* \"RPS.sol\":2290:2320  p1Choice == 4 && p0Choice == 3 */\n    tag_120:\n        /* \"RPS.sol\":2193:2321  (p1Choice + 1) % 3 == p0Choice ||... */\n    tag_119:\n        /* \"RPS.sol\":2193:2370  (p1Choice + 1) % 3 == p0Choice ||... */\n      dup1\n      tag_121\n      jumpi\n      pop\n        /* \"RPS.sol\":2351:2352  2 */\n      0x02\n        /* \"RPS.sol\":2339:2347  p1Choice */\n      dup4\n        /* \"RPS.sol\":2339:2352  p1Choice == 2 */\n      eq\n        /* \"RPS.sol\":2339:2369  p1Choice == 2 && p0Choice == 4 */\n      dup1\n      iszero\n      tag_122\n      jumpi\n      pop\n        /* \"RPS.sol\":2368:2369  4 */\n      0x04\n        /* \"RPS.sol\":2356:2364  p0Choice */\n      dup5\n        /* \"RPS.sol\":2356:2369  p0Choice == 4 */\n      eq\n        /* \"RPS.sol\":2339:2369  p1Choice == 2 && p0Choice == 4 */\n    tag_122:\n        /* \"RPS.sol\":2193:2370  (p1Choice + 1) % 3 == p0Choice ||... */\n    tag_121:\n        /* \"RPS.sol\":2193:2419  (p1Choice + 1) % 3 == p0Choice ||... */\n      dup1\n      tag_123\n      jumpi\n      pop\n        /* \"RPS.sol\":2400:2401  3 */\n      0x03\n        /* \"RPS.sol\":2388:2396  p1Choice */\n      dup4\n        /* \"RPS.sol\":2388:2401  p1Choice == 3 */\n      eq\n        /* \"RPS.sol\":2388:2418  p1Choice == 3 && p0Choice == 2 */\n      dup1\n      iszero\n      tag_124\n      jumpi\n      pop\n        /* \"RPS.sol\":2417:2418  2 */\n      0x02\n        /* \"RPS.sol\":2405:2413  p0Choice */\n      dup5\n        /* \"RPS.sol\":2405:2418  p0Choice == 2 */\n      eq\n        /* \"RPS.sol\":2388:2418  p1Choice == 3 && p0Choice == 2 */\n    tag_124:\n        /* \"RPS.sol\":2193:2419  (p1Choice + 1) % 3 == p0Choice ||... */\n    tag_123:\n        /* \"RPS.sol\":2193:2468  (p1Choice + 1) % 3 == p0Choice ||... */\n      dup1\n      tag_125\n      jumpi\n      pop\n        /* \"RPS.sol\":2449:2450  1 */\n      0x01\n        /* \"RPS.sol\":2437:2445  p1Choice */\n      dup4\n        /* \"RPS.sol\":2437:2450  p1Choice == 1 */\n      eq\n        /* \"RPS.sol\":2437:2467  p1Choice == 1 && p0Choice == 3 */\n      dup1\n      iszero\n      tag_126\n      jumpi\n      pop\n        /* \"RPS.sol\":2466:2467  3 */\n      0x03\n        /* \"RPS.sol\":2454:2462  p0Choice */\n      dup5\n        /* \"RPS.sol\":2454:2467  p0Choice == 3 */\n      eq\n        /* \"RPS.sol\":2437:2467  p1Choice == 1 && p0Choice == 3 */\n    tag_126:\n        /* \"RPS.sol\":2193:2468  (p1Choice + 1) % 3 == p0Choice ||... */\n    tag_125:\n        /* \"RPS.sol\":2193:2517  (p1Choice + 1) % 3 == p0Choice ||... */\n      dup1\n      tag_127\n      jumpi\n      pop\n        /* \"RPS.sol\":2498:2499  0 */\n      0x00\n        /* \"RPS.sol\":2486:2494  p1Choice */\n      dup4\n        /* \"RPS.sol\":2486:2499  p1Choice == 0 */\n      eq\n        /* \"RPS.sol\":2486:2516  p1Choice == 0 && p0Choice == 4 */\n      dup1\n      iszero\n      tag_128\n      jumpi\n      pop\n        /* \"RPS.sol\":2515:2516  4 */\n      0x04\n        /* \"RPS.sol\":2503:2511  p0Choice */\n      dup5\n        /* \"RPS.sol\":2503:2516  p0Choice == 4 */\n      eq\n        /* \"RPS.sol\":2486:2516  p1Choice == 0 && p0Choice == 4 */\n    tag_128:\n        /* \"RPS.sol\":2193:2517  (p1Choice + 1) % 3 == p0Choice ||... */\n    tag_127:\n        /* \"RPS.sol\":2193:2566  (p1Choice + 1) % 3 == p0Choice ||... */\n      dup1\n      tag_129\n      jumpi\n      pop\n        /* \"RPS.sol\":2547:2548  1 */\n      0x01\n        /* \"RPS.sol\":2535:2543  p1Choice */\n      dup4\n        /* \"RPS.sol\":2535:2548  p1Choice == 1 */\n      eq\n        /* \"RPS.sol\":2535:2565  p1Choice == 1 && p0Choice == 4 */\n      dup1\n      iszero\n      tag_130\n      jumpi\n      pop\n        /* \"RPS.sol\":2564:2565  4 */\n      0x04\n        /* \"RPS.sol\":2552:2560  p0Choice */\n      dup5\n        /* \"RPS.sol\":2552:2565  p0Choice == 4 */\n      eq\n        /* \"RPS.sol\":2535:2565  p1Choice == 1 && p0Choice == 4 */\n    tag_130:\n        /* \"RPS.sol\":2193:2566  (p1Choice + 1) % 3 == p0Choice ||... */\n    tag_129:\n        /* \"RPS.sol\":2189:2804  if ((p1Choice + 1) % 3 == p0Choice ||... */\n      iszero\n      tag_131\n      jumpi\n        /* \"RPS.sol\":2616:2624  account0 */\n      dup2\n        /* \"RPS.sol\":2616:2633  account0.transfer */\n      0xffffffffffffffffffffffffffffffffffffffff\n      and\n        /* \"RPS.sol\":2616:2641  account0.transfer(reward) */\n      0x08fc\n        /* \"RPS.sol\":2634:2640  reward */\n      sload(0x01)\n        /* \"RPS.sol\":2616:2641  account0.transfer(reward) */\n      swap1\n      dup2\n      iszero\n      mul\n      swap1\n      mload(0x40)\n      0x00\n      mload(0x40)\n      dup1\n      dup4\n      sub\n      dup2\n      dup6\n      dup9\n      dup9\n      call\n      swap4\n      pop\n      pop\n      pop\n      pop\n      iszero\n      dup1\n      iszero\n      tag_133\n      jumpi\n      returndatasize\n      0x00\n      dup1\n      returndatacopy\n      revert(0x00, returndatasize)\n    tag_133:\n      pop\n        /* \"RPS.sol\":2189:2804  if ((p1Choice + 1) % 3 == p0Choice ||... */\n      jump(tag_134)\n    tag_131:\n        /* \"RPS.sol\":2719:2727  account0 */\n      dup2\n        /* \"RPS.sol\":2719:2736  account0.transfer */\n      0xffffffffffffffffffffffffffffffffffffffff\n      and\n        /* \"RPS.sol\":2719:2748  account0.transfer(reward / 2) */\n      0x08fc\n        /* \"RPS.sol\":2746:2747  2 */\n      0x02\n        /* \"RPS.sol\":2737:2743  reward */\n      sload(0x01)\n        /* \"RPS.sol\":2737:2747  reward / 2 */\n      tag_135\n      swap2\n      swap1\n      tag_136\n      jump\t// in\n    tag_135:\n        /* \"RPS.sol\":2719:2748  account0.transfer(reward / 2) */\n      swap1\n      dup2\n      iszero\n      mul\n      swap1\n      mload(0x40)\n      0x00\n      mload(0x40)\n      dup1\n      dup4\n      sub\n      dup2\n      dup6\n      dup9\n      dup9\n      call\n      swap4\n      pop\n      pop\n      pop\n      pop\n      iszero\n      dup1\n      iszero\n      tag_138\n      jumpi\n      returndatasize\n      0x00\n      dup1\n      returndatacopy\n      revert(0x00, returndatasize)\n    tag_138:\n      pop\n        /* \"RPS.sol\":2763:2771  account1 */\n      dup1\n        /* \"RPS.sol\":2763:2780  account1.transfer */\n      0xffffffffffffffffffffffffffffffffffffffff\n      and\n        /* \"RPS.sol\":2763:2792  account1.transfer(reward / 2) */\n      0x08fc\n        /* \"RPS.sol\":2790:2791  2 */\n      0x02\n        /* \"RPS.sol\":2781:2787  reward */\n      sload(0x01)\n        /* \"RPS.sol\":2781:2791  reward / 2 */\n      tag_139\n      swap2\n      swap1\n      tag_136\n      jump\t// in\n    tag_139:\n        /* \"RPS.sol\":2763:2792  account1.transfer(reward / 2) */\n      swap1\n      dup2\n      iszero\n      mul\n      swap1\n      mload(0x40)\n      0x00\n      mload(0x40)\n      dup1\n      dup4\n      sub\n      dup2\n      dup6\n      dup9\n      dup9\n      call\n      swap4\n      pop\n      pop\n      pop\n      pop\n      iszero\n      dup1\n      iszero\n      tag_141\n      jumpi\n      returndatasize\n      0x00\n      dup1\n      returndatacopy\n      revert(0x00, returndatasize)\n    tag_141:\n      pop\n        /* \"RPS.sol\":2189:2804  if ((p1Choice + 1) % 3 == p0Choice ||... */\n    tag_134:\n        /* \"RPS.sol\":1709:2804  if ((p0Choice + 1) % 3 == p1Choice || ... */\n    tag_114:\n        /* \"RPS.sol\":2814:2825  resetGame() */\n      tag_142\n        /* \"RPS.sol\":2814:2823  resetGame */\n      tag_143\n        /* \"RPS.sol\":2814:2825  resetGame() */\n      jump\t// in\n    tag_142:\n        /* \"RPS.sol\":1480:2833  {... */\n      pop\n      pop\n      pop\n      pop\n        /* \"RPS.sol\":1442:2833  function _checkWinnerAndPay() private {... */\n      jump\t// out\n        /* \"RPS.sol\":2841:2971  function resetGame() private {... */\n    tag_143:\n        /* \"RPS.sol\":2893:2894  0 */\n      0x00\n        /* \"RPS.sol\":2881:2890  numPlayer */\n      dup1\n        /* \"RPS.sol\":2881:2894  numPlayer = 0 */\n      dup2\n      swap1\n      sstore\n      pop\n        /* \"RPS.sol\":2914:2915  0 */\n      0x00\n        /* \"RPS.sol\":2905:2911  reward */\n      0x01\n        /* \"RPS.sol\":2905:2915  reward = 0 */\n      dup2\n      swap1\n      sstore\n      pop\n        /* \"RPS.sol\":2937:2938  0 */\n      0x00\n        /* \"RPS.sol\":2926:2934  numInput */\n      0x05\n        /* \"RPS.sol\":2926:2938  numInput = 0 */\n      dup2\n      swap1\n      sstore\n      pop\n        /* \"RPS.sol\":2956:2963  players */\n      0x04\n      0x00\n        /* \"RPS.sol\":2949:2963  delete players */\n      tag_145\n      swap2\n      swap1\n      tag_146\n      jump\t// in\n    tag_145:\n        /* \"RPS.sol\":2841:2971  function resetGame() private {... */\n      jump\t// out\n    tag_146:\n      pop\n      dup1\n      sload\n      0x00\n      dup3\n      sstore\n      swap1\n      0x00\n      mstore\n      keccak256(0x00, 0x20)\n      swap1\n      dup2\n      add\n      swap1\n      tag_148\n      swap2\n      swap1\n      tag_149\n      jump\t// in\n    tag_148:\n      pop\n      jump\t// out\n    tag_149:\n    tag_150:\n      dup1\n      dup3\n      gt\n      iszero\n      tag_151\n      jumpi\n      0x00\n      dup2\n      0x00\n      swap1\n      sstore\n      pop\n      0x01\n      add\n      jump(tag_150)\n    tag_151:\n      pop\n      swap1\n      jump\t// out\n        /* \"#utility.yul\":7:84   */\n    tag_152:\n        /* \"#utility.yul\":44:51   */\n      0x00\n        /* \"#utility.yul\":73:78   */\n      dup2\n        /* \"#utility.yul\":62:78   */\n      swap1\n      pop\n        /* \"#utility.yul\":7:84   */\n      swap2\n      swap1\n      pop\n      jump\t// out\n        /* \"#utility.yul\":90:208   */\n    tag_153:\n        /* \"#utility.yul\":177:201   */\n      tag_171\n        /* \"#utility.yul\":195:200   */\n      dup2\n        /* \"#utility.yul\":177:201   */\n      tag_152\n      jump\t// in\n    tag_171:\n        /* \"#utility.yul\":172:175   */\n      dup3\n        /* \"#utility.yul\":165:202   */\n      mstore\n        /* \"#utility.yul\":90:208   */\n      pop\n      pop\n      jump\t// out\n        /* \"#utility.yul\":214:436   */\n    tag_15:\n        /* \"#utility.yul\":307:311   */\n      0x00\n        /* \"#utility.yul\":345:347   */\n      0x20\n        /* \"#utility.yul\":334:343   */\n      dup3\n        /* \"#utility.yul\":330:348   */\n      add\n        /* \"#utility.yul\":322:348   */\n      swap1\n      pop\n        /* \"#utility.yul\":358:429   */\n      tag_173\n        /* \"#utility.yul\":426:427   */\n      0x00\n        /* \"#utility.yul\":415:424   */\n      dup4\n        /* \"#utility.yul\":411:428   */\n      add\n        /* \"#utility.yul\":402:408   */\n      dup5\n        /* \"#utility.yul\":358:429   */\n      tag_153\n      jump\t// in\n    tag_173:\n        /* \"#utility.yul\":214:436   */\n      swap3\n      swap2\n      pop\n      pop\n      jump\t// out\n        /* \"#utility.yul\":523:640   */\n    tag_155:\n        /* \"#utility.yul\":632:633   */\n      0x00\n        /* \"#utility.yul\":629:630   */\n      dup1\n        /* \"#utility.yul\":622:634   */\n      revert\n        /* \"#utility.yul\":769:895   */\n    tag_157:\n        /* \"#utility.yul\":806:813   */\n      0x00\n        /* \"#utility.yul\":846:888   */\n      0xffffffffffffffffffffffffffffffffffffffff\n        /* \"#utility.yul\":839:844   */\n      dup3\n        /* \"#utility.yul\":835:889   */\n      and\n        /* \"#utility.yul\":824:889   */\n      swap1\n      pop\n        /* \"#utility.yul\":769:895   */\n      swap2\n      swap1\n      pop\n      jump\t// out\n        /* \"#utility.yul\":901:997   */\n    tag_158:\n        /* \"#utility.yul\":938:945   */\n      0x00\n        /* \"#utility.yul\":967:991   */\n      tag_179\n        /* \"#utility.yul\":985:990   */\n      dup3\n        /* \"#utility.yul\":967:991   */\n      tag_157\n      jump\t// in\n    tag_179:\n        /* \"#utility.yul\":956:991   */\n      swap1\n      pop\n        /* \"#utility.yul\":901:997   */\n      swap2\n      swap1\n      pop\n      jump\t// out\n        /* \"#utility.yul\":1003:1125   */\n    tag_159:\n        /* \"#utility.yul\":1076:1100   */\n      tag_181\n        /* \"#utility.yul\":1094:1099   */\n      dup2\n        /* \"#utility.yul\":1076:1100   */\n      tag_158\n      jump\t// in\n    tag_181:\n        /* \"#utility.yul\":1069:1074   */\n      dup2\n        /* \"#utility.yul\":1066:1101   */\n      eq\n        /* \"#utility.yul\":1056:1119   */\n      tag_182\n      jumpi\n        /* \"#utility.yul\":1115:1116   */\n      0x00\n        /* \"#utility.yul\":1112:1113   */\n      dup1\n        /* \"#utility.yul\":1105:1117   */\n      revert\n        /* \"#utility.yul\":1056:1119   */\n    tag_182:\n        /* \"#utility.yul\":1003:1125   */\n      pop\n      jump\t// out\n        /* \"#utility.yul\":1131:1270   */\n    tag_160:\n        /* \"#utility.yul\":1177:1182   */\n      0x00\n        /* \"#utility.yul\":1215:1221   */\n      dup2\n        /* \"#utility.yul\":1202:1222   */\n      calldataload\n        /* \"#utility.yul\":1193:1222   */\n      swap1\n      pop\n        /* \"#utility.yul\":1231:1264   */\n      tag_184\n        /* \"#utility.yul\":1258:1263   */\n      dup2\n        /* \"#utility.yul\":1231:1264   */\n      tag_159\n      jump\t// in\n    tag_184:\n        /* \"#utility.yul\":1131:1270   */\n      swap3\n      swap2\n      pop\n      pop\n      jump\t// out\n        /* \"#utility.yul\":1276:1605   */\n    tag_19:\n        /* \"#utility.yul\":1335:1341   */\n      0x00\n        /* \"#utility.yul\":1384:1386   */\n      0x20\n        /* \"#utility.yul\":1372:1381   */\n      dup3\n        /* \"#utility.yul\":1363:1370   */\n      dup5\n        /* \"#utility.yul\":1359:1382   */\n      sub\n        /* \"#utility.yul\":1355:1387   */\n      slt\n        /* \"#utility.yul\":1352:1471   */\n      iszero\n      tag_186\n      jumpi\n        /* \"#utility.yul\":1390:1469   */\n      tag_187\n      tag_155\n      jump\t// in\n    tag_187:\n        /* \"#utility.yul\":1352:1471   */\n    tag_186:\n        /* \"#utility.yul\":1510:1511   */\n      0x00\n        /* \"#utility.yul\":1535:1588   */\n      tag_188\n        /* \"#utility.yul\":1580:1587   */\n      dup5\n        /* \"#utility.yul\":1571:1577   */\n      dup3\n        /* \"#utility.yul\":1560:1569   */\n      dup6\n        /* \"#utility.yul\":1556:1578   */\n      add\n        /* \"#utility.yul\":1535:1588   */\n      tag_160\n      jump\t// in\n    tag_188:\n        /* \"#utility.yul\":1525:1588   */\n      swap2\n      pop\n        /* \"#utility.yul\":1481:1598   */\n      pop\n        /* \"#utility.yul\":1276:1605   */\n      swap3\n      swap2\n      pop\n      pop\n      jump\t// out\n        /* \"#utility.yul\":1611:1701   */\n    tag_161:\n        /* \"#utility.yul\":1645:1652   */\n      0x00\n        /* \"#utility.yul\":1688:1693   */\n      dup2\n        /* \"#utility.yul\":1681:1694   */\n      iszero\n        /* \"#utility.yul\":1674:1695   */\n      iszero\n        /* \"#utility.yul\":1663:1695   */\n      swap1\n      pop\n        /* \"#utility.yul\":1611:1701   */\n      swap2\n      swap1\n      pop\n      jump\t// out\n        /* \"#utility.yul\":1707:1816   */\n    tag_162:\n        /* \"#utility.yul\":1788:1809   */\n      tag_191\n        /* \"#utility.yul\":1803:1808   */\n      dup2\n        /* \"#utility.yul\":1788:1809   */\n      tag_161\n      jump\t// in\n    tag_191:\n        /* \"#utility.yul\":1783:1786   */\n      dup3\n        /* \"#utility.yul\":1776:1810   */\n      mstore\n        /* \"#utility.yul\":1707:1816   */\n      pop\n      pop\n      jump\t// out\n        /* \"#utility.yul\":1822:2032   */\n    tag_22:\n        /* \"#utility.yul\":1909:1913   */\n      0x00\n        /* \"#utility.yul\":1947:1949   */\n      0x20\n        /* \"#utility.yul\":1936:1945   */\n      dup3\n        /* \"#utility.yul\":1932:1950   */\n      add\n        /* \"#utility.yul\":1924:1950   */\n      swap1\n      pop\n        /* \"#utility.yul\":1960:2025   */\n      tag_193\n        /* \"#utility.yul\":2022:2023   */\n      0x00\n        /* \"#utility.yul\":2011:2020   */\n      dup4\n        /* \"#utility.yul\":2007:2024   */\n      add\n        /* \"#utility.yul\":1998:2004   */\n      dup5\n        /* \"#utility.yul\":1960:2025   */\n      tag_162\n      jump\t// in\n    tag_193:\n        /* \"#utility.yul\":1822:2032   */\n      swap3\n      swap2\n      pop\n      pop\n      jump\t// out\n        /* \"#utility.yul\":2038:2160   */\n    tag_163:\n        /* \"#utility.yul\":2111:2135   */\n      tag_195\n        /* \"#utility.yul\":2129:2134   */\n      dup2\n        /* \"#utility.yul\":2111:2135   */\n      tag_152\n      jump\t// in\n    tag_195:\n        /* \"#utility.yul\":2104:2109   */\n      dup2\n        /* \"#utility.yul\":2101:2136   */\n      eq\n        /* \"#utility.yul\":2091:2154   */\n      tag_196\n      jumpi\n        /* \"#utility.yul\":2150:2151   */\n      0x00\n        /* \"#utility.yul\":2147:2148   */\n      dup1\n        /* \"#utility.yul\":2140:2152   */\n      revert\n        /* \"#utility.yul\":2091:2154   */\n    tag_196:\n        /* \"#utility.yul\":2038:2160   */\n      pop\n      jump\t// out\n        /* \"#utility.yul\":2166:2305   */\n    tag_164:\n        /* \"#utility.yul\":2212:2217   */\n      0x00\n        /* \"#utility.yul\":2250:2256   */\n      dup2\n        /* \"#utility.yul\":2237:2257   */\n      calldataload\n        /* \"#utility.yul\":2228:2257   */\n      swap1\n      pop\n        /* \"#utility.yul\":2266:2299   */\n      tag_198\n        /* \"#utility.yul\":2293:2298   */\n      dup2\n        /* \"#utility.yul\":2266:2299   */\n      tag_163\n      jump\t// in\n    tag_198:\n        /* \"#utility.yul\":2166:2305   */\n      swap3\n      swap2\n      pop\n      pop\n      jump\t// out\n        /* \"#utility.yul\":2311:2640   */\n    tag_41:\n        /* \"#utility.yul\":2370:2376   */\n      0x00\n        /* \"#utility.yul\":2419:2421   */\n      0x20\n        /* \"#utility.yul\":2407:2416   */\n      dup3\n        /* \"#utility.yul\":2398:2405   */\n      dup5\n        /* \"#utility.yul\":2394:2417   */\n      sub\n        /* \"#utility.yul\":2390:2422   */\n      slt\n        /* \"#utility.yul\":2387:2506   */\n      iszero\n      tag_200\n      jumpi\n        /* \"#utility.yul\":2425:2504   */\n      tag_201\n      tag_155\n      jump\t// in\n    tag_201:\n        /* \"#utility.yul\":2387:2506   */\n    tag_200:\n        /* \"#utility.yul\":2545:2546   */\n      0x00\n        /* \"#utility.yul\":2570:2623   */\n      tag_202\n        /* \"#utility.yul\":2615:2622   */\n      dup5\n        /* \"#utility.yul\":2606:2612   */\n      dup3\n        /* \"#utility.yul\":2595:2604   */\n      dup6\n        /* \"#utility.yul\":2591:2613   */\n      add\n        /* \"#utility.yul\":2570:2623   */\n      tag_164\n      jump\t// in\n    tag_202:\n        /* \"#utility.yul\":2560:2623   */\n      swap2\n      pop\n        /* \"#utility.yul\":2516:2633   */\n      pop\n        /* \"#utility.yul\":2311:2640   */\n      swap3\n      swap2\n      pop\n      pop\n      jump\t// out\n        /* \"#utility.yul\":2646:2764   */\n    tag_165:\n        /* \"#utility.yul\":2733:2757   */\n      tag_204\n        /* \"#utility.yul\":2751:2756   */\n      dup2\n        /* \"#utility.yul\":2733:2757   */\n      tag_158\n      jump\t// in\n    tag_204:\n        /* \"#utility.yul\":2728:2731   */\n      dup3\n        /* \"#utility.yul\":2721:2758   */\n      mstore\n        /* \"#utility.yul\":2646:2764   */\n      pop\n      pop\n      jump\t// out\n        /* \"#utility.yul\":2770:2992   */\n    tag_48:\n        /* \"#utility.yul\":2863:2867   */\n      0x00\n        /* \"#utility.yul\":2901:2903   */\n      0x20\n        /* \"#utility.yul\":2890:2899   */\n      dup3\n        /* \"#utility.yul\":2886:2904   */\n      add\n        /* \"#utility.yul\":2878:2904   */\n      swap1\n      pop\n        /* \"#utility.yul\":2914:2985   */\n      tag_206\n        /* \"#utility.yul\":2982:2983   */\n      0x00\n        /* \"#utility.yul\":2971:2980   */\n      dup4\n        /* \"#utility.yul\":2967:2984   */\n      add\n        /* \"#utility.yul\":2958:2964   */\n      dup5\n        /* \"#utility.yul\":2914:2985   */\n      tag_165\n      jump\t// in\n    tag_206:\n        /* \"#utility.yul\":2770:2992   */\n      swap3\n      swap2\n      pop\n      pop\n      jump\t// out\n        /* \"#utility.yul\":2998:3178   */\n    tag_58:\n        /* \"#utility.yul\":3046:3123   */\n      0x4e487b7100000000000000000000000000000000000000000000000000000000\n        /* \"#utility.yul\":3043:3044   */\n      0x00\n        /* \"#utility.yul\":3036:3124   */\n      mstore\n        /* \"#utility.yul\":3143:3147   */\n      0x32\n        /* \"#utility.yul\":3140:3141   */\n      0x04\n        /* \"#utility.yul\":3133:3148   */\n      mstore\n        /* \"#utility.yul\":3167:3171   */\n      0x24\n        /* \"#utility.yul\":3164:3165   */\n      0x00\n        /* \"#utility.yul\":3157:3172   */\n      revert\n        /* \"#utility.yul\":3184:3364   */\n    tag_166:\n        /* \"#utility.yul\":3232:3309   */\n      0x4e487b7100000000000000000000000000000000000000000000000000000000\n        /* \"#utility.yul\":3229:3230   */\n      0x00\n        /* \"#utility.yul\":3222:3310   */\n      mstore\n        /* \"#utility.yul\":3329:3333   */\n      0x11\n        /* \"#utility.yul\":3326:3327   */\n      0x04\n        /* \"#utility.yul\":3319:3334   */\n      mstore\n        /* \"#utility.yul\":3353:3357   */\n      0x24\n        /* \"#utility.yul\":3350:3351   */\n      0x00\n        /* \"#utility.yul\":3343:3358   */\n      revert\n        /* \"#utility.yul\":3370:3561   */\n    tag_63:\n        /* \"#utility.yul\":3410:3413   */\n      0x00\n        /* \"#utility.yul\":3429:3449   */\n      tag_210\n        /* \"#utility.yul\":3447:3448   */\n      dup3\n        /* \"#utility.yul\":3429:3449   */\n      tag_152\n      jump\t// in\n    tag_210:\n        /* \"#utility.yul\":3424:3449   */\n      swap2\n      pop\n        /* \"#utility.yul\":3463:3483   */\n      tag_211\n        /* \"#utility.yul\":3481:3482   */\n      dup4\n        /* \"#utility.yul\":3463:3483   */\n      tag_152\n      jump\t// in\n    tag_211:\n        /* \"#utility.yul\":3458:3483   */\n      swap3\n      pop\n        /* \"#utility.yul\":3506:3507   */\n      dup3\n        /* \"#utility.yul\":3503:3504   */\n      dup3\n        /* \"#utility.yul\":3499:3508   */\n      add\n        /* \"#utility.yul\":3492:3508   */\n      swap1\n      pop\n        /* \"#utility.yul\":3527:3530   */\n      dup1\n        /* \"#utility.yul\":3524:3525   */\n      dup3\n        /* \"#utility.yul\":3521:3531   */\n      gt\n        /* \"#utility.yul\":3518:3554   */\n      iszero\n      tag_212\n      jumpi\n        /* \"#utility.yul\":3534:3552   */\n      tag_213\n      tag_166\n      jump\t// in\n    tag_213:\n        /* \"#utility.yul\":3518:3554   */\n    tag_212:\n        /* \"#utility.yul\":3370:3561   */\n      swap3\n      swap2\n      pop\n      pop\n      jump\t// out\n        /* \"#utility.yul\":3567:3800   */\n    tag_66:\n        /* \"#utility.yul\":3606:3609   */\n      0x00\n        /* \"#utility.yul\":3629:3653   */\n      tag_215\n        /* \"#utility.yul\":3647:3652   */\n      dup3\n        /* \"#utility.yul\":3629:3653   */\n      tag_152\n      jump\t// in\n    tag_215:\n        /* \"#utility.yul\":3620:3653   */\n      swap2\n      pop\n        /* \"#utility.yul\":3675:3741   */\n      0xffffffffffffffffffffffffffffffffffffffffffffffffffffffffffffffff\n        /* \"#utility.yul\":3668:3673   */\n      dup3\n        /* \"#utility.yul\":3665:3742   */\n      sub\n        /* \"#utility.yul\":3662:3765   */\n      tag_216\n      jumpi\n        /* \"#utility.yul\":3745:3763   */\n      tag_217\n      tag_166\n      jump\t// in\n    tag_217:\n        /* \"#utility.yul\":3662:3765   */\n    tag_216:\n        /* \"#utility.yul\":3792:3793   */\n      0x01\n        /* \"#utility.yul\":3785:3790   */\n      dup3\n        /* \"#utility.yul\":3781:3794   */\n      add\n        /* \"#utility.yul\":3774:3794   */\n      swap1\n      pop\n        /* \"#utility.yul\":3567:3800   */\n      swap2\n      swap1\n      pop\n      jump\t// out\n        /* \"#utility.yul\":3806:3986   */\n    tag_167:\n        /* \"#utility.yul\":3854:3931   */\n      0x4e487b7100000000000000000000000000000000000000000000000000000000\n        /* \"#utility.yul\":3851:3852   */\n      0x00\n        /* \"#utility.yul\":3844:3932   */\n      mstore\n        /* \"#utility.yul\":3951:3955   */\n      0x12\n        /* \"#utility.yul\":3948:3949   */\n      0x04\n        /* \"#utility.yul\":3941:3956   */\n      mstore\n        /* \"#utility.yul\":3975:3979   */\n      0x24\n        /* \"#utility.yul\":3972:3973   */\n      0x00\n        /* \"#utility.yul\":3965:3980   */\n      revert\n        /* \"#utility.yul\":3992:4168   */\n    tag_96:\n        /* \"#utility.yul\":4024:4025   */\n      0x00\n        /* \"#utility.yul\":4041:4061   */\n      tag_220\n        /* \"#utility.yul\":4059:4060   */\n      dup3\n        /* \"#utility.yul\":4041:4061   */\n      tag_152\n      jump\t// in\n    tag_220:\n        /* \"#utility.yul\":4036:4061   */\n      swap2\n      pop\n        /* \"#utility.yul\":4075:4095   */\n      tag_221\n        /* \"#utility.yul\":4093:4094   */\n      dup4\n        /* \"#utility.yul\":4075:4095   */\n      tag_152\n      jump\t// in\n    tag_221:\n        /* \"#utility.yul\":4070:4095   */\n      swap3\n      pop\n        /* \"#utility.yul\":4114:4115   */\n      dup3\n        /* \"#utility.yul\":4104:4139   */\n      tag_222\n      jumpi\n        /* \"#utility.yul\":4119:4137   */\n      tag_223\n      tag_167\n      jump\t// in\n    tag_223:\n        /* \"#utility.yul\":4104:4139   */\n    tag_222:\n        /* \"#utility.yul\":4160:4161   */\n      dup3\n        /* \"#utility.yul\":4157:4158   */\n      dup3\n        /* \"#utility.yul\":4153:4162   */\n      mod\n        /* \"#utility.yul\":4148:4162   */\n      swap1\n      pop\n        /* \"#utility.yul\":3992:4168   */\n      swap3\n      swap2\n      pop\n      pop\n      jump\t// out\n        /* \"#utility.yul\":4174:4359   */\n    tag_136:\n        /* \"#utility.yul\":4214:4215   */\n      0x00\n        /* \"#utility.yul\":4231:4251   */\n      tag_225\n        /* \"#utility.yul\":4249:4250   */\n      dup3\n        /* \"#utility.yul\":4231:4251   */\n      tag_152\n      jump\t// in\n    tag_225:\n        /* \"#utility.yul\":4226:4251   */\n      swap2\n      pop\n        /* \"#utility.yul\":4265:4285   */\n      tag_226\n        /* \"#utility.yul\":4283:4284   */\n      dup4\n        /* \"#utility.yul\":4265:4285   */\n      tag_152\n      jump\t// in\n    tag_226:\n        /* \"#utility.yul\":4260:4285   */\n      swap3\n      pop\n        /* \"#utility.yul\":4304:4305   */\n      dup3\n        /* \"#utility.yul\":4294:4329   */\n      tag_227\n      jumpi\n        /* \"#utility.yul\":4309:4327   */\n      tag_228\n      tag_167\n      jump\t// in\n    tag_228:\n        /* \"#utility.yul\":4294:4329   */\n    tag_227:\n        /* \"#utility.yul\":4351:4352   */\n      dup3\n        /* \"#utility.yul\":4348:4349   */\n      dup3\n        /* \"#utility.yul\":4344:4353   */\n      div\n        /* \"#utility.yul\":4339:4353   */\n      swap1\n      pop\n        /* \"#utility.yul\":4174:4359   */\n      swap3\n      swap2\n      pop\n      pop\n      jump\t// out\n\n    auxdata: 0xa2646970667358221220def05c793b281fc2de7de417d88097d9752470a7a7e240f872ce0c052f0afa9064736f6c634300081a0033\n}\n",
				"bytecode": {
					"linkReferences": {},
					"object": "60806040525f80555f6001555f6005553480156019575f80fd5b50610e00806100275f395ff3fe60806040526004361061007a575f3560e01c806390d5d0c31161004d57806390d5d0c314610118578063a040478d14610142578063ce6e1c4e1461017e578063f71d96cb146101a65761007a565b8063086f78151461007e578063190cf745146100a8578063228cb733146100e457806327b5db8a1461010e575b5f80fd5b348015610089575f80fd5b506100926101e2565b60405161009f9190610b17565b60405180910390f35b3480156100b3575f80fd5b506100ce60048036038101906100c99190610b8e565b6101e8565b6040516100db9190610bd3565b60405180910390f35b3480156100ef575f80fd5b506100f8610205565b6040516101059190610b17565b60405180910390f35b61011661020b565b005b348015610123575f80fd5b5061012c6104b5565b6040516101399190610b17565b60405180910390f35b34801561014d575f80fd5b5061016860048036038101906101639190610b8e565b6104ba565b6040516101759190610b17565b60405180910390f35b348015610189575f80fd5b506101a4600480360381019061019f9190610c16565b6104cf565b005b3480156101b1575f80fd5b506101cc60048036038101906101c79190610c16565b610628565b6040516101d99190610c50565b60405180910390f35b60055481565b6003602052805f5260405f205f915054906101000a900460ff1681565b60015481565b60025f5410610218575f80fd5b735b38da6a701c568545dcfcb03fcb875f56beddc473ffffffffffffffffffffffffffffffffffffffff163373ffffffffffffffffffffffffffffffffffffffff1614806102a5575073ab8483f64d9c6d1ecf9b849ae677dd3315835cb273ffffffffffffffffffffffffffffffffffffffff163373ffffffffffffffffffffffffffffffffffffffff16145b806102ef5750734b20993bc481177ec7e8f571cecae8a9e22c02db73ffffffffffffffffffffffffffffffffffffffff163373ffffffffffffffffffffffffffffffffffffffff16145b8061033957507378731d3ca6b7e34ac0f824c42a7cc18a495cabab73ffffffffffffffffffffffffffffffffffffffff163373ffffffffffffffffffffffffffffffffffffffff16145b610341575f80fd5b5f805411156103bd5760045f8154811061035e5761035d610c69565b5b905f5260205f20015f9054906101000a900473ffffffffffffffffffffffffffffffffffffffff1673ffffffffffffffffffffffffffffffffffffffff163373ffffffffffffffffffffffffffffffffffffffff16036103bc575f80fd5b5b670de0b6b3a764000034146103d0575f80fd5b3460015f8282546103e19190610cc3565b92505081905550600160035f3373ffffffffffffffffffffffffffffffffffffffff1673ffffffffffffffffffffffffffffffffffffffff1681526020019081526020015f205f6101000a81548160ff021916908315150217905550600433908060018154018082558091505060019003905f5260205f20015f9091909190916101000a81548173ffffffffffffffffffffffffffffffffffffffff021916908373ffffffffffffffffffffffffffffffffffffffff1602179055505f808154809291906104ae90610cf6565b9190505550565b5f5481565b6002602052805f5260405f205f915090505481565b60025f54146104dc575f80fd5b60035f3373ffffffffffffffffffffffffffffffffffffffff1673ffffffffffffffffffffffffffffffffffffffff1681526020019081526020015f205f9054906101000a900460ff1661052e575f80fd5b5f81148061053c5750600181145b806105475750600281145b806105525750600381145b8061055d5750600481145b610565575f80fd5b8060025f3373ffffffffffffffffffffffffffffffffffffffff1673ffffffffffffffffffffffffffffffffffffffff1681526020019081526020015f20819055505f60035f3373ffffffffffffffffffffffffffffffffffffffff1673ffffffffffffffffffffffffffffffffffffffff1681526020019081526020015f205f6101000a81548160ff02191690831515021790555060055f81548092919061060d90610cf6565b919050555060026005540361062557610624610663565b5b50565b60048181548110610637575f80fd5b905f5260205f20015f915054906101000a900473ffffffffffffffffffffffffffffffffffffffff1681565b5f60025f60045f8154811061067b5761067a610c69565b5b905f5260205f20015f9054906101000a900473ffffffffffffffffffffffffffffffffffffffff1673ffffffffffffffffffffffffffffffffffffffff1673ffffffffffffffffffffffffffffffffffffffff1681526020019081526020015f205490505f60025f60046001815481106106f8576106f7610c69565b5b905f5260205f20015f9054906101000a900473ffffffffffffffffffffffffffffffffffffffff1673ffffffffffffffffffffffffffffffffffffffff1673ffffffffffffffffffffffffffffffffffffffff1681526020019081526020015f205490505f60045f8154811061077157610770610c69565b5b905f5260205f20015f9054906101000a900473ffffffffffffffffffffffffffffffffffffffff1690505f60046001815481106107b1576107b0610c69565b5b905f5260205f20015f9054906101000a900473ffffffffffffffffffffffffffffffffffffffff1690508260036001866107eb9190610cc3565b6107f59190610d6a565b148061080c575060038414801561080b57505f83145b5b8061082357506004841480156108225750600383145b5b8061083a57506002841480156108395750600483145b5b8061085157506003841480156108505750600283145b5b8061086857506001841480156108675750600383145b5b8061087e57505f8414801561087d5750600483145b5b8061089557506001841480156108945750600483145b5b156108e5578073ffffffffffffffffffffffffffffffffffffffff166108fc60015490811502906040515f60405180830381858888f193505050501580156108df573d5f803e3d5ffd5b50610a95565b8360036001856108f59190610cc3565b6108ff9190610d6a565b1480610916575060038314801561091557505f84145b5b8061092d575060048314801561092c5750600384145b5b8061094457506002831480156109435750600484145b5b8061095b575060038314801561095a5750600284145b5b8061097257506001831480156109715750600384145b5b8061098857505f831480156109875750600484145b5b8061099f575060018314801561099e5750600484145b5b156109ef578173ffffffffffffffffffffffffffffffffffffffff166108fc60015490811502906040515f60405180830381858888f193505050501580156109e9573d5f803e3d5ffd5b50610a94565b8173ffffffffffffffffffffffffffffffffffffffff166108fc6002600154610a189190610d9a565b90811502906040515f60405180830381858888f19350505050158015610a40573d5f803e3d5ffd5b508073ffffffffffffffffffffffffffffffffffffffff166108fc6002600154610a6a9190610d9a565b90811502906040515f60405180830381858888f19350505050158015610a92573d5f803e3d5ffd5b505b5b610a9d610aa3565b50505050565b5f80819055505f6001819055505f60058190555060045f610ac49190610ac6565b565b5080545f8255905f5260205f2090810190610ae19190610ae4565b50565b5b80821115610afb575f815f905550600101610ae5565b5090565b5f819050919050565b610b1181610aff565b82525050565b5f602082019050610b2a5f830184610b08565b92915050565b5f80fd5b5f73ffffffffffffffffffffffffffffffffffffffff82169050919050565b5f610b5d82610b34565b9050919050565b610b6d81610b53565b8114610b77575f80fd5b50565b5f81359050610b8881610b64565b92915050565b5f60208284031215610ba357610ba2610b30565b5b5f610bb084828501610b7a565b91505092915050565b5f8115159050919050565b610bcd81610bb9565b82525050565b5f602082019050610be65f830184610bc4565b92915050565b610bf581610aff565b8114610bff575f80fd5b50565b5f81359050610c1081610bec565b92915050565b5f60208284031215610c2b57610c2a610b30565b5b5f610c3884828501610c02565b91505092915050565b610c4a81610b53565b82525050565b5f602082019050610c635f830184610c41565b92915050565b7f4e487b71000000000000000000000000000000000000000000000000000000005f52603260045260245ffd5b7f4e487b71000000000000000000000000000000000000000000000000000000005f52601160045260245ffd5b5f610ccd82610aff565b9150610cd883610aff565b9250828201905080821115610cf057610cef610c96565b5b92915050565b5f610d0082610aff565b91507fffffffffffffffffffffffffffffffffffffffffffffffffffffffffffffffff8203610d3257610d31610c96565b5b600182019050919050565b7f4e487b71000000000000000000000000000000000000000000000000000000005f52601260045260245ffd5b5f610d7482610aff565b9150610d7f83610aff565b925082610d8f57610d8e610d3d565b5b828206905092915050565b5f610da482610aff565b9150610daf83610aff565b925082610dbf57610dbe610d3d565b5b82820490509291505056fea2646970667358221220def05c793b281fc2de7de417d88097d9752470a7a7e240f872ce0c052f0afa9064736f6c634300081a0033",
					"opcodes": "PUSH1 0x80 PUSH1 0x40 MSTORE PUSH0 DUP1 SSTORE PUSH0 PUSH1 0x1 SSTORE PUSH0 PUSH1 0x5 SSTORE CALLVALUE DUP1 ISZERO PUSH1 0x19 JUMPI PUSH0 DUP1 REVERT JUMPDEST POP PUSH2 0xE00 DUP1 PUSH2 0x27 PUSH0 CODECOPY PUSH0 RETURN INVALID PUSH1 0x80 PUSH1 0x40 MSTORE PUSH1 0x4 CALLDATASIZE LT PUSH2 0x7A JUMPI PUSH0 CALLDATALOAD PUSH1 0xE0 SHR DUP1 PUSH4 0x90D5D0C3 GT PUSH2 0x4D JUMPI DUP1 PUSH4 0x90D5D0C3 EQ PUSH2 0x118 JUMPI DUP1 PUSH4 0xA040478D EQ PUSH2 0x142 JUMPI DUP1 PUSH4 0xCE6E1C4E EQ PUSH2 0x17E JUMPI DUP1 PUSH4 0xF71D96CB EQ PUSH2 0x1A6 JUMPI PUSH2 0x7A JUMP JUMPDEST DUP1 PUSH4 0x86F7815 EQ PUSH2 0x7E JUMPI DUP1 PUSH4 0x190CF745 EQ PUSH2 0xA8 JUMPI DUP1 PUSH4 0x228CB733 EQ PUSH2 0xE4 JUMPI DUP1 PUSH4 0x27B5DB8A EQ PUSH2 0x10E JUMPI JUMPDEST PUSH0 DUP1 REVERT JUMPDEST CALLVALUE DUP1 ISZERO PUSH2 0x89 JUMPI PUSH0 DUP1 REVERT JUMPDEST POP PUSH2 0x92 PUSH2 0x1E2 JUMP JUMPDEST PUSH1 0x40 MLOAD PUSH2 0x9F SWAP2 SWAP1 PUSH2 0xB17 JUMP JUMPDEST PUSH1 0x40 MLOAD DUP1 SWAP2 SUB SWAP1 RETURN JUMPDEST CALLVALUE DUP1 ISZERO PUSH2 0xB3 JUMPI PUSH0 DUP1 REVERT JUMPDEST POP PUSH2 0xCE PUSH1 0x4 DUP1 CALLDATASIZE SUB DUP2 ADD SWAP1 PUSH2 0xC9 SWAP2 SWAP1 PUSH2 0xB8E JUMP JUMPDEST PUSH2 0x1E8 JUMP JUMPDEST PUSH1 0x40 MLOAD PUSH2 0xDB SWAP2 SWAP1 PUSH2 0xBD3 JUMP JUMPDEST PUSH1 0x40 MLOAD DUP1 SWAP2 SUB SWAP1 RETURN JUMPDEST CALLVALUE DUP1 ISZERO PUSH2 0xEF JUMPI PUSH0 DUP1 REVERT JUMPDEST POP PUSH2 0xF8 PUSH2 0x205 JUMP JUMPDEST PUSH1 0x40 MLOAD PUSH2 0x105 SWAP2 SWAP1 PUSH2 0xB17 JUMP JUMPDEST PUSH1 0x40 MLOAD DUP1 SWAP2 SUB SWAP1 RETURN JUMPDEST PUSH2 0x116 PUSH2 0x20B JUMP JUMPDEST STOP JUMPDEST CALLVALUE DUP1 ISZERO PUSH2 0x123 JUMPI PUSH0 DUP1 REVERT JUMPDEST POP PUSH2 0x12C PUSH2 0x4B5 JUMP JUMPDEST PUSH1 0x40 MLOAD PUSH2 0x139 SWAP2 SWAP1 PUSH2 0xB17 JUMP JUMPDEST PUSH1 0x40 MLOAD DUP1 SWAP2 SUB SWAP1 RETURN JUMPDEST CALLVALUE DUP1 ISZERO PUSH2 0x14D JUMPI PUSH0 DUP1 REVERT JUMPDEST POP PUSH2 0x168 PUSH1 0x4 DUP1 CALLDATASIZE SUB DUP2 ADD SWAP1 PUSH2 0x163 SWAP2 SWAP1 PUSH2 0xB8E JUMP JUMPDEST PUSH2 0x4BA JUMP JUMPDEST PUSH1 0x40 MLOAD PUSH2 0x175 SWAP2 SWAP1 PUSH2 0xB17 JUMP JUMPDEST PUSH1 0x40 MLOAD DUP1 SWAP2 SUB SWAP1 RETURN JUMPDEST CALLVALUE DUP1 ISZERO PUSH2 0x189 JUMPI PUSH0 DUP1 REVERT JUMPDEST POP PUSH2 0x1A4 PUSH1 0x4 DUP1 CALLDATASIZE SUB DUP2 ADD SWAP1 PUSH2 0x19F SWAP2 SWAP1 PUSH2 0xC16 JUMP JUMPDEST PUSH2 0x4CF JUMP JUMPDEST STOP JUMPDEST CALLVALUE DUP1 ISZERO PUSH2 0x1B1 JUMPI PUSH0 DUP1 REVERT JUMPDEST POP PUSH2 0x1CC PUSH1 0x4 DUP1 CALLDATASIZE SUB DUP2 ADD SWAP1 PUSH2 0x1C7 SWAP2 SWAP1 PUSH2 0xC16 JUMP JUMPDEST PUSH2 0x628 JUMP JUMPDEST PUSH1 0x40 MLOAD PUSH2 0x1D9 SWAP2 SWAP1 PUSH2 0xC50 JUMP JUMPDEST PUSH1 0x40 MLOAD DUP1 SWAP2 SUB SWAP1 RETURN JUMPDEST PUSH1 0x5 SLOAD DUP2 JUMP JUMPDEST PUSH1 0x3 PUSH1 0x20 MSTORE DUP1 PUSH0 MSTORE PUSH1 0x40 PUSH0 KECCAK256 PUSH0 SWAP2 POP SLOAD SWAP1 PUSH2 0x100 EXP SWAP1 DIV PUSH1 0xFF AND DUP2 JUMP JUMPDEST PUSH1 0x1 SLOAD DUP2 JUMP JUMPDEST PUSH1 0x2 PUSH0 SLOAD LT PUSH2 0x218 JUMPI PUSH0 DUP1 REVERT JUMPDEST PUSH20 0x5B38DA6A701C568545DCFCB03FCB875F56BEDDC4 PUSH20 0xFFFFFFFFFFFFFFFFFFFFFFFFFFFFFFFFFFFFFFFF AND CALLER PUSH20 0xFFFFFFFFFFFFFFFFFFFFFFFFFFFFFFFFFFFFFFFF AND EQ DUP1 PUSH2 0x2A5 JUMPI POP PUSH20 0xAB8483F64D9C6D1ECF9B849AE677DD3315835CB2 PUSH20 0xFFFFFFFFFFFFFFFFFFFFFFFFFFFFFFFFFFFFFFFF AND CALLER PUSH20 0xFFFFFFFFFFFFFFFFFFFFFFFFFFFFFFFFFFFFFFFF AND EQ JUMPDEST DUP1 PUSH2 0x2EF JUMPI POP PUSH20 0x4B20993BC481177EC7E8F571CECAE8A9E22C02DB PUSH20 0xFFFFFFFFFFFFFFFFFFFFFFFFFFFFFFFFFFFFFFFF AND CALLER PUSH20 0xFFFFFFFFFFFFFFFFFFFFFFFFFFFFFFFFFFFFFFFF AND EQ JUMPDEST DUP1 PUSH2 0x339 JUMPI POP PUSH20 0x78731D3CA6B7E34AC0F824C42A7CC18A495CABAB PUSH20 0xFFFFFFFFFFFFFFFFFFFFFFFFFFFFFFFFFFFFFFFF AND CALLER PUSH20 0xFFFFFFFFFFFFFFFFFFFFFFFFFFFFFFFFFFFFFFFF AND EQ JUMPDEST PUSH2 0x341 JUMPI PUSH0 DUP1 REVERT JUMPDEST PUSH0 DUP1 SLOAD GT ISZERO PUSH2 0x3BD JUMPI PUSH1 0x4 PUSH0 DUP2 SLOAD DUP2 LT PUSH2 0x35E JUMPI PUSH2 0x35D PUSH2 0xC69 JUMP JUMPDEST JUMPDEST SWAP1 PUSH0 MSTORE PUSH1 0x20 PUSH0 KECCAK256 ADD PUSH0 SWAP1 SLOAD SWAP1 PUSH2 0x100 EXP SWAP1 DIV PUSH20 0xFFFFFFFFFFFFFFFFFFFFFFFFFFFFFFFFFFFFFFFF AND PUSH20 0xFFFFFFFFFFFFFFFFFFFFFFFFFFFFFFFFFFFFFFFF AND CALLER PUSH20 0xFFFFFFFFFFFFFFFFFFFFFFFFFFFFFFFFFFFFFFFF AND SUB PUSH2 0x3BC JUMPI PUSH0 DUP1 REVERT JUMPDEST JUMPDEST PUSH8 0xDE0B6B3A7640000 CALLVALUE EQ PUSH2 0x3D0 JUMPI PUSH0 DUP1 REVERT JUMPDEST CALLVALUE PUSH1 0x1 PUSH0 DUP3 DUP3 SLOAD PUSH2 0x3E1 SWAP2 SWAP1 PUSH2 0xCC3 JUMP JUMPDEST SWAP3 POP POP DUP2 SWAP1 SSTORE POP PUSH1 0x1 PUSH1 0x3 PUSH0 CALLER PUSH20 0xFFFFFFFFFFFFFFFFFFFFFFFFFFFFFFFFFFFFFFFF AND PUSH20 0xFFFFFFFFFFFFFFFFFFFFFFFFFFFFFFFFFFFFFFFF AND DUP2 MSTORE PUSH1 0x20 ADD SWAP1 DUP2 MSTORE PUSH1 0x20 ADD PUSH0 KECCAK256 PUSH0 PUSH2 0x100 EXP DUP2 SLOAD DUP2 PUSH1 0xFF MUL NOT AND SWAP1 DUP4 ISZERO ISZERO MUL OR SWAP1 SSTORE POP PUSH1 0x4 CALLER SWAP1 DUP1 PUSH1 0x1 DUP2 SLOAD ADD DUP1 DUP3 SSTORE DUP1 SWAP2 POP POP PUSH1 0x1 SWAP1 SUB SWAP1 PUSH0 MSTORE PUSH1 0x20 PUSH0 KECCAK256 ADD PUSH0 SWAP1 SWAP2 SWAP1 SWAP2 SWAP1 SWAP2 PUSH2 0x100 EXP DUP2 SLOAD DUP2 PUSH20 0xFFFFFFFFFFFFFFFFFFFFFFFFFFFFFFFFFFFFFFFF MUL NOT AND SWAP1 DUP4 PUSH20 0xFFFFFFFFFFFFFFFFFFFFFFFFFFFFFFFFFFFFFFFF AND MUL OR SWAP1 SSTORE POP PUSH0 DUP1 DUP2 SLOAD DUP1 SWAP3 SWAP2 SWAP1 PUSH2 0x4AE SWAP1 PUSH2 0xCF6 JUMP JUMPDEST SWAP2 SWAP1 POP SSTORE POP JUMP JUMPDEST PUSH0 SLOAD DUP2 JUMP JUMPDEST PUSH1 0x2 PUSH1 0x20 MSTORE DUP1 PUSH0 MSTORE PUSH1 0x40 PUSH0 KECCAK256 PUSH0 SWAP2 POP SWAP1 POP SLOAD DUP2 JUMP JUMPDEST PUSH1 0x2 PUSH0 SLOAD EQ PUSH2 0x4DC JUMPI PUSH0 DUP1 REVERT JUMPDEST PUSH1 0x3 PUSH0 CALLER PUSH20 0xFFFFFFFFFFFFFFFFFFFFFFFFFFFFFFFFFFFFFFFF AND PUSH20 0xFFFFFFFFFFFFFFFFFFFFFFFFFFFFFFFFFFFFFFFF AND DUP2 MSTORE PUSH1 0x20 ADD SWAP1 DUP2 MSTORE PUSH1 0x20 ADD PUSH0 KECCAK256 PUSH0 SWAP1 SLOAD SWAP1 PUSH2 0x100 EXP SWAP1 DIV PUSH1 0xFF AND PUSH2 0x52E JUMPI PUSH0 DUP1 REVERT JUMPDEST PUSH0 DUP2 EQ DUP1 PUSH2 0x53C JUMPI POP PUSH1 0x1 DUP2 EQ JUMPDEST DUP1 PUSH2 0x547 JUMPI POP PUSH1 0x2 DUP2 EQ JUMPDEST DUP1 PUSH2 0x552 JUMPI POP PUSH1 0x3 DUP2 EQ JUMPDEST DUP1 PUSH2 0x55D JUMPI POP PUSH1 0x4 DUP2 EQ JUMPDEST PUSH2 0x565 JUMPI PUSH0 DUP1 REVERT JUMPDEST DUP1 PUSH1 0x2 PUSH0 CALLER PUSH20 0xFFFFFFFFFFFFFFFFFFFFFFFFFFFFFFFFFFFFFFFF AND PUSH20 0xFFFFFFFFFFFFFFFFFFFFFFFFFFFFFFFFFFFFFFFF AND DUP2 MSTORE PUSH1 0x20 ADD SWAP1 DUP2 MSTORE PUSH1 0x20 ADD PUSH0 KECCAK256 DUP2 SWAP1 SSTORE POP PUSH0 PUSH1 0x3 PUSH0 CALLER PUSH20 0xFFFFFFFFFFFFFFFFFFFFFFFFFFFFFFFFFFFFFFFF AND PUSH20 0xFFFFFFFFFFFFFFFFFFFFFFFFFFFFFFFFFFFFFFFF AND DUP2 MSTORE PUSH1 0x20 ADD SWAP1 DUP2 MSTORE PUSH1 0x20 ADD PUSH0 KECCAK256 PUSH0 PUSH2 0x100 EXP DUP2 SLOAD DUP2 PUSH1 0xFF MUL NOT AND SWAP1 DUP4 ISZERO ISZERO MUL OR SWAP1 SSTORE POP PUSH1 0x5 PUSH0 DUP2 SLOAD DUP1 SWAP3 SWAP2 SWAP1 PUSH2 0x60D SWAP1 PUSH2 0xCF6 JUMP JUMPDEST SWAP2 SWAP1 POP SSTORE POP PUSH1 0x2 PUSH1 0x5 SLOAD SUB PUSH2 0x625 JUMPI PUSH2 0x624 PUSH2 0x663 JUMP JUMPDEST JUMPDEST POP JUMP JUMPDEST PUSH1 0x4 DUP2 DUP2 SLOAD DUP2 LT PUSH2 0x637 JUMPI PUSH0 DUP1 REVERT JUMPDEST SWAP1 PUSH0 MSTORE PUSH1 0x20 PUSH0 KECCAK256 ADD PUSH0 SWAP2 POP SLOAD SWAP1 PUSH2 0x100 EXP SWAP1 DIV PUSH20 0xFFFFFFFFFFFFFFFFFFFFFFFFFFFFFFFFFFFFFFFF AND DUP2 JUMP JUMPDEST PUSH0 PUSH1 0x2 PUSH0 PUSH1 0x4 PUSH0 DUP2 SLOAD DUP2 LT PUSH2 0x67B JUMPI PUSH2 0x67A PUSH2 0xC69 JUMP JUMPDEST JUMPDEST SWAP1 PUSH0 MSTORE PUSH1 0x20 PUSH0 KECCAK256 ADD PUSH0 SWAP1 SLOAD SWAP1 PUSH2 0x100 EXP SWAP1 DIV PUSH20 0xFFFFFFFFFFFFFFFFFFFFFFFFFFFFFFFFFFFFFFFF AND PUSH20 0xFFFFFFFFFFFFFFFFFFFFFFFFFFFFFFFFFFFFFFFF AND PUSH20 0xFFFFFFFFFFFFFFFFFFFFFFFFFFFFFFFFFFFFFFFF AND DUP2 MSTORE PUSH1 0x20 ADD SWAP1 DUP2 MSTORE PUSH1 0x20 ADD PUSH0 KECCAK256 SLOAD SWAP1 POP PUSH0 PUSH1 0x2 PUSH0 PUSH1 0x4 PUSH1 0x1 DUP2 SLOAD DUP2 LT PUSH2 0x6F8 JUMPI PUSH2 0x6F7 PUSH2 0xC69 JUMP JUMPDEST JUMPDEST SWAP1 PUSH0 MSTORE PUSH1 0x20 PUSH0 KECCAK256 ADD PUSH0 SWAP1 SLOAD SWAP1 PUSH2 0x100 EXP SWAP1 DIV PUSH20 0xFFFFFFFFFFFFFFFFFFFFFFFFFFFFFFFFFFFFFFFF AND PUSH20 0xFFFFFFFFFFFFFFFFFFFFFFFFFFFFFFFFFFFFFFFF AND PUSH20 0xFFFFFFFFFFFFFFFFFFFFFFFFFFFFFFFFFFFFFFFF AND DUP2 MSTORE PUSH1 0x20 ADD SWAP1 DUP2 MSTORE PUSH1 0x20 ADD PUSH0 KECCAK256 SLOAD SWAP1 POP PUSH0 PUSH1 0x4 PUSH0 DUP2 SLOAD DUP2 LT PUSH2 0x771 JUMPI PUSH2 0x770 PUSH2 0xC69 JUMP JUMPDEST JUMPDEST SWAP1 PUSH0 MSTORE PUSH1 0x20 PUSH0 KECCAK256 ADD PUSH0 SWAP1 SLOAD SWAP1 PUSH2 0x100 EXP SWAP1 DIV PUSH20 0xFFFFFFFFFFFFFFFFFFFFFFFFFFFFFFFFFFFFFFFF AND SWAP1 POP PUSH0 PUSH1 0x4 PUSH1 0x1 DUP2 SLOAD DUP2 LT PUSH2 0x7B1 JUMPI PUSH2 0x7B0 PUSH2 0xC69 JUMP JUMPDEST JUMPDEST SWAP1 PUSH0 MSTORE PUSH1 0x20 PUSH0 KECCAK256 ADD PUSH0 SWAP1 SLOAD SWAP1 PUSH2 0x100 EXP SWAP1 DIV PUSH20 0xFFFFFFFFFFFFFFFFFFFFFFFFFFFFFFFFFFFFFFFF AND SWAP1 POP DUP3 PUSH1 0x3 PUSH1 0x1 DUP7 PUSH2 0x7EB SWAP2 SWAP1 PUSH2 0xCC3 JUMP JUMPDEST PUSH2 0x7F5 SWAP2 SWAP1 PUSH2 0xD6A JUMP JUMPDEST EQ DUP1 PUSH2 0x80C JUMPI POP PUSH1 0x3 DUP5 EQ DUP1 ISZERO PUSH2 0x80B JUMPI POP PUSH0 DUP4 EQ JUMPDEST JUMPDEST DUP1 PUSH2 0x823 JUMPI POP PUSH1 0x4 DUP5 EQ DUP1 ISZERO PUSH2 0x822 JUMPI POP PUSH1 0x3 DUP4 EQ JUMPDEST JUMPDEST DUP1 PUSH2 0x83A JUMPI POP PUSH1 0x2 DUP5 EQ DUP1 ISZERO PUSH2 0x839 JUMPI POP PUSH1 0x4 DUP4 EQ JUMPDEST JUMPDEST DUP1 PUSH2 0x851 JUMPI POP PUSH1 0x3 DUP5 EQ DUP1 ISZERO PUSH2 0x850 JUMPI POP PUSH1 0x2 DUP4 EQ JUMPDEST JUMPDEST DUP1 PUSH2 0x868 JUMPI POP PUSH1 0x1 DUP5 EQ DUP1 ISZERO PUSH2 0x867 JUMPI POP PUSH1 0x3 DUP4 EQ JUMPDEST JUMPDEST DUP1 PUSH2 0x87E JUMPI POP PUSH0 DUP5 EQ DUP1 ISZERO PUSH2 0x87D JUMPI POP PUSH1 0x4 DUP4 EQ JUMPDEST JUMPDEST DUP1 PUSH2 0x895 JUMPI POP PUSH1 0x1 DUP5 EQ DUP1 ISZERO PUSH2 0x894 JUMPI POP PUSH1 0x4 DUP4 EQ JUMPDEST JUMPDEST ISZERO PUSH2 0x8E5 JUMPI DUP1 PUSH20 0xFFFFFFFFFFFFFFFFFFFFFFFFFFFFFFFFFFFFFFFF AND PUSH2 0x8FC PUSH1 0x1 SLOAD SWAP1 DUP2 ISZERO MUL SWAP1 PUSH1 0x40 MLOAD PUSH0 PUSH1 0x40 MLOAD DUP1 DUP4 SUB DUP2 DUP6 DUP9 DUP9 CALL SWAP4 POP POP POP POP ISZERO DUP1 ISZERO PUSH2 0x8DF JUMPI RETURNDATASIZE PUSH0 DUP1 RETURNDATACOPY RETURNDATASIZE PUSH0 REVERT JUMPDEST POP PUSH2 0xA95 JUMP JUMPDEST DUP4 PUSH1 0x3 PUSH1 0x1 DUP6 PUSH2 0x8F5 SWAP2 SWAP1 PUSH2 0xCC3 JUMP JUMPDEST PUSH2 0x8FF SWAP2 SWAP1 PUSH2 0xD6A JUMP JUMPDEST EQ DUP1 PUSH2 0x916 JUMPI POP PUSH1 0x3 DUP4 EQ DUP1 ISZERO PUSH2 0x915 JUMPI POP PUSH0 DUP5 EQ JUMPDEST JUMPDEST DUP1 PUSH2 0x92D JUMPI POP PUSH1 0x4 DUP4 EQ DUP1 ISZERO PUSH2 0x92C JUMPI POP PUSH1 0x3 DUP5 EQ JUMPDEST JUMPDEST DUP1 PUSH2 0x944 JUMPI POP PUSH1 0x2 DUP4 EQ DUP1 ISZERO PUSH2 0x943 JUMPI POP PUSH1 0x4 DUP5 EQ JUMPDEST JUMPDEST DUP1 PUSH2 0x95B JUMPI POP PUSH1 0x3 DUP4 EQ DUP1 ISZERO PUSH2 0x95A JUMPI POP PUSH1 0x2 DUP5 EQ JUMPDEST JUMPDEST DUP1 PUSH2 0x972 JUMPI POP PUSH1 0x1 DUP4 EQ DUP1 ISZERO PUSH2 0x971 JUMPI POP PUSH1 0x3 DUP5 EQ JUMPDEST JUMPDEST DUP1 PUSH2 0x988 JUMPI POP PUSH0 DUP4 EQ DUP1 ISZERO PUSH2 0x987 JUMPI POP PUSH1 0x4 DUP5 EQ JUMPDEST JUMPDEST DUP1 PUSH2 0x99F JUMPI POP PUSH1 0x1 DUP4 EQ DUP1 ISZERO PUSH2 0x99E JUMPI POP PUSH1 0x4 DUP5 EQ JUMPDEST JUMPDEST ISZERO PUSH2 0x9EF JUMPI DUP2 PUSH20 0xFFFFFFFFFFFFFFFFFFFFFFFFFFFFFFFFFFFFFFFF AND PUSH2 0x8FC PUSH1 0x1 SLOAD SWAP1 DUP2 ISZERO MUL SWAP1 PUSH1 0x40 MLOAD PUSH0 PUSH1 0x40 MLOAD DUP1 DUP4 SUB DUP2 DUP6 DUP9 DUP9 CALL SWAP4 POP POP POP POP ISZERO DUP1 ISZERO PUSH2 0x9E9 JUMPI RETURNDATASIZE PUSH0 DUP1 RETURNDATACOPY RETURNDATASIZE PUSH0 REVERT JUMPDEST POP PUSH2 0xA94 JUMP JUMPDEST DUP2 PUSH20 0xFFFFFFFFFFFFFFFFFFFFFFFFFFFFFFFFFFFFFFFF AND PUSH2 0x8FC PUSH1 0x2 PUSH1 0x1 SLOAD PUSH2 0xA18 SWAP2 SWAP1 PUSH2 0xD9A JUMP JUMPDEST SWAP1 DUP2 ISZERO MUL SWAP1 PUSH1 0x40 MLOAD PUSH0 PUSH1 0x40 MLOAD DUP1 DUP4 SUB DUP2 DUP6 DUP9 DUP9 CALL SWAP4 POP POP POP POP ISZERO DUP1 ISZERO PUSH2 0xA40 JUMPI RETURNDATASIZE PUSH0 DUP1 RETURNDATACOPY RETURNDATASIZE PUSH0 REVERT JUMPDEST POP DUP1 PUSH20 0xFFFFFFFFFFFFFFFFFFFFFFFFFFFFFFFFFFFFFFFF AND PUSH2 0x8FC PUSH1 0x2 PUSH1 0x1 SLOAD PUSH2 0xA6A SWAP2 SWAP1 PUSH2 0xD9A JUMP JUMPDEST SWAP1 DUP2 ISZERO MUL SWAP1 PUSH1 0x40 MLOAD PUSH0 PUSH1 0x40 MLOAD DUP1 DUP4 SUB DUP2 DUP6 DUP9 DUP9 CALL SWAP4 POP POP POP POP ISZERO DUP1 ISZERO PUSH2 0xA92 JUMPI RETURNDATASIZE PUSH0 DUP1 RETURNDATACOPY RETURNDATASIZE PUSH0 REVERT JUMPDEST POP JUMPDEST JUMPDEST PUSH2 0xA9D PUSH2 0xAA3 JUMP JUMPDEST POP POP POP POP JUMP JUMPDEST PUSH0 DUP1 DUP2 SWAP1 SSTORE POP PUSH0 PUSH1 0x1 DUP2 SWAP1 SSTORE POP PUSH0 PUSH1 0x5 DUP2 SWAP1 SSTORE POP PUSH1 0x4 PUSH0 PUSH2 0xAC4 SWAP2 SWAP1 PUSH2 0xAC6 JUMP JUMPDEST JUMP JUMPDEST POP DUP1 SLOAD PUSH0 DUP3 SSTORE SWAP1 PUSH0 MSTORE PUSH1 0x20 PUSH0 KECCAK256 SWAP1 DUP2 ADD SWAP1 PUSH2 0xAE1 SWAP2 SWAP1 PUSH2 0xAE4 JUMP JUMPDEST POP JUMP JUMPDEST JUMPDEST DUP1 DUP3 GT ISZERO PUSH2 0xAFB JUMPI PUSH0 DUP2 PUSH0 SWAP1 SSTORE POP PUSH1 0x1 ADD PUSH2 0xAE5 JUMP JUMPDEST POP SWAP1 JUMP JUMPDEST PUSH0 DUP2 SWAP1 POP SWAP2 SWAP1 POP JUMP JUMPDEST PUSH2 0xB11 DUP2 PUSH2 0xAFF JUMP JUMPDEST DUP3 MSTORE POP POP JUMP JUMPDEST PUSH0 PUSH1 0x20 DUP3 ADD SWAP1 POP PUSH2 0xB2A PUSH0 DUP4 ADD DUP5 PUSH2 0xB08 JUMP JUMPDEST SWAP3 SWAP2 POP POP JUMP JUMPDEST PUSH0 DUP1 REVERT JUMPDEST PUSH0 PUSH20 0xFFFFFFFFFFFFFFFFFFFFFFFFFFFFFFFFFFFFFFFF DUP3 AND SWAP1 POP SWAP2 SWAP1 POP JUMP JUMPDEST PUSH0 PUSH2 0xB5D DUP3 PUSH2 0xB34 JUMP JUMPDEST SWAP1 POP SWAP2 SWAP1 POP JUMP JUMPDEST PUSH2 0xB6D DUP2 PUSH2 0xB53 JUMP JUMPDEST DUP2 EQ PUSH2 0xB77 JUMPI PUSH0 DUP1 REVERT JUMPDEST POP JUMP JUMPDEST PUSH0 DUP2 CALLDATALOAD SWAP1 POP PUSH2 0xB88 DUP2 PUSH2 0xB64 JUMP JUMPDEST SWAP3 SWAP2 POP POP JUMP JUMPDEST PUSH0 PUSH1 0x20 DUP3 DUP5 SUB SLT ISZERO PUSH2 0xBA3 JUMPI PUSH2 0xBA2 PUSH2 0xB30 JUMP JUMPDEST JUMPDEST PUSH0 PUSH2 0xBB0 DUP5 DUP3 DUP6 ADD PUSH2 0xB7A JUMP JUMPDEST SWAP2 POP POP SWAP3 SWAP2 POP POP JUMP JUMPDEST PUSH0 DUP2 ISZERO ISZERO SWAP1 POP SWAP2 SWAP1 POP JUMP JUMPDEST PUSH2 0xBCD DUP2 PUSH2 0xBB9 JUMP JUMPDEST DUP3 MSTORE POP POP JUMP JUMPDEST PUSH0 PUSH1 0x20 DUP3 ADD SWAP1 POP PUSH2 0xBE6 PUSH0 DUP4 ADD DUP5 PUSH2 0xBC4 JUMP JUMPDEST SWAP3 SWAP2 POP POP JUMP JUMPDEST PUSH2 0xBF5 DUP2 PUSH2 0xAFF JUMP JUMPDEST DUP2 EQ PUSH2 0xBFF JUMPI PUSH0 DUP1 REVERT JUMPDEST POP JUMP JUMPDEST PUSH0 DUP2 CALLDATALOAD SWAP1 POP PUSH2 0xC10 DUP2 PUSH2 0xBEC JUMP JUMPDEST SWAP3 SWAP2 POP POP JUMP JUMPDEST PUSH0 PUSH1 0x20 DUP3 DUP5 SUB SLT ISZERO PUSH2 0xC2B JUMPI PUSH2 0xC2A PUSH2 0xB30 JUMP JUMPDEST JUMPDEST PUSH0 PUSH2 0xC38 DUP5 DUP3 DUP6 ADD PUSH2 0xC02 JUMP JUMPDEST SWAP2 POP POP SWAP3 SWAP2 POP POP JUMP JUMPDEST PUSH2 0xC4A DUP2 PUSH2 0xB53 JUMP JUMPDEST DUP3 MSTORE POP POP JUMP JUMPDEST PUSH0 PUSH1 0x20 DUP3 ADD SWAP1 POP PUSH2 0xC63 PUSH0 DUP4 ADD DUP5 PUSH2 0xC41 JUMP JUMPDEST SWAP3 SWAP2 POP POP JUMP JUMPDEST PUSH32 0x4E487B7100000000000000000000000000000000000000000000000000000000 PUSH0 MSTORE PUSH1 0x32 PUSH1 0x4 MSTORE PUSH1 0x24 PUSH0 REVERT JUMPDEST PUSH32 0x4E487B7100000000000000000000000000000000000000000000000000000000 PUSH0 MSTORE PUSH1 0x11 PUSH1 0x4 MSTORE PUSH1 0x24 PUSH0 REVERT JUMPDEST PUSH0 PUSH2 0xCCD DUP3 PUSH2 0xAFF JUMP JUMPDEST SWAP2 POP PUSH2 0xCD8 DUP4 PUSH2 0xAFF JUMP JUMPDEST SWAP3 POP DUP3 DUP3 ADD SWAP1 POP DUP1 DUP3 GT ISZERO PUSH2 0xCF0 JUMPI PUSH2 0xCEF PUSH2 0xC96 JUMP JUMPDEST JUMPDEST SWAP3 SWAP2 POP POP JUMP JUMPDEST PUSH0 PUSH2 0xD00 DUP3 PUSH2 0xAFF JUMP JUMPDEST SWAP2 POP PUSH32 0xFFFFFFFFFFFFFFFFFFFFFFFFFFFFFFFFFFFFFFFFFFFFFFFFFFFFFFFFFFFFFFFF DUP3 SUB PUSH2 0xD32 JUMPI PUSH2 0xD31 PUSH2 0xC96 JUMP JUMPDEST JUMPDEST PUSH1 0x1 DUP3 ADD SWAP1 POP SWAP2 SWAP1 POP JUMP JUMPDEST PUSH32 0x4E487B7100000000000000000000000000000000000000000000000000000000 PUSH0 MSTORE PUSH1 0x12 PUSH1 0x4 MSTORE PUSH1 0x24 PUSH0 REVERT JUMPDEST PUSH0 PUSH2 0xD74 DUP3 PUSH2 0xAFF JUMP JUMPDEST SWAP2 POP PUSH2 0xD7F DUP4 PUSH2 0xAFF JUMP JUMPDEST SWAP3 POP DUP3 PUSH2 0xD8F JUMPI PUSH2 0xD8E PUSH2 0xD3D JUMP JUMPDEST JUMPDEST DUP3 DUP3 MOD SWAP1 POP SWAP3 SWAP2 POP POP JUMP JUMPDEST PUSH0 PUSH2 0xDA4 DUP3 PUSH2 0xAFF JUMP JUMPDEST SWAP2 POP PUSH2 0xDAF DUP4 PUSH2 0xAFF JUMP JUMPDEST SWAP3 POP DUP3 PUSH2 0xDBF JUMPI PUSH2 0xDBE PUSH2 0xD3D JUMP JUMPDEST JUMPDEST DUP3 DUP3 DIV SWAP1 POP SWAP3 SWAP2 POP POP JUMP INVALID LOG2 PUSH5 0x6970667358 0x22 SLT KECCAK256 0xDE CREATE TLOAD PUSH26 0x3B281FC2DE7DE417D88097D9752470A7A7E240F872CE0C052F0A STATICCALL SWAP1 PUSH5 0x736F6C6343 STOP ADDMOD BYTE STOP CALLER "
				},
				"gasEstimates": {
					"creation": {
						"codeDepositCost": "716800",
						"executionCost": "15760",
						"totalCost": "732560"
					},
					"external": {
						"addPlayer()": "infinite",
						"input(uint256)": "infinite",
						"numInput()": "2426",
						"numPlayer()": "2424",
						"player_choice(address)": "2824",
						"player_not_played(address)": "2856",
						"players(uint256)": "5010",
						"reward()": "2470"
					},
					"internal": {
						"_checkWinnerAndPay()": "infinite",
						"resetGame()": "infinite"
					}
				},
				"methodIdentifiers": {
					"addPlayer()": "27b5db8a",
					"input(uint256)": "ce6e1c4e",
					"numInput()": "086f7815",
					"numPlayer()": "90d5d0c3",
					"player_choice(address)": "a040478d",
					"player_not_played(address)": "190cf745",
					"players(uint256)": "f71d96cb",
					"reward()": "228cb733"
				}
			},
			"storageLayout": {
				"storage": [
					{
						"astId": 4,
						"contract": "RPS.sol:RPS",
						"label": "numPlayer",
						"offset": 0,
						"slot": "0",
						"type": "t_uint256"
					},
					{
						"astId": 7,
						"contract": "RPS.sol:RPS",
						"label": "reward",
						"offset": 0,
						"slot": "1",
						"type": "t_uint256"
					},
					{
						"astId": 11,
						"contract": "RPS.sol:RPS",
						"label": "player_choice",
						"offset": 0,
						"slot": "2",
						"type": "t_mapping(t_address,t_uint256)"
					},
					{
						"astId": 15,
						"contract": "RPS.sol:RPS",
						"label": "player_not_played",
						"offset": 0,
						"slot": "3",
						"type": "t_mapping(t_address,t_bool)"
					},
					{
						"astId": 18,
						"contract": "RPS.sol:RPS",
						"label": "players",
						"offset": 0,
						"slot": "4",
						"type": "t_array(t_address)dyn_storage"
					},
					{
						"astId": 21,
						"contract": "RPS.sol:RPS",
						"label": "numInput",
						"offset": 0,
						"slot": "5",
						"type": "t_uint256"
					}
				],
				"types": {
					"t_address": {
						"encoding": "inplace",
						"label": "address",
						"numberOfBytes": "20"
					},
					"t_array(t_address)dyn_storage": {
						"base": "t_address",
						"encoding": "dynamic_array",
						"label": "address[]",
						"numberOfBytes": "32"
					},
					"t_bool": {
						"encoding": "inplace",
						"label": "bool",
						"numberOfBytes": "1"
					},
					"t_mapping(t_address,t_bool)": {
						"encoding": "mapping",
						"key": "t_address",
						"label": "mapping(address => bool)",
						"numberOfBytes": "32",
						"value": "t_bool"
					},
					"t_mapping(t_address,t_uint256)": {
						"encoding": "mapping",
						"key": "t_address",
						"label": "mapping(address => uint256)",
						"numberOfBytes": "32",
						"value": "t_uint256"
					},
					"t_uint256": {
						"encoding": "inplace",
						"label": "uint256",
						"numberOfBytes": "32"
					}
				}
			},
			"userdoc": {
				"kind": "user",
				"methods": {},
				"version": 1
			}
		}
	}
}