{
	"RPS.sol": {
		"RPS": {
			"abi": [
				{
					"inputs": [],
					"name": "addPlayer",
					"outputs": [],
					"stateMutability": "payable",
					"type": "function"
				},
				{
					"inputs": [
						{
							"internalType": "bytes32",
							"name": "commitInput",
							"type": "bytes32"
						}
					],
					"name": "commit",
					"outputs": [],
					"stateMutability": "nonpayable",
					"type": "function"
				},
				{
					"inputs": [],
					"name": "elapsedSeconds",
					"outputs": [
						{
							"internalType": "uint256",
							"name": "",
							"type": "uint256"
						}
					],
					"stateMutability": "view",
					"type": "function"
				},
				{
					"inputs": [
						{
							"internalType": "bytes32",
							"name": "data",
							"type": "bytes32"
						}
					],
					"name": "getHash",
					"outputs": [
						{
							"internalType": "bytes32",
							"name": "",
							"type": "bytes32"
						}
					],
					"stateMutability": "pure",
					"type": "function"
				},
				{
					"inputs": [],
					"name": "numInput",
					"outputs": [
						{
							"internalType": "uint256",
							"name": "",
							"type": "uint256"
						}
					],
					"stateMutability": "view",
					"type": "function"
				},
				{
					"inputs": [],
					"name": "numPlayer",
					"outputs": [
						{
							"internalType": "uint256",
							"name": "",
							"type": "uint256"
						}
					],
					"stateMutability": "view",
					"type": "function"
				},
				{
					"inputs": [
						{
							"internalType": "address",
							"name": "",
							"type": "address"
						}
					],
					"name": "player_not_played",
					"outputs": [
						{
							"internalType": "bool",
							"name": "",
							"type": "bool"
						}
					],
					"stateMutability": "view",
					"type": "function"
				},
				{
					"inputs": [
						{
							"internalType": "uint256",
							"name": "",
							"type": "uint256"
						}
					],
					"name": "players",
					"outputs": [
						{
							"internalType": "address",
							"name": "",
							"type": "address"
						}
					],
					"stateMutability": "view",
					"type": "function"
				},
				{
					"inputs": [],
					"name": "returnRewardForFirstPlayer",
					"outputs": [],
					"stateMutability": "payable",
					"type": "function"
				},
				{
					"inputs": [],
					"name": "returnRewardPlayerWaitingForChoice",
					"outputs": [],
					"stateMutability": "payable",
					"type": "function"
				},
				{
					"inputs": [
						{
							"internalType": "bytes32",
							"name": "revealInput",
							"type": "bytes32"
						}
					],
					"name": "reveal",
					"outputs": [],
					"stateMutability": "nonpayable",
					"type": "function"
				},
				{
					"inputs": [],
					"name": "reward",
					"outputs": [
						{
							"internalType": "uint256",
							"name": "",
							"type": "uint256"
						}
					],
					"stateMutability": "view",
					"type": "function"
				}
			],
			"devdoc": {
				"kind": "dev",
				"methods": {},
				"version": 1
			},
			"evm": {
				"assembly": "    /* \"RPS.sol\":145:6569  contract RPS {... */\n  mstore(0x40, 0x80)\n    /* \"RPS.sol\":189:190  0 */\n  0x00\n    /* \"RPS.sol\":165:190  uint public numPlayer = 0 */\n  dup1\n  sstore\n    /* \"RPS.sol\":218:219  0 */\n  0x00\n    /* \"RPS.sol\":197:219  uint public reward = 0 */\n  0x01\n  sstore\n    /* \"RPS.sol\":456:457  0 */\n  0x00\n    /* \"RPS.sol\":433:457  uint public numInput = 0 */\n  0x05\n  sstore\n    /* \"RPS.sol\":700:714  new TimeUnit() */\n  mload(0x40)\n  tag_1\n  swap1\n  tag_2\n  jump\t// in\ntag_1:\n  mload(0x40)\n  dup1\n  swap2\n  sub\n  swap1\n  0x00\n  create\n  dup1\n  iszero\n  dup1\n  iszero\n  tag_3\n  jumpi\n  returndatasize\n  0x00\n  dup1\n  returndatacopy\n  revert(0x00, returndatasize)\ntag_3:\n  pop\n    /* \"RPS.sol\":672:714  TimeUnit private timeUnit = new TimeUnit() */\n  0x06\n  exp(0x0100, 0x00)\n  dup2\n  sload\n  dup2\n  0xffffffffffffffffffffffffffffffffffffffff\n  mul\n  not\n  and\n  swap1\n  dup4\n  0xffffffffffffffffffffffffffffffffffffffff\n  and\n  mul\n  or\n  swap1\n  sstore\n  pop\n    /* \"RPS.sol\":759:777  new CommitReveal() */\n  mload(0x40)\n  tag_4\n  swap1\n  tag_5\n  jump\t// in\ntag_4:\n  mload(0x40)\n  dup1\n  swap2\n  sub\n  swap1\n  0x00\n  create\n  dup1\n  iszero\n  dup1\n  iszero\n  tag_6\n  jumpi\n  returndatasize\n  0x00\n  dup1\n  returndatacopy\n  revert(0x00, returndatasize)\ntag_6:\n  pop\n    /* \"RPS.sol\":723:777  CommitReveal private commitReveal = new CommitReveal() */\n  0x07\n  exp(0x0100, 0x00)\n  dup2\n  sload\n  dup2\n  0xffffffffffffffffffffffffffffffffffffffff\n  mul\n  not\n  and\n  swap1\n  dup4\n  0xffffffffffffffffffffffffffffffffffffffff\n  and\n  mul\n  or\n  swap1\n  sstore\n  pop\n    /* \"RPS.sol\":145:6569  contract RPS {... */\n  callvalue\n  dup1\n  iszero\n  tag_7\n  jumpi\n  0x00\n  dup1\n  revert\ntag_7:\n  pop\n  jump(tag_8)\ntag_2:\n  dataSize(sub_1)\n  dup1\n  dataOffset(sub_1)\n  dup4\n  codecopy\n  add\n  swap1\n  jump\t// out\ntag_5:\n  dataSize(sub_2)\n  dup1\n  dataOffset(sub_2)\n  dup4\n  codecopy\n  add\n  swap1\n  jump\t// out\ntag_8:\n  dataSize(sub_0)\n  dup1\n  dataOffset(sub_0)\n  0x00\n  codecopy\n  0x00\n  return\nstop\n\nsub_0: assembly {\n        /* \"RPS.sol\":145:6569  contract RPS {... */\n      mstore(0x40, 0x80)\n      jumpi(tag_1, lt(calldatasize, 0x04))\n      shr(0xe0, calldataload(0x00))\n      dup1\n      0x701fd0f1\n      gt\n      tag_14\n      jumpi\n      dup1\n      0x701fd0f1\n      eq\n      tag_8\n      jumpi\n      dup1\n      0x90d5d0c3\n      eq\n      tag_9\n      jumpi\n      dup1\n      0x99af2865\n      eq\n      tag_10\n      jumpi\n      dup1\n      0xbc06b8cd\n      eq\n      tag_11\n      jumpi\n      dup1\n      0xf14fcbc8\n      eq\n      tag_12\n      jumpi\n      dup1\n      0xf71d96cb\n      eq\n      tag_13\n      jumpi\n      jump(tag_1)\n    tag_14:\n      dup1\n      0x27a5af\n      eq\n      tag_2\n      jumpi\n      dup1\n      0x086f7815\n      eq\n      tag_3\n      jumpi\n      dup1\n      0x190cf745\n      eq\n      tag_4\n      jumpi\n      dup1\n      0x228cb733\n      eq\n      tag_5\n      jumpi\n      dup1\n      0x27b5db8a\n      eq\n      tag_6\n      jumpi\n      dup1\n      0x3cf5040a\n      eq\n      tag_7\n      jumpi\n    tag_1:\n      0x00\n      dup1\n      revert\n        /* \"RPS.sol\":5746:6281  function returnRewardPlayerWaitingForChoice() public payable {... */\n    tag_2:\n      tag_15\n      tag_16\n      jump\t// in\n    tag_15:\n      stop\n        /* \"RPS.sol\":433:457  uint public numInput = 0 */\n    tag_3:\n      callvalue\n      dup1\n      iszero\n      tag_17\n      jumpi\n      0x00\n      dup1\n      revert\n    tag_17:\n      pop\n      tag_18\n      tag_19\n      jump\t// in\n    tag_18:\n      mload(0x40)\n      tag_20\n      swap2\n      swap1\n      tag_21\n      jump\t// in\n    tag_20:\n      mload(0x40)\n      dup1\n      swap2\n      sub\n      swap1\n      return\n        /* \"RPS.sol\":346:395  mapping(address => bool) public player_not_played */\n    tag_4:\n      callvalue\n      dup1\n      iszero\n      tag_22\n      jumpi\n      0x00\n      dup1\n      revert\n    tag_22:\n      pop\n      tag_23\n      0x04\n      dup1\n      calldatasize\n      sub\n      dup2\n      add\n      swap1\n      tag_24\n      swap2\n      swap1\n      tag_25\n      jump\t// in\n    tag_24:\n      tag_26\n      jump\t// in\n    tag_23:\n      mload(0x40)\n      tag_27\n      swap2\n      swap1\n      tag_28\n      jump\t// in\n    tag_27:\n      mload(0x40)\n      dup1\n      swap2\n      sub\n      swap1\n      return\n        /* \"RPS.sol\":197:219  uint public reward = 0 */\n    tag_5:\n      callvalue\n      dup1\n      iszero\n      tag_29\n      jumpi\n      0x00\n      dup1\n      revert\n    tag_29:\n      pop\n      tag_30\n      tag_31\n      jump\t// in\n    tag_30:\n      mload(0x40)\n      tag_32\n      swap2\n      swap1\n      tag_21\n      jump\t// in\n    tag_32:\n      mload(0x40)\n      dup1\n      swap2\n      sub\n      swap1\n      return\n        /* \"RPS.sol\":1126:1808  function addPlayer() public payable {... */\n    tag_6:\n      tag_33\n      tag_34\n      jump\t// in\n    tag_33:\n      stop\n        /* \"RPS.sol\":1816:1930  function getHash(bytes32 data) public pure returns(bytes32){... */\n    tag_7:\n      callvalue\n      dup1\n      iszero\n      tag_35\n      jumpi\n      0x00\n      dup1\n      revert\n    tag_35:\n      pop\n      tag_36\n      0x04\n      dup1\n      calldatasize\n      sub\n      dup2\n      add\n      swap1\n      tag_37\n      swap2\n      swap1\n      tag_38\n      jump\t// in\n    tag_37:\n      tag_39\n      jump\t// in\n    tag_36:\n      mload(0x40)\n      tag_40\n      swap2\n      swap1\n      tag_41\n      jump\t// in\n    tag_40:\n      mload(0x40)\n      dup1\n      swap2\n      sub\n      swap1\n      return\n        /* \"RPS.sol\":2649:2960  function reveal (bytes32 revealInput) public {... */\n    tag_8:\n      callvalue\n      dup1\n      iszero\n      tag_42\n      jumpi\n      0x00\n      dup1\n      revert\n    tag_42:\n      pop\n      tag_43\n      0x04\n      dup1\n      calldatasize\n      sub\n      dup2\n      add\n      swap1\n      tag_44\n      swap2\n      swap1\n      tag_38\n      jump\t// in\n    tag_44:\n      tag_45\n      jump\t// in\n    tag_43:\n      stop\n        /* \"RPS.sol\":165:190  uint public numPlayer = 0 */\n    tag_9:\n      callvalue\n      dup1\n      iszero\n      tag_46\n      jumpi\n      0x00\n      dup1\n      revert\n    tag_46:\n      pop\n      tag_47\n      tag_48\n      jump\t// in\n    tag_47:\n      mload(0x40)\n      tag_49\n      swap2\n      swap1\n      tag_21\n      jump\t// in\n    tag_49:\n      mload(0x40)\n      dup1\n      swap2\n      sub\n      swap1\n      return\n        /* \"RPS.sol\":2123:2465  function returnRewardForFirstPlayer() public payable {... */\n    tag_10:\n      tag_50\n      tag_51\n      jump\t// in\n    tag_50:\n      stop\n        /* \"RPS.sol\":938:1046  function elapsedSeconds() public view returns (uint256) { ... */\n    tag_11:\n      callvalue\n      dup1\n      iszero\n      tag_52\n      jumpi\n      0x00\n      dup1\n      revert\n    tag_52:\n      pop\n      tag_53\n      tag_54\n      jump\t// in\n    tag_53:\n      mload(0x40)\n      tag_55\n      swap2\n      swap1\n      tag_21\n      jump\t// in\n    tag_55:\n      mload(0x40)\n      dup1\n      swap2\n      sub\n      swap1\n      return\n        /* \"RPS.sol\":2473:2641  function commit (bytes32 commitInput) public {... */\n    tag_12:\n      callvalue\n      dup1\n      iszero\n      tag_56\n      jumpi\n      0x00\n      dup1\n      revert\n    tag_56:\n      pop\n      tag_57\n      0x04\n      dup1\n      calldatasize\n      sub\n      dup2\n      add\n      swap1\n      tag_58\n      swap2\n      swap1\n      tag_38\n      jump\t// in\n    tag_58:\n      tag_59\n      jump\t// in\n    tag_57:\n      stop\n        /* \"RPS.sol\":402:426  address[] public players */\n    tag_13:\n      callvalue\n      dup1\n      iszero\n      tag_60\n      jumpi\n      0x00\n      dup1\n      revert\n    tag_60:\n      pop\n      tag_61\n      0x04\n      dup1\n      calldatasize\n      sub\n      dup2\n      add\n      swap1\n      tag_62\n      swap2\n      swap1\n      tag_63\n      jump\t// in\n    tag_62:\n      tag_64\n      jump\t// in\n    tag_61:\n      mload(0x40)\n      tag_65\n      swap2\n      swap1\n      tag_66\n      jump\t// in\n    tag_65:\n      mload(0x40)\n      dup1\n      swap2\n      sub\n      swap1\n      return\n        /* \"RPS.sol\":5746:6281  function returnRewardPlayerWaitingForChoice() public payable {... */\n    tag_16:\n        /* \"RPS.sol\":5868:5870  30 */\n      0x1e\n        /* \"RPS.sol\":5844:5852  timeUnit */\n      0x06\n      0x00\n      swap1\n      sload\n      swap1\n      0x0100\n      exp\n      swap1\n      div\n      0xffffffffffffffffffffffffffffffffffffffff\n      and\n        /* \"RPS.sol\":5844:5862  timeUnit.startTime */\n      0xffffffffffffffffffffffffffffffffffffffff\n      and\n      0x78e97925\n        /* \"RPS.sol\":5844:5864  timeUnit.startTime() */\n      mload(0x40)\n      dup2\n      0xffffffff\n      and\n      0xe0\n      shl\n      dup2\n      mstore\n      0x04\n      add\n      0x20\n      mload(0x40)\n      dup1\n      dup4\n      sub\n      dup2\n      dup7\n      gas\n      staticcall\n      iszero\n      dup1\n      iszero\n      tag_69\n      jumpi\n      returndatasize\n      0x00\n      dup1\n      returndatacopy\n      revert(0x00, returndatasize)\n    tag_69:\n      pop\n      pop\n      pop\n      pop\n      mload(0x40)\n      returndatasize\n      not(0x1f)\n      0x1f\n      dup3\n      add\n      and\n      dup3\n      add\n      dup1\n      0x40\n      mstore\n      pop\n      dup2\n      add\n      swap1\n      tag_70\n      swap2\n      swap1\n      tag_71\n      jump\t// in\n    tag_70:\n        /* \"RPS.sol\":5826:5841  block.timestamp */\n      timestamp\n        /* \"RPS.sol\":5826:5864  block.timestamp - timeUnit.startTime() */\n      tag_72\n      swap2\n      swap1\n      tag_73\n      jump\t// in\n    tag_72:\n        /* \"RPS.sol\":5826:5870  block.timestamp - timeUnit.startTime() >= 30 */\n      lt\n      iszero\n        /* \"RPS.sol\":5826:5906  block.timestamp - timeUnit.startTime() >= 30 && ... */\n      dup1\n      iszero\n      tag_74\n      jumpi\n      pop\n        /* \"RPS.sol\":5905:5906  2 */\n      0x02\n        /* \"RPS.sol\":5892:5901  numPlayer */\n      sload(0x00)\n        /* \"RPS.sol\":5892:5906  numPlayer == 2 */\n      eq\n        /* \"RPS.sol\":5826:5906  block.timestamp - timeUnit.startTime() >= 30 && ... */\n    tag_74:\n        /* \"RPS.sol\":5826:5966  block.timestamp - timeUnit.startTime() >= 30 && ... */\n      dup1\n      iszero\n      tag_75\n      jumpi\n      pop\n        /* \"RPS.sol\":5961:5966  false */\n      0x00\n        /* \"RPS.sol\":5928:5966  player_not_played[msg.sender] == false */\n      iszero\n      iszero\n        /* \"RPS.sol\":5928:5945  player_not_played */\n      0x03\n        /* \"RPS.sol\":5928:5957  player_not_played[msg.sender] */\n      0x00\n        /* \"RPS.sol\":5946:5956  msg.sender */\n      caller\n        /* \"RPS.sol\":5928:5957  player_not_played[msg.sender] */\n      0xffffffffffffffffffffffffffffffffffffffff\n      and\n      0xffffffffffffffffffffffffffffffffffffffff\n      and\n      dup2\n      mstore\n      0x20\n      add\n      swap1\n      dup2\n      mstore\n      0x20\n      add\n      0x00\n      keccak256\n      0x00\n      swap1\n      sload\n      swap1\n      0x0100\n      exp\n      swap1\n      div\n      0xff\n      and\n        /* \"RPS.sol\":5928:5966  player_not_played[msg.sender] == false */\n      iszero\n      iszero\n      eq\n        /* \"RPS.sol\":5826:5966  block.timestamp - timeUnit.startTime() >= 30 && ... */\n    tag_75:\n        /* \"RPS.sol\":5826:6000  block.timestamp - timeUnit.startTime() >= 30 && ... */\n      dup1\n      iszero\n      tag_76\n      jumpi\n      pop\n        /* \"RPS.sol\":5999:6000  1 */\n      0x01\n        /* \"RPS.sol\":5987:5995  numInput */\n      sload(0x05)\n        /* \"RPS.sol\":5987:6000  numInput == 1 */\n      eq\n        /* \"RPS.sol\":5826:6000  block.timestamp - timeUnit.startTime() >= 30 && ... */\n    tag_76:\n        /* \"RPS.sol\":5818:6001  require(block.timestamp - timeUnit.startTime() >= 30 && ... */\n      tag_77\n      jumpi\n      0x00\n      dup1\n      revert\n    tag_77:\n        /* \"RPS.sol\":6012:6050  address payable accountWaitForPlaying0 */\n      0x00\n        /* \"RPS.sol\":6061:6068  players */\n      0x04\n        /* \"RPS.sol\":6069:6070  0 */\n      0x00\n        /* \"RPS.sol\":6061:6071  players[0] */\n      dup2\n      sload\n      dup2\n      lt\n      tag_78\n      jumpi\n      tag_79\n      tag_80\n      jump\t// in\n    tag_79:\n    tag_78:\n      swap1\n      0x00\n      mstore\n      keccak256(0x00, 0x20)\n      add\n      0x00\n      swap1\n      sload\n      swap1\n      0x0100\n      exp\n      swap1\n      div\n      0xffffffffffffffffffffffffffffffffffffffff\n      and\n        /* \"RPS.sol\":6012:6072  address payable accountWaitForPlaying0 = payable(players[0]) */\n      swap1\n      pop\n        /* \"RPS.sol\":6083:6121  address payable accountWaitForPlaying1 */\n      0x00\n        /* \"RPS.sol\":6132:6139  players */\n      0x04\n        /* \"RPS.sol\":6140:6141  1 */\n      0x01\n        /* \"RPS.sol\":6132:6142  players[1] */\n      dup2\n      sload\n      dup2\n      lt\n      tag_82\n      jumpi\n      tag_83\n      tag_80\n      jump\t// in\n    tag_83:\n    tag_82:\n      swap1\n      0x00\n      mstore\n      keccak256(0x00, 0x20)\n      add\n      0x00\n      swap1\n      sload\n      swap1\n      0x0100\n      exp\n      swap1\n      div\n      0xffffffffffffffffffffffffffffffffffffffff\n      and\n        /* \"RPS.sol\":6083:6143  address payable accountWaitForPlaying1 = payable(players[1]) */\n      swap1\n      pop\n        /* \"RPS.sol\":6154:6176  accountWaitForPlaying0 */\n      dup2\n        /* \"RPS.sol\":6154:6185  accountWaitForPlaying0.transfer */\n      0xffffffffffffffffffffffffffffffffffffffff\n      and\n        /* \"RPS.sol\":6154:6197  accountWaitForPlaying0.transfer(reward / 2) */\n      0x08fc\n        /* \"RPS.sol\":6195:6196  2 */\n      0x02\n        /* \"RPS.sol\":6186:6192  reward */\n      sload(0x01)\n        /* \"RPS.sol\":6186:6196  reward / 2 */\n      tag_85\n      swap2\n      swap1\n      tag_86\n      jump\t// in\n    tag_85:\n        /* \"RPS.sol\":6154:6197  accountWaitForPlaying0.transfer(reward / 2) */\n      swap1\n      dup2\n      iszero\n      mul\n      swap1\n      mload(0x40)\n      0x00\n      mload(0x40)\n      dup1\n      dup4\n      sub\n      dup2\n      dup6\n      dup9\n      dup9\n      call\n      swap4\n      pop\n      pop\n      pop\n      pop\n      iszero\n      dup1\n      iszero\n      tag_88\n      jumpi\n      returndatasize\n      0x00\n      dup1\n      returndatacopy\n      revert(0x00, returndatasize)\n    tag_88:\n      pop\n        /* \"RPS.sol\":6208:6230  accountWaitForPlaying1 */\n      dup1\n        /* \"RPS.sol\":6208:6239  accountWaitForPlaying1.transfer */\n      0xffffffffffffffffffffffffffffffffffffffff\n      and\n        /* \"RPS.sol\":6208:6251  accountWaitForPlaying1.transfer(reward / 2) */\n      0x08fc\n        /* \"RPS.sol\":6249:6250  2 */\n      0x02\n        /* \"RPS.sol\":6240:6246  reward */\n      sload(0x01)\n        /* \"RPS.sol\":6240:6250  reward / 2 */\n      tag_89\n      swap2\n      swap1\n      tag_86\n      jump\t// in\n    tag_89:\n        /* \"RPS.sol\":6208:6251  accountWaitForPlaying1.transfer(reward / 2) */\n      swap1\n      dup2\n      iszero\n      mul\n      swap1\n      mload(0x40)\n      0x00\n      mload(0x40)\n      dup1\n      dup4\n      sub\n      dup2\n      dup6\n      dup9\n      dup9\n      call\n      swap4\n      pop\n      pop\n      pop\n      pop\n      iszero\n      dup1\n      iszero\n      tag_91\n      jumpi\n      returndatasize\n      0x00\n      dup1\n      returndatacopy\n      revert(0x00, returndatasize)\n    tag_91:\n      pop\n        /* \"RPS.sol\":6262:6273  resetGame() */\n      tag_92\n        /* \"RPS.sol\":6262:6271  resetGame */\n      tag_93\n        /* \"RPS.sol\":6262:6273  resetGame() */\n      jump\t// in\n    tag_92:\n        /* \"RPS.sol\":5807:6281  {... */\n      pop\n      pop\n        /* \"RPS.sol\":5746:6281  function returnRewardPlayerWaitingForChoice() public payable {... */\n      jump\t// out\n        /* \"RPS.sol\":433:457  uint public numInput = 0 */\n    tag_19:\n      sload(0x05)\n      dup2\n      jump\t// out\n        /* \"RPS.sol\":346:395  mapping(address => bool) public player_not_played */\n    tag_26:\n      mstore(0x20, 0x03)\n      dup1\n      0x00\n      mstore\n      keccak256(0x00, 0x40)\n      0x00\n      swap2\n      pop\n      sload\n      swap1\n      0x0100\n      exp\n      swap1\n      div\n      0xff\n      and\n      dup2\n      jump\t// out\n        /* \"RPS.sol\":197:219  uint public reward = 0 */\n    tag_31:\n      sload(0x01)\n      dup2\n      jump\t// out\n        /* \"RPS.sol\":1126:1808  function addPlayer() public payable {... */\n    tag_34:\n        /* \"RPS.sol\":1193:1194  2 */\n      0x02\n        /* \"RPS.sol\":1181:1190  numPlayer */\n      sload(0x00)\n        /* \"RPS.sol\":1181:1194  numPlayer < 2 */\n      lt\n        /* \"RPS.sol\":1173:1195  require(numPlayer < 2) */\n      tag_95\n      jumpi\n      0x00\n      dup1\n      revert\n    tag_95:\n        /* \"RPS.sol\":1228:1270  0x5B38Da6a701c568545dCfcB03FcB875f56beddC4 */\n      0x5b38da6a701c568545dcfcb03fcb875f56beddc4\n        /* \"RPS.sol\":1214:1270  msg.sender == 0x5B38Da6a701c568545dCfcB03FcB875f56beddC4 */\n      0xffffffffffffffffffffffffffffffffffffffff\n      and\n        /* \"RPS.sol\":1214:1224  msg.sender */\n      caller\n        /* \"RPS.sol\":1214:1270  msg.sender == 0x5B38Da6a701c568545dCfcB03FcB875f56beddC4 */\n      0xffffffffffffffffffffffffffffffffffffffff\n      and\n      eq\n        /* \"RPS.sol\":1214:1347  msg.sender == 0x5B38Da6a701c568545dCfcB03FcB875f56beddC4 ||... */\n      dup1\n      tag_96\n      jumpi\n      pop\n        /* \"RPS.sol\":1305:1347  0xAb8483F64d9C6d1EcF9b849Ae677dD3315835cb2 */\n      0xab8483f64d9c6d1ecf9b849ae677dd3315835cb2\n        /* \"RPS.sol\":1291:1347  msg.sender == 0xAb8483F64d9C6d1EcF9b849Ae677dD3315835cb2 */\n      0xffffffffffffffffffffffffffffffffffffffff\n      and\n        /* \"RPS.sol\":1291:1301  msg.sender */\n      caller\n        /* \"RPS.sol\":1291:1347  msg.sender == 0xAb8483F64d9C6d1EcF9b849Ae677dD3315835cb2 */\n      0xffffffffffffffffffffffffffffffffffffffff\n      and\n      eq\n        /* \"RPS.sol\":1214:1347  msg.sender == 0x5B38Da6a701c568545dCfcB03FcB875f56beddC4 ||... */\n    tag_96:\n        /* \"RPS.sol\":1214:1424  msg.sender == 0x5B38Da6a701c568545dCfcB03FcB875f56beddC4 ||... */\n      dup1\n      tag_97\n      jumpi\n      pop\n        /* \"RPS.sol\":1382:1424  0x4B20993Bc481177ec7E8f571ceCaE8A9e22C02db */\n      0x4b20993bc481177ec7e8f571cecae8a9e22c02db\n        /* \"RPS.sol\":1368:1424  msg.sender == 0x4B20993Bc481177ec7E8f571ceCaE8A9e22C02db */\n      0xffffffffffffffffffffffffffffffffffffffff\n      and\n        /* \"RPS.sol\":1368:1378  msg.sender */\n      caller\n        /* \"RPS.sol\":1368:1424  msg.sender == 0x4B20993Bc481177ec7E8f571ceCaE8A9e22C02db */\n      0xffffffffffffffffffffffffffffffffffffffff\n      and\n      eq\n        /* \"RPS.sol\":1214:1424  msg.sender == 0x5B38Da6a701c568545dCfcB03FcB875f56beddC4 ||... */\n    tag_97:\n        /* \"RPS.sol\":1214:1502  msg.sender == 0x5B38Da6a701c568545dCfcB03FcB875f56beddC4 ||... */\n      dup1\n      tag_98\n      jumpi\n      pop\n        /* \"RPS.sol\":1460:1502  0x78731D3Ca6b7E34aC0F824c42a7cC18A495cabaB */\n      0x78731d3ca6b7e34ac0f824c42a7cc18a495cabab\n        /* \"RPS.sol\":1446:1502  msg.sender == 0x78731D3Ca6b7E34aC0F824c42a7cC18A495cabaB */\n      0xffffffffffffffffffffffffffffffffffffffff\n      and\n        /* \"RPS.sol\":1446:1456  msg.sender */\n      caller\n        /* \"RPS.sol\":1446:1502  msg.sender == 0x78731D3Ca6b7E34aC0F824c42a7cC18A495cabaB */\n      0xffffffffffffffffffffffffffffffffffffffff\n      and\n      eq\n        /* \"RPS.sol\":1214:1502  msg.sender == 0x5B38Da6a701c568545dCfcB03FcB875f56beddC4 ||... */\n    tag_98:\n        /* \"RPS.sol\":1206:1503  require(msg.sender == 0x5B38Da6a701c568545dCfcB03FcB875f56beddC4 ||... */\n      tag_99\n      jumpi\n      0x00\n      dup1\n      revert\n    tag_99:\n        /* \"RPS.sol\":1530:1531  0 */\n      0x00\n        /* \"RPS.sol\":1518:1527  numPlayer */\n      dup1\n      sload\n        /* \"RPS.sol\":1518:1531  numPlayer > 0 */\n      gt\n        /* \"RPS.sol\":1514:1593  if (numPlayer > 0) {... */\n      iszero\n      tag_100\n      jumpi\n        /* \"RPS.sol\":1570:1577  players */\n      0x04\n        /* \"RPS.sol\":1578:1579  0 */\n      0x00\n        /* \"RPS.sol\":1570:1580  players[0] */\n      dup2\n      sload\n      dup2\n      lt\n      tag_101\n      jumpi\n      tag_102\n      tag_80\n      jump\t// in\n    tag_102:\n    tag_101:\n      swap1\n      0x00\n      mstore\n      keccak256(0x00, 0x20)\n      add\n      0x00\n      swap1\n      sload\n      swap1\n      0x0100\n      exp\n      swap1\n      div\n      0xffffffffffffffffffffffffffffffffffffffff\n      and\n        /* \"RPS.sol\":1556:1580  msg.sender != players[0] */\n      0xffffffffffffffffffffffffffffffffffffffff\n      and\n        /* \"RPS.sol\":1556:1566  msg.sender */\n      caller\n        /* \"RPS.sol\":1556:1580  msg.sender != players[0] */\n      0xffffffffffffffffffffffffffffffffffffffff\n      and\n      sub\n        /* \"RPS.sol\":1548:1581  require(msg.sender != players[0]) */\n      tag_104\n      jumpi\n      0x00\n      dup1\n      revert\n    tag_104:\n        /* \"RPS.sol\":1514:1593  if (numPlayer > 0) {... */\n    tag_100:\n        /* \"RPS.sol\":1624:1631  1 ether */\n      0x0de0b6b3a7640000\n        /* \"RPS.sol\":1611:1620  msg.value */\n      callvalue\n        /* \"RPS.sol\":1611:1631  msg.value == 1 ether */\n      eq\n        /* \"RPS.sol\":1603:1632  require(msg.value == 1 ether) */\n      tag_105\n      jumpi\n      0x00\n      dup1\n      revert\n    tag_105:\n        /* \"RPS.sol\":1653:1662  msg.value */\n      callvalue\n        /* \"RPS.sol\":1643:1649  reward */\n      0x01\n      0x00\n        /* \"RPS.sol\":1643:1662  reward += msg.value */\n      dup3\n      dup3\n      sload\n      tag_106\n      swap2\n      swap1\n      tag_107\n      jump\t// in\n    tag_106:\n      swap3\n      pop\n      pop\n      dup2\n      swap1\n      sstore\n      pop\n        /* \"RPS.sol\":1705:1709  true */\n      0x01\n        /* \"RPS.sol\":1673:1690  player_not_played */\n      0x03\n        /* \"RPS.sol\":1673:1702  player_not_played[msg.sender] */\n      0x00\n        /* \"RPS.sol\":1691:1701  msg.sender */\n      caller\n        /* \"RPS.sol\":1673:1702  player_not_played[msg.sender] */\n      0xffffffffffffffffffffffffffffffffffffffff\n      and\n      0xffffffffffffffffffffffffffffffffffffffff\n      and\n      dup2\n      mstore\n      0x20\n      add\n      swap1\n      dup2\n      mstore\n      0x20\n      add\n      0x00\n      keccak256\n      0x00\n        /* \"RPS.sol\":1673:1709  player_not_played[msg.sender] = true */\n      0x0100\n      exp\n      dup2\n      sload\n      dup2\n      0xff\n      mul\n      not\n      and\n      swap1\n      dup4\n      iszero\n      iszero\n      mul\n      or\n      swap1\n      sstore\n      pop\n        /* \"RPS.sol\":1720:1727  players */\n      0x04\n        /* \"RPS.sol\":1733:1743  msg.sender */\n      caller\n        /* \"RPS.sol\":1720:1744  players.push(msg.sender) */\n      swap1\n      dup1\n      0x01\n      dup2\n      sload\n      add\n      dup1\n      dup3\n      sstore\n      dup1\n      swap2\n      pop\n      pop\n      0x01\n      swap1\n      sub\n      swap1\n      0x00\n      mstore\n      keccak256(0x00, 0x20)\n      add\n      0x00\n      swap1\n      swap2\n      swap1\n      swap2\n      swap1\n      swap2\n      0x0100\n      exp\n      dup2\n      sload\n      dup2\n      0xffffffffffffffffffffffffffffffffffffffff\n      mul\n      not\n      and\n      swap1\n      dup4\n      0xffffffffffffffffffffffffffffffffffffffff\n      and\n      mul\n      or\n      swap1\n      sstore\n      pop\n        /* \"RPS.sol\":1755:1764  numPlayer */\n      0x00\n      dup1\n        /* \"RPS.sol\":1755:1766  numPlayer++ */\n      dup2\n      sload\n      dup1\n      swap3\n      swap2\n      swap1\n      tag_109\n      swap1\n      tag_110\n      jump\t// in\n    tag_109:\n      swap2\n      swap1\n      pop\n      sstore\n      pop\n        /* \"RPS.sol\":1777:1785  timeUnit */\n      0x06\n      0x00\n      swap1\n      sload\n      swap1\n      0x0100\n      exp\n      swap1\n      div\n      0xffffffffffffffffffffffffffffffffffffffff\n      and\n        /* \"RPS.sol\":1777:1798  timeUnit.setStartTime */\n      0xffffffffffffffffffffffffffffffffffffffff\n      and\n      0xa63f7c53\n        /* \"RPS.sol\":1777:1800  timeUnit.setStartTime() */\n      mload(0x40)\n      dup2\n      0xffffffff\n      and\n      0xe0\n      shl\n      dup2\n      mstore\n      0x04\n      add\n      0x00\n      mload(0x40)\n      dup1\n      dup4\n      sub\n      dup2\n      0x00\n      dup8\n      dup1\n      extcodesize\n      iszero\n      dup1\n      iszero\n      tag_111\n      jumpi\n      0x00\n      dup1\n      revert\n    tag_111:\n      pop\n      gas\n      call\n      iszero\n      dup1\n      iszero\n      tag_113\n      jumpi\n      returndatasize\n      0x00\n      dup1\n      returndatacopy\n      revert(0x00, returndatasize)\n    tag_113:\n      pop\n      pop\n      pop\n      pop\n        /* \"RPS.sol\":1126:1808  function addPlayer() public payable {... */\n      jump\t// out\n        /* \"RPS.sol\":1816:1930  function getHash(bytes32 data) public pure returns(bytes32){... */\n    tag_39:\n        /* \"RPS.sol\":1867:1874  bytes32 */\n      0x00\n        /* \"RPS.sol\":1916:1920  data */\n      dup2\n        /* \"RPS.sol\":1899:1921  abi.encodePacked(data) */\n      add(0x20, mload(0x40))\n      tag_115\n      swap2\n      swap1\n      tag_116\n      jump\t// in\n    tag_115:\n      mload(0x40)\n      0x20\n      dup2\n      dup4\n      sub\n      sub\n      dup2\n      mstore\n      swap1\n      0x40\n      mstore\n        /* \"RPS.sol\":1889:1922  keccak256(abi.encodePacked(data)) */\n      dup1\n      mload\n      swap1\n      0x20\n      add\n      keccak256\n        /* \"RPS.sol\":1882:1922  return keccak256(abi.encodePacked(data)) */\n      swap1\n      pop\n        /* \"RPS.sol\":1816:1930  function getHash(bytes32 data) public pure returns(bytes32){... */\n      swap2\n      swap1\n      pop\n      jump\t// out\n        /* \"RPS.sol\":2649:2960  function reveal (bytes32 revealInput) public {... */\n    tag_45:\n        /* \"RPS.sol\":2746:2750  true */\n      0x01\n        /* \"RPS.sol\":2713:2750  player_not_played[msg.sender] == true */\n      iszero\n      iszero\n        /* \"RPS.sol\":2713:2730  player_not_played */\n      0x03\n        /* \"RPS.sol\":2713:2742  player_not_played[msg.sender] */\n      0x00\n        /* \"RPS.sol\":2731:2741  msg.sender */\n      caller\n        /* \"RPS.sol\":2713:2742  player_not_played[msg.sender] */\n      0xffffffffffffffffffffffffffffffffffffffff\n      and\n      0xffffffffffffffffffffffffffffffffffffffff\n      and\n      dup2\n      mstore\n      0x20\n      add\n      swap1\n      dup2\n      mstore\n      0x20\n      add\n      0x00\n      keccak256\n      0x00\n      swap1\n      sload\n      swap1\n      0x0100\n      exp\n      swap1\n      div\n      0xff\n      and\n        /* \"RPS.sol\":2713:2750  player_not_played[msg.sender] == true */\n      iszero\n      iszero\n      eq\n        /* \"RPS.sol\":2705:2751  require(player_not_played[msg.sender] == true) */\n      tag_118\n      jumpi\n      0x00\n      dup1\n      revert\n    tag_118:\n        /* \"RPS.sol\":2762:2774  commitReveal */\n      0x07\n      0x00\n      swap1\n      sload\n      swap1\n      0x0100\n      exp\n      swap1\n      div\n      0xffffffffffffffffffffffffffffffffffffffff\n      and\n        /* \"RPS.sol\":2762:2781  commitReveal.reveal */\n      0xffffffffffffffffffffffffffffffffffffffff\n      and\n      0xad487790\n        /* \"RPS.sol\":2782:2793  revealInput */\n      dup3\n        /* \"RPS.sol\":2795:2805  msg.sender */\n      caller\n        /* \"RPS.sol\":2762:2806  commitReveal.reveal(revealInput, msg.sender) */\n      mload(0x40)\n      dup4\n      0xffffffff\n      and\n      0xe0\n      shl\n      dup2\n      mstore\n      0x04\n      add\n      tag_119\n      swap3\n      swap2\n      swap1\n      tag_120\n      jump\t// in\n    tag_119:\n      0x00\n      mload(0x40)\n      dup1\n      dup4\n      sub\n      dup2\n      0x00\n      dup8\n      dup1\n      extcodesize\n      iszero\n      dup1\n      iszero\n      tag_121\n      jumpi\n      0x00\n      dup1\n      revert\n    tag_121:\n      pop\n      gas\n      call\n      iszero\n      dup1\n      iszero\n      tag_123\n      jumpi\n      returndatasize\n      0x00\n      dup1\n      returndatacopy\n      revert(0x00, returndatasize)\n    tag_123:\n      pop\n      pop\n      pop\n      pop\n        /* \"RPS.sol\":2817:2835  bytes1 revealValue */\n      0x00\n        /* \"RPS.sol\":2838:2850  commitReveal */\n      0x07\n      0x00\n      swap1\n      sload\n      swap1\n      0x0100\n      exp\n      swap1\n      div\n      0xffffffffffffffffffffffffffffffffffffffff\n      and\n        /* \"RPS.sol\":2838:2862  commitReveal.getLastByte */\n      0xffffffffffffffffffffffffffffffffffffffff\n      and\n      0x2379ca4c\n        /* \"RPS.sol\":2863:2874  revealInput */\n      dup4\n        /* \"RPS.sol\":2838:2875  commitReveal.getLastByte(revealInput) */\n      mload(0x40)\n      dup3\n      0xffffffff\n      and\n      0xe0\n      shl\n      dup2\n      mstore\n      0x04\n      add\n      tag_124\n      swap2\n      swap1\n      tag_41\n      jump\t// in\n    tag_124:\n      0x20\n      mload(0x40)\n      dup1\n      dup4\n      sub\n      dup2\n      dup7\n      gas\n      staticcall\n      iszero\n      dup1\n      iszero\n      tag_126\n      jumpi\n      returndatasize\n      0x00\n      dup1\n      returndatacopy\n      revert(0x00, returndatasize)\n    tag_126:\n      pop\n      pop\n      pop\n      pop\n      mload(0x40)\n      returndatasize\n      not(0x1f)\n      0x1f\n      dup3\n      add\n      and\n      dup3\n      add\n      dup1\n      0x40\n      mstore\n      pop\n      dup2\n      add\n      swap1\n      tag_127\n      swap2\n      swap1\n      tag_128\n      jump\t// in\n    tag_127:\n        /* \"RPS.sol\":2817:2875  bytes1 revealValue = commitReveal.getLastByte(revealInput) */\n      swap1\n      pop\n        /* \"RPS.sol\":2886:2904  input(revealValue) */\n      tag_129\n        /* \"RPS.sol\":2892:2903  revealValue */\n      dup2\n        /* \"RPS.sol\":2886:2891  input */\n      tag_130\n        /* \"RPS.sol\":2886:2904  input(revealValue) */\n      jump\t// in\n    tag_129:\n        /* \"RPS.sol\":2947:2952  false */\n      0x00\n        /* \"RPS.sol\":2915:2932  player_not_played */\n      0x03\n        /* \"RPS.sol\":2915:2944  player_not_played[msg.sender] */\n      0x00\n        /* \"RPS.sol\":2933:2943  msg.sender */\n      caller\n        /* \"RPS.sol\":2915:2944  player_not_played[msg.sender] */\n      0xffffffffffffffffffffffffffffffffffffffff\n      and\n      0xffffffffffffffffffffffffffffffffffffffff\n      and\n      dup2\n      mstore\n      0x20\n      add\n      swap1\n      dup2\n      mstore\n      0x20\n      add\n      0x00\n      keccak256\n      0x00\n        /* \"RPS.sol\":2915:2952  player_not_played[msg.sender] = false */\n      0x0100\n      exp\n      dup2\n      sload\n      dup2\n      0xff\n      mul\n      not\n      and\n      swap1\n      dup4\n      iszero\n      iszero\n      mul\n      or\n      swap1\n      sstore\n      pop\n        /* \"RPS.sol\":2694:2960  {... */\n      pop\n        /* \"RPS.sol\":2649:2960  function reveal (bytes32 revealInput) public {... */\n      pop\n      jump\t// out\n        /* \"RPS.sol\":165:190  uint public numPlayer = 0 */\n    tag_48:\n      sload(0x00)\n      dup2\n      jump\t// out\n        /* \"RPS.sol\":2123:2465  function returnRewardForFirstPlayer() public payable {... */\n    tag_51:\n        /* \"RPS.sol\":2237:2239  30 */\n      0x1e\n        /* \"RPS.sol\":2213:2221  timeUnit */\n      0x06\n      0x00\n      swap1\n      sload\n      swap1\n      0x0100\n      exp\n      swap1\n      div\n      0xffffffffffffffffffffffffffffffffffffffff\n      and\n        /* \"RPS.sol\":2213:2231  timeUnit.startTime */\n      0xffffffffffffffffffffffffffffffffffffffff\n      and\n      0x78e97925\n        /* \"RPS.sol\":2213:2233  timeUnit.startTime() */\n      mload(0x40)\n      dup2\n      0xffffffff\n      and\n      0xe0\n      shl\n      dup2\n      mstore\n      0x04\n      add\n      0x20\n      mload(0x40)\n      dup1\n      dup4\n      sub\n      dup2\n      dup7\n      gas\n      staticcall\n      iszero\n      dup1\n      iszero\n      tag_133\n      jumpi\n      returndatasize\n      0x00\n      dup1\n      returndatacopy\n      revert(0x00, returndatasize)\n    tag_133:\n      pop\n      pop\n      pop\n      pop\n      mload(0x40)\n      returndatasize\n      not(0x1f)\n      0x1f\n      dup3\n      add\n      and\n      dup3\n      add\n      dup1\n      0x40\n      mstore\n      pop\n      dup2\n      add\n      swap1\n      tag_134\n      swap2\n      swap1\n      tag_71\n      jump\t// in\n    tag_134:\n        /* \"RPS.sol\":2195:2210  block.timestamp */\n      timestamp\n        /* \"RPS.sol\":2195:2233  block.timestamp - timeUnit.startTime() */\n      tag_135\n      swap2\n      swap1\n      tag_73\n      jump\t// in\n    tag_135:\n        /* \"RPS.sol\":2195:2239  block.timestamp - timeUnit.startTime() >= 30 */\n      lt\n      iszero\n        /* \"RPS.sol\":2195:2275  block.timestamp - timeUnit.startTime() >= 30 && ... */\n      dup1\n      iszero\n      tag_136\n      jumpi\n      pop\n        /* \"RPS.sol\":2274:2275  2 */\n      0x02\n        /* \"RPS.sol\":2261:2270  numPlayer */\n      sload(0x00)\n        /* \"RPS.sol\":2261:2275  numPlayer != 2 */\n      eq\n      iszero\n        /* \"RPS.sol\":2195:2275  block.timestamp - timeUnit.startTime() >= 30 && ... */\n    tag_136:\n        /* \"RPS.sol\":2195:2321  block.timestamp - timeUnit.startTime() >= 30 && ... */\n      dup1\n      iszero\n      tag_137\n      jumpi\n      pop\n        /* \"RPS.sol\":2311:2318  players */\n      0x04\n        /* \"RPS.sol\":2319:2320  0 */\n      0x00\n        /* \"RPS.sol\":2311:2321  players[0] */\n      dup2\n      sload\n      dup2\n      lt\n      tag_138\n      jumpi\n      tag_139\n      tag_80\n      jump\t// in\n    tag_139:\n    tag_138:\n      swap1\n      0x00\n      mstore\n      keccak256(0x00, 0x20)\n      add\n      0x00\n      swap1\n      sload\n      swap1\n      0x0100\n      exp\n      swap1\n      div\n      0xffffffffffffffffffffffffffffffffffffffff\n      and\n        /* \"RPS.sol\":2297:2321  msg.sender == players[0] */\n      0xffffffffffffffffffffffffffffffffffffffff\n      and\n        /* \"RPS.sol\":2297:2307  msg.sender */\n      caller\n        /* \"RPS.sol\":2297:2321  msg.sender == players[0] */\n      0xffffffffffffffffffffffffffffffffffffffff\n      and\n      eq\n        /* \"RPS.sol\":2195:2321  block.timestamp - timeUnit.startTime() >= 30 && ... */\n    tag_137:\n        /* \"RPS.sol\":2187:2322  require(block.timestamp - timeUnit.startTime() >= 30 && ... */\n      tag_141\n      jumpi\n      0x00\n      dup1\n      revert\n    tag_141:\n        /* \"RPS.sol\":2333:2367  address payable accountFirstPlayer */\n      0x00\n        /* \"RPS.sol\":2378:2385  players */\n      0x04\n        /* \"RPS.sol\":2386:2387  0 */\n      0x00\n        /* \"RPS.sol\":2378:2388  players[0] */\n      dup2\n      sload\n      dup2\n      lt\n      tag_142\n      jumpi\n      tag_143\n      tag_80\n      jump\t// in\n    tag_143:\n    tag_142:\n      swap1\n      0x00\n      mstore\n      keccak256(0x00, 0x20)\n      add\n      0x00\n      swap1\n      sload\n      swap1\n      0x0100\n      exp\n      swap1\n      div\n      0xffffffffffffffffffffffffffffffffffffffff\n      and\n        /* \"RPS.sol\":2333:2389  address payable accountFirstPlayer = payable(players[0]) */\n      swap1\n      pop\n        /* \"RPS.sol\":2400:2418  accountFirstPlayer */\n      dup1\n        /* \"RPS.sol\":2400:2427  accountFirstPlayer.transfer */\n      0xffffffffffffffffffffffffffffffffffffffff\n      and\n        /* \"RPS.sol\":2400:2435  accountFirstPlayer.transfer(reward) */\n      0x08fc\n        /* \"RPS.sol\":2428:2434  reward */\n      sload(0x01)\n        /* \"RPS.sol\":2400:2435  accountFirstPlayer.transfer(reward) */\n      swap1\n      dup2\n      iszero\n      mul\n      swap1\n      mload(0x40)\n      0x00\n      mload(0x40)\n      dup1\n      dup4\n      sub\n      dup2\n      dup6\n      dup9\n      dup9\n      call\n      swap4\n      pop\n      pop\n      pop\n      pop\n      iszero\n      dup1\n      iszero\n      tag_146\n      jumpi\n      returndatasize\n      0x00\n      dup1\n      returndatacopy\n      revert(0x00, returndatasize)\n    tag_146:\n      pop\n        /* \"RPS.sol\":2446:2457  resetGame() */\n      tag_147\n        /* \"RPS.sol\":2446:2455  resetGame */\n      tag_93\n        /* \"RPS.sol\":2446:2457  resetGame() */\n      jump\t// in\n    tag_147:\n        /* \"RPS.sol\":2176:2465  {... */\n      pop\n        /* \"RPS.sol\":2123:2465  function returnRewardForFirstPlayer() public payable {... */\n      jump\t// out\n        /* \"RPS.sol\":938:1046  function elapsedSeconds() public view returns (uint256) { ... */\n    tag_54:\n        /* \"RPS.sol\":985:992  uint256 */\n      0x00\n        /* \"RPS.sol\":1013:1021  timeUnit */\n      0x06\n      0x00\n      swap1\n      sload\n      swap1\n      0x0100\n      exp\n      swap1\n      div\n      0xffffffffffffffffffffffffffffffffffffffff\n      and\n        /* \"RPS.sol\":1013:1036  timeUnit.elapsedSeconds */\n      0xffffffffffffffffffffffffffffffffffffffff\n      and\n      0xbc06b8cd\n        /* \"RPS.sol\":1013:1038  timeUnit.elapsedSeconds() */\n      mload(0x40)\n      dup2\n      0xffffffff\n      and\n      0xe0\n      shl\n      dup2\n      mstore\n      0x04\n      add\n      0x20\n      mload(0x40)\n      dup1\n      dup4\n      sub\n      dup2\n      dup7\n      gas\n      staticcall\n      iszero\n      dup1\n      iszero\n      tag_150\n      jumpi\n      returndatasize\n      0x00\n      dup1\n      returndatacopy\n      revert(0x00, returndatasize)\n    tag_150:\n      pop\n      pop\n      pop\n      pop\n      mload(0x40)\n      returndatasize\n      not(0x1f)\n      0x1f\n      dup3\n      add\n      and\n      dup3\n      add\n      dup1\n      0x40\n      mstore\n      pop\n      dup2\n      add\n      swap1\n      tag_151\n      swap2\n      swap1\n      tag_71\n      jump\t// in\n    tag_151:\n        /* \"RPS.sol\":1006:1038  return timeUnit.elapsedSeconds() */\n      swap1\n      pop\n        /* \"RPS.sol\":938:1046  function elapsedSeconds() public view returns (uint256) { ... */\n      swap1\n      jump\t// out\n        /* \"RPS.sol\":2473:2641  function commit (bytes32 commitInput) public {... */\n    tag_59:\n        /* \"RPS.sol\":2570:2574  true */\n      0x01\n        /* \"RPS.sol\":2537:2574  player_not_played[msg.sender] == true */\n      iszero\n      iszero\n        /* \"RPS.sol\":2537:2554  player_not_played */\n      0x03\n        /* \"RPS.sol\":2537:2566  player_not_played[msg.sender] */\n      0x00\n        /* \"RPS.sol\":2555:2565  msg.sender */\n      caller\n        /* \"RPS.sol\":2537:2566  player_not_played[msg.sender] */\n      0xffffffffffffffffffffffffffffffffffffffff\n      and\n      0xffffffffffffffffffffffffffffffffffffffff\n      and\n      dup2\n      mstore\n      0x20\n      add\n      swap1\n      dup2\n      mstore\n      0x20\n      add\n      0x00\n      keccak256\n      0x00\n      swap1\n      sload\n      swap1\n      0x0100\n      exp\n      swap1\n      div\n      0xff\n      and\n        /* \"RPS.sol\":2537:2574  player_not_played[msg.sender] == true */\n      iszero\n      iszero\n      eq\n        /* \"RPS.sol\":2529:2575  require(player_not_played[msg.sender] == true) */\n      tag_153\n      jumpi\n      0x00\n      dup1\n      revert\n    tag_153:\n        /* \"RPS.sol\":2586:2598  commitReveal */\n      0x07\n      0x00\n      swap1\n      sload\n      swap1\n      0x0100\n      exp\n      swap1\n      div\n      0xffffffffffffffffffffffffffffffffffffffff\n      and\n        /* \"RPS.sol\":2586:2605  commitReveal.commit */\n      0xffffffffffffffffffffffffffffffffffffffff\n      and\n      0x5a746101\n        /* \"RPS.sol\":2606:2617  commitInput */\n      dup3\n        /* \"RPS.sol\":2619:2629  msg.sender */\n      caller\n        /* \"RPS.sol\":2586:2630  commitReveal.commit(commitInput, msg.sender) */\n      mload(0x40)\n      dup4\n      0xffffffff\n      and\n      0xe0\n      shl\n      dup2\n      mstore\n      0x04\n      add\n      tag_154\n      swap3\n      swap2\n      swap1\n      tag_120\n      jump\t// in\n    tag_154:\n      0x00\n      mload(0x40)\n      dup1\n      dup4\n      sub\n      dup2\n      0x00\n      dup8\n      dup1\n      extcodesize\n      iszero\n      dup1\n      iszero\n      tag_155\n      jumpi\n      0x00\n      dup1\n      revert\n    tag_155:\n      pop\n      gas\n      call\n      iszero\n      dup1\n      iszero\n      tag_157\n      jumpi\n      returndatasize\n      0x00\n      dup1\n      returndatacopy\n      revert(0x00, returndatasize)\n    tag_157:\n      pop\n      pop\n      pop\n      pop\n        /* \"RPS.sol\":2473:2641  function commit (bytes32 commitInput) public {... */\n      pop\n      jump\t// out\n        /* \"RPS.sol\":402:426  address[] public players */\n    tag_64:\n      0x04\n      dup2\n      dup2\n      sload\n      dup2\n      lt\n      tag_158\n      jumpi\n      0x00\n      dup1\n      revert\n    tag_158:\n      swap1\n      0x00\n      mstore\n      keccak256(0x00, 0x20)\n      add\n      0x00\n      swap2\n      pop\n      sload\n      swap1\n      0x0100\n      exp\n      swap1\n      div\n      0xffffffffffffffffffffffffffffffffffffffff\n      and\n      dup2\n      jump\t// out\n        /* \"RPS.sol\":6399:6566  function resetGame() private {... */\n    tag_93:\n        /* \"RPS.sol\":6451:6452  0 */\n      0x00\n        /* \"RPS.sol\":6439:6448  numPlayer */\n      dup1\n        /* \"RPS.sol\":6439:6452  numPlayer = 0 */\n      dup2\n      swap1\n      sstore\n      pop\n        /* \"RPS.sol\":6472:6473  0 */\n      0x00\n        /* \"RPS.sol\":6463:6469  reward */\n      0x01\n        /* \"RPS.sol\":6463:6473  reward = 0 */\n      dup2\n      swap1\n      sstore\n      pop\n        /* \"RPS.sol\":6495:6496  0 */\n      0x00\n        /* \"RPS.sol\":6484:6492  numInput */\n      0x05\n        /* \"RPS.sol\":6484:6496  numInput = 0 */\n      dup2\n      swap1\n      sstore\n      pop\n        /* \"RPS.sol\":6514:6521  players */\n      0x04\n      0x00\n        /* \"RPS.sol\":6507:6521  delete players */\n      tag_161\n      swap2\n      swap1\n      tag_162\n      jump\t// in\n    tag_161:\n        /* \"RPS.sol\":6532:6544  commitReveal */\n      0x07\n      0x00\n      swap1\n      sload\n      swap1\n      0x0100\n      exp\n      swap1\n      div\n      0xffffffffffffffffffffffffffffffffffffffff\n      and\n        /* \"RPS.sol\":6532:6556  commitReveal.restartGame */\n      0xffffffffffffffffffffffffffffffffffffffff\n      and\n      0x8d25af04\n        /* \"RPS.sol\":6532:6558  commitReveal.restartGame() */\n      mload(0x40)\n      dup2\n      0xffffffff\n      and\n      0xe0\n      shl\n      dup2\n      mstore\n      0x04\n      add\n      0x00\n      mload(0x40)\n      dup1\n      dup4\n      sub\n      dup2\n      0x00\n      dup8\n      dup1\n      extcodesize\n      iszero\n      dup1\n      iszero\n      tag_163\n      jumpi\n      0x00\n      dup1\n      revert\n    tag_163:\n      pop\n      gas\n      call\n      iszero\n      dup1\n      iszero\n      tag_165\n      jumpi\n      returndatasize\n      0x00\n      dup1\n      returndatacopy\n      revert(0x00, returndatasize)\n    tag_165:\n      pop\n      pop\n      pop\n      pop\n        /* \"RPS.sol\":6399:6566  function resetGame() private {... */\n      jump\t// out\n        /* \"RPS.sol\":3059:3926  function input(bytes1 value) private  {... */\n    tag_130:\n        /* \"RPS.sol\":3108:3119  uint choice */\n      0x00\n        /* \"RPS.sol\":3143:3147  0x00 */\n      dup1\n        /* \"RPS.sol\":3134:3147  value == 0x00 */\n      0xf8\n      shl\n        /* \"RPS.sol\":3134:3139  value */\n      dup3\n        /* \"RPS.sol\":3134:3147  value == 0x00 */\n      not(0xffffffffffffffffffffffffffffffffffffffffffffffffffffffffffffff)\n      and\n      sub\n        /* \"RPS.sol\":3130:3475  if (value == 0x00) {... */\n      tag_167\n      jumpi\n        /* \"RPS.sol\":3173:3174  0 */\n      0x00\n        /* \"RPS.sol\":3164:3174  choice = 0 */\n      swap1\n      pop\n        /* \"RPS.sol\":3130:3475  if (value == 0x00) {... */\n      jump(tag_168)\n    tag_167:\n        /* \"RPS.sol\":3205:3209  0x01 */\n      0x01\n        /* \"RPS.sol\":3196:3209  value == 0x01 */\n      0xf8\n      shl\n        /* \"RPS.sol\":3196:3201  value */\n      dup3\n        /* \"RPS.sol\":3196:3209  value == 0x01 */\n      not(0xffffffffffffffffffffffffffffffffffffffffffffffffffffffffffffff)\n      and\n      sub\n        /* \"RPS.sol\":3192:3475  if (value == 0x01){... */\n      tag_169\n      jumpi\n        /* \"RPS.sol\":3234:3235  1 */\n      0x01\n        /* \"RPS.sol\":3225:3235  choice = 1 */\n      swap1\n      pop\n        /* \"RPS.sol\":3192:3475  if (value == 0x01){... */\n      jump(tag_170)\n    tag_169:\n        /* \"RPS.sol\":3266:3270  0x02 */\n      0x02\n        /* \"RPS.sol\":3257:3270  value == 0x02 */\n      0xf8\n      shl\n        /* \"RPS.sol\":3257:3262  value */\n      dup3\n        /* \"RPS.sol\":3257:3270  value == 0x02 */\n      not(0xffffffffffffffffffffffffffffffffffffffffffffffffffffffffffffff)\n      and\n      sub\n        /* \"RPS.sol\":3253:3475  if (value == 0x02){... */\n      tag_171\n      jumpi\n        /* \"RPS.sol\":3295:3296  2 */\n      0x02\n        /* \"RPS.sol\":3286:3296  choice = 2 */\n      swap1\n      pop\n        /* \"RPS.sol\":3253:3475  if (value == 0x02){... */\n      jump(tag_172)\n    tag_171:\n        /* \"RPS.sol\":3327:3331  0x03 */\n      0x03\n        /* \"RPS.sol\":3318:3331  value == 0x03 */\n      0xf8\n      shl\n        /* \"RPS.sol\":3318:3323  value */\n      dup3\n        /* \"RPS.sol\":3318:3331  value == 0x03 */\n      not(0xffffffffffffffffffffffffffffffffffffffffffffffffffffffffffffff)\n      and\n      sub\n        /* \"RPS.sol\":3314:3475  if (value == 0x03){... */\n      tag_173\n      jumpi\n        /* \"RPS.sol\":3356:3357  3 */\n      0x03\n        /* \"RPS.sol\":3347:3357  choice = 3 */\n      swap1\n      pop\n        /* \"RPS.sol\":3314:3475  if (value == 0x03){... */\n      jump(tag_174)\n    tag_173:\n        /* \"RPS.sol\":3388:3392  0x04 */\n      0x04\n        /* \"RPS.sol\":3379:3392  value == 0x04 */\n      0xf8\n      shl\n        /* \"RPS.sol\":3379:3384  value */\n      dup3\n        /* \"RPS.sol\":3379:3392  value == 0x04 */\n      not(0xffffffffffffffffffffffffffffffffffffffffffffffffffffffffffffff)\n      and\n      sub\n        /* \"RPS.sol\":3375:3475  if (value == 0x04){... */\n      tag_175\n      jumpi\n        /* \"RPS.sol\":3417:3418  4 */\n      0x04\n        /* \"RPS.sol\":3408:3418  choice = 4 */\n      swap1\n      pop\n        /* \"RPS.sol\":3375:3475  if (value == 0x04){... */\n      jump(tag_176)\n    tag_175:\n        /* \"RPS.sol\":3460:3463  999 */\n      0x03e7\n        /* \"RPS.sol\":3451:3463  choice = 999 */\n      swap1\n      pop\n        /* \"RPS.sol\":3375:3475  if (value == 0x04){... */\n    tag_176:\n        /* \"RPS.sol\":3314:3475  if (value == 0x03){... */\n    tag_174:\n        /* \"RPS.sol\":3253:3475  if (value == 0x02){... */\n    tag_172:\n        /* \"RPS.sol\":3192:3475  if (value == 0x01){... */\n    tag_170:\n        /* \"RPS.sol\":3130:3475  if (value == 0x00) {... */\n    tag_168:\n        /* \"RPS.sol\":3506:3507  2 */\n      0x02\n        /* \"RPS.sol\":3493:3502  numPlayer */\n      sload(0x00)\n        /* \"RPS.sol\":3493:3507  numPlayer == 2 */\n      eq\n        /* \"RPS.sol\":3485:3508  require(numPlayer == 2) */\n      tag_177\n      jumpi\n      0x00\n      dup1\n      revert\n    tag_177:\n        /* \"RPS.sol\":3560:3564  true */\n      0x01\n        /* \"RPS.sol\":3527:3564  player_not_played[msg.sender] == true */\n      iszero\n      iszero\n        /* \"RPS.sol\":3527:3544  player_not_played */\n      0x03\n        /* \"RPS.sol\":3527:3556  player_not_played[msg.sender] */\n      0x00\n        /* \"RPS.sol\":3545:3555  msg.sender */\n      caller\n        /* \"RPS.sol\":3527:3556  player_not_played[msg.sender] */\n      0xffffffffffffffffffffffffffffffffffffffff\n      and\n      0xffffffffffffffffffffffffffffffffffffffff\n      and\n      dup2\n      mstore\n      0x20\n      add\n      swap1\n      dup2\n      mstore\n      0x20\n      add\n      0x00\n      keccak256\n      0x00\n      swap1\n      sload\n      swap1\n      0x0100\n      exp\n      swap1\n      div\n      0xff\n      and\n        /* \"RPS.sol\":3527:3564  player_not_played[msg.sender] == true */\n      iszero\n      iszero\n      eq\n        /* \"RPS.sol\":3519:3565  require(player_not_played[msg.sender] == true) */\n      tag_178\n      jumpi\n      0x00\n      dup1\n      revert\n    tag_178:\n        /* \"RPS.sol\":3594:3595  0 */\n      0x00\n        /* \"RPS.sol\":3584:3590  choice */\n      dup2\n        /* \"RPS.sol\":3584:3595  choice == 0 */\n      eq\n        /* \"RPS.sol\":3584:3610  choice == 0 || choice == 1 */\n      dup1\n      tag_179\n      jumpi\n      pop\n        /* \"RPS.sol\":3609:3610  1 */\n      0x01\n        /* \"RPS.sol\":3599:3605  choice */\n      dup2\n        /* \"RPS.sol\":3599:3610  choice == 1 */\n      eq\n        /* \"RPS.sol\":3584:3610  choice == 0 || choice == 1 */\n    tag_179:\n        /* \"RPS.sol\":3584:3625  choice == 0 || choice == 1 || choice == 2 */\n      dup1\n      tag_180\n      jumpi\n      pop\n        /* \"RPS.sol\":3624:3625  2 */\n      0x02\n        /* \"RPS.sol\":3614:3620  choice */\n      dup2\n        /* \"RPS.sol\":3614:3625  choice == 2 */\n      eq\n        /* \"RPS.sol\":3584:3625  choice == 0 || choice == 1 || choice == 2 */\n    tag_180:\n        /* \"RPS.sol\":3584:3640  choice == 0 || choice == 1 || choice == 2 || choice == 3 */\n      dup1\n      tag_181\n      jumpi\n      pop\n        /* \"RPS.sol\":3639:3640  3 */\n      0x03\n        /* \"RPS.sol\":3629:3635  choice */\n      dup2\n        /* \"RPS.sol\":3629:3640  choice == 3 */\n      eq\n        /* \"RPS.sol\":3584:3640  choice == 0 || choice == 1 || choice == 2 || choice == 3 */\n    tag_181:\n        /* \"RPS.sol\":3584:3655  choice == 0 || choice == 1 || choice == 2 || choice == 3 || choice == 4 */\n      dup1\n      tag_182\n      jumpi\n      pop\n        /* \"RPS.sol\":3654:3655  4 */\n      0x04\n        /* \"RPS.sol\":3644:3650  choice */\n      dup2\n        /* \"RPS.sol\":3644:3655  choice == 4 */\n      eq\n        /* \"RPS.sol\":3584:3655  choice == 0 || choice == 1 || choice == 2 || choice == 3 || choice == 4 */\n    tag_182:\n        /* \"RPS.sol\":3576:3656  require(choice == 0 || choice == 1 || choice == 2 || choice == 3 || choice == 4) */\n      tag_183\n      jumpi\n      0x00\n      dup1\n      revert\n    tag_183:\n        /* \"RPS.sol\":3695:3701  choice */\n      dup1\n        /* \"RPS.sol\":3667:3680  player_choice */\n      0x02\n        /* \"RPS.sol\":3667:3692  player_choice[msg.sender] */\n      0x00\n        /* \"RPS.sol\":3681:3691  msg.sender */\n      caller\n        /* \"RPS.sol\":3667:3692  player_choice[msg.sender] */\n      0xffffffffffffffffffffffffffffffffffffffff\n      and\n      0xffffffffffffffffffffffffffffffffffffffff\n      and\n      dup2\n      mstore\n      0x20\n      add\n      swap1\n      dup2\n      mstore\n      0x20\n      add\n      0x00\n      keccak256\n        /* \"RPS.sol\":3667:3701  player_choice[msg.sender] = choice */\n      dup2\n      swap1\n      sstore\n      pop\n        /* \"RPS.sol\":3712:3720  numInput */\n      0x05\n      0x00\n        /* \"RPS.sol\":3712:3722  numInput++ */\n      dup2\n      sload\n      dup1\n      swap3\n      swap2\n      swap1\n      tag_184\n      swap1\n      tag_110\n      jump\t// in\n    tag_184:\n      swap2\n      swap1\n      pop\n      sstore\n      pop\n        /* \"RPS.sol\":3819:3827  timeUnit */\n      0x06\n      0x00\n      swap1\n      sload\n      swap1\n      0x0100\n      exp\n      swap1\n      div\n      0xffffffffffffffffffffffffffffffffffffffff\n      and\n        /* \"RPS.sol\":3819:3840  timeUnit.setStartTime */\n      0xffffffffffffffffffffffffffffffffffffffff\n      and\n      0xa63f7c53\n        /* \"RPS.sol\":3819:3842  timeUnit.setStartTime() */\n      mload(0x40)\n      dup2\n      0xffffffff\n      and\n      0xe0\n      shl\n      dup2\n      mstore\n      0x04\n      add\n      0x00\n      mload(0x40)\n      dup1\n      dup4\n      sub\n      dup2\n      0x00\n      dup8\n      dup1\n      extcodesize\n      iszero\n      dup1\n      iszero\n      tag_185\n      jumpi\n      0x00\n      dup1\n      revert\n    tag_185:\n      pop\n      gas\n      call\n      iszero\n      dup1\n      iszero\n      tag_187\n      jumpi\n      returndatasize\n      0x00\n      dup1\n      returndatacopy\n      revert(0x00, returndatasize)\n    tag_187:\n      pop\n      pop\n      pop\n      pop\n        /* \"RPS.sol\":3869:3870  2 */\n      0x02\n        /* \"RPS.sol\":3857:3865  numInput */\n      sload(0x05)\n        /* \"RPS.sol\":3857:3870  numInput == 2 */\n      sub\n        /* \"RPS.sol\":3853:3919  if (numInput == 2) {... */\n      tag_188\n      jumpi\n        /* \"RPS.sol\":3887:3907  _checkWinnerAndPay() */\n      tag_189\n        /* \"RPS.sol\":3887:3905  _checkWinnerAndPay */\n      tag_190\n        /* \"RPS.sol\":3887:3907  _checkWinnerAndPay() */\n      jump\t// in\n    tag_189:\n        /* \"RPS.sol\":3853:3919  if (numInput == 2) {... */\n    tag_188:\n        /* \"RPS.sol\":3097:3926  {... */\n      pop\n        /* \"RPS.sol\":3059:3926  function input(bytes1 value) private  {... */\n      pop\n      jump\t// out\n        /* \"RPS.sol\":4065:5453  function _checkWinnerAndPay() private {... */\n    tag_190:\n        /* \"RPS.sol\":4114:4127  uint p0Choice */\n      0x00\n        /* \"RPS.sol\":4130:4143  player_choice */\n      0x02\n        /* \"RPS.sol\":4130:4155  player_choice[players[0]] */\n      0x00\n        /* \"RPS.sol\":4144:4151  players */\n      0x04\n        /* \"RPS.sol\":4152:4153  0 */\n      0x00\n        /* \"RPS.sol\":4144:4154  players[0] */\n      dup2\n      sload\n      dup2\n      lt\n      tag_192\n      jumpi\n      tag_193\n      tag_80\n      jump\t// in\n    tag_193:\n    tag_192:\n      swap1\n      0x00\n      mstore\n      keccak256(0x00, 0x20)\n      add\n      0x00\n      swap1\n      sload\n      swap1\n      0x0100\n      exp\n      swap1\n      div\n      0xffffffffffffffffffffffffffffffffffffffff\n      and\n        /* \"RPS.sol\":4130:4155  player_choice[players[0]] */\n      0xffffffffffffffffffffffffffffffffffffffff\n      and\n      0xffffffffffffffffffffffffffffffffffffffff\n      and\n      dup2\n      mstore\n      0x20\n      add\n      swap1\n      dup2\n      mstore\n      0x20\n      add\n      0x00\n      keccak256\n      sload\n        /* \"RPS.sol\":4114:4155  uint p0Choice = player_choice[players[0]] */\n      swap1\n      pop\n        /* \"RPS.sol\":4166:4179  uint p1Choice */\n      0x00\n        /* \"RPS.sol\":4182:4195  player_choice */\n      0x02\n        /* \"RPS.sol\":4182:4207  player_choice[players[1]] */\n      0x00\n        /* \"RPS.sol\":4196:4203  players */\n      0x04\n        /* \"RPS.sol\":4204:4205  1 */\n      0x01\n        /* \"RPS.sol\":4196:4206  players[1] */\n      dup2\n      sload\n      dup2\n      lt\n      tag_195\n      jumpi\n      tag_196\n      tag_80\n      jump\t// in\n    tag_196:\n    tag_195:\n      swap1\n      0x00\n      mstore\n      keccak256(0x00, 0x20)\n      add\n      0x00\n      swap1\n      sload\n      swap1\n      0x0100\n      exp\n      swap1\n      div\n      0xffffffffffffffffffffffffffffffffffffffff\n      and\n        /* \"RPS.sol\":4182:4207  player_choice[players[1]] */\n      0xffffffffffffffffffffffffffffffffffffffff\n      and\n      0xffffffffffffffffffffffffffffffffffffffff\n      and\n      dup2\n      mstore\n      0x20\n      add\n      swap1\n      dup2\n      mstore\n      0x20\n      add\n      0x00\n      keccak256\n      sload\n        /* \"RPS.sol\":4166:4207  uint p1Choice = player_choice[players[1]] */\n      swap1\n      pop\n        /* \"RPS.sol\":4218:4242  address payable account0 */\n      0x00\n        /* \"RPS.sol\":4253:4260  players */\n      0x04\n        /* \"RPS.sol\":4261:4262  0 */\n      0x00\n        /* \"RPS.sol\":4253:4263  players[0] */\n      dup2\n      sload\n      dup2\n      lt\n      tag_198\n      jumpi\n      tag_199\n      tag_80\n      jump\t// in\n    tag_199:\n    tag_198:\n      swap1\n      0x00\n      mstore\n      keccak256(0x00, 0x20)\n      add\n      0x00\n      swap1\n      sload\n      swap1\n      0x0100\n      exp\n      swap1\n      div\n      0xffffffffffffffffffffffffffffffffffffffff\n      and\n        /* \"RPS.sol\":4218:4264  address payable account0 = payable(players[0]) */\n      swap1\n      pop\n        /* \"RPS.sol\":4275:4299  address payable account1 */\n      0x00\n        /* \"RPS.sol\":4310:4317  players */\n      0x04\n        /* \"RPS.sol\":4318:4319  1 */\n      0x01\n        /* \"RPS.sol\":4310:4320  players[1] */\n      dup2\n      sload\n      dup2\n      lt\n      tag_201\n      jumpi\n      tag_202\n      tag_80\n      jump\t// in\n    tag_202:\n    tag_201:\n      swap1\n      0x00\n      mstore\n      keccak256(0x00, 0x20)\n      add\n      0x00\n      swap1\n      sload\n      swap1\n      0x0100\n      exp\n      swap1\n      div\n      0xffffffffffffffffffffffffffffffffffffffff\n      and\n        /* \"RPS.sol\":4275:4321  address payable account1 = payable(players[1]) */\n      swap1\n      pop\n        /* \"RPS.sol\":4358:4366  p1Choice */\n      dup3\n        /* \"RPS.sol\":4353:4354  3 */\n      0x03\n        /* \"RPS.sol\":4348:4349  1 */\n      0x01\n        /* \"RPS.sol\":4337:4345  p0Choice */\n      dup7\n        /* \"RPS.sol\":4337:4349  p0Choice + 1 */\n      tag_204\n      swap2\n      swap1\n      tag_107\n      jump\t// in\n    tag_204:\n        /* \"RPS.sol\":4336:4354  (p0Choice + 1) % 3 */\n      tag_205\n      swap2\n      swap1\n      tag_206\n      jump\t// in\n    tag_205:\n        /* \"RPS.sol\":4336:4366  (p0Choice + 1) % 3 == p1Choice */\n      eq\n        /* \"RPS.sol\":4336:4416  (p0Choice + 1) % 3 == p1Choice || ... */\n      dup1\n      tag_207\n      jumpi\n      pop\n        /* \"RPS.sol\":4397:4398  3 */\n      0x03\n        /* \"RPS.sol\":4385:4393  p0Choice */\n      dup5\n        /* \"RPS.sol\":4385:4398  p0Choice == 3 */\n      eq\n        /* \"RPS.sol\":4385:4415  p0Choice == 3 && p1Choice == 0 */\n      dup1\n      iszero\n      tag_208\n      jumpi\n      pop\n        /* \"RPS.sol\":4414:4415  0 */\n      0x00\n        /* \"RPS.sol\":4402:4410  p1Choice */\n      dup4\n        /* \"RPS.sol\":4402:4415  p1Choice == 0 */\n      eq\n        /* \"RPS.sol\":4385:4415  p0Choice == 3 && p1Choice == 0 */\n    tag_208:\n        /* \"RPS.sol\":4336:4416  (p0Choice + 1) % 3 == p1Choice || ... */\n    tag_207:\n        /* \"RPS.sol\":4336:4465  (p0Choice + 1) % 3 == p1Choice || ... */\n      dup1\n      tag_209\n      jumpi\n      pop\n        /* \"RPS.sol\":4446:4447  4 */\n      0x04\n        /* \"RPS.sol\":4434:4442  p0Choice */\n      dup5\n        /* \"RPS.sol\":4434:4447  p0Choice == 4 */\n      eq\n        /* \"RPS.sol\":4434:4464  p0Choice == 4 && p1Choice == 3 */\n      dup1\n      iszero\n      tag_210\n      jumpi\n      pop\n        /* \"RPS.sol\":4463:4464  3 */\n      0x03\n        /* \"RPS.sol\":4451:4459  p1Choice */\n      dup4\n        /* \"RPS.sol\":4451:4464  p1Choice == 3 */\n      eq\n        /* \"RPS.sol\":4434:4464  p0Choice == 4 && p1Choice == 3 */\n    tag_210:\n        /* \"RPS.sol\":4336:4465  (p0Choice + 1) % 3 == p1Choice || ... */\n    tag_209:\n        /* \"RPS.sol\":4336:4514  (p0Choice + 1) % 3 == p1Choice || ... */\n      dup1\n      tag_211\n      jumpi\n      pop\n        /* \"RPS.sol\":4495:4496  2 */\n      0x02\n        /* \"RPS.sol\":4483:4491  p0Choice */\n      dup5\n        /* \"RPS.sol\":4483:4496  p0Choice == 2 */\n      eq\n        /* \"RPS.sol\":4483:4513  p0Choice == 2 && p1Choice == 4 */\n      dup1\n      iszero\n      tag_212\n      jumpi\n      pop\n        /* \"RPS.sol\":4512:4513  4 */\n      0x04\n        /* \"RPS.sol\":4500:4508  p1Choice */\n      dup4\n        /* \"RPS.sol\":4500:4513  p1Choice == 4 */\n      eq\n        /* \"RPS.sol\":4483:4513  p0Choice == 2 && p1Choice == 4 */\n    tag_212:\n        /* \"RPS.sol\":4336:4514  (p0Choice + 1) % 3 == p1Choice || ... */\n    tag_211:\n        /* \"RPS.sol\":4336:4563  (p0Choice + 1) % 3 == p1Choice || ... */\n      dup1\n      tag_213\n      jumpi\n      pop\n        /* \"RPS.sol\":4544:4545  3 */\n      0x03\n        /* \"RPS.sol\":4532:4540  p0Choice */\n      dup5\n        /* \"RPS.sol\":4532:4545  p0Choice == 3 */\n      eq\n        /* \"RPS.sol\":4532:4562  p0Choice == 3 && p1Choice == 2 */\n      dup1\n      iszero\n      tag_214\n      jumpi\n      pop\n        /* \"RPS.sol\":4561:4562  2 */\n      0x02\n        /* \"RPS.sol\":4549:4557  p1Choice */\n      dup4\n        /* \"RPS.sol\":4549:4562  p1Choice == 2 */\n      eq\n        /* \"RPS.sol\":4532:4562  p0Choice == 3 && p1Choice == 2 */\n    tag_214:\n        /* \"RPS.sol\":4336:4563  (p0Choice + 1) % 3 == p1Choice || ... */\n    tag_213:\n        /* \"RPS.sol\":4336:4612  (p0Choice + 1) % 3 == p1Choice || ... */\n      dup1\n      tag_215\n      jumpi\n      pop\n        /* \"RPS.sol\":4593:4594  1 */\n      0x01\n        /* \"RPS.sol\":4581:4589  p0Choice */\n      dup5\n        /* \"RPS.sol\":4581:4594  p0Choice == 1 */\n      eq\n        /* \"RPS.sol\":4581:4611  p0Choice == 1 && p1Choice == 3 */\n      dup1\n      iszero\n      tag_216\n      jumpi\n      pop\n        /* \"RPS.sol\":4610:4611  3 */\n      0x03\n        /* \"RPS.sol\":4598:4606  p1Choice */\n      dup4\n        /* \"RPS.sol\":4598:4611  p1Choice == 3 */\n      eq\n        /* \"RPS.sol\":4581:4611  p0Choice == 1 && p1Choice == 3 */\n    tag_216:\n        /* \"RPS.sol\":4336:4612  (p0Choice + 1) % 3 == p1Choice || ... */\n    tag_215:\n        /* \"RPS.sol\":4336:4661  (p0Choice + 1) % 3 == p1Choice || ... */\n      dup1\n      tag_217\n      jumpi\n      pop\n        /* \"RPS.sol\":4642:4643  0 */\n      0x00\n        /* \"RPS.sol\":4630:4638  p0Choice */\n      dup5\n        /* \"RPS.sol\":4630:4643  p0Choice == 0 */\n      eq\n        /* \"RPS.sol\":4630:4660  p0Choice == 0 && p1Choice == 4 */\n      dup1\n      iszero\n      tag_218\n      jumpi\n      pop\n        /* \"RPS.sol\":4659:4660  4 */\n      0x04\n        /* \"RPS.sol\":4647:4655  p1Choice */\n      dup4\n        /* \"RPS.sol\":4647:4660  p1Choice == 4 */\n      eq\n        /* \"RPS.sol\":4630:4660  p0Choice == 0 && p1Choice == 4 */\n    tag_218:\n        /* \"RPS.sol\":4336:4661  (p0Choice + 1) % 3 == p1Choice || ... */\n    tag_217:\n        /* \"RPS.sol\":4336:4710  (p0Choice + 1) % 3 == p1Choice || ... */\n      dup1\n      tag_219\n      jumpi\n      pop\n        /* \"RPS.sol\":4691:4692  1 */\n      0x01\n        /* \"RPS.sol\":4679:4687  p0Choice */\n      dup5\n        /* \"RPS.sol\":4679:4692  p0Choice == 1 */\n      eq\n        /* \"RPS.sol\":4679:4709  p0Choice == 1 && p1Choice == 4 */\n      dup1\n      iszero\n      tag_220\n      jumpi\n      pop\n        /* \"RPS.sol\":4708:4709  4 */\n      0x04\n        /* \"RPS.sol\":4696:4704  p1Choice */\n      dup4\n        /* \"RPS.sol\":4696:4709  p1Choice == 4 */\n      eq\n        /* \"RPS.sol\":4679:4709  p0Choice == 1 && p1Choice == 4 */\n    tag_220:\n        /* \"RPS.sol\":4336:4710  (p0Choice + 1) % 3 == p1Choice || ... */\n    tag_219:\n        /* \"RPS.sol\":4332:5424  if ((p0Choice + 1) % 3 == p1Choice || ... */\n      iszero\n      tag_221\n      jumpi\n        /* \"RPS.sol\":4760:4768  account1 */\n      dup1\n        /* \"RPS.sol\":4760:4777  account1.transfer */\n      0xffffffffffffffffffffffffffffffffffffffff\n      and\n        /* \"RPS.sol\":4760:4785  account1.transfer(reward) */\n      0x08fc\n        /* \"RPS.sol\":4778:4784  reward */\n      sload(0x01)\n        /* \"RPS.sol\":4760:4785  account1.transfer(reward) */\n      swap1\n      dup2\n      iszero\n      mul\n      swap1\n      mload(0x40)\n      0x00\n      mload(0x40)\n      dup1\n      dup4\n      sub\n      dup2\n      dup6\n      dup9\n      dup9\n      call\n      swap4\n      pop\n      pop\n      pop\n      pop\n      iszero\n      dup1\n      iszero\n      tag_223\n      jumpi\n      returndatasize\n      0x00\n      dup1\n      returndatacopy\n      revert(0x00, returndatasize)\n    tag_223:\n      pop\n        /* \"RPS.sol\":4332:5424  if ((p0Choice + 1) % 3 == p1Choice || ... */\n      jump(tag_224)\n    tag_221:\n        /* \"RPS.sol\":4838:4846  p0Choice */\n      dup4\n        /* \"RPS.sol\":4833:4834  3 */\n      0x03\n        /* \"RPS.sol\":4828:4829  1 */\n      0x01\n        /* \"RPS.sol\":4817:4825  p1Choice */\n      dup6\n        /* \"RPS.sol\":4817:4829  p1Choice + 1 */\n      tag_225\n      swap2\n      swap1\n      tag_107\n      jump\t// in\n    tag_225:\n        /* \"RPS.sol\":4816:4834  (p1Choice + 1) % 3 */\n      tag_226\n      swap2\n      swap1\n      tag_206\n      jump\t// in\n    tag_226:\n        /* \"RPS.sol\":4816:4846  (p1Choice + 1) % 3 == p0Choice */\n      eq\n        /* \"RPS.sol\":4816:4895  (p1Choice + 1) % 3 == p0Choice ||... */\n      dup1\n      tag_227\n      jumpi\n      pop\n        /* \"RPS.sol\":4876:4877  3 */\n      0x03\n        /* \"RPS.sol\":4864:4872  p1Choice */\n      dup4\n        /* \"RPS.sol\":4864:4877  p1Choice == 3 */\n      eq\n        /* \"RPS.sol\":4864:4894  p1Choice == 3 && p0Choice == 0 */\n      dup1\n      iszero\n      tag_228\n      jumpi\n      pop\n        /* \"RPS.sol\":4893:4894  0 */\n      0x00\n        /* \"RPS.sol\":4881:4889  p0Choice */\n      dup5\n        /* \"RPS.sol\":4881:4894  p0Choice == 0 */\n      eq\n        /* \"RPS.sol\":4864:4894  p1Choice == 3 && p0Choice == 0 */\n    tag_228:\n        /* \"RPS.sol\":4816:4895  (p1Choice + 1) % 3 == p0Choice ||... */\n    tag_227:\n        /* \"RPS.sol\":4816:4944  (p1Choice + 1) % 3 == p0Choice ||... */\n      dup1\n      tag_229\n      jumpi\n      pop\n        /* \"RPS.sol\":4925:4926  4 */\n      0x04\n        /* \"RPS.sol\":4913:4921  p1Choice */\n      dup4\n        /* \"RPS.sol\":4913:4926  p1Choice == 4 */\n      eq\n        /* \"RPS.sol\":4913:4943  p1Choice == 4 && p0Choice == 3 */\n      dup1\n      iszero\n      tag_230\n      jumpi\n      pop\n        /* \"RPS.sol\":4942:4943  3 */\n      0x03\n        /* \"RPS.sol\":4930:4938  p0Choice */\n      dup5\n        /* \"RPS.sol\":4930:4943  p0Choice == 3 */\n      eq\n        /* \"RPS.sol\":4913:4943  p1Choice == 4 && p0Choice == 3 */\n    tag_230:\n        /* \"RPS.sol\":4816:4944  (p1Choice + 1) % 3 == p0Choice ||... */\n    tag_229:\n        /* \"RPS.sol\":4816:4993  (p1Choice + 1) % 3 == p0Choice ||... */\n      dup1\n      tag_231\n      jumpi\n      pop\n        /* \"RPS.sol\":4974:4975  2 */\n      0x02\n        /* \"RPS.sol\":4962:4970  p1Choice */\n      dup4\n        /* \"RPS.sol\":4962:4975  p1Choice == 2 */\n      eq\n        /* \"RPS.sol\":4962:4992  p1Choice == 2 && p0Choice == 4 */\n      dup1\n      iszero\n      tag_232\n      jumpi\n      pop\n        /* \"RPS.sol\":4991:4992  4 */\n      0x04\n        /* \"RPS.sol\":4979:4987  p0Choice */\n      dup5\n        /* \"RPS.sol\":4979:4992  p0Choice == 4 */\n      eq\n        /* \"RPS.sol\":4962:4992  p1Choice == 2 && p0Choice == 4 */\n    tag_232:\n        /* \"RPS.sol\":4816:4993  (p1Choice + 1) % 3 == p0Choice ||... */\n    tag_231:\n        /* \"RPS.sol\":4816:5042  (p1Choice + 1) % 3 == p0Choice ||... */\n      dup1\n      tag_233\n      jumpi\n      pop\n        /* \"RPS.sol\":5023:5024  3 */\n      0x03\n        /* \"RPS.sol\":5011:5019  p1Choice */\n      dup4\n        /* \"RPS.sol\":5011:5024  p1Choice == 3 */\n      eq\n        /* \"RPS.sol\":5011:5041  p1Choice == 3 && p0Choice == 2 */\n      dup1\n      iszero\n      tag_234\n      jumpi\n      pop\n        /* \"RPS.sol\":5040:5041  2 */\n      0x02\n        /* \"RPS.sol\":5028:5036  p0Choice */\n      dup5\n        /* \"RPS.sol\":5028:5041  p0Choice == 2 */\n      eq\n        /* \"RPS.sol\":5011:5041  p1Choice == 3 && p0Choice == 2 */\n    tag_234:\n        /* \"RPS.sol\":4816:5042  (p1Choice + 1) % 3 == p0Choice ||... */\n    tag_233:\n        /* \"RPS.sol\":4816:5091  (p1Choice + 1) % 3 == p0Choice ||... */\n      dup1\n      tag_235\n      jumpi\n      pop\n        /* \"RPS.sol\":5072:5073  1 */\n      0x01\n        /* \"RPS.sol\":5060:5068  p1Choice */\n      dup4\n        /* \"RPS.sol\":5060:5073  p1Choice == 1 */\n      eq\n        /* \"RPS.sol\":5060:5090  p1Choice == 1 && p0Choice == 3 */\n      dup1\n      iszero\n      tag_236\n      jumpi\n      pop\n        /* \"RPS.sol\":5089:5090  3 */\n      0x03\n        /* \"RPS.sol\":5077:5085  p0Choice */\n      dup5\n        /* \"RPS.sol\":5077:5090  p0Choice == 3 */\n      eq\n        /* \"RPS.sol\":5060:5090  p1Choice == 1 && p0Choice == 3 */\n    tag_236:\n        /* \"RPS.sol\":4816:5091  (p1Choice + 1) % 3 == p0Choice ||... */\n    tag_235:\n        /* \"RPS.sol\":4816:5140  (p1Choice + 1) % 3 == p0Choice ||... */\n      dup1\n      tag_237\n      jumpi\n      pop\n        /* \"RPS.sol\":5121:5122  0 */\n      0x00\n        /* \"RPS.sol\":5109:5117  p1Choice */\n      dup4\n        /* \"RPS.sol\":5109:5122  p1Choice == 0 */\n      eq\n        /* \"RPS.sol\":5109:5139  p1Choice == 0 && p0Choice == 4 */\n      dup1\n      iszero\n      tag_238\n      jumpi\n      pop\n        /* \"RPS.sol\":5138:5139  4 */\n      0x04\n        /* \"RPS.sol\":5126:5134  p0Choice */\n      dup5\n        /* \"RPS.sol\":5126:5139  p0Choice == 4 */\n      eq\n        /* \"RPS.sol\":5109:5139  p1Choice == 0 && p0Choice == 4 */\n    tag_238:\n        /* \"RPS.sol\":4816:5140  (p1Choice + 1) % 3 == p0Choice ||... */\n    tag_237:\n        /* \"RPS.sol\":4816:5189  (p1Choice + 1) % 3 == p0Choice ||... */\n      dup1\n      tag_239\n      jumpi\n      pop\n        /* \"RPS.sol\":5170:5171  1 */\n      0x01\n        /* \"RPS.sol\":5158:5166  p1Choice */\n      dup4\n        /* \"RPS.sol\":5158:5171  p1Choice == 1 */\n      eq\n        /* \"RPS.sol\":5158:5188  p1Choice == 1 && p0Choice == 4 */\n      dup1\n      iszero\n      tag_240\n      jumpi\n      pop\n        /* \"RPS.sol\":5187:5188  4 */\n      0x04\n        /* \"RPS.sol\":5175:5183  p0Choice */\n      dup5\n        /* \"RPS.sol\":5175:5188  p0Choice == 4 */\n      eq\n        /* \"RPS.sol\":5158:5188  p1Choice == 1 && p0Choice == 4 */\n    tag_240:\n        /* \"RPS.sol\":4816:5189  (p1Choice + 1) % 3 == p0Choice ||... */\n    tag_239:\n        /* \"RPS.sol\":4812:5424  if ((p1Choice + 1) % 3 == p0Choice ||... */\n      iszero\n      tag_241\n      jumpi\n        /* \"RPS.sol\":5239:5247  account0 */\n      dup2\n        /* \"RPS.sol\":5239:5256  account0.transfer */\n      0xffffffffffffffffffffffffffffffffffffffff\n      and\n        /* \"RPS.sol\":5239:5264  account0.transfer(reward) */\n      0x08fc\n        /* \"RPS.sol\":5257:5263  reward */\n      sload(0x01)\n        /* \"RPS.sol\":5239:5264  account0.transfer(reward) */\n      swap1\n      dup2\n      iszero\n      mul\n      swap1\n      mload(0x40)\n      0x00\n      mload(0x40)\n      dup1\n      dup4\n      sub\n      dup2\n      dup6\n      dup9\n      dup9\n      call\n      swap4\n      pop\n      pop\n      pop\n      pop\n      iszero\n      dup1\n      iszero\n      tag_243\n      jumpi\n      returndatasize\n      0x00\n      dup1\n      returndatacopy\n      revert(0x00, returndatasize)\n    tag_243:\n      pop\n        /* \"RPS.sol\":4812:5424  if ((p1Choice + 1) % 3 == p0Choice ||... */\n      jump(tag_244)\n    tag_241:\n        /* \"RPS.sol\":5339:5347  account0 */\n      dup2\n        /* \"RPS.sol\":5339:5356  account0.transfer */\n      0xffffffffffffffffffffffffffffffffffffffff\n      and\n        /* \"RPS.sol\":5339:5368  account0.transfer(reward / 2) */\n      0x08fc\n        /* \"RPS.sol\":5366:5367  2 */\n      0x02\n        /* \"RPS.sol\":5357:5363  reward */\n      sload(0x01)\n        /* \"RPS.sol\":5357:5367  reward / 2 */\n      tag_245\n      swap2\n      swap1\n      tag_86\n      jump\t// in\n    tag_245:\n        /* \"RPS.sol\":5339:5368  account0.transfer(reward / 2) */\n      swap1\n      dup2\n      iszero\n      mul\n      swap1\n      mload(0x40)\n      0x00\n      mload(0x40)\n      dup1\n      dup4\n      sub\n      dup2\n      dup6\n      dup9\n      dup9\n      call\n      swap4\n      pop\n      pop\n      pop\n      pop\n      iszero\n      dup1\n      iszero\n      tag_247\n      jumpi\n      returndatasize\n      0x00\n      dup1\n      returndatacopy\n      revert(0x00, returndatasize)\n    tag_247:\n      pop\n        /* \"RPS.sol\":5383:5391  account1 */\n      dup1\n        /* \"RPS.sol\":5383:5400  account1.transfer */\n      0xffffffffffffffffffffffffffffffffffffffff\n      and\n        /* \"RPS.sol\":5383:5412  account1.transfer(reward / 2) */\n      0x08fc\n        /* \"RPS.sol\":5410:5411  2 */\n      0x02\n        /* \"RPS.sol\":5401:5407  reward */\n      sload(0x01)\n        /* \"RPS.sol\":5401:5411  reward / 2 */\n      tag_248\n      swap2\n      swap1\n      tag_86\n      jump\t// in\n    tag_248:\n        /* \"RPS.sol\":5383:5412  account1.transfer(reward / 2) */\n      swap1\n      dup2\n      iszero\n      mul\n      swap1\n      mload(0x40)\n      0x00\n      mload(0x40)\n      dup1\n      dup4\n      sub\n      dup2\n      dup6\n      dup9\n      dup9\n      call\n      swap4\n      pop\n      pop\n      pop\n      pop\n      iszero\n      dup1\n      iszero\n      tag_250\n      jumpi\n      returndatasize\n      0x00\n      dup1\n      returndatacopy\n      revert(0x00, returndatasize)\n    tag_250:\n      pop\n        /* \"RPS.sol\":4812:5424  if ((p1Choice + 1) % 3 == p0Choice ||... */\n    tag_244:\n        /* \"RPS.sol\":4332:5424  if ((p0Choice + 1) % 3 == p1Choice || ... */\n    tag_224:\n        /* \"RPS.sol\":5434:5445  resetGame() */\n      tag_251\n        /* \"RPS.sol\":5434:5443  resetGame */\n      tag_93\n        /* \"RPS.sol\":5434:5445  resetGame() */\n      jump\t// in\n    tag_251:\n        /* \"RPS.sol\":4103:5453  {... */\n      pop\n      pop\n      pop\n      pop\n        /* \"RPS.sol\":4065:5453  function _checkWinnerAndPay() private {... */\n      jump\t// out\n    tag_162:\n      pop\n      dup1\n      sload\n      0x00\n      dup3\n      sstore\n      swap1\n      0x00\n      mstore\n      keccak256(0x00, 0x20)\n      swap1\n      dup2\n      add\n      swap1\n      tag_253\n      swap2\n      swap1\n      tag_254\n      jump\t// in\n    tag_253:\n      pop\n      jump\t// out\n    tag_254:\n    tag_255:\n      dup1\n      dup3\n      gt\n      iszero\n      tag_256\n      jumpi\n      0x00\n      dup2\n      0x00\n      swap1\n      sstore\n      pop\n      0x01\n      add\n      jump(tag_255)\n    tag_256:\n      pop\n      swap1\n      jump\t// out\n        /* \"#utility.yul\":7:84   */\n    tag_257:\n        /* \"#utility.yul\":44:51   */\n      0x00\n        /* \"#utility.yul\":73:78   */\n      dup2\n        /* \"#utility.yul\":62:78   */\n      swap1\n      pop\n        /* \"#utility.yul\":7:84   */\n      swap2\n      swap1\n      pop\n      jump\t// out\n        /* \"#utility.yul\":90:208   */\n    tag_258:\n        /* \"#utility.yul\":177:201   */\n      tag_286\n        /* \"#utility.yul\":195:200   */\n      dup2\n        /* \"#utility.yul\":177:201   */\n      tag_257\n      jump\t// in\n    tag_286:\n        /* \"#utility.yul\":172:175   */\n      dup3\n        /* \"#utility.yul\":165:202   */\n      mstore\n        /* \"#utility.yul\":90:208   */\n      pop\n      pop\n      jump\t// out\n        /* \"#utility.yul\":214:436   */\n    tag_21:\n        /* \"#utility.yul\":307:311   */\n      0x00\n        /* \"#utility.yul\":345:347   */\n      0x20\n        /* \"#utility.yul\":334:343   */\n      dup3\n        /* \"#utility.yul\":330:348   */\n      add\n        /* \"#utility.yul\":322:348   */\n      swap1\n      pop\n        /* \"#utility.yul\":358:429   */\n      tag_288\n        /* \"#utility.yul\":426:427   */\n      0x00\n        /* \"#utility.yul\":415:424   */\n      dup4\n        /* \"#utility.yul\":411:428   */\n      add\n        /* \"#utility.yul\":402:408   */\n      dup5\n        /* \"#utility.yul\":358:429   */\n      tag_258\n      jump\t// in\n    tag_288:\n        /* \"#utility.yul\":214:436   */\n      swap3\n      swap2\n      pop\n      pop\n      jump\t// out\n        /* \"#utility.yul\":523:640   */\n    tag_260:\n        /* \"#utility.yul\":632:633   */\n      0x00\n        /* \"#utility.yul\":629:630   */\n      dup1\n        /* \"#utility.yul\":622:634   */\n      revert\n        /* \"#utility.yul\":769:895   */\n    tag_262:\n        /* \"#utility.yul\":806:813   */\n      0x00\n        /* \"#utility.yul\":846:888   */\n      0xffffffffffffffffffffffffffffffffffffffff\n        /* \"#utility.yul\":839:844   */\n      dup3\n        /* \"#utility.yul\":835:889   */\n      and\n        /* \"#utility.yul\":824:889   */\n      swap1\n      pop\n        /* \"#utility.yul\":769:895   */\n      swap2\n      swap1\n      pop\n      jump\t// out\n        /* \"#utility.yul\":901:997   */\n    tag_263:\n        /* \"#utility.yul\":938:945   */\n      0x00\n        /* \"#utility.yul\":967:991   */\n      tag_294\n        /* \"#utility.yul\":985:990   */\n      dup3\n        /* \"#utility.yul\":967:991   */\n      tag_262\n      jump\t// in\n    tag_294:\n        /* \"#utility.yul\":956:991   */\n      swap1\n      pop\n        /* \"#utility.yul\":901:997   */\n      swap2\n      swap1\n      pop\n      jump\t// out\n        /* \"#utility.yul\":1003:1125   */\n    tag_264:\n        /* \"#utility.yul\":1076:1100   */\n      tag_296\n        /* \"#utility.yul\":1094:1099   */\n      dup2\n        /* \"#utility.yul\":1076:1100   */\n      tag_263\n      jump\t// in\n    tag_296:\n        /* \"#utility.yul\":1069:1074   */\n      dup2\n        /* \"#utility.yul\":1066:1101   */\n      eq\n        /* \"#utility.yul\":1056:1119   */\n      tag_297\n      jumpi\n        /* \"#utility.yul\":1115:1116   */\n      0x00\n        /* \"#utility.yul\":1112:1113   */\n      dup1\n        /* \"#utility.yul\":1105:1117   */\n      revert\n        /* \"#utility.yul\":1056:1119   */\n    tag_297:\n        /* \"#utility.yul\":1003:1125   */\n      pop\n      jump\t// out\n        /* \"#utility.yul\":1131:1270   */\n    tag_265:\n        /* \"#utility.yul\":1177:1182   */\n      0x00\n        /* \"#utility.yul\":1215:1221   */\n      dup2\n        /* \"#utility.yul\":1202:1222   */\n      calldataload\n        /* \"#utility.yul\":1193:1222   */\n      swap1\n      pop\n        /* \"#utility.yul\":1231:1264   */\n      tag_299\n        /* \"#utility.yul\":1258:1263   */\n      dup2\n        /* \"#utility.yul\":1231:1264   */\n      tag_264\n      jump\t// in\n    tag_299:\n        /* \"#utility.yul\":1131:1270   */\n      swap3\n      swap2\n      pop\n      pop\n      jump\t// out\n        /* \"#utility.yul\":1276:1605   */\n    tag_25:\n        /* \"#utility.yul\":1335:1341   */\n      0x00\n        /* \"#utility.yul\":1384:1386   */\n      0x20\n        /* \"#utility.yul\":1372:1381   */\n      dup3\n        /* \"#utility.yul\":1363:1370   */\n      dup5\n        /* \"#utility.yul\":1359:1382   */\n      sub\n        /* \"#utility.yul\":1355:1387   */\n      slt\n        /* \"#utility.yul\":1352:1471   */\n      iszero\n      tag_301\n      jumpi\n        /* \"#utility.yul\":1390:1469   */\n      tag_302\n      tag_260\n      jump\t// in\n    tag_302:\n        /* \"#utility.yul\":1352:1471   */\n    tag_301:\n        /* \"#utility.yul\":1510:1511   */\n      0x00\n        /* \"#utility.yul\":1535:1588   */\n      tag_303\n        /* \"#utility.yul\":1580:1587   */\n      dup5\n        /* \"#utility.yul\":1571:1577   */\n      dup3\n        /* \"#utility.yul\":1560:1569   */\n      dup6\n        /* \"#utility.yul\":1556:1578   */\n      add\n        /* \"#utility.yul\":1535:1588   */\n      tag_265\n      jump\t// in\n    tag_303:\n        /* \"#utility.yul\":1525:1588   */\n      swap2\n      pop\n        /* \"#utility.yul\":1481:1598   */\n      pop\n        /* \"#utility.yul\":1276:1605   */\n      swap3\n      swap2\n      pop\n      pop\n      jump\t// out\n        /* \"#utility.yul\":1611:1701   */\n    tag_266:\n        /* \"#utility.yul\":1645:1652   */\n      0x00\n        /* \"#utility.yul\":1688:1693   */\n      dup2\n        /* \"#utility.yul\":1681:1694   */\n      iszero\n        /* \"#utility.yul\":1674:1695   */\n      iszero\n        /* \"#utility.yul\":1663:1695   */\n      swap1\n      pop\n        /* \"#utility.yul\":1611:1701   */\n      swap2\n      swap1\n      pop\n      jump\t// out\n        /* \"#utility.yul\":1707:1816   */\n    tag_267:\n        /* \"#utility.yul\":1788:1809   */\n      tag_306\n        /* \"#utility.yul\":1803:1808   */\n      dup2\n        /* \"#utility.yul\":1788:1809   */\n      tag_266\n      jump\t// in\n    tag_306:\n        /* \"#utility.yul\":1783:1786   */\n      dup3\n        /* \"#utility.yul\":1776:1810   */\n      mstore\n        /* \"#utility.yul\":1707:1816   */\n      pop\n      pop\n      jump\t// out\n        /* \"#utility.yul\":1822:2032   */\n    tag_28:\n        /* \"#utility.yul\":1909:1913   */\n      0x00\n        /* \"#utility.yul\":1947:1949   */\n      0x20\n        /* \"#utility.yul\":1936:1945   */\n      dup3\n        /* \"#utility.yul\":1932:1950   */\n      add\n        /* \"#utility.yul\":1924:1950   */\n      swap1\n      pop\n        /* \"#utility.yul\":1960:2025   */\n      tag_308\n        /* \"#utility.yul\":2022:2023   */\n      0x00\n        /* \"#utility.yul\":2011:2020   */\n      dup4\n        /* \"#utility.yul\":2007:2024   */\n      add\n        /* \"#utility.yul\":1998:2004   */\n      dup5\n        /* \"#utility.yul\":1960:2025   */\n      tag_267\n      jump\t// in\n    tag_308:\n        /* \"#utility.yul\":1822:2032   */\n      swap3\n      swap2\n      pop\n      pop\n      jump\t// out\n        /* \"#utility.yul\":2038:2115   */\n    tag_268:\n        /* \"#utility.yul\":2075:2082   */\n      0x00\n        /* \"#utility.yul\":2104:2109   */\n      dup2\n        /* \"#utility.yul\":2093:2109   */\n      swap1\n      pop\n        /* \"#utility.yul\":2038:2115   */\n      swap2\n      swap1\n      pop\n      jump\t// out\n        /* \"#utility.yul\":2121:2243   */\n    tag_269:\n        /* \"#utility.yul\":2194:2218   */\n      tag_311\n        /* \"#utility.yul\":2212:2217   */\n      dup2\n        /* \"#utility.yul\":2194:2218   */\n      tag_268\n      jump\t// in\n    tag_311:\n        /* \"#utility.yul\":2187:2192   */\n      dup2\n        /* \"#utility.yul\":2184:2219   */\n      eq\n        /* \"#utility.yul\":2174:2237   */\n      tag_312\n      jumpi\n        /* \"#utility.yul\":2233:2234   */\n      0x00\n        /* \"#utility.yul\":2230:2231   */\n      dup1\n        /* \"#utility.yul\":2223:2235   */\n      revert\n        /* \"#utility.yul\":2174:2237   */\n    tag_312:\n        /* \"#utility.yul\":2121:2243   */\n      pop\n      jump\t// out\n        /* \"#utility.yul\":2249:2388   */\n    tag_270:\n        /* \"#utility.yul\":2295:2300   */\n      0x00\n        /* \"#utility.yul\":2333:2339   */\n      dup2\n        /* \"#utility.yul\":2320:2340   */\n      calldataload\n        /* \"#utility.yul\":2311:2340   */\n      swap1\n      pop\n        /* \"#utility.yul\":2349:2382   */\n      tag_314\n        /* \"#utility.yul\":2376:2381   */\n      dup2\n        /* \"#utility.yul\":2349:2382   */\n      tag_269\n      jump\t// in\n    tag_314:\n        /* \"#utility.yul\":2249:2388   */\n      swap3\n      swap2\n      pop\n      pop\n      jump\t// out\n        /* \"#utility.yul\":2394:2723   */\n    tag_38:\n        /* \"#utility.yul\":2453:2459   */\n      0x00\n        /* \"#utility.yul\":2502:2504   */\n      0x20\n        /* \"#utility.yul\":2490:2499   */\n      dup3\n        /* \"#utility.yul\":2481:2488   */\n      dup5\n        /* \"#utility.yul\":2477:2500   */\n      sub\n        /* \"#utility.yul\":2473:2505   */\n      slt\n        /* \"#utility.yul\":2470:2589   */\n      iszero\n      tag_316\n      jumpi\n        /* \"#utility.yul\":2508:2587   */\n      tag_317\n      tag_260\n      jump\t// in\n    tag_317:\n        /* \"#utility.yul\":2470:2589   */\n    tag_316:\n        /* \"#utility.yul\":2628:2629   */\n      0x00\n        /* \"#utility.yul\":2653:2706   */\n      tag_318\n        /* \"#utility.yul\":2698:2705   */\n      dup5\n        /* \"#utility.yul\":2689:2695   */\n      dup3\n        /* \"#utility.yul\":2678:2687   */\n      dup6\n        /* \"#utility.yul\":2674:2696   */\n      add\n        /* \"#utility.yul\":2653:2706   */\n      tag_270\n      jump\t// in\n    tag_318:\n        /* \"#utility.yul\":2643:2706   */\n      swap2\n      pop\n        /* \"#utility.yul\":2599:2716   */\n      pop\n        /* \"#utility.yul\":2394:2723   */\n      swap3\n      swap2\n      pop\n      pop\n      jump\t// out\n        /* \"#utility.yul\":2729:2847   */\n    tag_271:\n        /* \"#utility.yul\":2816:2840   */\n      tag_320\n        /* \"#utility.yul\":2834:2839   */\n      dup2\n        /* \"#utility.yul\":2816:2840   */\n      tag_268\n      jump\t// in\n    tag_320:\n        /* \"#utility.yul\":2811:2814   */\n      dup3\n        /* \"#utility.yul\":2804:2841   */\n      mstore\n        /* \"#utility.yul\":2729:2847   */\n      pop\n      pop\n      jump\t// out\n        /* \"#utility.yul\":2853:3075   */\n    tag_41:\n        /* \"#utility.yul\":2946:2950   */\n      0x00\n        /* \"#utility.yul\":2984:2986   */\n      0x20\n        /* \"#utility.yul\":2973:2982   */\n      dup3\n        /* \"#utility.yul\":2969:2987   */\n      add\n        /* \"#utility.yul\":2961:2987   */\n      swap1\n      pop\n        /* \"#utility.yul\":2997:3068   */\n      tag_322\n        /* \"#utility.yul\":3065:3066   */\n      0x00\n        /* \"#utility.yul\":3054:3063   */\n      dup4\n        /* \"#utility.yul\":3050:3067   */\n      add\n        /* \"#utility.yul\":3041:3047   */\n      dup5\n        /* \"#utility.yul\":2997:3068   */\n      tag_271\n      jump\t// in\n    tag_322:\n        /* \"#utility.yul\":2853:3075   */\n      swap3\n      swap2\n      pop\n      pop\n      jump\t// out\n        /* \"#utility.yul\":3081:3203   */\n    tag_272:\n        /* \"#utility.yul\":3154:3178   */\n      tag_324\n        /* \"#utility.yul\":3172:3177   */\n      dup2\n        /* \"#utility.yul\":3154:3178   */\n      tag_257\n      jump\t// in\n    tag_324:\n        /* \"#utility.yul\":3147:3152   */\n      dup2\n        /* \"#utility.yul\":3144:3179   */\n      eq\n        /* \"#utility.yul\":3134:3197   */\n      tag_325\n      jumpi\n        /* \"#utility.yul\":3193:3194   */\n      0x00\n        /* \"#utility.yul\":3190:3191   */\n      dup1\n        /* \"#utility.yul\":3183:3195   */\n      revert\n        /* \"#utility.yul\":3134:3197   */\n    tag_325:\n        /* \"#utility.yul\":3081:3203   */\n      pop\n      jump\t// out\n        /* \"#utility.yul\":3209:3348   */\n    tag_273:\n        /* \"#utility.yul\":3255:3260   */\n      0x00\n        /* \"#utility.yul\":3293:3299   */\n      dup2\n        /* \"#utility.yul\":3280:3300   */\n      calldataload\n        /* \"#utility.yul\":3271:3300   */\n      swap1\n      pop\n        /* \"#utility.yul\":3309:3342   */\n      tag_327\n        /* \"#utility.yul\":3336:3341   */\n      dup2\n        /* \"#utility.yul\":3309:3342   */\n      tag_272\n      jump\t// in\n    tag_327:\n        /* \"#utility.yul\":3209:3348   */\n      swap3\n      swap2\n      pop\n      pop\n      jump\t// out\n        /* \"#utility.yul\":3354:3683   */\n    tag_63:\n        /* \"#utility.yul\":3413:3419   */\n      0x00\n        /* \"#utility.yul\":3462:3464   */\n      0x20\n        /* \"#utility.yul\":3450:3459   */\n      dup3\n        /* \"#utility.yul\":3441:3448   */\n      dup5\n        /* \"#utility.yul\":3437:3460   */\n      sub\n        /* \"#utility.yul\":3433:3465   */\n      slt\n        /* \"#utility.yul\":3430:3549   */\n      iszero\n      tag_329\n      jumpi\n        /* \"#utility.yul\":3468:3547   */\n      tag_330\n      tag_260\n      jump\t// in\n    tag_330:\n        /* \"#utility.yul\":3430:3549   */\n    tag_329:\n        /* \"#utility.yul\":3588:3589   */\n      0x00\n        /* \"#utility.yul\":3613:3666   */\n      tag_331\n        /* \"#utility.yul\":3658:3665   */\n      dup5\n        /* \"#utility.yul\":3649:3655   */\n      dup3\n        /* \"#utility.yul\":3638:3647   */\n      dup6\n        /* \"#utility.yul\":3634:3656   */\n      add\n        /* \"#utility.yul\":3613:3666   */\n      tag_273\n      jump\t// in\n    tag_331:\n        /* \"#utility.yul\":3603:3666   */\n      swap2\n      pop\n        /* \"#utility.yul\":3559:3676   */\n      pop\n        /* \"#utility.yul\":3354:3683   */\n      swap3\n      swap2\n      pop\n      pop\n      jump\t// out\n        /* \"#utility.yul\":3689:3807   */\n    tag_274:\n        /* \"#utility.yul\":3776:3800   */\n      tag_333\n        /* \"#utility.yul\":3794:3799   */\n      dup2\n        /* \"#utility.yul\":3776:3800   */\n      tag_263\n      jump\t// in\n    tag_333:\n        /* \"#utility.yul\":3771:3774   */\n      dup3\n        /* \"#utility.yul\":3764:3801   */\n      mstore\n        /* \"#utility.yul\":3689:3807   */\n      pop\n      pop\n      jump\t// out\n        /* \"#utility.yul\":3813:4035   */\n    tag_66:\n        /* \"#utility.yul\":3906:3910   */\n      0x00\n        /* \"#utility.yul\":3944:3946   */\n      0x20\n        /* \"#utility.yul\":3933:3942   */\n      dup3\n        /* \"#utility.yul\":3929:3947   */\n      add\n        /* \"#utility.yul\":3921:3947   */\n      swap1\n      pop\n        /* \"#utility.yul\":3957:4028   */\n      tag_335\n        /* \"#utility.yul\":4025:4026   */\n      0x00\n        /* \"#utility.yul\":4014:4023   */\n      dup4\n        /* \"#utility.yul\":4010:4027   */\n      add\n        /* \"#utility.yul\":4001:4007   */\n      dup5\n        /* \"#utility.yul\":3957:4028   */\n      tag_274\n      jump\t// in\n    tag_335:\n        /* \"#utility.yul\":3813:4035   */\n      swap3\n      swap2\n      pop\n      pop\n      jump\t// out\n        /* \"#utility.yul\":4041:4184   */\n    tag_275:\n        /* \"#utility.yul\":4098:4103   */\n      0x00\n        /* \"#utility.yul\":4129:4135   */\n      dup2\n        /* \"#utility.yul\":4123:4136   */\n      mload\n        /* \"#utility.yul\":4114:4136   */\n      swap1\n      pop\n        /* \"#utility.yul\":4145:4178   */\n      tag_337\n        /* \"#utility.yul\":4172:4177   */\n      dup2\n        /* \"#utility.yul\":4145:4178   */\n      tag_272\n      jump\t// in\n    tag_337:\n        /* \"#utility.yul\":4041:4184   */\n      swap3\n      swap2\n      pop\n      pop\n      jump\t// out\n        /* \"#utility.yul\":4190:4541   */\n    tag_71:\n        /* \"#utility.yul\":4260:4266   */\n      0x00\n        /* \"#utility.yul\":4309:4311   */\n      0x20\n        /* \"#utility.yul\":4297:4306   */\n      dup3\n        /* \"#utility.yul\":4288:4295   */\n      dup5\n        /* \"#utility.yul\":4284:4307   */\n      sub\n        /* \"#utility.yul\":4280:4312   */\n      slt\n        /* \"#utility.yul\":4277:4396   */\n      iszero\n      tag_339\n      jumpi\n        /* \"#utility.yul\":4315:4394   */\n      tag_340\n      tag_260\n      jump\t// in\n    tag_340:\n        /* \"#utility.yul\":4277:4396   */\n    tag_339:\n        /* \"#utility.yul\":4435:4436   */\n      0x00\n        /* \"#utility.yul\":4460:4524   */\n      tag_341\n        /* \"#utility.yul\":4516:4523   */\n      dup5\n        /* \"#utility.yul\":4507:4513   */\n      dup3\n        /* \"#utility.yul\":4496:4505   */\n      dup6\n        /* \"#utility.yul\":4492:4514   */\n      add\n        /* \"#utility.yul\":4460:4524   */\n      tag_275\n      jump\t// in\n    tag_341:\n        /* \"#utility.yul\":4450:4524   */\n      swap2\n      pop\n        /* \"#utility.yul\":4406:4534   */\n      pop\n        /* \"#utility.yul\":4190:4541   */\n      swap3\n      swap2\n      pop\n      pop\n      jump\t// out\n        /* \"#utility.yul\":4547:4727   */\n    tag_276:\n        /* \"#utility.yul\":4595:4672   */\n      0x4e487b7100000000000000000000000000000000000000000000000000000000\n        /* \"#utility.yul\":4592:4593   */\n      0x00\n        /* \"#utility.yul\":4585:4673   */\n      mstore\n        /* \"#utility.yul\":4692:4696   */\n      0x11\n        /* \"#utility.yul\":4689:4690   */\n      0x04\n        /* \"#utility.yul\":4682:4697   */\n      mstore\n        /* \"#utility.yul\":4716:4720   */\n      0x24\n        /* \"#utility.yul\":4713:4714   */\n      0x00\n        /* \"#utility.yul\":4706:4721   */\n      revert\n        /* \"#utility.yul\":4733:4927   */\n    tag_73:\n        /* \"#utility.yul\":4773:4777   */\n      0x00\n        /* \"#utility.yul\":4793:4813   */\n      tag_344\n        /* \"#utility.yul\":4811:4812   */\n      dup3\n        /* \"#utility.yul\":4793:4813   */\n      tag_257\n      jump\t// in\n    tag_344:\n        /* \"#utility.yul\":4788:4813   */\n      swap2\n      pop\n        /* \"#utility.yul\":4827:4847   */\n      tag_345\n        /* \"#utility.yul\":4845:4846   */\n      dup4\n        /* \"#utility.yul\":4827:4847   */\n      tag_257\n      jump\t// in\n    tag_345:\n        /* \"#utility.yul\":4822:4847   */\n      swap3\n      pop\n        /* \"#utility.yul\":4871:4872   */\n      dup3\n        /* \"#utility.yul\":4868:4869   */\n      dup3\n        /* \"#utility.yul\":4864:4873   */\n      sub\n        /* \"#utility.yul\":4856:4873   */\n      swap1\n      pop\n        /* \"#utility.yul\":4895:4896   */\n      dup2\n        /* \"#utility.yul\":4889:4893   */\n      dup2\n        /* \"#utility.yul\":4886:4897   */\n      gt\n        /* \"#utility.yul\":4883:4920   */\n      iszero\n      tag_346\n      jumpi\n        /* \"#utility.yul\":4900:4918   */\n      tag_347\n      tag_276\n      jump\t// in\n    tag_347:\n        /* \"#utility.yul\":4883:4920   */\n    tag_346:\n        /* \"#utility.yul\":4733:4927   */\n      swap3\n      swap2\n      pop\n      pop\n      jump\t// out\n        /* \"#utility.yul\":4933:5113   */\n    tag_80:\n        /* \"#utility.yul\":4981:5058   */\n      0x4e487b7100000000000000000000000000000000000000000000000000000000\n        /* \"#utility.yul\":4978:4979   */\n      0x00\n        /* \"#utility.yul\":4971:5059   */\n      mstore\n        /* \"#utility.yul\":5078:5082   */\n      0x32\n        /* \"#utility.yul\":5075:5076   */\n      0x04\n        /* \"#utility.yul\":5068:5083   */\n      mstore\n        /* \"#utility.yul\":5102:5106   */\n      0x24\n        /* \"#utility.yul\":5099:5100   */\n      0x00\n        /* \"#utility.yul\":5092:5107   */\n      revert\n        /* \"#utility.yul\":5119:5299   */\n    tag_277:\n        /* \"#utility.yul\":5167:5244   */\n      0x4e487b7100000000000000000000000000000000000000000000000000000000\n        /* \"#utility.yul\":5164:5165   */\n      0x00\n        /* \"#utility.yul\":5157:5245   */\n      mstore\n        /* \"#utility.yul\":5264:5268   */\n      0x12\n        /* \"#utility.yul\":5261:5262   */\n      0x04\n        /* \"#utility.yul\":5254:5269   */\n      mstore\n        /* \"#utility.yul\":5288:5292   */\n      0x24\n        /* \"#utility.yul\":5285:5286   */\n      0x00\n        /* \"#utility.yul\":5278:5293   */\n      revert\n        /* \"#utility.yul\":5305:5490   */\n    tag_86:\n        /* \"#utility.yul\":5345:5346   */\n      0x00\n        /* \"#utility.yul\":5362:5382   */\n      tag_351\n        /* \"#utility.yul\":5380:5381   */\n      dup3\n        /* \"#utility.yul\":5362:5382   */\n      tag_257\n      jump\t// in\n    tag_351:\n        /* \"#utility.yul\":5357:5382   */\n      swap2\n      pop\n        /* \"#utility.yul\":5396:5416   */\n      tag_352\n        /* \"#utility.yul\":5414:5415   */\n      dup4\n        /* \"#utility.yul\":5396:5416   */\n      tag_257\n      jump\t// in\n    tag_352:\n        /* \"#utility.yul\":5391:5416   */\n      swap3\n      pop\n        /* \"#utility.yul\":5435:5436   */\n      dup3\n        /* \"#utility.yul\":5425:5460   */\n      tag_353\n      jumpi\n        /* \"#utility.yul\":5440:5458   */\n      tag_354\n      tag_277\n      jump\t// in\n    tag_354:\n        /* \"#utility.yul\":5425:5460   */\n    tag_353:\n        /* \"#utility.yul\":5482:5483   */\n      dup3\n        /* \"#utility.yul\":5479:5480   */\n      dup3\n        /* \"#utility.yul\":5475:5484   */\n      div\n        /* \"#utility.yul\":5470:5484   */\n      swap1\n      pop\n        /* \"#utility.yul\":5305:5490   */\n      swap3\n      swap2\n      pop\n      pop\n      jump\t// out\n        /* \"#utility.yul\":5496:5687   */\n    tag_107:\n        /* \"#utility.yul\":5536:5539   */\n      0x00\n        /* \"#utility.yul\":5555:5575   */\n      tag_356\n        /* \"#utility.yul\":5573:5574   */\n      dup3\n        /* \"#utility.yul\":5555:5575   */\n      tag_257\n      jump\t// in\n    tag_356:\n        /* \"#utility.yul\":5550:5575   */\n      swap2\n      pop\n        /* \"#utility.yul\":5589:5609   */\n      tag_357\n        /* \"#utility.yul\":5607:5608   */\n      dup4\n        /* \"#utility.yul\":5589:5609   */\n      tag_257\n      jump\t// in\n    tag_357:\n        /* \"#utility.yul\":5584:5609   */\n      swap3\n      pop\n        /* \"#utility.yul\":5632:5633   */\n      dup3\n        /* \"#utility.yul\":5629:5630   */\n      dup3\n        /* \"#utility.yul\":5625:5634   */\n      add\n        /* \"#utility.yul\":5618:5634   */\n      swap1\n      pop\n        /* \"#utility.yul\":5653:5656   */\n      dup1\n        /* \"#utility.yul\":5650:5651   */\n      dup3\n        /* \"#utility.yul\":5647:5657   */\n      gt\n        /* \"#utility.yul\":5644:5680   */\n      iszero\n      tag_358\n      jumpi\n        /* \"#utility.yul\":5660:5678   */\n      tag_359\n      tag_276\n      jump\t// in\n    tag_359:\n        /* \"#utility.yul\":5644:5680   */\n    tag_358:\n        /* \"#utility.yul\":5496:5687   */\n      swap3\n      swap2\n      pop\n      pop\n      jump\t// out\n        /* \"#utility.yul\":5693:5926   */\n    tag_110:\n        /* \"#utility.yul\":5732:5735   */\n      0x00\n        /* \"#utility.yul\":5755:5779   */\n      tag_361\n        /* \"#utility.yul\":5773:5778   */\n      dup3\n        /* \"#utility.yul\":5755:5779   */\n      tag_257\n      jump\t// in\n    tag_361:\n        /* \"#utility.yul\":5746:5779   */\n      swap2\n      pop\n        /* \"#utility.yul\":5801:5867   */\n      0xffffffffffffffffffffffffffffffffffffffffffffffffffffffffffffffff\n        /* \"#utility.yul\":5794:5799   */\n      dup3\n        /* \"#utility.yul\":5791:5868   */\n      sub\n        /* \"#utility.yul\":5788:5891   */\n      tag_362\n      jumpi\n        /* \"#utility.yul\":5871:5889   */\n      tag_363\n      tag_276\n      jump\t// in\n    tag_363:\n        /* \"#utility.yul\":5788:5891   */\n    tag_362:\n        /* \"#utility.yul\":5918:5919   */\n      0x01\n        /* \"#utility.yul\":5911:5916   */\n      dup3\n        /* \"#utility.yul\":5907:5920   */\n      add\n        /* \"#utility.yul\":5900:5920   */\n      swap1\n      pop\n        /* \"#utility.yul\":5693:5926   */\n      swap2\n      swap1\n      pop\n      jump\t// out\n        /* \"#utility.yul\":5932:6011   */\n    tag_278:\n        /* \"#utility.yul\":5971:5978   */\n      0x00\n        /* \"#utility.yul\":6000:6005   */\n      dup2\n        /* \"#utility.yul\":5989:6005   */\n      swap1\n      pop\n        /* \"#utility.yul\":5932:6011   */\n      swap2\n      swap1\n      pop\n      jump\t// out\n        /* \"#utility.yul\":6017:6174   */\n    tag_279:\n        /* \"#utility.yul\":6122:6167   */\n      tag_366\n        /* \"#utility.yul\":6142:6166   */\n      tag_367\n        /* \"#utility.yul\":6160:6165   */\n      dup3\n        /* \"#utility.yul\":6142:6166   */\n      tag_268\n      jump\t// in\n    tag_367:\n        /* \"#utility.yul\":6122:6167   */\n      tag_278\n      jump\t// in\n    tag_366:\n        /* \"#utility.yul\":6117:6120   */\n      dup3\n        /* \"#utility.yul\":6110:6168   */\n      mstore\n        /* \"#utility.yul\":6017:6174   */\n      pop\n      pop\n      jump\t// out\n        /* \"#utility.yul\":6180:6436   */\n    tag_116:\n        /* \"#utility.yul\":6292:6295   */\n      0x00\n        /* \"#utility.yul\":6307:6382   */\n      tag_369\n        /* \"#utility.yul\":6378:6381   */\n      dup3\n        /* \"#utility.yul\":6369:6375   */\n      dup5\n        /* \"#utility.yul\":6307:6382   */\n      tag_279\n      jump\t// in\n    tag_369:\n        /* \"#utility.yul\":6407:6409   */\n      0x20\n        /* \"#utility.yul\":6402:6405   */\n      dup3\n        /* \"#utility.yul\":6398:6410   */\n      add\n        /* \"#utility.yul\":6391:6410   */\n      swap2\n      pop\n        /* \"#utility.yul\":6427:6430   */\n      dup2\n        /* \"#utility.yul\":6420:6430   */\n      swap1\n      pop\n        /* \"#utility.yul\":6180:6436   */\n      swap3\n      swap2\n      pop\n      pop\n      jump\t// out\n        /* \"#utility.yul\":6442:6774   */\n    tag_120:\n        /* \"#utility.yul\":6563:6567   */\n      0x00\n        /* \"#utility.yul\":6601:6603   */\n      0x40\n        /* \"#utility.yul\":6590:6599   */\n      dup3\n        /* \"#utility.yul\":6586:6604   */\n      add\n        /* \"#utility.yul\":6578:6604   */\n      swap1\n      pop\n        /* \"#utility.yul\":6614:6685   */\n      tag_371\n        /* \"#utility.yul\":6682:6683   */\n      0x00\n        /* \"#utility.yul\":6671:6680   */\n      dup4\n        /* \"#utility.yul\":6667:6684   */\n      add\n        /* \"#utility.yul\":6658:6664   */\n      dup6\n        /* \"#utility.yul\":6614:6685   */\n      tag_271\n      jump\t// in\n    tag_371:\n        /* \"#utility.yul\":6695:6767   */\n      tag_372\n        /* \"#utility.yul\":6763:6765   */\n      0x20\n        /* \"#utility.yul\":6752:6761   */\n      dup4\n        /* \"#utility.yul\":6748:6766   */\n      add\n        /* \"#utility.yul\":6739:6745   */\n      dup5\n        /* \"#utility.yul\":6695:6767   */\n      tag_274\n      jump\t// in\n    tag_372:\n        /* \"#utility.yul\":6442:6774   */\n      swap4\n      swap3\n      pop\n      pop\n      pop\n      jump\t// out\n        /* \"#utility.yul\":6780:6929   */\n    tag_280:\n        /* \"#utility.yul\":6816:6823   */\n      0x00\n        /* \"#utility.yul\":6856:6922   */\n      0xff00000000000000000000000000000000000000000000000000000000000000\n        /* \"#utility.yul\":6849:6854   */\n      dup3\n        /* \"#utility.yul\":6845:6923   */\n      and\n        /* \"#utility.yul\":6834:6923   */\n      swap1\n      pop\n        /* \"#utility.yul\":6780:6929   */\n      swap2\n      swap1\n      pop\n      jump\t// out\n        /* \"#utility.yul\":6935:7055   */\n    tag_281:\n        /* \"#utility.yul\":7007:7030   */\n      tag_375\n        /* \"#utility.yul\":7024:7029   */\n      dup2\n        /* \"#utility.yul\":7007:7030   */\n      tag_280\n      jump\t// in\n    tag_375:\n        /* \"#utility.yul\":7000:7005   */\n      dup2\n        /* \"#utility.yul\":6997:7031   */\n      eq\n        /* \"#utility.yul\":6987:7049   */\n      tag_376\n      jumpi\n        /* \"#utility.yul\":7045:7046   */\n      0x00\n        /* \"#utility.yul\":7042:7043   */\n      dup1\n        /* \"#utility.yul\":7035:7047   */\n      revert\n        /* \"#utility.yul\":6987:7049   */\n    tag_376:\n        /* \"#utility.yul\":6935:7055   */\n      pop\n      jump\t// out\n        /* \"#utility.yul\":7061:7202   */\n    tag_282:\n        /* \"#utility.yul\":7117:7122   */\n      0x00\n        /* \"#utility.yul\":7148:7154   */\n      dup2\n        /* \"#utility.yul\":7142:7155   */\n      mload\n        /* \"#utility.yul\":7133:7155   */\n      swap1\n      pop\n        /* \"#utility.yul\":7164:7196   */\n      tag_378\n        /* \"#utility.yul\":7190:7195   */\n      dup2\n        /* \"#utility.yul\":7164:7196   */\n      tag_281\n      jump\t// in\n    tag_378:\n        /* \"#utility.yul\":7061:7202   */\n      swap3\n      swap2\n      pop\n      pop\n      jump\t// out\n        /* \"#utility.yul\":7208:7557   */\n    tag_128:\n        /* \"#utility.yul\":7277:7283   */\n      0x00\n        /* \"#utility.yul\":7326:7328   */\n      0x20\n        /* \"#utility.yul\":7314:7323   */\n      dup3\n        /* \"#utility.yul\":7305:7312   */\n      dup5\n        /* \"#utility.yul\":7301:7324   */\n      sub\n        /* \"#utility.yul\":7297:7329   */\n      slt\n        /* \"#utility.yul\":7294:7413   */\n      iszero\n      tag_380\n      jumpi\n        /* \"#utility.yul\":7332:7411   */\n      tag_381\n      tag_260\n      jump\t// in\n    tag_381:\n        /* \"#utility.yul\":7294:7413   */\n    tag_380:\n        /* \"#utility.yul\":7452:7453   */\n      0x00\n        /* \"#utility.yul\":7477:7540   */\n      tag_382\n        /* \"#utility.yul\":7532:7539   */\n      dup5\n        /* \"#utility.yul\":7523:7529   */\n      dup3\n        /* \"#utility.yul\":7512:7521   */\n      dup6\n        /* \"#utility.yul\":7508:7530   */\n      add\n        /* \"#utility.yul\":7477:7540   */\n      tag_282\n      jump\t// in\n    tag_382:\n        /* \"#utility.yul\":7467:7540   */\n      swap2\n      pop\n        /* \"#utility.yul\":7423:7550   */\n      pop\n        /* \"#utility.yul\":7208:7557   */\n      swap3\n      swap2\n      pop\n      pop\n      jump\t// out\n        /* \"#utility.yul\":7563:7739   */\n    tag_206:\n        /* \"#utility.yul\":7595:7596   */\n      0x00\n        /* \"#utility.yul\":7612:7632   */\n      tag_384\n        /* \"#utility.yul\":7630:7631   */\n      dup3\n        /* \"#utility.yul\":7612:7632   */\n      tag_257\n      jump\t// in\n    tag_384:\n        /* \"#utility.yul\":7607:7632   */\n      swap2\n      pop\n        /* \"#utility.yul\":7646:7666   */\n      tag_385\n        /* \"#utility.yul\":7664:7665   */\n      dup4\n        /* \"#utility.yul\":7646:7666   */\n      tag_257\n      jump\t// in\n    tag_385:\n        /* \"#utility.yul\":7641:7666   */\n      swap3\n      pop\n        /* \"#utility.yul\":7685:7686   */\n      dup3\n        /* \"#utility.yul\":7675:7710   */\n      tag_386\n      jumpi\n        /* \"#utility.yul\":7690:7708   */\n      tag_387\n      tag_277\n      jump\t// in\n    tag_387:\n        /* \"#utility.yul\":7675:7710   */\n    tag_386:\n        /* \"#utility.yul\":7731:7732   */\n      dup3\n        /* \"#utility.yul\":7728:7729   */\n      dup3\n        /* \"#utility.yul\":7724:7733   */\n      mod\n        /* \"#utility.yul\":7719:7733   */\n      swap1\n      pop\n        /* \"#utility.yul\":7563:7739   */\n      swap3\n      swap2\n      pop\n      pop\n      jump\t// out\n\n    auxdata: 0xa264697066735822122099af4523c3e9f9f18507e6aa8ceb9482042597d35869733922a923ef7d5dd2a964736f6c634300081a0033\n}\n\nsub_1: assembly {\n        /* \"TimeUnit.sol\":136:1086  contract TimeUnit { ... */\n      mstore(0x40, 0x80)\n      callvalue\n      dup1\n      iszero\n      tag_1\n      jumpi\n      0x00\n      dup1\n      revert\n    tag_1:\n      pop\n      dataSize(sub_0)\n      dup1\n      dataOffset(sub_0)\n      0x00\n      codecopy\n      0x00\n      return\n    stop\n\n    sub_0: assembly {\n            /* \"TimeUnit.sol\":136:1086  contract TimeUnit { ... */\n          mstore(0x40, 0x80)\n          callvalue\n          dup1\n          iszero\n          tag_1\n          jumpi\n          0x00\n          dup1\n          revert\n        tag_1:\n          pop\n          jumpi(tag_2, lt(calldatasize, 0x04))\n          shr(0xe0, calldataload(0x00))\n          dup1\n          0x78e97925\n          eq\n          tag_3\n          jumpi\n          dup1\n          0xa63f7c53\n          eq\n          tag_4\n          jumpi\n          dup1\n          0xbc06b8cd\n          eq\n          tag_5\n          jumpi\n          dup1\n          0xd97c8416\n          eq\n          tag_6\n          jumpi\n        tag_2:\n          0x00\n          dup1\n          revert\n            /* \"TimeUnit.sol\":307:331  uint256 public startTime */\n        tag_3:\n          tag_7\n          tag_8\n          jump\t// in\n        tag_7:\n          mload(0x40)\n          tag_9\n          swap2\n          swap1\n          tag_10\n          jump\t// in\n        tag_9:\n          mload(0x40)\n          dup1\n          swap2\n          sub\n          swap1\n          return\n            /* \"TimeUnit.sol\":379:452  function setStartTime() public { ... */\n        tag_4:\n          tag_11\n          tag_12\n          jump\t// in\n        tag_11:\n          stop\n            /* \"TimeUnit.sol\":576:683  function elapsedSeconds() public view returns (uint256) { ... */\n        tag_5:\n          tag_13\n          tag_14\n          jump\t// in\n        tag_13:\n          mload(0x40)\n          tag_15\n          swap2\n          swap1\n          tag_10\n          jump\t// in\n        tag_15:\n          mload(0x40)\n          dup1\n          swap2\n          sub\n          swap1\n          return\n            /* \"TimeUnit.sol\":799:1082  function elapsedMinutes() public view returns (uint256) { ... */\n        tag_6:\n          tag_16\n          tag_17\n          jump\t// in\n        tag_16:\n          mload(0x40)\n          tag_18\n          swap2\n          swap1\n          tag_10\n          jump\t// in\n        tag_18:\n          mload(0x40)\n          dup1\n          swap2\n          sub\n          swap1\n          return\n            /* \"TimeUnit.sol\":307:331  uint256 public startTime */\n        tag_8:\n          sload(0x00)\n          dup2\n          jump\t// out\n            /* \"TimeUnit.sol\":379:452  function setStartTime() public { ... */\n        tag_12:\n            /* \"TimeUnit.sol\":430:445  block.timestamp */\n          timestamp\n            /* \"TimeUnit.sol\":418:427  startTime */\n          0x00\n            /* \"TimeUnit.sol\":418:445  startTime = block.timestamp */\n          dup2\n          swap1\n          sstore\n          pop\n            /* \"TimeUnit.sol\":379:452  function setStartTime() public { ... */\n          jump\t// out\n            /* \"TimeUnit.sol\":576:683  function elapsedSeconds() public view returns (uint256) { ... */\n        tag_14:\n            /* \"TimeUnit.sol\":623:630  uint256 */\n          0x00\n            /* \"TimeUnit.sol\":666:675  startTime */\n          dup1\n          sload\n            /* \"TimeUnit.sol\":648:663  block.timestamp */\n          timestamp\n            /* \"TimeUnit.sol\":648:675  block.timestamp - startTime */\n          tag_21\n          swap2\n          swap1\n          tag_22\n          jump\t// in\n        tag_21:\n            /* \"TimeUnit.sol\":640:676  return (block.timestamp - startTime) */\n          swap1\n          pop\n            /* \"TimeUnit.sol\":576:683  function elapsedSeconds() public view returns (uint256) { ... */\n          swap1\n          jump\t// out\n            /* \"TimeUnit.sol\":799:1082  function elapsedMinutes() public view returns (uint256) { ... */\n        tag_17:\n            /* \"TimeUnit.sol\":846:853  uint256 */\n          0x00\n            /* \"TimeUnit.sol\":1066:1075  1 minutes */\n          0x3c\n            /* \"TimeUnit.sol\":1053:1062  startTime */\n          sload(0x00)\n            /* \"TimeUnit.sol\":1035:1050  block.timestamp */\n          timestamp\n            /* \"TimeUnit.sol\":1035:1062  block.timestamp - startTime */\n          tag_24\n          swap2\n          swap1\n          tag_22\n          jump\t// in\n        tag_24:\n            /* \"TimeUnit.sol\":1034:1075  (block.timestamp - startTime) / 1 minutes */\n          tag_25\n          swap2\n          swap1\n          tag_26\n          jump\t// in\n        tag_25:\n            /* \"TimeUnit.sol\":1027:1075  return (block.timestamp - startTime) / 1 minutes */\n          swap1\n          pop\n            /* \"TimeUnit.sol\":799:1082  function elapsedMinutes() public view returns (uint256) { ... */\n          swap1\n          jump\t// out\n            /* \"#utility.yul\":7:84   */\n        tag_27:\n            /* \"#utility.yul\":44:51   */\n          0x00\n            /* \"#utility.yul\":73:78   */\n          dup2\n            /* \"#utility.yul\":62:78   */\n          swap1\n          pop\n            /* \"#utility.yul\":7:84   */\n          swap2\n          swap1\n          pop\n          jump\t// out\n            /* \"#utility.yul\":90:208   */\n        tag_28:\n            /* \"#utility.yul\":177:201   */\n          tag_34\n            /* \"#utility.yul\":195:200   */\n          dup2\n            /* \"#utility.yul\":177:201   */\n          tag_27\n          jump\t// in\n        tag_34:\n            /* \"#utility.yul\":172:175   */\n          dup3\n            /* \"#utility.yul\":165:202   */\n          mstore\n            /* \"#utility.yul\":90:208   */\n          pop\n          pop\n          jump\t// out\n            /* \"#utility.yul\":214:436   */\n        tag_10:\n            /* \"#utility.yul\":307:311   */\n          0x00\n            /* \"#utility.yul\":345:347   */\n          0x20\n            /* \"#utility.yul\":334:343   */\n          dup3\n            /* \"#utility.yul\":330:348   */\n          add\n            /* \"#utility.yul\":322:348   */\n          swap1\n          pop\n            /* \"#utility.yul\":358:429   */\n          tag_36\n            /* \"#utility.yul\":426:427   */\n          0x00\n            /* \"#utility.yul\":415:424   */\n          dup4\n            /* \"#utility.yul\":411:428   */\n          add\n            /* \"#utility.yul\":402:408   */\n          dup5\n            /* \"#utility.yul\":358:429   */\n          tag_28\n          jump\t// in\n        tag_36:\n            /* \"#utility.yul\":214:436   */\n          swap3\n          swap2\n          pop\n          pop\n          jump\t// out\n            /* \"#utility.yul\":442:622   */\n        tag_29:\n            /* \"#utility.yul\":490:567   */\n          0x4e487b7100000000000000000000000000000000000000000000000000000000\n            /* \"#utility.yul\":487:488   */\n          0x00\n            /* \"#utility.yul\":480:568   */\n          mstore\n            /* \"#utility.yul\":587:591   */\n          0x11\n            /* \"#utility.yul\":584:585   */\n          0x04\n            /* \"#utility.yul\":577:592   */\n          mstore\n            /* \"#utility.yul\":611:615   */\n          0x24\n            /* \"#utility.yul\":608:609   */\n          0x00\n            /* \"#utility.yul\":601:616   */\n          revert\n            /* \"#utility.yul\":628:822   */\n        tag_22:\n            /* \"#utility.yul\":668:672   */\n          0x00\n            /* \"#utility.yul\":688:708   */\n          tag_39\n            /* \"#utility.yul\":706:707   */\n          dup3\n            /* \"#utility.yul\":688:708   */\n          tag_27\n          jump\t// in\n        tag_39:\n            /* \"#utility.yul\":683:708   */\n          swap2\n          pop\n            /* \"#utility.yul\":722:742   */\n          tag_40\n            /* \"#utility.yul\":740:741   */\n          dup4\n            /* \"#utility.yul\":722:742   */\n          tag_27\n          jump\t// in\n        tag_40:\n            /* \"#utility.yul\":717:742   */\n          swap3\n          pop\n            /* \"#utility.yul\":766:767   */\n          dup3\n            /* \"#utility.yul\":763:764   */\n          dup3\n            /* \"#utility.yul\":759:768   */\n          sub\n            /* \"#utility.yul\":751:768   */\n          swap1\n          pop\n            /* \"#utility.yul\":790:791   */\n          dup2\n            /* \"#utility.yul\":784:788   */\n          dup2\n            /* \"#utility.yul\":781:792   */\n          gt\n            /* \"#utility.yul\":778:815   */\n          iszero\n          tag_41\n          jumpi\n            /* \"#utility.yul\":795:813   */\n          tag_42\n          tag_29\n          jump\t// in\n        tag_42:\n            /* \"#utility.yul\":778:815   */\n        tag_41:\n            /* \"#utility.yul\":628:822   */\n          swap3\n          swap2\n          pop\n          pop\n          jump\t// out\n            /* \"#utility.yul\":828:1008   */\n        tag_30:\n            /* \"#utility.yul\":876:953   */\n          0x4e487b7100000000000000000000000000000000000000000000000000000000\n            /* \"#utility.yul\":873:874   */\n          0x00\n            /* \"#utility.yul\":866:954   */\n          mstore\n            /* \"#utility.yul\":973:977   */\n          0x12\n            /* \"#utility.yul\":970:971   */\n          0x04\n            /* \"#utility.yul\":963:978   */\n          mstore\n            /* \"#utility.yul\":997:1001   */\n          0x24\n            /* \"#utility.yul\":994:995   */\n          0x00\n            /* \"#utility.yul\":987:1002   */\n          revert\n            /* \"#utility.yul\":1014:1199   */\n        tag_26:\n            /* \"#utility.yul\":1054:1055   */\n          0x00\n            /* \"#utility.yul\":1071:1091   */\n          tag_45\n            /* \"#utility.yul\":1089:1090   */\n          dup3\n            /* \"#utility.yul\":1071:1091   */\n          tag_27\n          jump\t// in\n        tag_45:\n            /* \"#utility.yul\":1066:1091   */\n          swap2\n          pop\n            /* \"#utility.yul\":1105:1125   */\n          tag_46\n            /* \"#utility.yul\":1123:1124   */\n          dup4\n            /* \"#utility.yul\":1105:1125   */\n          tag_27\n          jump\t// in\n        tag_46:\n            /* \"#utility.yul\":1100:1125   */\n          swap3\n          pop\n            /* \"#utility.yul\":1144:1145   */\n          dup3\n            /* \"#utility.yul\":1134:1169   */\n          tag_47\n          jumpi\n            /* \"#utility.yul\":1149:1167   */\n          tag_48\n          tag_30\n          jump\t// in\n        tag_48:\n            /* \"#utility.yul\":1134:1169   */\n        tag_47:\n            /* \"#utility.yul\":1191:1192   */\n          dup3\n            /* \"#utility.yul\":1188:1189   */\n          dup3\n            /* \"#utility.yul\":1184:1193   */\n          div\n            /* \"#utility.yul\":1179:1193   */\n          swap1\n          pop\n            /* \"#utility.yul\":1014:1199   */\n          swap3\n          swap2\n          pop\n          pop\n          jump\t// out\n\n        auxdata: 0xa2646970667358221220aac731c651a41091e78c4c68ca2cde2e708ec23868c1bbf8979319bbf0b1f7c164736f6c634300081a0033\n    }\n}\n\nsub_2: assembly {\n        /* \"CommitReveal.sol\":70:2380  contract CommitReveal {... */\n      mstore(0x40, 0x80)\n        /* \"CommitReveal.sol\":116:119  100 */\n      0x64\n        /* \"CommitReveal.sol\":97:119  uint8 public max = 100 */\n      0x00\n      dup1\n      0x0100\n      exp\n      dup2\n      sload\n      dup2\n      0xff\n      mul\n      not\n      and\n      swap1\n      dup4\n      0xff\n      and\n      mul\n      or\n      swap1\n      sstore\n      pop\n        /* \"CommitReveal.sol\":70:2380  contract CommitReveal {... */\n      callvalue\n      dup1\n      iszero\n      tag_1\n      jumpi\n      0x00\n      dup1\n      revert\n    tag_1:\n      pop\n      dataSize(sub_0)\n      dup1\n      dataOffset(sub_0)\n      0x00\n      codecopy\n      0x00\n      return\n    stop\n\n    sub_0: assembly {\n            /* \"CommitReveal.sol\":70:2380  contract CommitReveal {... */\n          mstore(0x40, 0x80)\n          callvalue\n          dup1\n          iszero\n          tag_1\n          jumpi\n          0x00\n          dup1\n          revert\n        tag_1:\n          pop\n          jumpi(tag_2, lt(calldatasize, 0x04))\n          shr(0xe0, calldataload(0x00))\n          dup1\n          0x6ac5db19\n          gt\n          tag_12\n          jumpi\n          dup1\n          0x6ac5db19\n          eq\n          tag_7\n          jumpi\n          dup1\n          0x74c3d32b\n          eq\n          tag_8\n          jumpi\n          dup1\n          0x7b43a8e6\n          eq\n          tag_9\n          jumpi\n          dup1\n          0x8d25af04\n          eq\n          tag_10\n          jumpi\n          dup1\n          0xad487790\n          eq\n          tag_11\n          jumpi\n          jump(tag_2)\n        tag_12:\n          dup1\n          0x0afb372b\n          eq\n          tag_3\n          jumpi\n          dup1\n          0x2379ca4c\n          eq\n          tag_4\n          jumpi\n          dup1\n          0x3cf5040a\n          eq\n          tag_5\n          jumpi\n          dup1\n          0x5a746101\n          eq\n          tag_6\n          jumpi\n        tag_2:\n          0x00\n          dup1\n          revert\n            /* \"CommitReveal.sol\":154:180  bytes[] public dynamicData */\n        tag_3:\n          tag_13\n          0x04\n          dup1\n          calldatasize\n          sub\n          dup2\n          add\n          swap1\n          tag_14\n          swap2\n          swap1\n          tag_15\n          jump\t// in\n        tag_14:\n          tag_16\n          jump\t// in\n        tag_13:\n          mload(0x40)\n          tag_17\n          swap2\n          swap1\n          tag_18\n          jump\t// in\n        tag_17:\n          mload(0x40)\n          dup1\n          swap2\n          sub\n          swap1\n          return\n            /* \"CommitReveal.sol\":1977:2078  function getLastByte(bytes32 input) public pure returns (bytes1) {... */\n        tag_4:\n          tag_19\n          0x04\n          dup1\n          calldatasize\n          sub\n          dup2\n          add\n          swap1\n          tag_20\n          swap2\n          swap1\n          tag_21\n          jump\t// in\n        tag_20:\n          tag_22\n          jump\t// in\n        tag_19:\n          mload(0x40)\n          tag_23\n          swap2\n          swap1\n          tag_24\n          jump\t// in\n        tag_23:\n          mload(0x40)\n          dup1\n          swap2\n          sub\n          swap1\n          return\n            /* \"CommitReveal.sol\":1863:1973  function getHash(bytes32 data) public pure returns(bytes32){... */\n        tag_5:\n          tag_25\n          0x04\n          dup1\n          calldatasize\n          sub\n          dup2\n          add\n          swap1\n          tag_26\n          swap2\n          swap1\n          tag_21\n          jump\t// in\n        tag_26:\n          tag_27\n          jump\t// in\n        tag_25:\n          mload(0x40)\n          tag_28\n          swap2\n          swap1\n          tag_29\n          jump\t// in\n        tag_28:\n          mload(0x40)\n          dup1\n          swap2\n          sub\n          swap1\n          return\n            /* \"CommitReveal.sol\":312:576  function commit(bytes32 dataHash , address player) public {... */\n        tag_6:\n          tag_30\n          0x04\n          dup1\n          calldatasize\n          sub\n          dup2\n          add\n          swap1\n          tag_31\n          swap2\n          swap1\n          tag_32\n          jump\t// in\n        tag_31:\n          tag_33\n          jump\t// in\n        tag_30:\n          stop\n            /* \"CommitReveal.sol\":97:119  uint8 public max = 100 */\n        tag_7:\n          tag_34\n          tag_35\n          jump\t// in\n        tag_34:\n          mload(0x40)\n          tag_36\n          swap2\n          swap1\n          tag_37\n          jump\t// in\n        tag_36:\n          mload(0x40)\n          dup1\n          swap2\n          sub\n          swap1\n          return\n            /* \"CommitReveal.sol\":124:149  bytes32 public data_input */\n        tag_8:\n          tag_38\n          tag_39\n          jump\t// in\n        tag_38:\n          mload(0x40)\n          tag_40\n          swap2\n          swap1\n          tag_29\n          jump\t// in\n        tag_40:\n          mload(0x40)\n          dup1\n          swap2\n          sub\n          swap1\n          return\n            /* \"CommitReveal.sol\":265:307  mapping (address => Commit) public commits */\n        tag_9:\n          tag_41\n          0x04\n          dup1\n          calldatasize\n          sub\n          dup2\n          add\n          swap1\n          tag_42\n          swap2\n          swap1\n          tag_43\n          jump\t// in\n        tag_42:\n          tag_44\n          jump\t// in\n        tag_41:\n          mload(0x40)\n          tag_45\n          swap4\n          swap3\n          swap2\n          swap1\n          tag_46\n          jump\t// in\n        tag_45:\n          mload(0x40)\n          dup1\n          swap2\n          sub\n          swap1\n          return\n            /* \"CommitReveal.sol\":2082:2378  function restartGame() public {... */\n        tag_10:\n          tag_47\n          tag_48\n          jump\t// in\n        tag_47:\n          stop\n            /* \"CommitReveal.sol\":648:1790  function reveal(bytes32 revealHash, address player) public {... */\n        tag_11:\n          tag_49\n          0x04\n          dup1\n          calldatasize\n          sub\n          dup2\n          add\n          swap1\n          tag_50\n          swap2\n          swap1\n          tag_32\n          jump\t// in\n        tag_50:\n          tag_51\n          jump\t// in\n        tag_49:\n          stop\n            /* \"CommitReveal.sol\":154:180  bytes[] public dynamicData */\n        tag_16:\n          0x02\n          dup2\n          dup2\n          sload\n          dup2\n          lt\n          tag_52\n          jumpi\n          0x00\n          dup1\n          revert\n        tag_52:\n          swap1\n          0x00\n          mstore\n          keccak256(0x00, 0x20)\n          add\n          0x00\n          swap2\n          pop\n          swap1\n          pop\n          dup1\n          sload\n          tag_54\n          swap1\n          tag_55\n          jump\t// in\n        tag_54:\n          dup1\n          0x1f\n          add\n          0x20\n          dup1\n          swap2\n          div\n          mul\n          0x20\n          add\n          mload(0x40)\n          swap1\n          dup2\n          add\n          0x40\n          mstore\n          dup1\n          swap3\n          swap2\n          swap1\n          dup2\n          dup2\n          mstore\n          0x20\n          add\n          dup3\n          dup1\n          sload\n          tag_56\n          swap1\n          tag_55\n          jump\t// in\n        tag_56:\n          dup1\n          iszero\n          tag_57\n          jumpi\n          dup1\n          0x1f\n          lt\n          tag_58\n          jumpi\n          0x0100\n          dup1\n          dup4\n          sload\n          div\n          mul\n          dup4\n          mstore\n          swap2\n          0x20\n          add\n          swap2\n          jump(tag_57)\n        tag_58:\n          dup3\n          add\n          swap2\n          swap1\n          0x00\n          mstore\n          keccak256(0x00, 0x20)\n          swap1\n        tag_59:\n          dup2\n          sload\n          dup2\n          mstore\n          swap1\n          0x01\n          add\n          swap1\n          0x20\n          add\n          dup1\n          dup4\n          gt\n          tag_59\n          jumpi\n          dup3\n          swap1\n          sub\n          0x1f\n          and\n          dup3\n          add\n          swap2\n        tag_57:\n          pop\n          pop\n          pop\n          pop\n          pop\n          dup2\n          jump\t// out\n            /* \"CommitReveal.sol\":1977:2078  function getLastByte(bytes32 input) public pure returns (bytes1) {... */\n        tag_22:\n            /* \"CommitReveal.sol\":2034:2040  bytes1 */\n          0x00\n            /* \"CommitReveal.sol\":2062:2067  input */\n          dup2\n            /* \"CommitReveal.sol\":2068:2070  31 */\n          0x1f\n            /* \"CommitReveal.sol\":2062:2071  input[31] */\n          0x20\n          dup2\n          lt\n          tag_61\n          jumpi\n          tag_62\n          tag_63\n          jump\t// in\n        tag_62:\n        tag_61:\n          byte\n          0xf8\n          shl\n            /* \"CommitReveal.sol\":2048:2072  return bytes1(input[31]) */\n          swap1\n          pop\n            /* \"CommitReveal.sol\":1977:2078  function getLastByte(bytes32 input) public pure returns (bytes1) {... */\n          swap2\n          swap1\n          pop\n          jump\t// out\n            /* \"CommitReveal.sol\":1863:1973  function getHash(bytes32 data) public pure returns(bytes32){... */\n        tag_27:\n            /* \"CommitReveal.sol\":1914:1921  bytes32 */\n          0x00\n            /* \"CommitReveal.sol\":1962:1966  data */\n          dup2\n            /* \"CommitReveal.sol\":1945:1967  abi.encodePacked(data) */\n          add(0x20, mload(0x40))\n          tag_65\n          swap2\n          swap1\n          tag_66\n          jump\t// in\n        tag_65:\n          mload(0x40)\n          0x20\n          dup2\n          dup4\n          sub\n          sub\n          dup2\n          mstore\n          swap1\n          0x40\n          mstore\n            /* \"CommitReveal.sol\":1935:1968  keccak256(abi.encodePacked(data)) */\n          dup1\n          mload\n          swap1\n          0x20\n          add\n          keccak256\n            /* \"CommitReveal.sol\":1928:1968  return keccak256(abi.encodePacked(data)) */\n          swap1\n          pop\n            /* \"CommitReveal.sol\":1863:1973  function getHash(bytes32 data) public pure returns(bytes32){... */\n          swap2\n          swap1\n          pop\n          jump\t// out\n            /* \"CommitReveal.sol\":312:576  function commit(bytes32 dataHash , address player) public {... */\n        tag_33:\n            /* \"CommitReveal.sol\":401:409  dataHash */\n          dup2\n            /* \"CommitReveal.sol\":376:383  commits */\n          0x03\n            /* \"CommitReveal.sol\":376:391  commits[player] */\n          0x00\n            /* \"CommitReveal.sol\":384:390  player */\n          dup4\n            /* \"CommitReveal.sol\":376:391  commits[player] */\n          0xffffffffffffffffffffffffffffffffffffffff\n          and\n          0xffffffffffffffffffffffffffffffffffffffff\n          and\n          dup2\n          mstore\n          0x20\n          add\n          swap1\n          dup2\n          mstore\n          0x20\n          add\n          0x00\n          keccak256\n            /* \"CommitReveal.sol\":376:398  commits[player].commit */\n          0x00\n          add\n            /* \"CommitReveal.sol\":376:409  commits[player].commit = dataHash */\n          dup2\n          swap1\n          sstore\n          pop\n            /* \"CommitReveal.sol\":446:458  block.number */\n          number\n            /* \"CommitReveal.sol\":415:422  commits */\n          0x03\n            /* \"CommitReveal.sol\":415:430  commits[player] */\n          0x00\n            /* \"CommitReveal.sol\":423:429  player */\n          dup4\n            /* \"CommitReveal.sol\":415:430  commits[player] */\n          0xffffffffffffffffffffffffffffffffffffffff\n          and\n          0xffffffffffffffffffffffffffffffffffffffff\n          and\n          dup2\n          mstore\n          0x20\n          add\n          swap1\n          dup2\n          mstore\n          0x20\n          add\n          0x00\n          keccak256\n            /* \"CommitReveal.sol\":415:436  commits[player].block */\n          0x01\n          add\n          0x00\n            /* \"CommitReveal.sol\":415:459  commits[player].block = uint64(block.number) */\n          0x0100\n          exp\n          dup2\n          sload\n          dup2\n          0xffffffffffffffff\n          mul\n          not\n          and\n          swap1\n          dup4\n          0xffffffffffffffff\n          and\n          mul\n          or\n          swap1\n          sstore\n          pop\n            /* \"CommitReveal.sol\":492:497  false */\n          0x00\n            /* \"CommitReveal.sol\":465:472  commits */\n          0x03\n            /* \"CommitReveal.sol\":465:480  commits[player] */\n          0x00\n            /* \"CommitReveal.sol\":473:479  player */\n          dup4\n            /* \"CommitReveal.sol\":465:480  commits[player] */\n          0xffffffffffffffffffffffffffffffffffffffff\n          and\n          0xffffffffffffffffffffffffffffffffffffffff\n          and\n          dup2\n          mstore\n          0x20\n          add\n          swap1\n          dup2\n          mstore\n          0x20\n          add\n          0x00\n          keccak256\n            /* \"CommitReveal.sol\":465:489  commits[player].revealed */\n          0x01\n          add\n          0x08\n            /* \"CommitReveal.sol\":465:497  commits[player].revealed = false */\n          0x0100\n          exp\n          dup2\n          sload\n          dup2\n          0xff\n          mul\n          not\n          and\n          swap1\n          dup4\n          iszero\n          iszero\n          mul\n          or\n          swap1\n          sstore\n          pop\n            /* \"CommitReveal.sol\":508:571  CommitHash(player,commits[player].commit,commits[player].block) */\n          0x3c1a1f8f38335b17f751c6da4ba7d1865f26b3997535176f5080de9fad891603\n            /* \"CommitReveal.sol\":519:525  player */\n          dup2\n            /* \"CommitReveal.sol\":526:533  commits */\n          0x03\n            /* \"CommitReveal.sol\":526:541  commits[player] */\n          0x00\n            /* \"CommitReveal.sol\":534:540  player */\n          dup5\n            /* \"CommitReveal.sol\":526:541  commits[player] */\n          0xffffffffffffffffffffffffffffffffffffffff\n          and\n          0xffffffffffffffffffffffffffffffffffffffff\n          and\n          dup2\n          mstore\n          0x20\n          add\n          swap1\n          dup2\n          mstore\n          0x20\n          add\n          0x00\n          keccak256\n            /* \"CommitReveal.sol\":526:548  commits[player].commit */\n          0x00\n          add\n          sload\n            /* \"CommitReveal.sol\":549:556  commits */\n          0x03\n            /* \"CommitReveal.sol\":549:564  commits[player] */\n          0x00\n            /* \"CommitReveal.sol\":557:563  player */\n          dup6\n            /* \"CommitReveal.sol\":549:564  commits[player] */\n          0xffffffffffffffffffffffffffffffffffffffff\n          and\n          0xffffffffffffffffffffffffffffffffffffffff\n          and\n          dup2\n          mstore\n          0x20\n          add\n          swap1\n          dup2\n          mstore\n          0x20\n          add\n          0x00\n          keccak256\n            /* \"CommitReveal.sol\":549:570  commits[player].block */\n          0x01\n          add\n          0x00\n          swap1\n          sload\n          swap1\n          0x0100\n          exp\n          swap1\n          div\n          0xffffffffffffffff\n          and\n            /* \"CommitReveal.sol\":508:571  CommitHash(player,commits[player].commit,commits[player].block) */\n          mload(0x40)\n          tag_68\n          swap4\n          swap3\n          swap2\n          swap1\n          tag_69\n          jump\t// in\n        tag_68:\n          mload(0x40)\n          dup1\n          swap2\n          sub\n          swap1\n          log1\n            /* \"CommitReveal.sol\":312:576  function commit(bytes32 dataHash , address player) public {... */\n          pop\n          pop\n          jump\t// out\n            /* \"CommitReveal.sol\":97:119  uint8 public max = 100 */\n        tag_35:\n          0x00\n          dup1\n          sload\n          swap1\n          0x0100\n          exp\n          swap1\n          div\n          0xff\n          and\n          dup2\n          jump\t// out\n            /* \"CommitReveal.sol\":124:149  bytes32 public data_input */\n        tag_39:\n          sload(0x01)\n          dup2\n          jump\t// out\n            /* \"CommitReveal.sol\":265:307  mapping (address => Commit) public commits */\n        tag_44:\n          mstore(0x20, 0x03)\n          dup1\n          0x00\n          mstore\n          keccak256(0x00, 0x40)\n          0x00\n          swap2\n          pop\n          swap1\n          pop\n          dup1\n          0x00\n          add\n          sload\n          swap1\n          dup1\n          0x01\n          add\n          0x00\n          swap1\n          sload\n          swap1\n          0x0100\n          exp\n          swap1\n          div\n          0xffffffffffffffff\n          and\n          swap1\n          dup1\n          0x01\n          add\n          0x08\n          swap1\n          sload\n          swap1\n          0x0100\n          exp\n          swap1\n          div\n          0xff\n          and\n          swap1\n          pop\n          dup4\n          jump\t// out\n            /* \"CommitReveal.sol\":2082:2378  function restartGame() public {... */\n        tag_48:\n            /* \"CommitReveal.sol\":2125:2132  commits */\n          0x03\n            /* \"CommitReveal.sol\":2125:2176  commits[0x5B38Da6a701c568545dCfcB03FcB875f56beddC4] */\n          0x00\n            /* \"CommitReveal.sol\":2133:2175  0x5B38Da6a701c568545dCfcB03FcB875f56beddC4 */\n          0x5b38da6a701c568545dcfcb03fcb875f56beddc4\n            /* \"CommitReveal.sol\":2125:2176  commits[0x5B38Da6a701c568545dCfcB03FcB875f56beddC4] */\n          0xffffffffffffffffffffffffffffffffffffffff\n          and\n          0xffffffffffffffffffffffffffffffffffffffff\n          and\n          dup2\n          mstore\n          0x20\n          add\n          swap1\n          dup2\n          mstore\n          0x20\n          add\n          0x00\n          keccak256\n          0x00\n            /* \"CommitReveal.sol\":2118:2176  delete commits[0x5B38Da6a701c568545dCfcB03FcB875f56beddC4] */\n          dup1\n          dup3\n          add\n          0x00\n          swap1\n          sstore\n          0x01\n          dup3\n          add\n          exp(0x0100, 0x00)\n          dup2\n          sload\n          swap1\n          0xffffffffffffffff\n          mul\n          not\n          and\n          swap1\n          sstore\n          0x01\n          dup3\n          add\n          exp(0x0100, 0x08)\n          dup2\n          sload\n          swap1\n          0xff\n          mul\n          not\n          and\n          swap1\n          sstore\n          pop\n          pop\n            /* \"CommitReveal.sol\":2190:2197  commits */\n          0x03\n            /* \"CommitReveal.sol\":2190:2241  commits[0xAb8483F64d9C6d1EcF9b849Ae677dD3315835cb2] */\n          0x00\n            /* \"CommitReveal.sol\":2198:2240  0xAb8483F64d9C6d1EcF9b849Ae677dD3315835cb2 */\n          0xab8483f64d9c6d1ecf9b849ae677dd3315835cb2\n            /* \"CommitReveal.sol\":2190:2241  commits[0xAb8483F64d9C6d1EcF9b849Ae677dD3315835cb2] */\n          0xffffffffffffffffffffffffffffffffffffffff\n          and\n          0xffffffffffffffffffffffffffffffffffffffff\n          and\n          dup2\n          mstore\n          0x20\n          add\n          swap1\n          dup2\n          mstore\n          0x20\n          add\n          0x00\n          keccak256\n          0x00\n            /* \"CommitReveal.sol\":2183:2241  delete commits[0xAb8483F64d9C6d1EcF9b849Ae677dD3315835cb2] */\n          dup1\n          dup3\n          add\n          0x00\n          swap1\n          sstore\n          0x01\n          dup3\n          add\n          exp(0x0100, 0x00)\n          dup2\n          sload\n          swap1\n          0xffffffffffffffff\n          mul\n          not\n          and\n          swap1\n          sstore\n          0x01\n          dup3\n          add\n          exp(0x0100, 0x08)\n          dup2\n          sload\n          swap1\n          0xff\n          mul\n          not\n          and\n          swap1\n          sstore\n          pop\n          pop\n            /* \"CommitReveal.sol\":2255:2262  commits */\n          0x03\n            /* \"CommitReveal.sol\":2255:2306  commits[0x4B20993Bc481177ec7E8f571ceCaE8A9e22C02db] */\n          0x00\n            /* \"CommitReveal.sol\":2263:2305  0x4B20993Bc481177ec7E8f571ceCaE8A9e22C02db */\n          0x4b20993bc481177ec7e8f571cecae8a9e22c02db\n            /* \"CommitReveal.sol\":2255:2306  commits[0x4B20993Bc481177ec7E8f571ceCaE8A9e22C02db] */\n          0xffffffffffffffffffffffffffffffffffffffff\n          and\n          0xffffffffffffffffffffffffffffffffffffffff\n          and\n          dup2\n          mstore\n          0x20\n          add\n          swap1\n          dup2\n          mstore\n          0x20\n          add\n          0x00\n          keccak256\n          0x00\n            /* \"CommitReveal.sol\":2248:2306  delete commits[0x4B20993Bc481177ec7E8f571ceCaE8A9e22C02db] */\n          dup1\n          dup3\n          add\n          0x00\n          swap1\n          sstore\n          0x01\n          dup3\n          add\n          exp(0x0100, 0x00)\n          dup2\n          sload\n          swap1\n          0xffffffffffffffff\n          mul\n          not\n          and\n          swap1\n          sstore\n          0x01\n          dup3\n          add\n          exp(0x0100, 0x08)\n          dup2\n          sload\n          swap1\n          0xff\n          mul\n          not\n          and\n          swap1\n          sstore\n          pop\n          pop\n            /* \"CommitReveal.sol\":2320:2327  commits */\n          0x03\n            /* \"CommitReveal.sol\":2320:2371  commits[0x78731D3Ca6b7E34aC0F824c42a7cC18A495cabaB] */\n          0x00\n            /* \"CommitReveal.sol\":2328:2370  0x78731D3Ca6b7E34aC0F824c42a7cC18A495cabaB */\n          0x78731d3ca6b7e34ac0f824c42a7cc18a495cabab\n            /* \"CommitReveal.sol\":2320:2371  commits[0x78731D3Ca6b7E34aC0F824c42a7cC18A495cabaB] */\n          0xffffffffffffffffffffffffffffffffffffffff\n          and\n          0xffffffffffffffffffffffffffffffffffffffff\n          and\n          dup2\n          mstore\n          0x20\n          add\n          swap1\n          dup2\n          mstore\n          0x20\n          add\n          0x00\n          keccak256\n          0x00\n            /* \"CommitReveal.sol\":2313:2371  delete commits[0x78731D3Ca6b7E34aC0F824c42a7cC18A495cabaB] */\n          dup1\n          dup3\n          add\n          0x00\n          swap1\n          sstore\n          0x01\n          dup3\n          add\n          exp(0x0100, 0x00)\n          dup2\n          sload\n          swap1\n          0xffffffffffffffff\n          mul\n          not\n          and\n          swap1\n          sstore\n          0x01\n          dup3\n          add\n          exp(0x0100, 0x08)\n          dup2\n          sload\n          swap1\n          0xff\n          mul\n          not\n          and\n          swap1\n          sstore\n          pop\n          pop\n            /* \"CommitReveal.sol\":2082:2378  function restartGame() public {... */\n          jump\t// out\n            /* \"CommitReveal.sol\":648:1790  function reveal(bytes32 revealHash, address player) public {... */\n        tag_51:\n            /* \"CommitReveal.sol\":814:819  false */\n          0x00\n            /* \"CommitReveal.sol\":788:819  commits[player].revealed==false */\n          iszero\n          iszero\n            /* \"CommitReveal.sol\":788:795  commits */\n          0x03\n            /* \"CommitReveal.sol\":788:803  commits[player] */\n          0x00\n            /* \"CommitReveal.sol\":796:802  player */\n          dup4\n            /* \"CommitReveal.sol\":788:803  commits[player] */\n          0xffffffffffffffffffffffffffffffffffffffff\n          and\n          0xffffffffffffffffffffffffffffffffffffffff\n          and\n          dup2\n          mstore\n          0x20\n          add\n          swap1\n          dup2\n          mstore\n          0x20\n          add\n          0x00\n          keccak256\n            /* \"CommitReveal.sol\":788:812  commits[player].revealed */\n          0x01\n          add\n          0x08\n          swap1\n          sload\n          swap1\n          0x0100\n          exp\n          swap1\n          div\n          0xff\n          and\n            /* \"CommitReveal.sol\":788:819  commits[player].revealed==false */\n          iszero\n          iszero\n          eq\n            /* \"CommitReveal.sol\":780:861  require(commits[player].revealed==false,\"CommitReveal::reveal: Already revealed\") */\n          tag_72\n          jumpi\n          mload(0x40)\n          0x08c379a000000000000000000000000000000000000000000000000000000000\n          dup2\n          mstore\n          0x04\n          add\n          tag_73\n          swap1\n          tag_74\n          jump\t// in\n        tag_73:\n          mload(0x40)\n          dup1\n          swap2\n          sub\n          swap1\n          revert\n        tag_72:\n            /* \"CommitReveal.sol\":892:896  true */\n          0x01\n            /* \"CommitReveal.sol\":867:874  commits */\n          0x03\n            /* \"CommitReveal.sol\":867:882  commits[player] */\n          0x00\n            /* \"CommitReveal.sol\":875:881  player */\n          dup4\n            /* \"CommitReveal.sol\":867:882  commits[player] */\n          0xffffffffffffffffffffffffffffffffffffffff\n          and\n          0xffffffffffffffffffffffffffffffffffffffff\n          and\n          dup2\n          mstore\n          0x20\n          add\n          swap1\n          dup2\n          mstore\n          0x20\n          add\n          0x00\n          keccak256\n            /* \"CommitReveal.sol\":867:891  commits[player].revealed */\n          0x01\n          add\n          0x08\n            /* \"CommitReveal.sol\":867:896  commits[player].revealed=true */\n          0x0100\n          exp\n          dup2\n          sload\n          dup2\n          0xff\n          mul\n          not\n          and\n          swap1\n          dup4\n          iszero\n          iszero\n          mul\n          or\n          swap1\n          sstore\n          pop\n            /* \"CommitReveal.sol\":986:993  commits */\n          0x03\n            /* \"CommitReveal.sol\":986:1001  commits[player] */\n          0x00\n            /* \"CommitReveal.sol\":994:1000  player */\n          dup3\n            /* \"CommitReveal.sol\":986:1001  commits[player] */\n          0xffffffffffffffffffffffffffffffffffffffff\n          and\n          0xffffffffffffffffffffffffffffffffffffffff\n          and\n          dup2\n          mstore\n          0x20\n          add\n          swap1\n          dup2\n          mstore\n          0x20\n          add\n          0x00\n          keccak256\n            /* \"CommitReveal.sol\":986:1008  commits[player].commit */\n          0x00\n          add\n          sload\n            /* \"CommitReveal.sol\":965:984  getHash(revealHash) */\n          tag_75\n            /* \"CommitReveal.sol\":973:983  revealHash */\n          dup4\n            /* \"CommitReveal.sol\":965:972  getHash */\n          tag_27\n            /* \"CommitReveal.sol\":965:984  getHash(revealHash) */\n          jump\t// in\n        tag_75:\n            /* \"CommitReveal.sol\":965:1008  getHash(revealHash)==commits[player].commit */\n          eq\n            /* \"CommitReveal.sol\":957:1069  require(getHash(revealHash)==commits[player].commit,\"CommitReveal::reveal: Revealed hash does not match commit\") */\n          tag_76\n          jumpi\n          mload(0x40)\n          0x08c379a000000000000000000000000000000000000000000000000000000000\n          dup2\n          mstore\n          0x04\n          add\n          tag_77\n          swap1\n          tag_78\n          jump\t// in\n        tag_77:\n          mload(0x40)\n          dup1\n          swap2\n          sub\n          swap1\n          revert\n        tag_76:\n            /* \"CommitReveal.sol\":1175:1182  commits */\n          0x03\n            /* \"CommitReveal.sol\":1175:1190  commits[player] */\n          0x00\n            /* \"CommitReveal.sol\":1183:1189  player */\n          dup3\n            /* \"CommitReveal.sol\":1175:1190  commits[player] */\n          0xffffffffffffffffffffffffffffffffffffffff\n          and\n          0xffffffffffffffffffffffffffffffffffffffff\n          and\n          dup2\n          mstore\n          0x20\n          add\n          swap1\n          dup2\n          mstore\n          0x20\n          add\n          0x00\n          keccak256\n            /* \"CommitReveal.sol\":1175:1196  commits[player].block */\n          0x01\n          add\n          0x00\n          swap1\n          sload\n          swap1\n          0x0100\n          exp\n          swap1\n          div\n          0xffffffffffffffff\n          and\n            /* \"CommitReveal.sol\":1154:1196  uint64(block.number)>commits[player].block */\n          0xffffffffffffffff\n          and\n            /* \"CommitReveal.sol\":1161:1173  block.number */\n          number\n            /* \"CommitReveal.sol\":1154:1196  uint64(block.number)>commits[player].block */\n          0xffffffffffffffff\n          and\n          gt\n            /* \"CommitReveal.sol\":1146:1266  require(uint64(block.number)>commits[player].block,\"CommitReveal::reveal: Reveal and commit happened on the same block\") */\n          tag_79\n          jumpi\n          mload(0x40)\n          0x08c379a000000000000000000000000000000000000000000000000000000000\n          dup2\n          mstore\n          0x04\n          add\n          tag_80\n          swap1\n          tag_81\n          jump\t// in\n        tag_80:\n          mload(0x40)\n          dup1\n          swap2\n          sub\n          swap1\n          revert\n        tag_79:\n            /* \"CommitReveal.sol\":1379:1382  250 */\n          0xfa\n            /* \"CommitReveal.sol\":1357:1364  commits */\n          0x03\n            /* \"CommitReveal.sol\":1357:1372  commits[player] */\n          0x00\n            /* \"CommitReveal.sol\":1365:1371  player */\n          dup4\n            /* \"CommitReveal.sol\":1357:1372  commits[player] */\n          0xffffffffffffffffffffffffffffffffffffffff\n          and\n          0xffffffffffffffffffffffffffffffffffffffff\n          and\n          dup2\n          mstore\n          0x20\n          add\n          swap1\n          dup2\n          mstore\n          0x20\n          add\n          0x00\n          keccak256\n            /* \"CommitReveal.sol\":1357:1378  commits[player].block */\n          0x01\n          add\n          0x00\n          swap1\n          sload\n          swap1\n          0x0100\n          exp\n          swap1\n          div\n          0xffffffffffffffff\n          and\n            /* \"CommitReveal.sol\":1357:1382  commits[player].block+250 */\n          tag_82\n          swap2\n          swap1\n          tag_83\n          jump\t// in\n        tag_82:\n            /* \"CommitReveal.sol\":1335:1382  uint64(block.number)<=commits[player].block+250 */\n          0xffffffffffffffff\n          and\n            /* \"CommitReveal.sol\":1342:1354  block.number */\n          number\n            /* \"CommitReveal.sol\":1335:1382  uint64(block.number)<=commits[player].block+250 */\n          0xffffffffffffffff\n          and\n          gt\n          iszero\n            /* \"CommitReveal.sol\":1327:1425  require(uint64(block.number)<=commits[player].block+250,\"CommitReveal::reveal: Revealed too late\") */\n          tag_84\n          jumpi\n          mload(0x40)\n          0x08c379a000000000000000000000000000000000000000000000000000000000\n          dup2\n          mstore\n          0x04\n          add\n          tag_85\n          swap1\n          tag_86\n          jump\t// in\n        tag_85:\n          mload(0x40)\n          dup1\n          swap2\n          sub\n          swap1\n          revert\n        tag_84:\n            /* \"CommitReveal.sol\":1498:1515  bytes32 blockHash */\n          0x00\n            /* \"CommitReveal.sol\":1528:1535  commits */\n          0x03\n            /* \"CommitReveal.sol\":1528:1543  commits[player] */\n          0x00\n            /* \"CommitReveal.sol\":1536:1542  player */\n          dup4\n            /* \"CommitReveal.sol\":1528:1543  commits[player] */\n          0xffffffffffffffffffffffffffffffffffffffff\n          and\n          0xffffffffffffffffffffffffffffffffffffffff\n          and\n          dup2\n          mstore\n          0x20\n          add\n          swap1\n          dup2\n          mstore\n          0x20\n          add\n          0x00\n          keccak256\n            /* \"CommitReveal.sol\":1528:1549  commits[player].block */\n          0x01\n          add\n          0x00\n          swap1\n          sload\n          swap1\n          0x0100\n          exp\n          swap1\n          div\n          0xffffffffffffffff\n          and\n            /* \"CommitReveal.sol\":1518:1550  blockhash(commits[player].block) */\n          0xffffffffffffffff\n          and\n          blockhash\n            /* \"CommitReveal.sol\":1498:1550  bytes32 blockHash = blockhash(commits[player].block) */\n          swap1\n          pop\n            /* \"CommitReveal.sol\":1660:1671  uint random */\n          0x00\n            /* \"CommitReveal.sol\":1730:1733  max */\n          dup1\n          0x00\n          swap1\n          sload\n          swap1\n          0x0100\n          exp\n          swap1\n          div\n          0xff\n          and\n            /* \"CommitReveal.sol\":1674:1733  uint(keccak256(abi.encodePacked(blockHash,revealHash)))%max */\n          0xff\n          and\n            /* \"CommitReveal.sol\":1706:1715  blockHash */\n          dup3\n            /* \"CommitReveal.sol\":1716:1726  revealHash */\n          dup6\n            /* \"CommitReveal.sol\":1689:1727  abi.encodePacked(blockHash,revealHash) */\n          add(0x20, mload(0x40))\n          tag_87\n          swap3\n          swap2\n          swap1\n          tag_88\n          jump\t// in\n        tag_87:\n          mload(0x40)\n          0x20\n          dup2\n          dup4\n          sub\n          sub\n          dup2\n          mstore\n          swap1\n          0x40\n          mstore\n            /* \"CommitReveal.sol\":1679:1728  keccak256(abi.encodePacked(blockHash,revealHash)) */\n          dup1\n          mload\n          swap1\n          0x20\n          add\n          keccak256\n            /* \"CommitReveal.sol\":1674:1729  uint(keccak256(abi.encodePacked(blockHash,revealHash))) */\n          0x00\n          shr\n            /* \"CommitReveal.sol\":1674:1733  uint(keccak256(abi.encodePacked(blockHash,revealHash)))%max */\n          tag_89\n          swap2\n          swap1\n          tag_90\n          jump\t// in\n        tag_89:\n            /* \"CommitReveal.sol\":1660:1733  uint random = uint(keccak256(abi.encodePacked(blockHash,revealHash)))%max */\n          swap1\n          pop\n            /* \"CommitReveal.sol\":1744:1780  RevealHash(player,revealHash,random) */\n          0xbc016dd1cadeaefcb851af7a0a93532e0023d536894b730801f7bcfe7065bcc2\n            /* \"CommitReveal.sol\":1755:1761  player */\n          dup4\n            /* \"CommitReveal.sol\":1762:1772  revealHash */\n          dup6\n            /* \"CommitReveal.sol\":1773:1779  random */\n          dup4\n            /* \"CommitReveal.sol\":1744:1780  RevealHash(player,revealHash,random) */\n          mload(0x40)\n          tag_91\n          swap4\n          swap3\n          swap2\n          swap1\n          tag_92\n          jump\t// in\n        tag_91:\n          mload(0x40)\n          dup1\n          swap2\n          sub\n          swap1\n          log1\n            /* \"CommitReveal.sol\":707:1790  {... */\n          pop\n          pop\n            /* \"CommitReveal.sol\":648:1790  function reveal(bytes32 revealHash, address player) public {... */\n          pop\n          pop\n          jump\t// out\n            /* \"#utility.yul\":88:205   */\n        tag_94:\n            /* \"#utility.yul\":197:198   */\n          0x00\n            /* \"#utility.yul\":194:195   */\n          dup1\n            /* \"#utility.yul\":187:199   */\n          revert\n            /* \"#utility.yul\":334:411   */\n        tag_96:\n            /* \"#utility.yul\":371:378   */\n          0x00\n            /* \"#utility.yul\":400:405   */\n          dup2\n            /* \"#utility.yul\":389:405   */\n          swap1\n          pop\n            /* \"#utility.yul\":334:411   */\n          swap2\n          swap1\n          pop\n          jump\t// out\n            /* \"#utility.yul\":417:539   */\n        tag_97:\n            /* \"#utility.yul\":490:514   */\n          tag_142\n            /* \"#utility.yul\":508:513   */\n          dup2\n            /* \"#utility.yul\":490:514   */\n          tag_96\n          jump\t// in\n        tag_142:\n            /* \"#utility.yul\":483:488   */\n          dup2\n            /* \"#utility.yul\":480:515   */\n          eq\n            /* \"#utility.yul\":470:533   */\n          tag_143\n          jumpi\n            /* \"#utility.yul\":529:530   */\n          0x00\n            /* \"#utility.yul\":526:527   */\n          dup1\n            /* \"#utility.yul\":519:531   */\n          revert\n            /* \"#utility.yul\":470:533   */\n        tag_143:\n            /* \"#utility.yul\":417:539   */\n          pop\n          jump\t// out\n            /* \"#utility.yul\":545:684   */\n        tag_98:\n            /* \"#utility.yul\":591:596   */\n          0x00\n            /* \"#utility.yul\":629:635   */\n          dup2\n            /* \"#utility.yul\":616:636   */\n          calldataload\n            /* \"#utility.yul\":607:636   */\n          swap1\n          pop\n            /* \"#utility.yul\":645:678   */\n          tag_145\n            /* \"#utility.yul\":672:677   */\n          dup2\n            /* \"#utility.yul\":645:678   */\n          tag_97\n          jump\t// in\n        tag_145:\n            /* \"#utility.yul\":545:684   */\n          swap3\n          swap2\n          pop\n          pop\n          jump\t// out\n            /* \"#utility.yul\":690:1019   */\n        tag_15:\n            /* \"#utility.yul\":749:755   */\n          0x00\n            /* \"#utility.yul\":798:800   */\n          0x20\n            /* \"#utility.yul\":786:795   */\n          dup3\n            /* \"#utility.yul\":777:784   */\n          dup5\n            /* \"#utility.yul\":773:796   */\n          sub\n            /* \"#utility.yul\":769:801   */\n          slt\n            /* \"#utility.yul\":766:885   */\n          iszero\n          tag_147\n          jumpi\n            /* \"#utility.yul\":804:883   */\n          tag_148\n          tag_94\n          jump\t// in\n        tag_148:\n            /* \"#utility.yul\":766:885   */\n        tag_147:\n            /* \"#utility.yul\":924:925   */\n          0x00\n            /* \"#utility.yul\":949:1002   */\n          tag_149\n            /* \"#utility.yul\":994:1001   */\n          dup5\n            /* \"#utility.yul\":985:991   */\n          dup3\n            /* \"#utility.yul\":974:983   */\n          dup6\n            /* \"#utility.yul\":970:992   */\n          add\n            /* \"#utility.yul\":949:1002   */\n          tag_98\n          jump\t// in\n        tag_149:\n            /* \"#utility.yul\":939:1002   */\n          swap2\n          pop\n            /* \"#utility.yul\":895:1012   */\n          pop\n            /* \"#utility.yul\":690:1019   */\n          swap3\n          swap2\n          pop\n          pop\n          jump\t// out\n            /* \"#utility.yul\":1025:1123   */\n        tag_99:\n            /* \"#utility.yul\":1076:1082   */\n          0x00\n            /* \"#utility.yul\":1110:1115   */\n          dup2\n            /* \"#utility.yul\":1104:1116   */\n          mload\n            /* \"#utility.yul\":1094:1116   */\n          swap1\n          pop\n            /* \"#utility.yul\":1025:1123   */\n          swap2\n          swap1\n          pop\n          jump\t// out\n            /* \"#utility.yul\":1129:1297   */\n        tag_100:\n            /* \"#utility.yul\":1212:1223   */\n          0x00\n            /* \"#utility.yul\":1246:1252   */\n          dup3\n            /* \"#utility.yul\":1241:1244   */\n          dup3\n            /* \"#utility.yul\":1234:1253   */\n          mstore\n            /* \"#utility.yul\":1286:1290   */\n          0x20\n            /* \"#utility.yul\":1281:1284   */\n          dup3\n            /* \"#utility.yul\":1277:1291   */\n          add\n            /* \"#utility.yul\":1262:1291   */\n          swap1\n          pop\n            /* \"#utility.yul\":1129:1297   */\n          swap3\n          swap2\n          pop\n          pop\n          jump\t// out\n            /* \"#utility.yul\":1303:1442   */\n        tag_101:\n            /* \"#utility.yul\":1392:1398   */\n          dup3\n            /* \"#utility.yul\":1387:1390   */\n          dup2\n            /* \"#utility.yul\":1382:1385   */\n          dup4\n            /* \"#utility.yul\":1376:1399   */\n          mcopy\n            /* \"#utility.yul\":1433:1434   */\n          0x00\n            /* \"#utility.yul\":1424:1430   */\n          dup4\n            /* \"#utility.yul\":1419:1422   */\n          dup4\n            /* \"#utility.yul\":1415:1431   */\n          add\n            /* \"#utility.yul\":1408:1435   */\n          mstore\n            /* \"#utility.yul\":1303:1442   */\n          pop\n          pop\n          pop\n          jump\t// out\n            /* \"#utility.yul\":1448:1550   */\n        tag_102:\n            /* \"#utility.yul\":1489:1495   */\n          0x00\n            /* \"#utility.yul\":1540:1542   */\n          0x1f\n            /* \"#utility.yul\":1536:1543   */\n          not\n            /* \"#utility.yul\":1531:1533   */\n          0x1f\n            /* \"#utility.yul\":1524:1529   */\n          dup4\n            /* \"#utility.yul\":1520:1534   */\n          add\n            /* \"#utility.yul\":1516:1544   */\n          and\n            /* \"#utility.yul\":1506:1544   */\n          swap1\n          pop\n            /* \"#utility.yul\":1448:1550   */\n          swap2\n          swap1\n          pop\n          jump\t// out\n            /* \"#utility.yul\":1556:1929   */\n        tag_103:\n            /* \"#utility.yul\":1642:1645   */\n          0x00\n            /* \"#utility.yul\":1670:1708   */\n          tag_155\n            /* \"#utility.yul\":1702:1707   */\n          dup3\n            /* \"#utility.yul\":1670:1708   */\n          tag_99\n          jump\t// in\n        tag_155:\n            /* \"#utility.yul\":1724:1794   */\n          tag_156\n            /* \"#utility.yul\":1787:1793   */\n          dup2\n            /* \"#utility.yul\":1782:1785   */\n          dup6\n            /* \"#utility.yul\":1724:1794   */\n          tag_100\n          jump\t// in\n        tag_156:\n            /* \"#utility.yul\":1717:1794   */\n          swap4\n          pop\n            /* \"#utility.yul\":1803:1868   */\n          tag_157\n            /* \"#utility.yul\":1861:1867   */\n          dup2\n            /* \"#utility.yul\":1856:1859   */\n          dup6\n            /* \"#utility.yul\":1849:1853   */\n          0x20\n            /* \"#utility.yul\":1842:1847   */\n          dup7\n            /* \"#utility.yul\":1838:1854   */\n          add\n            /* \"#utility.yul\":1803:1868   */\n          tag_101\n          jump\t// in\n        tag_157:\n            /* \"#utility.yul\":1893:1922   */\n          tag_158\n            /* \"#utility.yul\":1915:1921   */\n          dup2\n            /* \"#utility.yul\":1893:1922   */\n          tag_102\n          jump\t// in\n        tag_158:\n            /* \"#utility.yul\":1888:1891   */\n          dup5\n            /* \"#utility.yul\":1884:1923   */\n          add\n            /* \"#utility.yul\":1877:1923   */\n          swap2\n          pop\n            /* \"#utility.yul\":1646:1929   */\n          pop\n            /* \"#utility.yul\":1556:1929   */\n          swap3\n          swap2\n          pop\n          pop\n          jump\t// out\n            /* \"#utility.yul\":1935:2244   */\n        tag_18:\n            /* \"#utility.yul\":2046:2050   */\n          0x00\n            /* \"#utility.yul\":2084:2086   */\n          0x20\n            /* \"#utility.yul\":2073:2082   */\n          dup3\n            /* \"#utility.yul\":2069:2087   */\n          add\n            /* \"#utility.yul\":2061:2087   */\n          swap1\n          pop\n            /* \"#utility.yul\":2133:2142   */\n          dup2\n            /* \"#utility.yul\":2127:2131   */\n          dup2\n            /* \"#utility.yul\":2123:2143   */\n          sub\n            /* \"#utility.yul\":2119:2120   */\n          0x00\n            /* \"#utility.yul\":2108:2117   */\n          dup4\n            /* \"#utility.yul\":2104:2121   */\n          add\n            /* \"#utility.yul\":2097:2144   */\n          mstore\n            /* \"#utility.yul\":2161:2237   */\n          tag_160\n            /* \"#utility.yul\":2232:2236   */\n          dup2\n            /* \"#utility.yul\":2223:2229   */\n          dup5\n            /* \"#utility.yul\":2161:2237   */\n          tag_103\n          jump\t// in\n        tag_160:\n            /* \"#utility.yul\":2153:2237   */\n          swap1\n          pop\n            /* \"#utility.yul\":1935:2244   */\n          swap3\n          swap2\n          pop\n          pop\n          jump\t// out\n            /* \"#utility.yul\":2250:2327   */\n        tag_104:\n            /* \"#utility.yul\":2287:2294   */\n          0x00\n            /* \"#utility.yul\":2316:2321   */\n          dup2\n            /* \"#utility.yul\":2305:2321   */\n          swap1\n          pop\n            /* \"#utility.yul\":2250:2327   */\n          swap2\n          swap1\n          pop\n          jump\t// out\n            /* \"#utility.yul\":2333:2455   */\n        tag_105:\n            /* \"#utility.yul\":2406:2430   */\n          tag_163\n            /* \"#utility.yul\":2424:2429   */\n          dup2\n            /* \"#utility.yul\":2406:2430   */\n          tag_104\n          jump\t// in\n        tag_163:\n            /* \"#utility.yul\":2399:2404   */\n          dup2\n            /* \"#utility.yul\":2396:2431   */\n          eq\n            /* \"#utility.yul\":2386:2449   */\n          tag_164\n          jumpi\n            /* \"#utility.yul\":2445:2446   */\n          0x00\n            /* \"#utility.yul\":2442:2443   */\n          dup1\n            /* \"#utility.yul\":2435:2447   */\n          revert\n            /* \"#utility.yul\":2386:2449   */\n        tag_164:\n            /* \"#utility.yul\":2333:2455   */\n          pop\n          jump\t// out\n            /* \"#utility.yul\":2461:2600   */\n        tag_106:\n            /* \"#utility.yul\":2507:2512   */\n          0x00\n            /* \"#utility.yul\":2545:2551   */\n          dup2\n            /* \"#utility.yul\":2532:2552   */\n          calldataload\n            /* \"#utility.yul\":2523:2552   */\n          swap1\n          pop\n            /* \"#utility.yul\":2561:2594   */\n          tag_166\n            /* \"#utility.yul\":2588:2593   */\n          dup2\n            /* \"#utility.yul\":2561:2594   */\n          tag_105\n          jump\t// in\n        tag_166:\n            /* \"#utility.yul\":2461:2600   */\n          swap3\n          swap2\n          pop\n          pop\n          jump\t// out\n            /* \"#utility.yul\":2606:2935   */\n        tag_21:\n            /* \"#utility.yul\":2665:2671   */\n          0x00\n            /* \"#utility.yul\":2714:2716   */\n          0x20\n            /* \"#utility.yul\":2702:2711   */\n          dup3\n            /* \"#utility.yul\":2693:2700   */\n          dup5\n            /* \"#utility.yul\":2689:2712   */\n          sub\n            /* \"#utility.yul\":2685:2717   */\n          slt\n            /* \"#utility.yul\":2682:2801   */\n          iszero\n          tag_168\n          jumpi\n            /* \"#utility.yul\":2720:2799   */\n          tag_169\n          tag_94\n          jump\t// in\n        tag_169:\n            /* \"#utility.yul\":2682:2801   */\n        tag_168:\n            /* \"#utility.yul\":2840:2841   */\n          0x00\n            /* \"#utility.yul\":2865:2918   */\n          tag_170\n            /* \"#utility.yul\":2910:2917   */\n          dup5\n            /* \"#utility.yul\":2901:2907   */\n          dup3\n            /* \"#utility.yul\":2890:2899   */\n          dup6\n            /* \"#utility.yul\":2886:2908   */\n          add\n            /* \"#utility.yul\":2865:2918   */\n          tag_106\n          jump\t// in\n        tag_170:\n            /* \"#utility.yul\":2855:2918   */\n          swap2\n          pop\n            /* \"#utility.yul\":2811:2928   */\n          pop\n            /* \"#utility.yul\":2606:2935   */\n          swap3\n          swap2\n          pop\n          pop\n          jump\t// out\n            /* \"#utility.yul\":2941:3090   */\n        tag_107:\n            /* \"#utility.yul\":2977:2984   */\n          0x00\n            /* \"#utility.yul\":3017:3083   */\n          0xff00000000000000000000000000000000000000000000000000000000000000\n            /* \"#utility.yul\":3010:3015   */\n          dup3\n            /* \"#utility.yul\":3006:3084   */\n          and\n            /* \"#utility.yul\":2995:3084   */\n          swap1\n          pop\n            /* \"#utility.yul\":2941:3090   */\n          swap2\n          swap1\n          pop\n          jump\t// out\n            /* \"#utility.yul\":3096:3211   */\n        tag_108:\n            /* \"#utility.yul\":3181:3204   */\n          tag_173\n            /* \"#utility.yul\":3198:3203   */\n          dup2\n            /* \"#utility.yul\":3181:3204   */\n          tag_107\n          jump\t// in\n        tag_173:\n            /* \"#utility.yul\":3176:3179   */\n          dup3\n            /* \"#utility.yul\":3169:3205   */\n          mstore\n            /* \"#utility.yul\":3096:3211   */\n          pop\n          pop\n          jump\t// out\n            /* \"#utility.yul\":3217:3435   */\n        tag_24:\n            /* \"#utility.yul\":3308:3312   */\n          0x00\n            /* \"#utility.yul\":3346:3348   */\n          0x20\n            /* \"#utility.yul\":3335:3344   */\n          dup3\n            /* \"#utility.yul\":3331:3349   */\n          add\n            /* \"#utility.yul\":3323:3349   */\n          swap1\n          pop\n            /* \"#utility.yul\":3359:3428   */\n          tag_175\n            /* \"#utility.yul\":3425:3426   */\n          0x00\n            /* \"#utility.yul\":3414:3423   */\n          dup4\n            /* \"#utility.yul\":3410:3427   */\n          add\n            /* \"#utility.yul\":3401:3407   */\n          dup5\n            /* \"#utility.yul\":3359:3428   */\n          tag_108\n          jump\t// in\n        tag_175:\n            /* \"#utility.yul\":3217:3435   */\n          swap3\n          swap2\n          pop\n          pop\n          jump\t// out\n            /* \"#utility.yul\":3441:3559   */\n        tag_109:\n            /* \"#utility.yul\":3528:3552   */\n          tag_177\n            /* \"#utility.yul\":3546:3551   */\n          dup2\n            /* \"#utility.yul\":3528:3552   */\n          tag_104\n          jump\t// in\n        tag_177:\n            /* \"#utility.yul\":3523:3526   */\n          dup3\n            /* \"#utility.yul\":3516:3553   */\n          mstore\n            /* \"#utility.yul\":3441:3559   */\n          pop\n          pop\n          jump\t// out\n            /* \"#utility.yul\":3565:3787   */\n        tag_29:\n            /* \"#utility.yul\":3658:3662   */\n          0x00\n            /* \"#utility.yul\":3696:3698   */\n          0x20\n            /* \"#utility.yul\":3685:3694   */\n          dup3\n            /* \"#utility.yul\":3681:3699   */\n          add\n            /* \"#utility.yul\":3673:3699   */\n          swap1\n          pop\n            /* \"#utility.yul\":3709:3780   */\n          tag_179\n            /* \"#utility.yul\":3777:3778   */\n          0x00\n            /* \"#utility.yul\":3766:3775   */\n          dup4\n            /* \"#utility.yul\":3762:3779   */\n          add\n            /* \"#utility.yul\":3753:3759   */\n          dup5\n            /* \"#utility.yul\":3709:3780   */\n          tag_109\n          jump\t// in\n        tag_179:\n            /* \"#utility.yul\":3565:3787   */\n          swap3\n          swap2\n          pop\n          pop\n          jump\t// out\n            /* \"#utility.yul\":3793:3919   */\n        tag_110:\n            /* \"#utility.yul\":3830:3837   */\n          0x00\n            /* \"#utility.yul\":3870:3912   */\n          0xffffffffffffffffffffffffffffffffffffffff\n            /* \"#utility.yul\":3863:3868   */\n          dup3\n            /* \"#utility.yul\":3859:3913   */\n          and\n            /* \"#utility.yul\":3848:3913   */\n          swap1\n          pop\n            /* \"#utility.yul\":3793:3919   */\n          swap2\n          swap1\n          pop\n          jump\t// out\n            /* \"#utility.yul\":3925:4021   */\n        tag_111:\n            /* \"#utility.yul\":3962:3969   */\n          0x00\n            /* \"#utility.yul\":3991:4015   */\n          tag_182\n            /* \"#utility.yul\":4009:4014   */\n          dup3\n            /* \"#utility.yul\":3991:4015   */\n          tag_110\n          jump\t// in\n        tag_182:\n            /* \"#utility.yul\":3980:4015   */\n          swap1\n          pop\n            /* \"#utility.yul\":3925:4021   */\n          swap2\n          swap1\n          pop\n          jump\t// out\n            /* \"#utility.yul\":4027:4149   */\n        tag_112:\n            /* \"#utility.yul\":4100:4124   */\n          tag_184\n            /* \"#utility.yul\":4118:4123   */\n          dup2\n            /* \"#utility.yul\":4100:4124   */\n          tag_111\n          jump\t// in\n        tag_184:\n            /* \"#utility.yul\":4093:4098   */\n          dup2\n            /* \"#utility.yul\":4090:4125   */\n          eq\n            /* \"#utility.yul\":4080:4143   */\n          tag_185\n          jumpi\n            /* \"#utility.yul\":4139:4140   */\n          0x00\n            /* \"#utility.yul\":4136:4137   */\n          dup1\n            /* \"#utility.yul\":4129:4141   */\n          revert\n            /* \"#utility.yul\":4080:4143   */\n        tag_185:\n            /* \"#utility.yul\":4027:4149   */\n          pop\n          jump\t// out\n            /* \"#utility.yul\":4155:4294   */\n        tag_113:\n            /* \"#utility.yul\":4201:4206   */\n          0x00\n            /* \"#utility.yul\":4239:4245   */\n          dup2\n            /* \"#utility.yul\":4226:4246   */\n          calldataload\n            /* \"#utility.yul\":4217:4246   */\n          swap1\n          pop\n            /* \"#utility.yul\":4255:4288   */\n          tag_187\n            /* \"#utility.yul\":4282:4287   */\n          dup2\n            /* \"#utility.yul\":4255:4288   */\n          tag_112\n          jump\t// in\n        tag_187:\n            /* \"#utility.yul\":4155:4294   */\n          swap3\n          swap2\n          pop\n          pop\n          jump\t// out\n            /* \"#utility.yul\":4300:4774   */\n        tag_32:\n            /* \"#utility.yul\":4368:4374   */\n          0x00\n            /* \"#utility.yul\":4376:4382   */\n          dup1\n            /* \"#utility.yul\":4425:4427   */\n          0x40\n            /* \"#utility.yul\":4413:4422   */\n          dup4\n            /* \"#utility.yul\":4404:4411   */\n          dup6\n            /* \"#utility.yul\":4400:4423   */\n          sub\n            /* \"#utility.yul\":4396:4428   */\n          slt\n            /* \"#utility.yul\":4393:4512   */\n          iszero\n          tag_189\n          jumpi\n            /* \"#utility.yul\":4431:4510   */\n          tag_190\n          tag_94\n          jump\t// in\n        tag_190:\n            /* \"#utility.yul\":4393:4512   */\n        tag_189:\n            /* \"#utility.yul\":4551:4552   */\n          0x00\n            /* \"#utility.yul\":4576:4629   */\n          tag_191\n            /* \"#utility.yul\":4621:4628   */\n          dup6\n            /* \"#utility.yul\":4612:4618   */\n          dup3\n            /* \"#utility.yul\":4601:4610   */\n          dup7\n            /* \"#utility.yul\":4597:4619   */\n          add\n            /* \"#utility.yul\":4576:4629   */\n          tag_106\n          jump\t// in\n        tag_191:\n            /* \"#utility.yul\":4566:4629   */\n          swap3\n          pop\n            /* \"#utility.yul\":4522:4639   */\n          pop\n            /* \"#utility.yul\":4678:4680   */\n          0x20\n            /* \"#utility.yul\":4704:4757   */\n          tag_192\n            /* \"#utility.yul\":4749:4756   */\n          dup6\n            /* \"#utility.yul\":4740:4746   */\n          dup3\n            /* \"#utility.yul\":4729:4738   */\n          dup7\n            /* \"#utility.yul\":4725:4747   */\n          add\n            /* \"#utility.yul\":4704:4757   */\n          tag_113\n          jump\t// in\n        tag_192:\n            /* \"#utility.yul\":4694:4757   */\n          swap2\n          pop\n            /* \"#utility.yul\":4649:4767   */\n          pop\n            /* \"#utility.yul\":4300:4774   */\n          swap3\n          pop\n          swap3\n          swap1\n          pop\n          jump\t// out\n            /* \"#utility.yul\":4780:4866   */\n        tag_114:\n            /* \"#utility.yul\":4815:4822   */\n          0x00\n            /* \"#utility.yul\":4855:4859   */\n          0xff\n            /* \"#utility.yul\":4848:4853   */\n          dup3\n            /* \"#utility.yul\":4844:4860   */\n          and\n            /* \"#utility.yul\":4833:4860   */\n          swap1\n          pop\n            /* \"#utility.yul\":4780:4866   */\n          swap2\n          swap1\n          pop\n          jump\t// out\n            /* \"#utility.yul\":4872:4984   */\n        tag_115:\n            /* \"#utility.yul\":4955:4977   */\n          tag_195\n            /* \"#utility.yul\":4971:4976   */\n          dup2\n            /* \"#utility.yul\":4955:4977   */\n          tag_114\n          jump\t// in\n        tag_195:\n            /* \"#utility.yul\":4950:4953   */\n          dup3\n            /* \"#utility.yul\":4943:4978   */\n          mstore\n            /* \"#utility.yul\":4872:4984   */\n          pop\n          pop\n          jump\t// out\n            /* \"#utility.yul\":4990:5204   */\n        tag_37:\n            /* \"#utility.yul\":5079:5083   */\n          0x00\n            /* \"#utility.yul\":5117:5119   */\n          0x20\n            /* \"#utility.yul\":5106:5115   */\n          dup3\n            /* \"#utility.yul\":5102:5120   */\n          add\n            /* \"#utility.yul\":5094:5120   */\n          swap1\n          pop\n            /* \"#utility.yul\":5130:5197   */\n          tag_197\n            /* \"#utility.yul\":5194:5195   */\n          0x00\n            /* \"#utility.yul\":5183:5192   */\n          dup4\n            /* \"#utility.yul\":5179:5196   */\n          add\n            /* \"#utility.yul\":5170:5176   */\n          dup5\n            /* \"#utility.yul\":5130:5197   */\n          tag_115\n          jump\t// in\n        tag_197:\n            /* \"#utility.yul\":4990:5204   */\n          swap3\n          swap2\n          pop\n          pop\n          jump\t// out\n            /* \"#utility.yul\":5210:5539   */\n        tag_43:\n            /* \"#utility.yul\":5269:5275   */\n          0x00\n            /* \"#utility.yul\":5318:5320   */\n          0x20\n            /* \"#utility.yul\":5306:5315   */\n          dup3\n            /* \"#utility.yul\":5297:5304   */\n          dup5\n            /* \"#utility.yul\":5293:5316   */\n          sub\n            /* \"#utility.yul\":5289:5321   */\n          slt\n            /* \"#utility.yul\":5286:5405   */\n          iszero\n          tag_199\n          jumpi\n            /* \"#utility.yul\":5324:5403   */\n          tag_200\n          tag_94\n          jump\t// in\n        tag_200:\n            /* \"#utility.yul\":5286:5405   */\n        tag_199:\n            /* \"#utility.yul\":5444:5445   */\n          0x00\n            /* \"#utility.yul\":5469:5522   */\n          tag_201\n            /* \"#utility.yul\":5514:5521   */\n          dup5\n            /* \"#utility.yul\":5505:5511   */\n          dup3\n            /* \"#utility.yul\":5494:5503   */\n          dup6\n            /* \"#utility.yul\":5490:5512   */\n          add\n            /* \"#utility.yul\":5469:5522   */\n          tag_113\n          jump\t// in\n        tag_201:\n            /* \"#utility.yul\":5459:5522   */\n          swap2\n          pop\n            /* \"#utility.yul\":5415:5532   */\n          pop\n            /* \"#utility.yul\":5210:5539   */\n          swap3\n          swap2\n          pop\n          pop\n          jump\t// out\n            /* \"#utility.yul\":5545:5646   */\n        tag_116:\n            /* \"#utility.yul\":5581:5588   */\n          0x00\n            /* \"#utility.yul\":5621:5639   */\n          0xffffffffffffffff\n            /* \"#utility.yul\":5614:5619   */\n          dup3\n            /* \"#utility.yul\":5610:5640   */\n          and\n            /* \"#utility.yul\":5599:5640   */\n          swap1\n          pop\n            /* \"#utility.yul\":5545:5646   */\n          swap2\n          swap1\n          pop\n          jump\t// out\n            /* \"#utility.yul\":5652:5767   */\n        tag_117:\n            /* \"#utility.yul\":5737:5760   */\n          tag_204\n            /* \"#utility.yul\":5754:5759   */\n          dup2\n            /* \"#utility.yul\":5737:5760   */\n          tag_116\n          jump\t// in\n        tag_204:\n            /* \"#utility.yul\":5732:5735   */\n          dup3\n            /* \"#utility.yul\":5725:5761   */\n          mstore\n            /* \"#utility.yul\":5652:5767   */\n          pop\n          pop\n          jump\t// out\n            /* \"#utility.yul\":5773:5863   */\n        tag_118:\n            /* \"#utility.yul\":5807:5814   */\n          0x00\n            /* \"#utility.yul\":5850:5855   */\n          dup2\n            /* \"#utility.yul\":5843:5856   */\n          iszero\n            /* \"#utility.yul\":5836:5857   */\n          iszero\n            /* \"#utility.yul\":5825:5857   */\n          swap1\n          pop\n            /* \"#utility.yul\":5773:5863   */\n          swap2\n          swap1\n          pop\n          jump\t// out\n            /* \"#utility.yul\":5869:5978   */\n        tag_119:\n            /* \"#utility.yul\":5950:5971   */\n          tag_207\n            /* \"#utility.yul\":5965:5970   */\n          dup2\n            /* \"#utility.yul\":5950:5971   */\n          tag_118\n          jump\t// in\n        tag_207:\n            /* \"#utility.yul\":5945:5948   */\n          dup3\n            /* \"#utility.yul\":5938:5972   */\n          mstore\n            /* \"#utility.yul\":5869:5978   */\n          pop\n          pop\n          jump\t// out\n            /* \"#utility.yul\":5984:6410   */\n        tag_46:\n            /* \"#utility.yul\":6125:6129   */\n          0x00\n            /* \"#utility.yul\":6163:6165   */\n          0x60\n            /* \"#utility.yul\":6152:6161   */\n          dup3\n            /* \"#utility.yul\":6148:6166   */\n          add\n            /* \"#utility.yul\":6140:6166   */\n          swap1\n          pop\n            /* \"#utility.yul\":6176:6247   */\n          tag_209\n            /* \"#utility.yul\":6244:6245   */\n          0x00\n            /* \"#utility.yul\":6233:6242   */\n          dup4\n            /* \"#utility.yul\":6229:6246   */\n          add\n            /* \"#utility.yul\":6220:6226   */\n          dup7\n            /* \"#utility.yul\":6176:6247   */\n          tag_109\n          jump\t// in\n        tag_209:\n            /* \"#utility.yul\":6257:6327   */\n          tag_210\n            /* \"#utility.yul\":6323:6325   */\n          0x20\n            /* \"#utility.yul\":6312:6321   */\n          dup4\n            /* \"#utility.yul\":6308:6326   */\n          add\n            /* \"#utility.yul\":6299:6305   */\n          dup6\n            /* \"#utility.yul\":6257:6327   */\n          tag_117\n          jump\t// in\n        tag_210:\n            /* \"#utility.yul\":6337:6403   */\n          tag_211\n            /* \"#utility.yul\":6399:6401   */\n          0x40\n            /* \"#utility.yul\":6388:6397   */\n          dup4\n            /* \"#utility.yul\":6384:6402   */\n          add\n            /* \"#utility.yul\":6375:6381   */\n          dup5\n            /* \"#utility.yul\":6337:6403   */\n          tag_119\n          jump\t// in\n        tag_211:\n            /* \"#utility.yul\":5984:6410   */\n          swap5\n          swap4\n          pop\n          pop\n          pop\n          pop\n          jump\t// out\n            /* \"#utility.yul\":6416:6596   */\n        tag_120:\n            /* \"#utility.yul\":6464:6541   */\n          0x4e487b7100000000000000000000000000000000000000000000000000000000\n            /* \"#utility.yul\":6461:6462   */\n          0x00\n            /* \"#utility.yul\":6454:6542   */\n          mstore\n            /* \"#utility.yul\":6561:6565   */\n          0x22\n            /* \"#utility.yul\":6558:6559   */\n          0x04\n            /* \"#utility.yul\":6551:6566   */\n          mstore\n            /* \"#utility.yul\":6585:6589   */\n          0x24\n            /* \"#utility.yul\":6582:6583   */\n          0x00\n            /* \"#utility.yul\":6575:6590   */\n          revert\n            /* \"#utility.yul\":6602:6922   */\n        tag_55:\n            /* \"#utility.yul\":6646:6652   */\n          0x00\n            /* \"#utility.yul\":6683:6684   */\n          0x02\n            /* \"#utility.yul\":6677:6681   */\n          dup3\n            /* \"#utility.yul\":6673:6685   */\n          div\n            /* \"#utility.yul\":6663:6685   */\n          swap1\n          pop\n            /* \"#utility.yul\":6730:6731   */\n          0x01\n            /* \"#utility.yul\":6724:6728   */\n          dup3\n            /* \"#utility.yul\":6720:6732   */\n          and\n            /* \"#utility.yul\":6751:6769   */\n          dup1\n            /* \"#utility.yul\":6741:6822   */\n          tag_214\n          jumpi\n            /* \"#utility.yul\":6807:6811   */\n          0x7f\n            /* \"#utility.yul\":6799:6805   */\n          dup3\n            /* \"#utility.yul\":6795:6812   */\n          and\n            /* \"#utility.yul\":6785:6812   */\n          swap2\n          pop\n            /* \"#utility.yul\":6741:6822   */\n        tag_214:\n            /* \"#utility.yul\":6869:6871   */\n          0x20\n            /* \"#utility.yul\":6861:6867   */\n          dup3\n            /* \"#utility.yul\":6858:6872   */\n          lt\n            /* \"#utility.yul\":6838:6856   */\n          dup2\n            /* \"#utility.yul\":6835:6873   */\n          sub\n            /* \"#utility.yul\":6832:6916   */\n          tag_215\n          jumpi\n            /* \"#utility.yul\":6888:6906   */\n          tag_216\n          tag_120\n          jump\t// in\n        tag_216:\n            /* \"#utility.yul\":6832:6916   */\n        tag_215:\n            /* \"#utility.yul\":6653:6922   */\n          pop\n            /* \"#utility.yul\":6602:6922   */\n          swap2\n          swap1\n          pop\n          jump\t// out\n            /* \"#utility.yul\":6928:7108   */\n        tag_63:\n            /* \"#utility.yul\":6976:7053   */\n          0x4e487b7100000000000000000000000000000000000000000000000000000000\n            /* \"#utility.yul\":6973:6974   */\n          0x00\n            /* \"#utility.yul\":6966:7054   */\n          mstore\n            /* \"#utility.yul\":7073:7077   */\n          0x32\n            /* \"#utility.yul\":7070:7071   */\n          0x04\n            /* \"#utility.yul\":7063:7078   */\n          mstore\n            /* \"#utility.yul\":7097:7101   */\n          0x24\n            /* \"#utility.yul\":7094:7095   */\n          0x00\n            /* \"#utility.yul\":7087:7102   */\n          revert\n            /* \"#utility.yul\":7114:7193   */\n        tag_121:\n            /* \"#utility.yul\":7153:7160   */\n          0x00\n            /* \"#utility.yul\":7182:7187   */\n          dup2\n            /* \"#utility.yul\":7171:7187   */\n          swap1\n          pop\n            /* \"#utility.yul\":7114:7193   */\n          swap2\n          swap1\n          pop\n          jump\t// out\n            /* \"#utility.yul\":7199:7356   */\n        tag_122:\n            /* \"#utility.yul\":7304:7349   */\n          tag_220\n            /* \"#utility.yul\":7324:7348   */\n          tag_221\n            /* \"#utility.yul\":7342:7347   */\n          dup3\n            /* \"#utility.yul\":7324:7348   */\n          tag_104\n          jump\t// in\n        tag_221:\n            /* \"#utility.yul\":7304:7349   */\n          tag_121\n          jump\t// in\n        tag_220:\n            /* \"#utility.yul\":7299:7302   */\n          dup3\n            /* \"#utility.yul\":7292:7350   */\n          mstore\n            /* \"#utility.yul\":7199:7356   */\n          pop\n          pop\n          jump\t// out\n            /* \"#utility.yul\":7362:7618   */\n        tag_66:\n            /* \"#utility.yul\":7474:7477   */\n          0x00\n            /* \"#utility.yul\":7489:7564   */\n          tag_223\n            /* \"#utility.yul\":7560:7563   */\n          dup3\n            /* \"#utility.yul\":7551:7557   */\n          dup5\n            /* \"#utility.yul\":7489:7564   */\n          tag_122\n          jump\t// in\n        tag_223:\n            /* \"#utility.yul\":7589:7591   */\n          0x20\n            /* \"#utility.yul\":7584:7587   */\n          dup3\n            /* \"#utility.yul\":7580:7592   */\n          add\n            /* \"#utility.yul\":7573:7592   */\n          swap2\n          pop\n            /* \"#utility.yul\":7609:7612   */\n          dup2\n            /* \"#utility.yul\":7602:7612   */\n          swap1\n          pop\n            /* \"#utility.yul\":7362:7618   */\n          swap3\n          swap2\n          pop\n          pop\n          jump\t// out\n            /* \"#utility.yul\":7624:7742   */\n        tag_123:\n            /* \"#utility.yul\":7711:7735   */\n          tag_225\n            /* \"#utility.yul\":7729:7734   */\n          dup2\n            /* \"#utility.yul\":7711:7735   */\n          tag_111\n          jump\t// in\n        tag_225:\n            /* \"#utility.yul\":7706:7709   */\n          dup3\n            /* \"#utility.yul\":7699:7736   */\n          mstore\n            /* \"#utility.yul\":7624:7742   */\n          pop\n          pop\n          jump\t// out\n            /* \"#utility.yul\":7748:8186   */\n        tag_69:\n            /* \"#utility.yul\":7895:7899   */\n          0x00\n            /* \"#utility.yul\":7933:7935   */\n          0x60\n            /* \"#utility.yul\":7922:7931   */\n          dup3\n            /* \"#utility.yul\":7918:7936   */\n          add\n            /* \"#utility.yul\":7910:7936   */\n          swap1\n          pop\n            /* \"#utility.yul\":7946:8017   */\n          tag_227\n            /* \"#utility.yul\":8014:8015   */\n          0x00\n            /* \"#utility.yul\":8003:8012   */\n          dup4\n            /* \"#utility.yul\":7999:8016   */\n          add\n            /* \"#utility.yul\":7990:7996   */\n          dup7\n            /* \"#utility.yul\":7946:8017   */\n          tag_123\n          jump\t// in\n        tag_227:\n            /* \"#utility.yul\":8027:8099   */\n          tag_228\n            /* \"#utility.yul\":8095:8097   */\n          0x20\n            /* \"#utility.yul\":8084:8093   */\n          dup4\n            /* \"#utility.yul\":8080:8098   */\n          add\n            /* \"#utility.yul\":8071:8077   */\n          dup6\n            /* \"#utility.yul\":8027:8099   */\n          tag_109\n          jump\t// in\n        tag_228:\n            /* \"#utility.yul\":8109:8179   */\n          tag_229\n            /* \"#utility.yul\":8175:8177   */\n          0x40\n            /* \"#utility.yul\":8164:8173   */\n          dup4\n            /* \"#utility.yul\":8160:8178   */\n          add\n            /* \"#utility.yul\":8151:8157   */\n          dup5\n            /* \"#utility.yul\":8109:8179   */\n          tag_117\n          jump\t// in\n        tag_229:\n            /* \"#utility.yul\":7748:8186   */\n          swap5\n          swap4\n          pop\n          pop\n          pop\n          pop\n          jump\t// out\n            /* \"#utility.yul\":8192:8361   */\n        tag_124:\n            /* \"#utility.yul\":8276:8287   */\n          0x00\n            /* \"#utility.yul\":8310:8316   */\n          dup3\n            /* \"#utility.yul\":8305:8308   */\n          dup3\n            /* \"#utility.yul\":8298:8317   */\n          mstore\n            /* \"#utility.yul\":8350:8354   */\n          0x20\n            /* \"#utility.yul\":8345:8348   */\n          dup3\n            /* \"#utility.yul\":8341:8355   */\n          add\n            /* \"#utility.yul\":8326:8355   */\n          swap1\n          pop\n            /* \"#utility.yul\":8192:8361   */\n          swap3\n          swap2\n          pop\n          pop\n          jump\t// out\n            /* \"#utility.yul\":8367:8592   */\n        tag_125:\n            /* \"#utility.yul\":8507:8541   */\n          0x436f6d6d697452657665616c3a3a72657665616c3a20416c7265616479207265\n            /* \"#utility.yul\":8503:8504   */\n          0x00\n            /* \"#utility.yul\":8495:8501   */\n          dup3\n            /* \"#utility.yul\":8491:8505   */\n          add\n            /* \"#utility.yul\":8484:8542   */\n          mstore\n            /* \"#utility.yul\":8576:8584   */\n          0x7665616c65640000000000000000000000000000000000000000000000000000\n            /* \"#utility.yul\":8571:8573   */\n          0x20\n            /* \"#utility.yul\":8563:8569   */\n          dup3\n            /* \"#utility.yul\":8559:8574   */\n          add\n            /* \"#utility.yul\":8552:8585   */\n          mstore\n            /* \"#utility.yul\":8367:8592   */\n          pop\n          jump\t// out\n            /* \"#utility.yul\":8598:8964   */\n        tag_126:\n            /* \"#utility.yul\":8740:8743   */\n          0x00\n            /* \"#utility.yul\":8761:8828   */\n          tag_233\n            /* \"#utility.yul\":8825:8827   */\n          0x26\n            /* \"#utility.yul\":8820:8823   */\n          dup4\n            /* \"#utility.yul\":8761:8828   */\n          tag_124\n          jump\t// in\n        tag_233:\n            /* \"#utility.yul\":8754:8828   */\n          swap2\n          pop\n            /* \"#utility.yul\":8837:8930   */\n          tag_234\n            /* \"#utility.yul\":8926:8929   */\n          dup3\n            /* \"#utility.yul\":8837:8930   */\n          tag_125\n          jump\t// in\n        tag_234:\n            /* \"#utility.yul\":8955:8957   */\n          0x40\n            /* \"#utility.yul\":8950:8953   */\n          dup3\n            /* \"#utility.yul\":8946:8958   */\n          add\n            /* \"#utility.yul\":8939:8958   */\n          swap1\n          pop\n            /* \"#utility.yul\":8598:8964   */\n          swap2\n          swap1\n          pop\n          jump\t// out\n            /* \"#utility.yul\":8970:9389   */\n        tag_74:\n            /* \"#utility.yul\":9136:9140   */\n          0x00\n            /* \"#utility.yul\":9174:9176   */\n          0x20\n            /* \"#utility.yul\":9163:9172   */\n          dup3\n            /* \"#utility.yul\":9159:9177   */\n          add\n            /* \"#utility.yul\":9151:9177   */\n          swap1\n          pop\n            /* \"#utility.yul\":9223:9232   */\n          dup2\n            /* \"#utility.yul\":9217:9221   */\n          dup2\n            /* \"#utility.yul\":9213:9233   */\n          sub\n            /* \"#utility.yul\":9209:9210   */\n          0x00\n            /* \"#utility.yul\":9198:9207   */\n          dup4\n            /* \"#utility.yul\":9194:9211   */\n          add\n            /* \"#utility.yul\":9187:9234   */\n          mstore\n            /* \"#utility.yul\":9251:9382   */\n          tag_236\n            /* \"#utility.yul\":9377:9381   */\n          dup2\n            /* \"#utility.yul\":9251:9382   */\n          tag_126\n          jump\t// in\n        tag_236:\n            /* \"#utility.yul\":9243:9382   */\n          swap1\n          pop\n            /* \"#utility.yul\":8970:9389   */\n          swap2\n          swap1\n          pop\n          jump\t// out\n            /* \"#utility.yul\":9395:9639   */\n        tag_127:\n            /* \"#utility.yul\":9535:9569   */\n          0x436f6d6d697452657665616c3a3a72657665616c3a2052657665616c65642068\n            /* \"#utility.yul\":9531:9532   */\n          0x00\n            /* \"#utility.yul\":9523:9529   */\n          dup3\n            /* \"#utility.yul\":9519:9533   */\n          add\n            /* \"#utility.yul\":9512:9570   */\n          mstore\n            /* \"#utility.yul\":9604:9631   */\n          0x61736820646f6573206e6f74206d6174636820636f6d6d697400000000000000\n            /* \"#utility.yul\":9599:9601   */\n          0x20\n            /* \"#utility.yul\":9591:9597   */\n          dup3\n            /* \"#utility.yul\":9587:9602   */\n          add\n            /* \"#utility.yul\":9580:9632   */\n          mstore\n            /* \"#utility.yul\":9395:9639   */\n          pop\n          jump\t// out\n            /* \"#utility.yul\":9645:10011   */\n        tag_128:\n            /* \"#utility.yul\":9787:9790   */\n          0x00\n            /* \"#utility.yul\":9808:9875   */\n          tag_239\n            /* \"#utility.yul\":9872:9874   */\n          0x39\n            /* \"#utility.yul\":9867:9870   */\n          dup4\n            /* \"#utility.yul\":9808:9875   */\n          tag_124\n          jump\t// in\n        tag_239:\n            /* \"#utility.yul\":9801:9875   */\n          swap2\n          pop\n            /* \"#utility.yul\":9884:9977   */\n          tag_240\n            /* \"#utility.yul\":9973:9976   */\n          dup3\n            /* \"#utility.yul\":9884:9977   */\n          tag_127\n          jump\t// in\n        tag_240:\n            /* \"#utility.yul\":10002:10004   */\n          0x40\n            /* \"#utility.yul\":9997:10000   */\n          dup3\n            /* \"#utility.yul\":9993:10005   */\n          add\n            /* \"#utility.yul\":9986:10005   */\n          swap1\n          pop\n            /* \"#utility.yul\":9645:10011   */\n          swap2\n          swap1\n          pop\n          jump\t// out\n            /* \"#utility.yul\":10017:10436   */\n        tag_78:\n            /* \"#utility.yul\":10183:10187   */\n          0x00\n            /* \"#utility.yul\":10221:10223   */\n          0x20\n            /* \"#utility.yul\":10210:10219   */\n          dup3\n            /* \"#utility.yul\":10206:10224   */\n          add\n            /* \"#utility.yul\":10198:10224   */\n          swap1\n          pop\n            /* \"#utility.yul\":10270:10279   */\n          dup2\n            /* \"#utility.yul\":10264:10268   */\n          dup2\n            /* \"#utility.yul\":10260:10280   */\n          sub\n            /* \"#utility.yul\":10256:10257   */\n          0x00\n            /* \"#utility.yul\":10245:10254   */\n          dup4\n            /* \"#utility.yul\":10241:10258   */\n          add\n            /* \"#utility.yul\":10234:10281   */\n          mstore\n            /* \"#utility.yul\":10298:10429   */\n          tag_242\n            /* \"#utility.yul\":10424:10428   */\n          dup2\n            /* \"#utility.yul\":10298:10429   */\n          tag_128\n          jump\t// in\n        tag_242:\n            /* \"#utility.yul\":10290:10429   */\n          swap1\n          pop\n            /* \"#utility.yul\":10017:10436   */\n          swap2\n          swap1\n          pop\n          jump\t// out\n            /* \"#utility.yul\":10442:10732   */\n        tag_129:\n            /* \"#utility.yul\":10582:10616   */\n          0x436f6d6d697452657665616c3a3a72657665616c3a2052657665616c20616e64\n            /* \"#utility.yul\":10578:10579   */\n          0x00\n            /* \"#utility.yul\":10570:10576   */\n          dup3\n            /* \"#utility.yul\":10566:10580   */\n          add\n            /* \"#utility.yul\":10559:10617   */\n          mstore\n            /* \"#utility.yul\":10651:10685   */\n          0x20636f6d6d69742068617070656e6564206f6e207468652073616d6520626c6f\n            /* \"#utility.yul\":10646:10648   */\n          0x20\n            /* \"#utility.yul\":10638:10644   */\n          dup3\n            /* \"#utility.yul\":10634:10649   */\n          add\n            /* \"#utility.yul\":10627:10686   */\n          mstore\n            /* \"#utility.yul\":10720:10724   */\n          0x636b000000000000000000000000000000000000000000000000000000000000\n            /* \"#utility.yul\":10715:10717   */\n          0x40\n            /* \"#utility.yul\":10707:10713   */\n          dup3\n            /* \"#utility.yul\":10703:10718   */\n          add\n            /* \"#utility.yul\":10696:10725   */\n          mstore\n            /* \"#utility.yul\":10442:10732   */\n          pop\n          jump\t// out\n            /* \"#utility.yul\":10738:11104   */\n        tag_130:\n            /* \"#utility.yul\":10880:10883   */\n          0x00\n            /* \"#utility.yul\":10901:10968   */\n          tag_245\n            /* \"#utility.yul\":10965:10967   */\n          0x42\n            /* \"#utility.yul\":10960:10963   */\n          dup4\n            /* \"#utility.yul\":10901:10968   */\n          tag_124\n          jump\t// in\n        tag_245:\n            /* \"#utility.yul\":10894:10968   */\n          swap2\n          pop\n            /* \"#utility.yul\":10977:11070   */\n          tag_246\n            /* \"#utility.yul\":11066:11069   */\n          dup3\n            /* \"#utility.yul\":10977:11070   */\n          tag_129\n          jump\t// in\n        tag_246:\n            /* \"#utility.yul\":11095:11097   */\n          0x60\n            /* \"#utility.yul\":11090:11093   */\n          dup3\n            /* \"#utility.yul\":11086:11098   */\n          add\n            /* \"#utility.yul\":11079:11098   */\n          swap1\n          pop\n            /* \"#utility.yul\":10738:11104   */\n          swap2\n          swap1\n          pop\n          jump\t// out\n            /* \"#utility.yul\":11110:11529   */\n        tag_81:\n            /* \"#utility.yul\":11276:11280   */\n          0x00\n            /* \"#utility.yul\":11314:11316   */\n          0x20\n            /* \"#utility.yul\":11303:11312   */\n          dup3\n            /* \"#utility.yul\":11299:11317   */\n          add\n            /* \"#utility.yul\":11291:11317   */\n          swap1\n          pop\n            /* \"#utility.yul\":11363:11372   */\n          dup2\n            /* \"#utility.yul\":11357:11361   */\n          dup2\n            /* \"#utility.yul\":11353:11373   */\n          sub\n            /* \"#utility.yul\":11349:11350   */\n          0x00\n            /* \"#utility.yul\":11338:11347   */\n          dup4\n            /* \"#utility.yul\":11334:11351   */\n          add\n            /* \"#utility.yul\":11327:11374   */\n          mstore\n            /* \"#utility.yul\":11391:11522   */\n          tag_248\n            /* \"#utility.yul\":11517:11521   */\n          dup2\n            /* \"#utility.yul\":11391:11522   */\n          tag_130\n          jump\t// in\n        tag_248:\n            /* \"#utility.yul\":11383:11522   */\n          swap1\n          pop\n            /* \"#utility.yul\":11110:11529   */\n          swap2\n          swap1\n          pop\n          jump\t// out\n            /* \"#utility.yul\":11535:11715   */\n        tag_131:\n            /* \"#utility.yul\":11583:11660   */\n          0x4e487b7100000000000000000000000000000000000000000000000000000000\n            /* \"#utility.yul\":11580:11581   */\n          0x00\n            /* \"#utility.yul\":11573:11661   */\n          mstore\n            /* \"#utility.yul\":11680:11684   */\n          0x11\n            /* \"#utility.yul\":11677:11678   */\n          0x04\n            /* \"#utility.yul\":11670:11685   */\n          mstore\n            /* \"#utility.yul\":11704:11708   */\n          0x24\n            /* \"#utility.yul\":11701:11702   */\n          0x00\n            /* \"#utility.yul\":11694:11709   */\n          revert\n            /* \"#utility.yul\":11721:11926   */\n        tag_83:\n            /* \"#utility.yul\":11760:11763   */\n          0x00\n            /* \"#utility.yul\":11779:11798   */\n          tag_251\n            /* \"#utility.yul\":11796:11797   */\n          dup3\n            /* \"#utility.yul\":11779:11798   */\n          tag_116\n          jump\t// in\n        tag_251:\n            /* \"#utility.yul\":11774:11798   */\n          swap2\n          pop\n            /* \"#utility.yul\":11812:11831   */\n          tag_252\n            /* \"#utility.yul\":11829:11830   */\n          dup4\n            /* \"#utility.yul\":11812:11831   */\n          tag_116\n          jump\t// in\n        tag_252:\n            /* \"#utility.yul\":11807:11831   */\n          swap3\n          pop\n            /* \"#utility.yul\":11854:11855   */\n          dup3\n            /* \"#utility.yul\":11851:11852   */\n          dup3\n            /* \"#utility.yul\":11847:11856   */\n          add\n            /* \"#utility.yul\":11840:11856   */\n          swap1\n          pop\n            /* \"#utility.yul\":11877:11895   */\n          0xffffffffffffffff\n            /* \"#utility.yul\":11872:11875   */\n          dup2\n            /* \"#utility.yul\":11869:11896   */\n          gt\n            /* \"#utility.yul\":11866:11919   */\n          iszero\n          tag_253\n          jumpi\n            /* \"#utility.yul\":11899:11917   */\n          tag_254\n          tag_131\n          jump\t// in\n        tag_254:\n            /* \"#utility.yul\":11866:11919   */\n        tag_253:\n            /* \"#utility.yul\":11721:11926   */\n          swap3\n          swap2\n          pop\n          pop\n          jump\t// out\n            /* \"#utility.yul\":11932:12158   */\n        tag_132:\n            /* \"#utility.yul\":12072:12106   */\n          0x436f6d6d697452657665616c3a3a72657665616c3a2052657665616c65642074\n            /* \"#utility.yul\":12068:12069   */\n          0x00\n            /* \"#utility.yul\":12060:12066   */\n          dup3\n            /* \"#utility.yul\":12056:12070   */\n          add\n            /* \"#utility.yul\":12049:12107   */\n          mstore\n            /* \"#utility.yul\":12141:12150   */\n          0x6f6f206c61746500000000000000000000000000000000000000000000000000\n            /* \"#utility.yul\":12136:12138   */\n          0x20\n            /* \"#utility.yul\":12128:12134   */\n          dup3\n            /* \"#utility.yul\":12124:12139   */\n          add\n            /* \"#utility.yul\":12117:12151   */\n          mstore\n            /* \"#utility.yul\":11932:12158   */\n          pop\n          jump\t// out\n            /* \"#utility.yul\":12164:12530   */\n        tag_133:\n            /* \"#utility.yul\":12306:12309   */\n          0x00\n            /* \"#utility.yul\":12327:12394   */\n          tag_257\n            /* \"#utility.yul\":12391:12393   */\n          0x27\n            /* \"#utility.yul\":12386:12389   */\n          dup4\n            /* \"#utility.yul\":12327:12394   */\n          tag_124\n          jump\t// in\n        tag_257:\n            /* \"#utility.yul\":12320:12394   */\n          swap2\n          pop\n            /* \"#utility.yul\":12403:12496   */\n          tag_258\n            /* \"#utility.yul\":12492:12495   */\n          dup3\n            /* \"#utility.yul\":12403:12496   */\n          tag_132\n          jump\t// in\n        tag_258:\n            /* \"#utility.yul\":12521:12523   */\n          0x40\n            /* \"#utility.yul\":12516:12519   */\n          dup3\n            /* \"#utility.yul\":12512:12524   */\n          add\n            /* \"#utility.yul\":12505:12524   */\n          swap1\n          pop\n            /* \"#utility.yul\":12164:12530   */\n          swap2\n          swap1\n          pop\n          jump\t// out\n            /* \"#utility.yul\":12536:12955   */\n        tag_86:\n            /* \"#utility.yul\":12702:12706   */\n          0x00\n            /* \"#utility.yul\":12740:12742   */\n          0x20\n            /* \"#utility.yul\":12729:12738   */\n          dup3\n            /* \"#utility.yul\":12725:12743   */\n          add\n            /* \"#utility.yul\":12717:12743   */\n          swap1\n          pop\n            /* \"#utility.yul\":12789:12798   */\n          dup2\n            /* \"#utility.yul\":12783:12787   */\n          dup2\n            /* \"#utility.yul\":12779:12799   */\n          sub\n            /* \"#utility.yul\":12775:12776   */\n          0x00\n            /* \"#utility.yul\":12764:12773   */\n          dup4\n            /* \"#utility.yul\":12760:12777   */\n          add\n            /* \"#utility.yul\":12753:12800   */\n          mstore\n            /* \"#utility.yul\":12817:12948   */\n          tag_260\n            /* \"#utility.yul\":12943:12947   */\n          dup2\n            /* \"#utility.yul\":12817:12948   */\n          tag_133\n          jump\t// in\n        tag_260:\n            /* \"#utility.yul\":12809:12948   */\n          swap1\n          pop\n            /* \"#utility.yul\":12536:12955   */\n          swap2\n          swap1\n          pop\n          jump\t// out\n            /* \"#utility.yul\":12961:13358   */\n        tag_88:\n            /* \"#utility.yul\":13101:13104   */\n          0x00\n            /* \"#utility.yul\":13116:13191   */\n          tag_262\n            /* \"#utility.yul\":13187:13190   */\n          dup3\n            /* \"#utility.yul\":13178:13184   */\n          dup6\n            /* \"#utility.yul\":13116:13191   */\n          tag_122\n          jump\t// in\n        tag_262:\n            /* \"#utility.yul\":13216:13218   */\n          0x20\n            /* \"#utility.yul\":13211:13214   */\n          dup3\n            /* \"#utility.yul\":13207:13219   */\n          add\n            /* \"#utility.yul\":13200:13219   */\n          swap2\n          pop\n            /* \"#utility.yul\":13229:13304   */\n          tag_263\n            /* \"#utility.yul\":13300:13303   */\n          dup3\n            /* \"#utility.yul\":13291:13297   */\n          dup5\n            /* \"#utility.yul\":13229:13304   */\n          tag_122\n          jump\t// in\n        tag_263:\n            /* \"#utility.yul\":13329:13331   */\n          0x20\n            /* \"#utility.yul\":13324:13327   */\n          dup3\n            /* \"#utility.yul\":13320:13332   */\n          add\n            /* \"#utility.yul\":13313:13332   */\n          swap2\n          pop\n            /* \"#utility.yul\":13349:13352   */\n          dup2\n            /* \"#utility.yul\":13342:13352   */\n          swap1\n          pop\n            /* \"#utility.yul\":12961:13358   */\n          swap4\n          swap3\n          pop\n          pop\n          pop\n          jump\t// out\n            /* \"#utility.yul\":13364:13544   */\n        tag_134:\n            /* \"#utility.yul\":13412:13489   */\n          0x4e487b7100000000000000000000000000000000000000000000000000000000\n            /* \"#utility.yul\":13409:13410   */\n          0x00\n            /* \"#utility.yul\":13402:13490   */\n          mstore\n            /* \"#utility.yul\":13509:13513   */\n          0x12\n            /* \"#utility.yul\":13506:13507   */\n          0x04\n            /* \"#utility.yul\":13499:13514   */\n          mstore\n            /* \"#utility.yul\":13533:13537   */\n          0x24\n            /* \"#utility.yul\":13530:13531   */\n          0x00\n            /* \"#utility.yul\":13523:13538   */\n          revert\n            /* \"#utility.yul\":13550:13726   */\n        tag_90:\n            /* \"#utility.yul\":13582:13583   */\n          0x00\n            /* \"#utility.yul\":13599:13619   */\n          tag_266\n            /* \"#utility.yul\":13617:13618   */\n          dup3\n            /* \"#utility.yul\":13599:13619   */\n          tag_96\n          jump\t// in\n        tag_266:\n            /* \"#utility.yul\":13594:13619   */\n          swap2\n          pop\n            /* \"#utility.yul\":13633:13653   */\n          tag_267\n            /* \"#utility.yul\":13651:13652   */\n          dup4\n            /* \"#utility.yul\":13633:13653   */\n          tag_96\n          jump\t// in\n        tag_267:\n            /* \"#utility.yul\":13628:13653   */\n          swap3\n          pop\n            /* \"#utility.yul\":13672:13673   */\n          dup3\n            /* \"#utility.yul\":13662:13697   */\n          tag_268\n          jumpi\n            /* \"#utility.yul\":13677:13695   */\n          tag_269\n          tag_134\n          jump\t// in\n        tag_269:\n            /* \"#utility.yul\":13662:13697   */\n        tag_268:\n            /* \"#utility.yul\":13718:13719   */\n          dup3\n            /* \"#utility.yul\":13715:13716   */\n          dup3\n            /* \"#utility.yul\":13711:13720   */\n          mod\n            /* \"#utility.yul\":13706:13720   */\n          swap1\n          pop\n            /* \"#utility.yul\":13550:13726   */\n          swap3\n          swap2\n          pop\n          pop\n          jump\t// out\n            /* \"#utility.yul\":13732:13850   */\n        tag_135:\n            /* \"#utility.yul\":13819:13843   */\n          tag_271\n            /* \"#utility.yul\":13837:13842   */\n          dup2\n            /* \"#utility.yul\":13819:13843   */\n          tag_96\n          jump\t// in\n        tag_271:\n            /* \"#utility.yul\":13814:13817   */\n          dup3\n            /* \"#utility.yul\":13807:13844   */\n          mstore\n            /* \"#utility.yul\":13732:13850   */\n          pop\n          pop\n          jump\t// out\n            /* \"#utility.yul\":13856:14298   */\n        tag_92:\n            /* \"#utility.yul\":14005:14009   */\n          0x00\n            /* \"#utility.yul\":14043:14045   */\n          0x60\n            /* \"#utility.yul\":14032:14041   */\n          dup3\n            /* \"#utility.yul\":14028:14046   */\n          add\n            /* \"#utility.yul\":14020:14046   */\n          swap1\n          pop\n            /* \"#utility.yul\":14056:14127   */\n          tag_273\n            /* \"#utility.yul\":14124:14125   */\n          0x00\n            /* \"#utility.yul\":14113:14122   */\n          dup4\n            /* \"#utility.yul\":14109:14126   */\n          add\n            /* \"#utility.yul\":14100:14106   */\n          dup7\n            /* \"#utility.yul\":14056:14127   */\n          tag_123\n          jump\t// in\n        tag_273:\n            /* \"#utility.yul\":14137:14209   */\n          tag_274\n            /* \"#utility.yul\":14205:14207   */\n          0x20\n            /* \"#utility.yul\":14194:14203   */\n          dup4\n            /* \"#utility.yul\":14190:14208   */\n          add\n            /* \"#utility.yul\":14181:14187   */\n          dup6\n            /* \"#utility.yul\":14137:14209   */\n          tag_109\n          jump\t// in\n        tag_274:\n            /* \"#utility.yul\":14219:14291   */\n          tag_275\n            /* \"#utility.yul\":14287:14289   */\n          0x40\n            /* \"#utility.yul\":14276:14285   */\n          dup4\n            /* \"#utility.yul\":14272:14290   */\n          add\n            /* \"#utility.yul\":14263:14269   */\n          dup5\n            /* \"#utility.yul\":14219:14291   */\n          tag_135\n          jump\t// in\n        tag_275:\n            /* \"#utility.yul\":13856:14298   */\n          swap5\n          swap4\n          pop\n          pop\n          pop\n          pop\n          jump\t// out\n\n        auxdata: 0xa2646970667358221220937d25867230705778581de340a132021846d6d99e099b1ace002533ba61936964736f6c634300081a0033\n    }\n}\n",
				"bytecode": {
					"linkReferences": {},
					"object": "60806040525f80555f6001555f60055560405161001b906100ea565b604051809103905ff080158015610034573d5f803e3d5ffd5b5060065f6101000a81548173ffffffffffffffffffffffffffffffffffffffff021916908373ffffffffffffffffffffffffffffffffffffffff160217905550604051610080906100f7565b604051809103905ff080158015610099573d5f803e3d5ffd5b5060075f6101000a81548173ffffffffffffffffffffffffffffffffffffffff021916908373ffffffffffffffffffffffffffffffffffffffff1602179055503480156100e4575f80fd5b50610104565b61023180611b2883390190565b61132480611d5983390190565b611a17806101115f395ff3fe6080604052600436106100a5575f3560e01c8063701fd0f111610063578063701fd0f11461018957806390d5d0c3146101b157806399af2865146101db578063bc06b8cd146101e5578063f14fcbc81461020f578063f71d96cb14610237576100a5565b806227a5af146100a9578063086f7815146100b3578063190cf745146100dd578063228cb7331461011957806327b5db8a146101435780633cf5040a1461014d575b5f80fd5b6100b1610273565b005b3480156100be575f80fd5b506100c76104ba565b6040516100d49190611555565b60405180910390f35b3480156100e8575f80fd5b5061010360048036038101906100fe91906115cc565b6104c0565b6040516101109190611611565b60405180910390f35b348015610124575f80fd5b5061012d6104dd565b60405161013a9190611555565b60405180910390f35b61014b6104e3565b005b348015610158575f80fd5b50610173600480360381019061016e919061165d565b610809565b6040516101809190611697565b60405180910390f35b348015610194575f80fd5b506101af60048036038101906101aa919061165d565b610838565b005b3480156101bc575f80fd5b506101c5610a17565b6040516101d29190611555565b60405180910390f35b6101e3610a1c565b005b3480156101f0575f80fd5b506101f9610bd1565b6040516102069190611555565b60405180910390f35b34801561021a575f80fd5b506102356004803603810190610230919061165d565b610c65565b005b348015610242575f80fd5b5061025d600480360381019061025891906116da565b610d4a565b60405161026a9190611714565b60405180910390f35b601e60065f9054906101000a900473ffffffffffffffffffffffffffffffffffffffff1673ffffffffffffffffffffffffffffffffffffffff166378e979256040518163ffffffff1660e01b8152600401602060405180830381865afa1580156102df573d5f803e3d5ffd5b505050506040513d601f19601f820116820180604052508101906103039190611741565b4261030e9190611799565b1015801561031d575060025f54145b801561037557505f151560035f3373ffffffffffffffffffffffffffffffffffffffff1673ffffffffffffffffffffffffffffffffffffffff1681526020019081526020015f205f9054906101000a900460ff161515145b801561038357506001600554145b61038b575f80fd5b5f60045f815481106103a05761039f6117cc565b5b905f5260205f20015f9054906101000a900473ffffffffffffffffffffffffffffffffffffffff1690505f60046001815481106103e0576103df6117cc565b5b905f5260205f20015f9054906101000a900473ffffffffffffffffffffffffffffffffffffffff1690508173ffffffffffffffffffffffffffffffffffffffff166108fc60026001546104339190611826565b90811502906040515f60405180830381858888f1935050505015801561045b573d5f803e3d5ffd5b508073ffffffffffffffffffffffffffffffffffffffff166108fc60026001546104859190611826565b90811502906040515f60405180830381858888f193505050501580156104ad573d5f803e3d5ffd5b506104b6610d85565b5050565b60055481565b6003602052805f5260405f205f915054906101000a900460ff1681565b60015481565b60025f54106104f0575f80fd5b735b38da6a701c568545dcfcb03fcb875f56beddc473ffffffffffffffffffffffffffffffffffffffff163373ffffffffffffffffffffffffffffffffffffffff16148061057d575073ab8483f64d9c6d1ecf9b849ae677dd3315835cb273ffffffffffffffffffffffffffffffffffffffff163373ffffffffffffffffffffffffffffffffffffffff16145b806105c75750734b20993bc481177ec7e8f571cecae8a9e22c02db73ffffffffffffffffffffffffffffffffffffffff163373ffffffffffffffffffffffffffffffffffffffff16145b8061061157507378731d3ca6b7e34ac0f824c42a7cc18a495cabab73ffffffffffffffffffffffffffffffffffffffff163373ffffffffffffffffffffffffffffffffffffffff16145b610619575f80fd5b5f805411156106955760045f81548110610636576106356117cc565b5b905f5260205f20015f9054906101000a900473ffffffffffffffffffffffffffffffffffffffff1673ffffffffffffffffffffffffffffffffffffffff163373ffffffffffffffffffffffffffffffffffffffff1603610694575f80fd5b5b670de0b6b3a764000034146106a8575f80fd5b3460015f8282546106b99190611856565b92505081905550600160035f3373ffffffffffffffffffffffffffffffffffffffff1673ffffffffffffffffffffffffffffffffffffffff1681526020019081526020015f205f6101000a81548160ff021916908315150217905550600433908060018154018082558091505060019003905f5260205f20015f9091909190916101000a81548173ffffffffffffffffffffffffffffffffffffffff021916908373ffffffffffffffffffffffffffffffffffffffff1602179055505f8081548092919061078690611889565b919050555060065f9054906101000a900473ffffffffffffffffffffffffffffffffffffffff1673ffffffffffffffffffffffffffffffffffffffff1663a63f7c536040518163ffffffff1660e01b81526004015f604051808303815f87803b1580156107f1575f80fd5b505af1158015610803573d5f803e3d5ffd5b50505050565b5f8160405160200161081b91906118f0565b604051602081830303815290604052805190602001209050919050565b6001151560035f3373ffffffffffffffffffffffffffffffffffffffff1673ffffffffffffffffffffffffffffffffffffffff1681526020019081526020015f205f9054906101000a900460ff16151514610891575f80fd5b60075f9054906101000a900473ffffffffffffffffffffffffffffffffffffffff1673ffffffffffffffffffffffffffffffffffffffff1663ad48779082336040518363ffffffff1660e01b81526004016108ed92919061190a565b5f604051808303815f87803b158015610904575f80fd5b505af1158015610916573d5f803e3d5ffd5b505050505f60075f9054906101000a900473ffffffffffffffffffffffffffffffffffffffff1673ffffffffffffffffffffffffffffffffffffffff16632379ca4c836040518263ffffffff1660e01b81526004016109759190611697565b602060405180830381865afa158015610990573d5f803e3d5ffd5b505050506040513d601f19601f820116820180604052508101906109b49190611986565b90506109bf81610e24565b5f60035f3373ffffffffffffffffffffffffffffffffffffffff1673ffffffffffffffffffffffffffffffffffffffff1681526020019081526020015f205f6101000a81548160ff0219169083151502179055505050565b5f5481565b601e60065f9054906101000a900473ffffffffffffffffffffffffffffffffffffffff1673ffffffffffffffffffffffffffffffffffffffff166378e979256040518163ffffffff1660e01b8152600401602060405180830381865afa158015610a88573d5f803e3d5ffd5b505050506040513d601f19601f82011682018060405250810190610aac9190611741565b42610ab79190611799565b10158015610ac7575060025f5414155b8015610b39575060045f81548110610ae257610ae16117cc565b5b905f5260205f20015f9054906101000a900473ffffffffffffffffffffffffffffffffffffffff1673ffffffffffffffffffffffffffffffffffffffff163373ffffffffffffffffffffffffffffffffffffffff16145b610b41575f80fd5b5f60045f81548110610b5657610b556117cc565b5b905f5260205f20015f9054906101000a900473ffffffffffffffffffffffffffffffffffffffff1690508073ffffffffffffffffffffffffffffffffffffffff166108fc60015490811502906040515f60405180830381858888f19350505050158015610bc5573d5f803e3d5ffd5b50610bce610d85565b50565b5f60065f9054906101000a900473ffffffffffffffffffffffffffffffffffffffff1673ffffffffffffffffffffffffffffffffffffffff1663bc06b8cd6040518163ffffffff1660e01b8152600401602060405180830381865afa158015610c3c573d5f803e3d5ffd5b505050506040513d601f19601f82011682018060405250810190610c609190611741565b905090565b6001151560035f3373ffffffffffffffffffffffffffffffffffffffff1673ffffffffffffffffffffffffffffffffffffffff1681526020019081526020015f205f9054906101000a900460ff16151514610cbe575f80fd5b60075f9054906101000a900473ffffffffffffffffffffffffffffffffffffffff1673ffffffffffffffffffffffffffffffffffffffff16635a74610182336040518363ffffffff1660e01b8152600401610d1a92919061190a565b5f604051808303815f87803b158015610d31575f80fd5b505af1158015610d43573d5f803e3d5ffd5b5050505050565b60048181548110610d59575f80fd5b905f5260205f20015f915054906101000a900473ffffffffffffffffffffffffffffffffffffffff1681565b5f80819055505f6001819055505f60058190555060045f610da69190611504565b60075f9054906101000a900473ffffffffffffffffffffffffffffffffffffffff1673ffffffffffffffffffffffffffffffffffffffff16638d25af046040518163ffffffff1660e01b81526004015f604051808303815f87803b158015610e0c575f80fd5b505af1158015610e1e573d5f803e3d5ffd5b50505050565b5f8060f81b827effffffffffffffffffffffffffffffffffffffffffffffffffffffffffffff191603610e59575f9050610f3b565b600160f81b827effffffffffffffffffffffffffffffffffffffffffffffffffffffffffffff191603610e8f5760019050610f3a565b600260f81b827effffffffffffffffffffffffffffffffffffffffffffffffffffffffffffff191603610ec55760029050610f39565b600360f81b827effffffffffffffffffffffffffffffffffffffffffffffffffffffffffffff191603610efb5760039050610f38565b600460f81b827effffffffffffffffffffffffffffffffffffffffffffffffffffffffffffff191603610f315760049050610f37565b6103e790505b5b5b5b5b60025f5414610f48575f80fd5b6001151560035f3373ffffffffffffffffffffffffffffffffffffffff1673ffffffffffffffffffffffffffffffffffffffff1681526020019081526020015f205f9054906101000a900460ff16151514610fa1575f80fd5b5f811480610faf5750600181145b80610fba5750600281145b80610fc55750600381145b80610fd05750600481145b610fd8575f80fd5b8060025f3373ffffffffffffffffffffffffffffffffffffffff1673ffffffffffffffffffffffffffffffffffffffff1681526020019081526020015f208190555060055f81548092919061102c90611889565b919050555060065f9054906101000a900473ffffffffffffffffffffffffffffffffffffffff1673ffffffffffffffffffffffffffffffffffffffff1663a63f7c536040518163ffffffff1660e01b81526004015f604051808303815f87803b158015611097575f80fd5b505af11580156110a9573d5f803e3d5ffd5b505050506002600554036110c0576110bf6110c4565b5b5050565b5f60025f60045f815481106110dc576110db6117cc565b5b905f5260205f20015f9054906101000a900473ffffffffffffffffffffffffffffffffffffffff1673ffffffffffffffffffffffffffffffffffffffff1673ffffffffffffffffffffffffffffffffffffffff1681526020019081526020015f205490505f60025f6004600181548110611159576111586117cc565b5b905f5260205f20015f9054906101000a900473ffffffffffffffffffffffffffffffffffffffff1673ffffffffffffffffffffffffffffffffffffffff1673ffffffffffffffffffffffffffffffffffffffff1681526020019081526020015f205490505f60045f815481106111d2576111d16117cc565b5b905f5260205f20015f9054906101000a900473ffffffffffffffffffffffffffffffffffffffff1690505f6004600181548110611212576112116117cc565b5b905f5260205f20015f9054906101000a900473ffffffffffffffffffffffffffffffffffffffff16905082600360018661124c9190611856565b61125691906119b1565b148061126d575060038414801561126c57505f83145b5b8061128457506004841480156112835750600383145b5b8061129b575060028414801561129a5750600483145b5b806112b257506003841480156112b15750600283145b5b806112c957506001841480156112c85750600383145b5b806112df57505f841480156112de5750600483145b5b806112f657506001841480156112f55750600483145b5b15611346578073ffffffffffffffffffffffffffffffffffffffff166108fc60015490811502906040515f60405180830381858888f19350505050158015611340573d5f803e3d5ffd5b506114f6565b8360036001856113569190611856565b61136091906119b1565b1480611377575060038314801561137657505f84145b5b8061138e575060048314801561138d5750600384145b5b806113a557506002831480156113a45750600484145b5b806113bc57506003831480156113bb5750600284145b5b806113d357506001831480156113d25750600384145b5b806113e957505f831480156113e85750600484145b5b8061140057506001831480156113ff5750600484145b5b15611450578173ffffffffffffffffffffffffffffffffffffffff166108fc60015490811502906040515f60405180830381858888f1935050505015801561144a573d5f803e3d5ffd5b506114f5565b8173ffffffffffffffffffffffffffffffffffffffff166108fc60026001546114799190611826565b90811502906040515f60405180830381858888f193505050501580156114a1573d5f803e3d5ffd5b508073ffffffffffffffffffffffffffffffffffffffff166108fc60026001546114cb9190611826565b90811502906040515f60405180830381858888f193505050501580156114f3573d5f803e3d5ffd5b505b5b6114fe610d85565b50505050565b5080545f8255905f5260205f209081019061151f9190611522565b50565b5b80821115611539575f815f905550600101611523565b5090565b5f819050919050565b61154f8161153d565b82525050565b5f6020820190506115685f830184611546565b92915050565b5f80fd5b5f73ffffffffffffffffffffffffffffffffffffffff82169050919050565b5f61159b82611572565b9050919050565b6115ab81611591565b81146115b5575f80fd5b50565b5f813590506115c6816115a2565b92915050565b5f602082840312156115e1576115e061156e565b5b5f6115ee848285016115b8565b91505092915050565b5f8115159050919050565b61160b816115f7565b82525050565b5f6020820190506116245f830184611602565b92915050565b5f819050919050565b61163c8161162a565b8114611646575f80fd5b50565b5f8135905061165781611633565b92915050565b5f602082840312156116725761167161156e565b5b5f61167f84828501611649565b91505092915050565b6116918161162a565b82525050565b5f6020820190506116aa5f830184611688565b92915050565b6116b98161153d565b81146116c3575f80fd5b50565b5f813590506116d4816116b0565b92915050565b5f602082840312156116ef576116ee61156e565b5b5f6116fc848285016116c6565b91505092915050565b61170e81611591565b82525050565b5f6020820190506117275f830184611705565b92915050565b5f8151905061173b816116b0565b92915050565b5f602082840312156117565761175561156e565b5b5f6117638482850161172d565b91505092915050565b7f4e487b71000000000000000000000000000000000000000000000000000000005f52601160045260245ffd5b5f6117a38261153d565b91506117ae8361153d565b92508282039050818111156117c6576117c561176c565b5b92915050565b7f4e487b71000000000000000000000000000000000000000000000000000000005f52603260045260245ffd5b7f4e487b71000000000000000000000000000000000000000000000000000000005f52601260045260245ffd5b5f6118308261153d565b915061183b8361153d565b92508261184b5761184a6117f9565b5b828204905092915050565b5f6118608261153d565b915061186b8361153d565b92508282019050808211156118835761188261176c565b5b92915050565b5f6118938261153d565b91507fffffffffffffffffffffffffffffffffffffffffffffffffffffffffffffffff82036118c5576118c461176c565b5b600182019050919050565b5f819050919050565b6118ea6118e58261162a565b6118d0565b82525050565b5f6118fb82846118d9565b60208201915081905092915050565b5f60408201905061191d5f830185611688565b61192a6020830184611705565b9392505050565b5f7fff0000000000000000000000000000000000000000000000000000000000000082169050919050565b61196581611931565b811461196f575f80fd5b50565b5f815190506119808161195c565b92915050565b5f6020828403121561199b5761199a61156e565b5b5f6119a884828501611972565b91505092915050565b5f6119bb8261153d565b91506119c68361153d565b9250826119d6576119d56117f9565b5b82820690509291505056fea264697066735822122099af4523c3e9f9f18507e6aa8ceb9482042597d35869733922a923ef7d5dd2a964736f6c634300081a00336080604052348015600e575f80fd5b506102158061001c5f395ff3fe608060405234801561000f575f80fd5b506004361061004a575f3560e01c806378e979251461004e578063a63f7c531461006c578063bc06b8cd14610076578063d97c841614610094575b5f80fd5b6100566100b2565b6040516100639190610109565b60405180910390f35b6100746100b7565b005b61007e6100bf565b60405161008b9190610109565b60405180910390f35b61009c6100d2565b6040516100a99190610109565b60405180910390f35b5f5481565b425f81905550565b5f8054426100cd919061014f565b905090565b5f603c5f54426100e2919061014f565b6100ec91906101af565b905090565b5f819050919050565b610103816100f1565b82525050565b5f60208201905061011c5f8301846100fa565b92915050565b7f4e487b71000000000000000000000000000000000000000000000000000000005f52601160045260245ffd5b5f610159826100f1565b9150610164836100f1565b925082820390508181111561017c5761017b610122565b5b92915050565b7f4e487b71000000000000000000000000000000000000000000000000000000005f52601260045260245ffd5b5f6101b9826100f1565b91506101c4836100f1565b9250826101d4576101d3610182565b5b82820490509291505056fea2646970667358221220aac731c651a41091e78c4c68ca2cde2e708ec23868c1bbf8979319bbf0b1f7c164736f6c634300081a0033608060405260645f806101000a81548160ff021916908360ff1602179055503480156028575f80fd5b506112ee806100365f395ff3fe608060405234801561000f575f80fd5b5060043610610091575f3560e01c80636ac5db19116100645780636ac5db191461014157806374c3d32b1461015f5780637b43a8e61461017d5780638d25af04146101af578063ad487790146101b957610091565b80630afb372b146100955780632379ca4c146100c55780633cf5040a146100f55780635a74610114610125575b5f80fd5b6100af60048036038101906100aa9190610b12565b6101d5565b6040516100bc9190610bad565b60405180910390f35b6100df60048036038101906100da9190610c00565b61027b565b6040516100ec9190610c65565b60405180910390f35b61010f600480360381019061010a9190610c00565b61029b565b60405161011c9190610c8d565b60405180910390f35b61013f600480360381019061013a9190610d00565b6102ca565b005b61014961049d565b6040516101569190610d59565b60405180910390f35b6101676104ad565b6040516101749190610c8d565b60405180910390f35b61019760048036038101906101929190610d72565b6104b3565b6040516101a693929190610dd9565b60405180910390f35b6101b76104f9565b005b6101d360048036038101906101ce9190610d00565b61071b565b005b600281815481106101e4575f80fd5b905f5260205f20015f9150905080546101fc90610e3b565b80601f016020809104026020016040519081016040528092919081815260200182805461022890610e3b565b80156102735780601f1061024a57610100808354040283529160200191610273565b820191905f5260205f20905b81548152906001019060200180831161025657829003601f168201915b505050505081565b5f81601f602081106102905761028f610e6b565b5b1a60f81b9050919050565b5f816040516020016102ad9190610eb8565b604051602081830303815290604052805190602001209050919050565b8160035f8373ffffffffffffffffffffffffffffffffffffffff1673ffffffffffffffffffffffffffffffffffffffff1681526020019081526020015f205f01819055504360035f8373ffffffffffffffffffffffffffffffffffffffff1673ffffffffffffffffffffffffffffffffffffffff1681526020019081526020015f206001015f6101000a81548167ffffffffffffffff021916908367ffffffffffffffff1602179055505f60035f8373ffffffffffffffffffffffffffffffffffffffff1673ffffffffffffffffffffffffffffffffffffffff1681526020019081526020015f2060010160086101000a81548160ff0219169083151502179055507f3c1a1f8f38335b17f751c6da4ba7d1865f26b3997535176f5080de9fad8916038160035f8473ffffffffffffffffffffffffffffffffffffffff1673ffffffffffffffffffffffffffffffffffffffff1681526020019081526020015f205f015460035f8573ffffffffffffffffffffffffffffffffffffffff1673ffffffffffffffffffffffffffffffffffffffff1681526020019081526020015f206001015f9054906101000a900467ffffffffffffffff1660405161049193929190610ee1565b60405180910390a15050565b5f8054906101000a900460ff1681565b60015481565b6003602052805f5260405f205f91509050805f015490806001015f9054906101000a900467ffffffffffffffff16908060010160089054906101000a900460ff16905083565b60035f735b38da6a701c568545dcfcb03fcb875f56beddc473ffffffffffffffffffffffffffffffffffffffff1673ffffffffffffffffffffffffffffffffffffffff1681526020019081526020015f205f8082015f9055600182015f6101000a81549067ffffffffffffffff02191690556001820160086101000a81549060ff0219169055505060035f73ab8483f64d9c6d1ecf9b849ae677dd3315835cb273ffffffffffffffffffffffffffffffffffffffff1673ffffffffffffffffffffffffffffffffffffffff1681526020019081526020015f205f8082015f9055600182015f6101000a81549067ffffffffffffffff02191690556001820160086101000a81549060ff0219169055505060035f734b20993bc481177ec7e8f571cecae8a9e22c02db73ffffffffffffffffffffffffffffffffffffffff1673ffffffffffffffffffffffffffffffffffffffff1681526020019081526020015f205f8082015f9055600182015f6101000a81549067ffffffffffffffff02191690556001820160086101000a81549060ff0219169055505060035f7378731d3ca6b7e34ac0f824c42a7cc18a495cabab73ffffffffffffffffffffffffffffffffffffffff1673ffffffffffffffffffffffffffffffffffffffff1681526020019081526020015f205f8082015f9055600182015f6101000a81549067ffffffffffffffff02191690556001820160086101000a81549060ff02191690555050565b5f151560035f8373ffffffffffffffffffffffffffffffffffffffff1673ffffffffffffffffffffffffffffffffffffffff1681526020019081526020015f2060010160089054906101000a900460ff161515146107ae576040517f08c379a00000000000000000000000000000000000000000000000000000000081526004016107a590610f96565b60405180910390fd5b600160035f8373ffffffffffffffffffffffffffffffffffffffff1673ffffffffffffffffffffffffffffffffffffffff1681526020019081526020015f2060010160086101000a81548160ff02191690831515021790555060035f8273ffffffffffffffffffffffffffffffffffffffff1673ffffffffffffffffffffffffffffffffffffffff1681526020019081526020015f205f01546108508361029b565b14610890576040517f08c379a000000000000000000000000000000000000000000000000000000000815260040161088790611024565b60405180910390fd5b60035f8273ffffffffffffffffffffffffffffffffffffffff1673ffffffffffffffffffffffffffffffffffffffff1681526020019081526020015f206001015f9054906101000a900467ffffffffffffffff1667ffffffffffffffff164367ffffffffffffffff1611610939576040517f08c379a0000000000000000000000000000000000000000000000000000000008152600401610930906110d8565b60405180910390fd5b60fa60035f8373ffffffffffffffffffffffffffffffffffffffff1673ffffffffffffffffffffffffffffffffffffffff1681526020019081526020015f206001015f9054906101000a900467ffffffffffffffff166109999190611123565b67ffffffffffffffff164367ffffffffffffffff1611156109ef576040517f08c379a00000000000000000000000000000000000000000000000000000000081526004016109e6906111ce565b60405180910390fd5b5f60035f8373ffffffffffffffffffffffffffffffffffffffff1673ffffffffffffffffffffffffffffffffffffffff1681526020019081526020015f206001015f9054906101000a900467ffffffffffffffff1667ffffffffffffffff164090505f805f9054906101000a900460ff1660ff168285604051602001610a769291906111ec565b604051602081830303815290604052805190602001205f1c610a989190611244565b90507fbc016dd1cadeaefcb851af7a0a93532e0023d536894b730801f7bcfe7065bcc2838583604051610acd93929190611283565b60405180910390a150505050565b5f80fd5b5f819050919050565b610af181610adf565b8114610afb575f80fd5b50565b5f81359050610b0c81610ae8565b92915050565b5f60208284031215610b2757610b26610adb565b5b5f610b3484828501610afe565b91505092915050565b5f81519050919050565b5f82825260208201905092915050565b8281835e5f83830152505050565b5f601f19601f8301169050919050565b5f610b7f82610b3d565b610b898185610b47565b9350610b99818560208601610b57565b610ba281610b65565b840191505092915050565b5f6020820190508181035f830152610bc58184610b75565b905092915050565b5f819050919050565b610bdf81610bcd565b8114610be9575f80fd5b50565b5f81359050610bfa81610bd6565b92915050565b5f60208284031215610c1557610c14610adb565b5b5f610c2284828501610bec565b91505092915050565b5f7fff0000000000000000000000000000000000000000000000000000000000000082169050919050565b610c5f81610c2b565b82525050565b5f602082019050610c785f830184610c56565b92915050565b610c8781610bcd565b82525050565b5f602082019050610ca05f830184610c7e565b92915050565b5f73ffffffffffffffffffffffffffffffffffffffff82169050919050565b5f610ccf82610ca6565b9050919050565b610cdf81610cc5565b8114610ce9575f80fd5b50565b5f81359050610cfa81610cd6565b92915050565b5f8060408385031215610d1657610d15610adb565b5b5f610d2385828601610bec565b9250506020610d3485828601610cec565b9150509250929050565b5f60ff82169050919050565b610d5381610d3e565b82525050565b5f602082019050610d6c5f830184610d4a565b92915050565b5f60208284031215610d8757610d86610adb565b5b5f610d9484828501610cec565b91505092915050565b5f67ffffffffffffffff82169050919050565b610db981610d9d565b82525050565b5f8115159050919050565b610dd381610dbf565b82525050565b5f606082019050610dec5f830186610c7e565b610df96020830185610db0565b610e066040830184610dca565b949350505050565b7f4e487b71000000000000000000000000000000000000000000000000000000005f52602260045260245ffd5b5f6002820490506001821680610e5257607f821691505b602082108103610e6557610e64610e0e565b5b50919050565b7f4e487b71000000000000000000000000000000000000000000000000000000005f52603260045260245ffd5b5f819050919050565b610eb2610ead82610bcd565b610e98565b82525050565b5f610ec38284610ea1565b60208201915081905092915050565b610edb81610cc5565b82525050565b5f606082019050610ef45f830186610ed2565b610f016020830185610c7e565b610f0e6040830184610db0565b949350505050565b5f82825260208201905092915050565b7f436f6d6d697452657665616c3a3a72657665616c3a20416c72656164792072655f8201527f7665616c65640000000000000000000000000000000000000000000000000000602082015250565b5f610f80602683610f16565b9150610f8b82610f26565b604082019050919050565b5f6020820190508181035f830152610fad81610f74565b9050919050565b7f436f6d6d697452657665616c3a3a72657665616c3a2052657665616c656420685f8201527f61736820646f6573206e6f74206d6174636820636f6d6d697400000000000000602082015250565b5f61100e603983610f16565b915061101982610fb4565b604082019050919050565b5f6020820190508181035f83015261103b81611002565b9050919050565b7f436f6d6d697452657665616c3a3a72657665616c3a2052657665616c20616e645f8201527f20636f6d6d69742068617070656e6564206f6e207468652073616d6520626c6f60208201527f636b000000000000000000000000000000000000000000000000000000000000604082015250565b5f6110c2604283610f16565b91506110cd82611042565b606082019050919050565b5f6020820190508181035f8301526110ef816110b6565b9050919050565b7f4e487b71000000000000000000000000000000000000000000000000000000005f52601160045260245ffd5b5f61112d82610d9d565b915061113883610d9d565b9250828201905067ffffffffffffffff811115611158576111576110f6565b5b92915050565b7f436f6d6d697452657665616c3a3a72657665616c3a2052657665616c656420745f8201527f6f6f206c61746500000000000000000000000000000000000000000000000000602082015250565b5f6111b8602783610f16565b91506111c38261115e565b604082019050919050565b5f6020820190508181035f8301526111e5816111ac565b9050919050565b5f6111f78285610ea1565b6020820191506112078284610ea1565b6020820191508190509392505050565b7f4e487b71000000000000000000000000000000000000000000000000000000005f52601260045260245ffd5b5f61124e82610adf565b915061125983610adf565b92508261126957611268611217565b5b828206905092915050565b61127d81610adf565b82525050565b5f6060820190506112965f830186610ed2565b6112a36020830185610c7e565b6112b06040830184611274565b94935050505056fea2646970667358221220937d25867230705778581de340a132021846d6d99e099b1ace002533ba61936964736f6c634300081a0033",
					"opcodes": "PUSH1 0x80 PUSH1 0x40 MSTORE PUSH0 DUP1 SSTORE PUSH0 PUSH1 0x1 SSTORE PUSH0 PUSH1 0x5 SSTORE PUSH1 0x40 MLOAD PUSH2 0x1B SWAP1 PUSH2 0xEA JUMP JUMPDEST PUSH1 0x40 MLOAD DUP1 SWAP2 SUB SWAP1 PUSH0 CREATE DUP1 ISZERO DUP1 ISZERO PUSH2 0x34 JUMPI RETURNDATASIZE PUSH0 DUP1 RETURNDATACOPY RETURNDATASIZE PUSH0 REVERT JUMPDEST POP PUSH1 0x6 PUSH0 PUSH2 0x100 EXP DUP2 SLOAD DUP2 PUSH20 0xFFFFFFFFFFFFFFFFFFFFFFFFFFFFFFFFFFFFFFFF MUL NOT AND SWAP1 DUP4 PUSH20 0xFFFFFFFFFFFFFFFFFFFFFFFFFFFFFFFFFFFFFFFF AND MUL OR SWAP1 SSTORE POP PUSH1 0x40 MLOAD PUSH2 0x80 SWAP1 PUSH2 0xF7 JUMP JUMPDEST PUSH1 0x40 MLOAD DUP1 SWAP2 SUB SWAP1 PUSH0 CREATE DUP1 ISZERO DUP1 ISZERO PUSH2 0x99 JUMPI RETURNDATASIZE PUSH0 DUP1 RETURNDATACOPY RETURNDATASIZE PUSH0 REVERT JUMPDEST POP PUSH1 0x7 PUSH0 PUSH2 0x100 EXP DUP2 SLOAD DUP2 PUSH20 0xFFFFFFFFFFFFFFFFFFFFFFFFFFFFFFFFFFFFFFFF MUL NOT AND SWAP1 DUP4 PUSH20 0xFFFFFFFFFFFFFFFFFFFFFFFFFFFFFFFFFFFFFFFF AND MUL OR SWAP1 SSTORE POP CALLVALUE DUP1 ISZERO PUSH2 0xE4 JUMPI PUSH0 DUP1 REVERT JUMPDEST POP PUSH2 0x104 JUMP JUMPDEST PUSH2 0x231 DUP1 PUSH2 0x1B28 DUP4 CODECOPY ADD SWAP1 JUMP JUMPDEST PUSH2 0x1324 DUP1 PUSH2 0x1D59 DUP4 CODECOPY ADD SWAP1 JUMP JUMPDEST PUSH2 0x1A17 DUP1 PUSH2 0x111 PUSH0 CODECOPY PUSH0 RETURN INVALID PUSH1 0x80 PUSH1 0x40 MSTORE PUSH1 0x4 CALLDATASIZE LT PUSH2 0xA5 JUMPI PUSH0 CALLDATALOAD PUSH1 0xE0 SHR DUP1 PUSH4 0x701FD0F1 GT PUSH2 0x63 JUMPI DUP1 PUSH4 0x701FD0F1 EQ PUSH2 0x189 JUMPI DUP1 PUSH4 0x90D5D0C3 EQ PUSH2 0x1B1 JUMPI DUP1 PUSH4 0x99AF2865 EQ PUSH2 0x1DB JUMPI DUP1 PUSH4 0xBC06B8CD EQ PUSH2 0x1E5 JUMPI DUP1 PUSH4 0xF14FCBC8 EQ PUSH2 0x20F JUMPI DUP1 PUSH4 0xF71D96CB EQ PUSH2 0x237 JUMPI PUSH2 0xA5 JUMP JUMPDEST DUP1 PUSH3 0x27A5AF EQ PUSH2 0xA9 JUMPI DUP1 PUSH4 0x86F7815 EQ PUSH2 0xB3 JUMPI DUP1 PUSH4 0x190CF745 EQ PUSH2 0xDD JUMPI DUP1 PUSH4 0x228CB733 EQ PUSH2 0x119 JUMPI DUP1 PUSH4 0x27B5DB8A EQ PUSH2 0x143 JUMPI DUP1 PUSH4 0x3CF5040A EQ PUSH2 0x14D JUMPI JUMPDEST PUSH0 DUP1 REVERT JUMPDEST PUSH2 0xB1 PUSH2 0x273 JUMP JUMPDEST STOP JUMPDEST CALLVALUE DUP1 ISZERO PUSH2 0xBE JUMPI PUSH0 DUP1 REVERT JUMPDEST POP PUSH2 0xC7 PUSH2 0x4BA JUMP JUMPDEST PUSH1 0x40 MLOAD PUSH2 0xD4 SWAP2 SWAP1 PUSH2 0x1555 JUMP JUMPDEST PUSH1 0x40 MLOAD DUP1 SWAP2 SUB SWAP1 RETURN JUMPDEST CALLVALUE DUP1 ISZERO PUSH2 0xE8 JUMPI PUSH0 DUP1 REVERT JUMPDEST POP PUSH2 0x103 PUSH1 0x4 DUP1 CALLDATASIZE SUB DUP2 ADD SWAP1 PUSH2 0xFE SWAP2 SWAP1 PUSH2 0x15CC JUMP JUMPDEST PUSH2 0x4C0 JUMP JUMPDEST PUSH1 0x40 MLOAD PUSH2 0x110 SWAP2 SWAP1 PUSH2 0x1611 JUMP JUMPDEST PUSH1 0x40 MLOAD DUP1 SWAP2 SUB SWAP1 RETURN JUMPDEST CALLVALUE DUP1 ISZERO PUSH2 0x124 JUMPI PUSH0 DUP1 REVERT JUMPDEST POP PUSH2 0x12D PUSH2 0x4DD JUMP JUMPDEST PUSH1 0x40 MLOAD PUSH2 0x13A SWAP2 SWAP1 PUSH2 0x1555 JUMP JUMPDEST PUSH1 0x40 MLOAD DUP1 SWAP2 SUB SWAP1 RETURN JUMPDEST PUSH2 0x14B PUSH2 0x4E3 JUMP JUMPDEST STOP JUMPDEST CALLVALUE DUP1 ISZERO PUSH2 0x158 JUMPI PUSH0 DUP1 REVERT JUMPDEST POP PUSH2 0x173 PUSH1 0x4 DUP1 CALLDATASIZE SUB DUP2 ADD SWAP1 PUSH2 0x16E SWAP2 SWAP1 PUSH2 0x165D JUMP JUMPDEST PUSH2 0x809 JUMP JUMPDEST PUSH1 0x40 MLOAD PUSH2 0x180 SWAP2 SWAP1 PUSH2 0x1697 JUMP JUMPDEST PUSH1 0x40 MLOAD DUP1 SWAP2 SUB SWAP1 RETURN JUMPDEST CALLVALUE DUP1 ISZERO PUSH2 0x194 JUMPI PUSH0 DUP1 REVERT JUMPDEST POP PUSH2 0x1AF PUSH1 0x4 DUP1 CALLDATASIZE SUB DUP2 ADD SWAP1 PUSH2 0x1AA SWAP2 SWAP1 PUSH2 0x165D JUMP JUMPDEST PUSH2 0x838 JUMP JUMPDEST STOP JUMPDEST CALLVALUE DUP1 ISZERO PUSH2 0x1BC JUMPI PUSH0 DUP1 REVERT JUMPDEST POP PUSH2 0x1C5 PUSH2 0xA17 JUMP JUMPDEST PUSH1 0x40 MLOAD PUSH2 0x1D2 SWAP2 SWAP1 PUSH2 0x1555 JUMP JUMPDEST PUSH1 0x40 MLOAD DUP1 SWAP2 SUB SWAP1 RETURN JUMPDEST PUSH2 0x1E3 PUSH2 0xA1C JUMP JUMPDEST STOP JUMPDEST CALLVALUE DUP1 ISZERO PUSH2 0x1F0 JUMPI PUSH0 DUP1 REVERT JUMPDEST POP PUSH2 0x1F9 PUSH2 0xBD1 JUMP JUMPDEST PUSH1 0x40 MLOAD PUSH2 0x206 SWAP2 SWAP1 PUSH2 0x1555 JUMP JUMPDEST PUSH1 0x40 MLOAD DUP1 SWAP2 SUB SWAP1 RETURN JUMPDEST CALLVALUE DUP1 ISZERO PUSH2 0x21A JUMPI PUSH0 DUP1 REVERT JUMPDEST POP PUSH2 0x235 PUSH1 0x4 DUP1 CALLDATASIZE SUB DUP2 ADD SWAP1 PUSH2 0x230 SWAP2 SWAP1 PUSH2 0x165D JUMP JUMPDEST PUSH2 0xC65 JUMP JUMPDEST STOP JUMPDEST CALLVALUE DUP1 ISZERO PUSH2 0x242 JUMPI PUSH0 DUP1 REVERT JUMPDEST POP PUSH2 0x25D PUSH1 0x4 DUP1 CALLDATASIZE SUB DUP2 ADD SWAP1 PUSH2 0x258 SWAP2 SWAP1 PUSH2 0x16DA JUMP JUMPDEST PUSH2 0xD4A JUMP JUMPDEST PUSH1 0x40 MLOAD PUSH2 0x26A SWAP2 SWAP1 PUSH2 0x1714 JUMP JUMPDEST PUSH1 0x40 MLOAD DUP1 SWAP2 SUB SWAP1 RETURN JUMPDEST PUSH1 0x1E PUSH1 0x6 PUSH0 SWAP1 SLOAD SWAP1 PUSH2 0x100 EXP SWAP1 DIV PUSH20 0xFFFFFFFFFFFFFFFFFFFFFFFFFFFFFFFFFFFFFFFF AND PUSH20 0xFFFFFFFFFFFFFFFFFFFFFFFFFFFFFFFFFFFFFFFF AND PUSH4 0x78E97925 PUSH1 0x40 MLOAD DUP2 PUSH4 0xFFFFFFFF AND PUSH1 0xE0 SHL DUP2 MSTORE PUSH1 0x4 ADD PUSH1 0x20 PUSH1 0x40 MLOAD DUP1 DUP4 SUB DUP2 DUP7 GAS STATICCALL ISZERO DUP1 ISZERO PUSH2 0x2DF JUMPI RETURNDATASIZE PUSH0 DUP1 RETURNDATACOPY RETURNDATASIZE PUSH0 REVERT JUMPDEST POP POP POP POP PUSH1 0x40 MLOAD RETURNDATASIZE PUSH1 0x1F NOT PUSH1 0x1F DUP3 ADD AND DUP3 ADD DUP1 PUSH1 0x40 MSTORE POP DUP2 ADD SWAP1 PUSH2 0x303 SWAP2 SWAP1 PUSH2 0x1741 JUMP JUMPDEST TIMESTAMP PUSH2 0x30E SWAP2 SWAP1 PUSH2 0x1799 JUMP JUMPDEST LT ISZERO DUP1 ISZERO PUSH2 0x31D JUMPI POP PUSH1 0x2 PUSH0 SLOAD EQ JUMPDEST DUP1 ISZERO PUSH2 0x375 JUMPI POP PUSH0 ISZERO ISZERO PUSH1 0x3 PUSH0 CALLER PUSH20 0xFFFFFFFFFFFFFFFFFFFFFFFFFFFFFFFFFFFFFFFF AND PUSH20 0xFFFFFFFFFFFFFFFFFFFFFFFFFFFFFFFFFFFFFFFF AND DUP2 MSTORE PUSH1 0x20 ADD SWAP1 DUP2 MSTORE PUSH1 0x20 ADD PUSH0 KECCAK256 PUSH0 SWAP1 SLOAD SWAP1 PUSH2 0x100 EXP SWAP1 DIV PUSH1 0xFF AND ISZERO ISZERO EQ JUMPDEST DUP1 ISZERO PUSH2 0x383 JUMPI POP PUSH1 0x1 PUSH1 0x5 SLOAD EQ JUMPDEST PUSH2 0x38B JUMPI PUSH0 DUP1 REVERT JUMPDEST PUSH0 PUSH1 0x4 PUSH0 DUP2 SLOAD DUP2 LT PUSH2 0x3A0 JUMPI PUSH2 0x39F PUSH2 0x17CC JUMP JUMPDEST JUMPDEST SWAP1 PUSH0 MSTORE PUSH1 0x20 PUSH0 KECCAK256 ADD PUSH0 SWAP1 SLOAD SWAP1 PUSH2 0x100 EXP SWAP1 DIV PUSH20 0xFFFFFFFFFFFFFFFFFFFFFFFFFFFFFFFFFFFFFFFF AND SWAP1 POP PUSH0 PUSH1 0x4 PUSH1 0x1 DUP2 SLOAD DUP2 LT PUSH2 0x3E0 JUMPI PUSH2 0x3DF PUSH2 0x17CC JUMP JUMPDEST JUMPDEST SWAP1 PUSH0 MSTORE PUSH1 0x20 PUSH0 KECCAK256 ADD PUSH0 SWAP1 SLOAD SWAP1 PUSH2 0x100 EXP SWAP1 DIV PUSH20 0xFFFFFFFFFFFFFFFFFFFFFFFFFFFFFFFFFFFFFFFF AND SWAP1 POP DUP2 PUSH20 0xFFFFFFFFFFFFFFFFFFFFFFFFFFFFFFFFFFFFFFFF AND PUSH2 0x8FC PUSH1 0x2 PUSH1 0x1 SLOAD PUSH2 0x433 SWAP2 SWAP1 PUSH2 0x1826 JUMP JUMPDEST SWAP1 DUP2 ISZERO MUL SWAP1 PUSH1 0x40 MLOAD PUSH0 PUSH1 0x40 MLOAD DUP1 DUP4 SUB DUP2 DUP6 DUP9 DUP9 CALL SWAP4 POP POP POP POP ISZERO DUP1 ISZERO PUSH2 0x45B JUMPI RETURNDATASIZE PUSH0 DUP1 RETURNDATACOPY RETURNDATASIZE PUSH0 REVERT JUMPDEST POP DUP1 PUSH20 0xFFFFFFFFFFFFFFFFFFFFFFFFFFFFFFFFFFFFFFFF AND PUSH2 0x8FC PUSH1 0x2 PUSH1 0x1 SLOAD PUSH2 0x485 SWAP2 SWAP1 PUSH2 0x1826 JUMP JUMPDEST SWAP1 DUP2 ISZERO MUL SWAP1 PUSH1 0x40 MLOAD PUSH0 PUSH1 0x40 MLOAD DUP1 DUP4 SUB DUP2 DUP6 DUP9 DUP9 CALL SWAP4 POP POP POP POP ISZERO DUP1 ISZERO PUSH2 0x4AD JUMPI RETURNDATASIZE PUSH0 DUP1 RETURNDATACOPY RETURNDATASIZE PUSH0 REVERT JUMPDEST POP PUSH2 0x4B6 PUSH2 0xD85 JUMP JUMPDEST POP POP JUMP JUMPDEST PUSH1 0x5 SLOAD DUP2 JUMP JUMPDEST PUSH1 0x3 PUSH1 0x20 MSTORE DUP1 PUSH0 MSTORE PUSH1 0x40 PUSH0 KECCAK256 PUSH0 SWAP2 POP SLOAD SWAP1 PUSH2 0x100 EXP SWAP1 DIV PUSH1 0xFF AND DUP2 JUMP JUMPDEST PUSH1 0x1 SLOAD DUP2 JUMP JUMPDEST PUSH1 0x2 PUSH0 SLOAD LT PUSH2 0x4F0 JUMPI PUSH0 DUP1 REVERT JUMPDEST PUSH20 0x5B38DA6A701C568545DCFCB03FCB875F56BEDDC4 PUSH20 0xFFFFFFFFFFFFFFFFFFFFFFFFFFFFFFFFFFFFFFFF AND CALLER PUSH20 0xFFFFFFFFFFFFFFFFFFFFFFFFFFFFFFFFFFFFFFFF AND EQ DUP1 PUSH2 0x57D JUMPI POP PUSH20 0xAB8483F64D9C6D1ECF9B849AE677DD3315835CB2 PUSH20 0xFFFFFFFFFFFFFFFFFFFFFFFFFFFFFFFFFFFFFFFF AND CALLER PUSH20 0xFFFFFFFFFFFFFFFFFFFFFFFFFFFFFFFFFFFFFFFF AND EQ JUMPDEST DUP1 PUSH2 0x5C7 JUMPI POP PUSH20 0x4B20993BC481177EC7E8F571CECAE8A9E22C02DB PUSH20 0xFFFFFFFFFFFFFFFFFFFFFFFFFFFFFFFFFFFFFFFF AND CALLER PUSH20 0xFFFFFFFFFFFFFFFFFFFFFFFFFFFFFFFFFFFFFFFF AND EQ JUMPDEST DUP1 PUSH2 0x611 JUMPI POP PUSH20 0x78731D3CA6B7E34AC0F824C42A7CC18A495CABAB PUSH20 0xFFFFFFFFFFFFFFFFFFFFFFFFFFFFFFFFFFFFFFFF AND CALLER PUSH20 0xFFFFFFFFFFFFFFFFFFFFFFFFFFFFFFFFFFFFFFFF AND EQ JUMPDEST PUSH2 0x619 JUMPI PUSH0 DUP1 REVERT JUMPDEST PUSH0 DUP1 SLOAD GT ISZERO PUSH2 0x695 JUMPI PUSH1 0x4 PUSH0 DUP2 SLOAD DUP2 LT PUSH2 0x636 JUMPI PUSH2 0x635 PUSH2 0x17CC JUMP JUMPDEST JUMPDEST SWAP1 PUSH0 MSTORE PUSH1 0x20 PUSH0 KECCAK256 ADD PUSH0 SWAP1 SLOAD SWAP1 PUSH2 0x100 EXP SWAP1 DIV PUSH20 0xFFFFFFFFFFFFFFFFFFFFFFFFFFFFFFFFFFFFFFFF AND PUSH20 0xFFFFFFFFFFFFFFFFFFFFFFFFFFFFFFFFFFFFFFFF AND CALLER PUSH20 0xFFFFFFFFFFFFFFFFFFFFFFFFFFFFFFFFFFFFFFFF AND SUB PUSH2 0x694 JUMPI PUSH0 DUP1 REVERT JUMPDEST JUMPDEST PUSH8 0xDE0B6B3A7640000 CALLVALUE EQ PUSH2 0x6A8 JUMPI PUSH0 DUP1 REVERT JUMPDEST CALLVALUE PUSH1 0x1 PUSH0 DUP3 DUP3 SLOAD PUSH2 0x6B9 SWAP2 SWAP1 PUSH2 0x1856 JUMP JUMPDEST SWAP3 POP POP DUP2 SWAP1 SSTORE POP PUSH1 0x1 PUSH1 0x3 PUSH0 CALLER PUSH20 0xFFFFFFFFFFFFFFFFFFFFFFFFFFFFFFFFFFFFFFFF AND PUSH20 0xFFFFFFFFFFFFFFFFFFFFFFFFFFFFFFFFFFFFFFFF AND DUP2 MSTORE PUSH1 0x20 ADD SWAP1 DUP2 MSTORE PUSH1 0x20 ADD PUSH0 KECCAK256 PUSH0 PUSH2 0x100 EXP DUP2 SLOAD DUP2 PUSH1 0xFF MUL NOT AND SWAP1 DUP4 ISZERO ISZERO MUL OR SWAP1 SSTORE POP PUSH1 0x4 CALLER SWAP1 DUP1 PUSH1 0x1 DUP2 SLOAD ADD DUP1 DUP3 SSTORE DUP1 SWAP2 POP POP PUSH1 0x1 SWAP1 SUB SWAP1 PUSH0 MSTORE PUSH1 0x20 PUSH0 KECCAK256 ADD PUSH0 SWAP1 SWAP2 SWAP1 SWAP2 SWAP1 SWAP2 PUSH2 0x100 EXP DUP2 SLOAD DUP2 PUSH20 0xFFFFFFFFFFFFFFFFFFFFFFFFFFFFFFFFFFFFFFFF MUL NOT AND SWAP1 DUP4 PUSH20 0xFFFFFFFFFFFFFFFFFFFFFFFFFFFFFFFFFFFFFFFF AND MUL OR SWAP1 SSTORE POP PUSH0 DUP1 DUP2 SLOAD DUP1 SWAP3 SWAP2 SWAP1 PUSH2 0x786 SWAP1 PUSH2 0x1889 JUMP JUMPDEST SWAP2 SWAP1 POP SSTORE POP PUSH1 0x6 PUSH0 SWAP1 SLOAD SWAP1 PUSH2 0x100 EXP SWAP1 DIV PUSH20 0xFFFFFFFFFFFFFFFFFFFFFFFFFFFFFFFFFFFFFFFF AND PUSH20 0xFFFFFFFFFFFFFFFFFFFFFFFFFFFFFFFFFFFFFFFF AND PUSH4 0xA63F7C53 PUSH1 0x40 MLOAD DUP2 PUSH4 0xFFFFFFFF AND PUSH1 0xE0 SHL DUP2 MSTORE PUSH1 0x4 ADD PUSH0 PUSH1 0x40 MLOAD DUP1 DUP4 SUB DUP2 PUSH0 DUP8 DUP1 EXTCODESIZE ISZERO DUP1 ISZERO PUSH2 0x7F1 JUMPI PUSH0 DUP1 REVERT JUMPDEST POP GAS CALL ISZERO DUP1 ISZERO PUSH2 0x803 JUMPI RETURNDATASIZE PUSH0 DUP1 RETURNDATACOPY RETURNDATASIZE PUSH0 REVERT JUMPDEST POP POP POP POP JUMP JUMPDEST PUSH0 DUP2 PUSH1 0x40 MLOAD PUSH1 0x20 ADD PUSH2 0x81B SWAP2 SWAP1 PUSH2 0x18F0 JUMP JUMPDEST PUSH1 0x40 MLOAD PUSH1 0x20 DUP2 DUP4 SUB SUB DUP2 MSTORE SWAP1 PUSH1 0x40 MSTORE DUP1 MLOAD SWAP1 PUSH1 0x20 ADD KECCAK256 SWAP1 POP SWAP2 SWAP1 POP JUMP JUMPDEST PUSH1 0x1 ISZERO ISZERO PUSH1 0x3 PUSH0 CALLER PUSH20 0xFFFFFFFFFFFFFFFFFFFFFFFFFFFFFFFFFFFFFFFF AND PUSH20 0xFFFFFFFFFFFFFFFFFFFFFFFFFFFFFFFFFFFFFFFF AND DUP2 MSTORE PUSH1 0x20 ADD SWAP1 DUP2 MSTORE PUSH1 0x20 ADD PUSH0 KECCAK256 PUSH0 SWAP1 SLOAD SWAP1 PUSH2 0x100 EXP SWAP1 DIV PUSH1 0xFF AND ISZERO ISZERO EQ PUSH2 0x891 JUMPI PUSH0 DUP1 REVERT JUMPDEST PUSH1 0x7 PUSH0 SWAP1 SLOAD SWAP1 PUSH2 0x100 EXP SWAP1 DIV PUSH20 0xFFFFFFFFFFFFFFFFFFFFFFFFFFFFFFFFFFFFFFFF AND PUSH20 0xFFFFFFFFFFFFFFFFFFFFFFFFFFFFFFFFFFFFFFFF AND PUSH4 0xAD487790 DUP3 CALLER PUSH1 0x40 MLOAD DUP4 PUSH4 0xFFFFFFFF AND PUSH1 0xE0 SHL DUP2 MSTORE PUSH1 0x4 ADD PUSH2 0x8ED SWAP3 SWAP2 SWAP1 PUSH2 0x190A JUMP JUMPDEST PUSH0 PUSH1 0x40 MLOAD DUP1 DUP4 SUB DUP2 PUSH0 DUP8 DUP1 EXTCODESIZE ISZERO DUP1 ISZERO PUSH2 0x904 JUMPI PUSH0 DUP1 REVERT JUMPDEST POP GAS CALL ISZERO DUP1 ISZERO PUSH2 0x916 JUMPI RETURNDATASIZE PUSH0 DUP1 RETURNDATACOPY RETURNDATASIZE PUSH0 REVERT JUMPDEST POP POP POP POP PUSH0 PUSH1 0x7 PUSH0 SWAP1 SLOAD SWAP1 PUSH2 0x100 EXP SWAP1 DIV PUSH20 0xFFFFFFFFFFFFFFFFFFFFFFFFFFFFFFFFFFFFFFFF AND PUSH20 0xFFFFFFFFFFFFFFFFFFFFFFFFFFFFFFFFFFFFFFFF AND PUSH4 0x2379CA4C DUP4 PUSH1 0x40 MLOAD DUP3 PUSH4 0xFFFFFFFF AND PUSH1 0xE0 SHL DUP2 MSTORE PUSH1 0x4 ADD PUSH2 0x975 SWAP2 SWAP1 PUSH2 0x1697 JUMP JUMPDEST PUSH1 0x20 PUSH1 0x40 MLOAD DUP1 DUP4 SUB DUP2 DUP7 GAS STATICCALL ISZERO DUP1 ISZERO PUSH2 0x990 JUMPI RETURNDATASIZE PUSH0 DUP1 RETURNDATACOPY RETURNDATASIZE PUSH0 REVERT JUMPDEST POP POP POP POP PUSH1 0x40 MLOAD RETURNDATASIZE PUSH1 0x1F NOT PUSH1 0x1F DUP3 ADD AND DUP3 ADD DUP1 PUSH1 0x40 MSTORE POP DUP2 ADD SWAP1 PUSH2 0x9B4 SWAP2 SWAP1 PUSH2 0x1986 JUMP JUMPDEST SWAP1 POP PUSH2 0x9BF DUP2 PUSH2 0xE24 JUMP JUMPDEST PUSH0 PUSH1 0x3 PUSH0 CALLER PUSH20 0xFFFFFFFFFFFFFFFFFFFFFFFFFFFFFFFFFFFFFFFF AND PUSH20 0xFFFFFFFFFFFFFFFFFFFFFFFFFFFFFFFFFFFFFFFF AND DUP2 MSTORE PUSH1 0x20 ADD SWAP1 DUP2 MSTORE PUSH1 0x20 ADD PUSH0 KECCAK256 PUSH0 PUSH2 0x100 EXP DUP2 SLOAD DUP2 PUSH1 0xFF MUL NOT AND SWAP1 DUP4 ISZERO ISZERO MUL OR SWAP1 SSTORE POP POP POP JUMP JUMPDEST PUSH0 SLOAD DUP2 JUMP JUMPDEST PUSH1 0x1E PUSH1 0x6 PUSH0 SWAP1 SLOAD SWAP1 PUSH2 0x100 EXP SWAP1 DIV PUSH20 0xFFFFFFFFFFFFFFFFFFFFFFFFFFFFFFFFFFFFFFFF AND PUSH20 0xFFFFFFFFFFFFFFFFFFFFFFFFFFFFFFFFFFFFFFFF AND PUSH4 0x78E97925 PUSH1 0x40 MLOAD DUP2 PUSH4 0xFFFFFFFF AND PUSH1 0xE0 SHL DUP2 MSTORE PUSH1 0x4 ADD PUSH1 0x20 PUSH1 0x40 MLOAD DUP1 DUP4 SUB DUP2 DUP7 GAS STATICCALL ISZERO DUP1 ISZERO PUSH2 0xA88 JUMPI RETURNDATASIZE PUSH0 DUP1 RETURNDATACOPY RETURNDATASIZE PUSH0 REVERT JUMPDEST POP POP POP POP PUSH1 0x40 MLOAD RETURNDATASIZE PUSH1 0x1F NOT PUSH1 0x1F DUP3 ADD AND DUP3 ADD DUP1 PUSH1 0x40 MSTORE POP DUP2 ADD SWAP1 PUSH2 0xAAC SWAP2 SWAP1 PUSH2 0x1741 JUMP JUMPDEST TIMESTAMP PUSH2 0xAB7 SWAP2 SWAP1 PUSH2 0x1799 JUMP JUMPDEST LT ISZERO DUP1 ISZERO PUSH2 0xAC7 JUMPI POP PUSH1 0x2 PUSH0 SLOAD EQ ISZERO JUMPDEST DUP1 ISZERO PUSH2 0xB39 JUMPI POP PUSH1 0x4 PUSH0 DUP2 SLOAD DUP2 LT PUSH2 0xAE2 JUMPI PUSH2 0xAE1 PUSH2 0x17CC JUMP JUMPDEST JUMPDEST SWAP1 PUSH0 MSTORE PUSH1 0x20 PUSH0 KECCAK256 ADD PUSH0 SWAP1 SLOAD SWAP1 PUSH2 0x100 EXP SWAP1 DIV PUSH20 0xFFFFFFFFFFFFFFFFFFFFFFFFFFFFFFFFFFFFFFFF AND PUSH20 0xFFFFFFFFFFFFFFFFFFFFFFFFFFFFFFFFFFFFFFFF AND CALLER PUSH20 0xFFFFFFFFFFFFFFFFFFFFFFFFFFFFFFFFFFFFFFFF AND EQ JUMPDEST PUSH2 0xB41 JUMPI PUSH0 DUP1 REVERT JUMPDEST PUSH0 PUSH1 0x4 PUSH0 DUP2 SLOAD DUP2 LT PUSH2 0xB56 JUMPI PUSH2 0xB55 PUSH2 0x17CC JUMP JUMPDEST JUMPDEST SWAP1 PUSH0 MSTORE PUSH1 0x20 PUSH0 KECCAK256 ADD PUSH0 SWAP1 SLOAD SWAP1 PUSH2 0x100 EXP SWAP1 DIV PUSH20 0xFFFFFFFFFFFFFFFFFFFFFFFFFFFFFFFFFFFFFFFF AND SWAP1 POP DUP1 PUSH20 0xFFFFFFFFFFFFFFFFFFFFFFFFFFFFFFFFFFFFFFFF AND PUSH2 0x8FC PUSH1 0x1 SLOAD SWAP1 DUP2 ISZERO MUL SWAP1 PUSH1 0x40 MLOAD PUSH0 PUSH1 0x40 MLOAD DUP1 DUP4 SUB DUP2 DUP6 DUP9 DUP9 CALL SWAP4 POP POP POP POP ISZERO DUP1 ISZERO PUSH2 0xBC5 JUMPI RETURNDATASIZE PUSH0 DUP1 RETURNDATACOPY RETURNDATASIZE PUSH0 REVERT JUMPDEST POP PUSH2 0xBCE PUSH2 0xD85 JUMP JUMPDEST POP JUMP JUMPDEST PUSH0 PUSH1 0x6 PUSH0 SWAP1 SLOAD SWAP1 PUSH2 0x100 EXP SWAP1 DIV PUSH20 0xFFFFFFFFFFFFFFFFFFFFFFFFFFFFFFFFFFFFFFFF AND PUSH20 0xFFFFFFFFFFFFFFFFFFFFFFFFFFFFFFFFFFFFFFFF AND PUSH4 0xBC06B8CD PUSH1 0x40 MLOAD DUP2 PUSH4 0xFFFFFFFF AND PUSH1 0xE0 SHL DUP2 MSTORE PUSH1 0x4 ADD PUSH1 0x20 PUSH1 0x40 MLOAD DUP1 DUP4 SUB DUP2 DUP7 GAS STATICCALL ISZERO DUP1 ISZERO PUSH2 0xC3C JUMPI RETURNDATASIZE PUSH0 DUP1 RETURNDATACOPY RETURNDATASIZE PUSH0 REVERT JUMPDEST POP POP POP POP PUSH1 0x40 MLOAD RETURNDATASIZE PUSH1 0x1F NOT PUSH1 0x1F DUP3 ADD AND DUP3 ADD DUP1 PUSH1 0x40 MSTORE POP DUP2 ADD SWAP1 PUSH2 0xC60 SWAP2 SWAP1 PUSH2 0x1741 JUMP JUMPDEST SWAP1 POP SWAP1 JUMP JUMPDEST PUSH1 0x1 ISZERO ISZERO PUSH1 0x3 PUSH0 CALLER PUSH20 0xFFFFFFFFFFFFFFFFFFFFFFFFFFFFFFFFFFFFFFFF AND PUSH20 0xFFFFFFFFFFFFFFFFFFFFFFFFFFFFFFFFFFFFFFFF AND DUP2 MSTORE PUSH1 0x20 ADD SWAP1 DUP2 MSTORE PUSH1 0x20 ADD PUSH0 KECCAK256 PUSH0 SWAP1 SLOAD SWAP1 PUSH2 0x100 EXP SWAP1 DIV PUSH1 0xFF AND ISZERO ISZERO EQ PUSH2 0xCBE JUMPI PUSH0 DUP1 REVERT JUMPDEST PUSH1 0x7 PUSH0 SWAP1 SLOAD SWAP1 PUSH2 0x100 EXP SWAP1 DIV PUSH20 0xFFFFFFFFFFFFFFFFFFFFFFFFFFFFFFFFFFFFFFFF AND PUSH20 0xFFFFFFFFFFFFFFFFFFFFFFFFFFFFFFFFFFFFFFFF AND PUSH4 0x5A746101 DUP3 CALLER PUSH1 0x40 MLOAD DUP4 PUSH4 0xFFFFFFFF AND PUSH1 0xE0 SHL DUP2 MSTORE PUSH1 0x4 ADD PUSH2 0xD1A SWAP3 SWAP2 SWAP1 PUSH2 0x190A JUMP JUMPDEST PUSH0 PUSH1 0x40 MLOAD DUP1 DUP4 SUB DUP2 PUSH0 DUP8 DUP1 EXTCODESIZE ISZERO DUP1 ISZERO PUSH2 0xD31 JUMPI PUSH0 DUP1 REVERT JUMPDEST POP GAS CALL ISZERO DUP1 ISZERO PUSH2 0xD43 JUMPI RETURNDATASIZE PUSH0 DUP1 RETURNDATACOPY RETURNDATASIZE PUSH0 REVERT JUMPDEST POP POP POP POP POP JUMP JUMPDEST PUSH1 0x4 DUP2 DUP2 SLOAD DUP2 LT PUSH2 0xD59 JUMPI PUSH0 DUP1 REVERT JUMPDEST SWAP1 PUSH0 MSTORE PUSH1 0x20 PUSH0 KECCAK256 ADD PUSH0 SWAP2 POP SLOAD SWAP1 PUSH2 0x100 EXP SWAP1 DIV PUSH20 0xFFFFFFFFFFFFFFFFFFFFFFFFFFFFFFFFFFFFFFFF AND DUP2 JUMP JUMPDEST PUSH0 DUP1 DUP2 SWAP1 SSTORE POP PUSH0 PUSH1 0x1 DUP2 SWAP1 SSTORE POP PUSH0 PUSH1 0x5 DUP2 SWAP1 SSTORE POP PUSH1 0x4 PUSH0 PUSH2 0xDA6 SWAP2 SWAP1 PUSH2 0x1504 JUMP JUMPDEST PUSH1 0x7 PUSH0 SWAP1 SLOAD SWAP1 PUSH2 0x100 EXP SWAP1 DIV PUSH20 0xFFFFFFFFFFFFFFFFFFFFFFFFFFFFFFFFFFFFFFFF AND PUSH20 0xFFFFFFFFFFFFFFFFFFFFFFFFFFFFFFFFFFFFFFFF AND PUSH4 0x8D25AF04 PUSH1 0x40 MLOAD DUP2 PUSH4 0xFFFFFFFF AND PUSH1 0xE0 SHL DUP2 MSTORE PUSH1 0x4 ADD PUSH0 PUSH1 0x40 MLOAD DUP1 DUP4 SUB DUP2 PUSH0 DUP8 DUP1 EXTCODESIZE ISZERO DUP1 ISZERO PUSH2 0xE0C JUMPI PUSH0 DUP1 REVERT JUMPDEST POP GAS CALL ISZERO DUP1 ISZERO PUSH2 0xE1E JUMPI RETURNDATASIZE PUSH0 DUP1 RETURNDATACOPY RETURNDATASIZE PUSH0 REVERT JUMPDEST POP POP POP POP JUMP JUMPDEST PUSH0 DUP1 PUSH1 0xF8 SHL DUP3 PUSH31 0xFFFFFFFFFFFFFFFFFFFFFFFFFFFFFFFFFFFFFFFFFFFFFFFFFFFFFFFFFFFFFF NOT AND SUB PUSH2 0xE59 JUMPI PUSH0 SWAP1 POP PUSH2 0xF3B JUMP JUMPDEST PUSH1 0x1 PUSH1 0xF8 SHL DUP3 PUSH31 0xFFFFFFFFFFFFFFFFFFFFFFFFFFFFFFFFFFFFFFFFFFFFFFFFFFFFFFFFFFFFFF NOT AND SUB PUSH2 0xE8F JUMPI PUSH1 0x1 SWAP1 POP PUSH2 0xF3A JUMP JUMPDEST PUSH1 0x2 PUSH1 0xF8 SHL DUP3 PUSH31 0xFFFFFFFFFFFFFFFFFFFFFFFFFFFFFFFFFFFFFFFFFFFFFFFFFFFFFFFFFFFFFF NOT AND SUB PUSH2 0xEC5 JUMPI PUSH1 0x2 SWAP1 POP PUSH2 0xF39 JUMP JUMPDEST PUSH1 0x3 PUSH1 0xF8 SHL DUP3 PUSH31 0xFFFFFFFFFFFFFFFFFFFFFFFFFFFFFFFFFFFFFFFFFFFFFFFFFFFFFFFFFFFFFF NOT AND SUB PUSH2 0xEFB JUMPI PUSH1 0x3 SWAP1 POP PUSH2 0xF38 JUMP JUMPDEST PUSH1 0x4 PUSH1 0xF8 SHL DUP3 PUSH31 0xFFFFFFFFFFFFFFFFFFFFFFFFFFFFFFFFFFFFFFFFFFFFFFFFFFFFFFFFFFFFFF NOT AND SUB PUSH2 0xF31 JUMPI PUSH1 0x4 SWAP1 POP PUSH2 0xF37 JUMP JUMPDEST PUSH2 0x3E7 SWAP1 POP JUMPDEST JUMPDEST JUMPDEST JUMPDEST JUMPDEST PUSH1 0x2 PUSH0 SLOAD EQ PUSH2 0xF48 JUMPI PUSH0 DUP1 REVERT JUMPDEST PUSH1 0x1 ISZERO ISZERO PUSH1 0x3 PUSH0 CALLER PUSH20 0xFFFFFFFFFFFFFFFFFFFFFFFFFFFFFFFFFFFFFFFF AND PUSH20 0xFFFFFFFFFFFFFFFFFFFFFFFFFFFFFFFFFFFFFFFF AND DUP2 MSTORE PUSH1 0x20 ADD SWAP1 DUP2 MSTORE PUSH1 0x20 ADD PUSH0 KECCAK256 PUSH0 SWAP1 SLOAD SWAP1 PUSH2 0x100 EXP SWAP1 DIV PUSH1 0xFF AND ISZERO ISZERO EQ PUSH2 0xFA1 JUMPI PUSH0 DUP1 REVERT JUMPDEST PUSH0 DUP2 EQ DUP1 PUSH2 0xFAF JUMPI POP PUSH1 0x1 DUP2 EQ JUMPDEST DUP1 PUSH2 0xFBA JUMPI POP PUSH1 0x2 DUP2 EQ JUMPDEST DUP1 PUSH2 0xFC5 JUMPI POP PUSH1 0x3 DUP2 EQ JUMPDEST DUP1 PUSH2 0xFD0 JUMPI POP PUSH1 0x4 DUP2 EQ JUMPDEST PUSH2 0xFD8 JUMPI PUSH0 DUP1 REVERT JUMPDEST DUP1 PUSH1 0x2 PUSH0 CALLER PUSH20 0xFFFFFFFFFFFFFFFFFFFFFFFFFFFFFFFFFFFFFFFF AND PUSH20 0xFFFFFFFFFFFFFFFFFFFFFFFFFFFFFFFFFFFFFFFF AND DUP2 MSTORE PUSH1 0x20 ADD SWAP1 DUP2 MSTORE PUSH1 0x20 ADD PUSH0 KECCAK256 DUP2 SWAP1 SSTORE POP PUSH1 0x5 PUSH0 DUP2 SLOAD DUP1 SWAP3 SWAP2 SWAP1 PUSH2 0x102C SWAP1 PUSH2 0x1889 JUMP JUMPDEST SWAP2 SWAP1 POP SSTORE POP PUSH1 0x6 PUSH0 SWAP1 SLOAD SWAP1 PUSH2 0x100 EXP SWAP1 DIV PUSH20 0xFFFFFFFFFFFFFFFFFFFFFFFFFFFFFFFFFFFFFFFF AND PUSH20 0xFFFFFFFFFFFFFFFFFFFFFFFFFFFFFFFFFFFFFFFF AND PUSH4 0xA63F7C53 PUSH1 0x40 MLOAD DUP2 PUSH4 0xFFFFFFFF AND PUSH1 0xE0 SHL DUP2 MSTORE PUSH1 0x4 ADD PUSH0 PUSH1 0x40 MLOAD DUP1 DUP4 SUB DUP2 PUSH0 DUP8 DUP1 EXTCODESIZE ISZERO DUP1 ISZERO PUSH2 0x1097 JUMPI PUSH0 DUP1 REVERT JUMPDEST POP GAS CALL ISZERO DUP1 ISZERO PUSH2 0x10A9 JUMPI RETURNDATASIZE PUSH0 DUP1 RETURNDATACOPY RETURNDATASIZE PUSH0 REVERT JUMPDEST POP POP POP POP PUSH1 0x2 PUSH1 0x5 SLOAD SUB PUSH2 0x10C0 JUMPI PUSH2 0x10BF PUSH2 0x10C4 JUMP JUMPDEST JUMPDEST POP POP JUMP JUMPDEST PUSH0 PUSH1 0x2 PUSH0 PUSH1 0x4 PUSH0 DUP2 SLOAD DUP2 LT PUSH2 0x10DC JUMPI PUSH2 0x10DB PUSH2 0x17CC JUMP JUMPDEST JUMPDEST SWAP1 PUSH0 MSTORE PUSH1 0x20 PUSH0 KECCAK256 ADD PUSH0 SWAP1 SLOAD SWAP1 PUSH2 0x100 EXP SWAP1 DIV PUSH20 0xFFFFFFFFFFFFFFFFFFFFFFFFFFFFFFFFFFFFFFFF AND PUSH20 0xFFFFFFFFFFFFFFFFFFFFFFFFFFFFFFFFFFFFFFFF AND PUSH20 0xFFFFFFFFFFFFFFFFFFFFFFFFFFFFFFFFFFFFFFFF AND DUP2 MSTORE PUSH1 0x20 ADD SWAP1 DUP2 MSTORE PUSH1 0x20 ADD PUSH0 KECCAK256 SLOAD SWAP1 POP PUSH0 PUSH1 0x2 PUSH0 PUSH1 0x4 PUSH1 0x1 DUP2 SLOAD DUP2 LT PUSH2 0x1159 JUMPI PUSH2 0x1158 PUSH2 0x17CC JUMP JUMPDEST JUMPDEST SWAP1 PUSH0 MSTORE PUSH1 0x20 PUSH0 KECCAK256 ADD PUSH0 SWAP1 SLOAD SWAP1 PUSH2 0x100 EXP SWAP1 DIV PUSH20 0xFFFFFFFFFFFFFFFFFFFFFFFFFFFFFFFFFFFFFFFF AND PUSH20 0xFFFFFFFFFFFFFFFFFFFFFFFFFFFFFFFFFFFFFFFF AND PUSH20 0xFFFFFFFFFFFFFFFFFFFFFFFFFFFFFFFFFFFFFFFF AND DUP2 MSTORE PUSH1 0x20 ADD SWAP1 DUP2 MSTORE PUSH1 0x20 ADD PUSH0 KECCAK256 SLOAD SWAP1 POP PUSH0 PUSH1 0x4 PUSH0 DUP2 SLOAD DUP2 LT PUSH2 0x11D2 JUMPI PUSH2 0x11D1 PUSH2 0x17CC JUMP JUMPDEST JUMPDEST SWAP1 PUSH0 MSTORE PUSH1 0x20 PUSH0 KECCAK256 ADD PUSH0 SWAP1 SLOAD SWAP1 PUSH2 0x100 EXP SWAP1 DIV PUSH20 0xFFFFFFFFFFFFFFFFFFFFFFFFFFFFFFFFFFFFFFFF AND SWAP1 POP PUSH0 PUSH1 0x4 PUSH1 0x1 DUP2 SLOAD DUP2 LT PUSH2 0x1212 JUMPI PUSH2 0x1211 PUSH2 0x17CC JUMP JUMPDEST JUMPDEST SWAP1 PUSH0 MSTORE PUSH1 0x20 PUSH0 KECCAK256 ADD PUSH0 SWAP1 SLOAD SWAP1 PUSH2 0x100 EXP SWAP1 DIV PUSH20 0xFFFFFFFFFFFFFFFFFFFFFFFFFFFFFFFFFFFFFFFF AND SWAP1 POP DUP3 PUSH1 0x3 PUSH1 0x1 DUP7 PUSH2 0x124C SWAP2 SWAP1 PUSH2 0x1856 JUMP JUMPDEST PUSH2 0x1256 SWAP2 SWAP1 PUSH2 0x19B1 JUMP JUMPDEST EQ DUP1 PUSH2 0x126D JUMPI POP PUSH1 0x3 DUP5 EQ DUP1 ISZERO PUSH2 0x126C JUMPI POP PUSH0 DUP4 EQ JUMPDEST JUMPDEST DUP1 PUSH2 0x1284 JUMPI POP PUSH1 0x4 DUP5 EQ DUP1 ISZERO PUSH2 0x1283 JUMPI POP PUSH1 0x3 DUP4 EQ JUMPDEST JUMPDEST DUP1 PUSH2 0x129B JUMPI POP PUSH1 0x2 DUP5 EQ DUP1 ISZERO PUSH2 0x129A JUMPI POP PUSH1 0x4 DUP4 EQ JUMPDEST JUMPDEST DUP1 PUSH2 0x12B2 JUMPI POP PUSH1 0x3 DUP5 EQ DUP1 ISZERO PUSH2 0x12B1 JUMPI POP PUSH1 0x2 DUP4 EQ JUMPDEST JUMPDEST DUP1 PUSH2 0x12C9 JUMPI POP PUSH1 0x1 DUP5 EQ DUP1 ISZERO PUSH2 0x12C8 JUMPI POP PUSH1 0x3 DUP4 EQ JUMPDEST JUMPDEST DUP1 PUSH2 0x12DF JUMPI POP PUSH0 DUP5 EQ DUP1 ISZERO PUSH2 0x12DE JUMPI POP PUSH1 0x4 DUP4 EQ JUMPDEST JUMPDEST DUP1 PUSH2 0x12F6 JUMPI POP PUSH1 0x1 DUP5 EQ DUP1 ISZERO PUSH2 0x12F5 JUMPI POP PUSH1 0x4 DUP4 EQ JUMPDEST JUMPDEST ISZERO PUSH2 0x1346 JUMPI DUP1 PUSH20 0xFFFFFFFFFFFFFFFFFFFFFFFFFFFFFFFFFFFFFFFF AND PUSH2 0x8FC PUSH1 0x1 SLOAD SWAP1 DUP2 ISZERO MUL SWAP1 PUSH1 0x40 MLOAD PUSH0 PUSH1 0x40 MLOAD DUP1 DUP4 SUB DUP2 DUP6 DUP9 DUP9 CALL SWAP4 POP POP POP POP ISZERO DUP1 ISZERO PUSH2 0x1340 JUMPI RETURNDATASIZE PUSH0 DUP1 RETURNDATACOPY RETURNDATASIZE PUSH0 REVERT JUMPDEST POP PUSH2 0x14F6 JUMP JUMPDEST DUP4 PUSH1 0x3 PUSH1 0x1 DUP6 PUSH2 0x1356 SWAP2 SWAP1 PUSH2 0x1856 JUMP JUMPDEST PUSH2 0x1360 SWAP2 SWAP1 PUSH2 0x19B1 JUMP JUMPDEST EQ DUP1 PUSH2 0x1377 JUMPI POP PUSH1 0x3 DUP4 EQ DUP1 ISZERO PUSH2 0x1376 JUMPI POP PUSH0 DUP5 EQ JUMPDEST JUMPDEST DUP1 PUSH2 0x138E JUMPI POP PUSH1 0x4 DUP4 EQ DUP1 ISZERO PUSH2 0x138D JUMPI POP PUSH1 0x3 DUP5 EQ JUMPDEST JUMPDEST DUP1 PUSH2 0x13A5 JUMPI POP PUSH1 0x2 DUP4 EQ DUP1 ISZERO PUSH2 0x13A4 JUMPI POP PUSH1 0x4 DUP5 EQ JUMPDEST JUMPDEST DUP1 PUSH2 0x13BC JUMPI POP PUSH1 0x3 DUP4 EQ DUP1 ISZERO PUSH2 0x13BB JUMPI POP PUSH1 0x2 DUP5 EQ JUMPDEST JUMPDEST DUP1 PUSH2 0x13D3 JUMPI POP PUSH1 0x1 DUP4 EQ DUP1 ISZERO PUSH2 0x13D2 JUMPI POP PUSH1 0x3 DUP5 EQ JUMPDEST JUMPDEST DUP1 PUSH2 0x13E9 JUMPI POP PUSH0 DUP4 EQ DUP1 ISZERO PUSH2 0x13E8 JUMPI POP PUSH1 0x4 DUP5 EQ JUMPDEST JUMPDEST DUP1 PUSH2 0x1400 JUMPI POP PUSH1 0x1 DUP4 EQ DUP1 ISZERO PUSH2 0x13FF JUMPI POP PUSH1 0x4 DUP5 EQ JUMPDEST JUMPDEST ISZERO PUSH2 0x1450 JUMPI DUP2 PUSH20 0xFFFFFFFFFFFFFFFFFFFFFFFFFFFFFFFFFFFFFFFF AND PUSH2 0x8FC PUSH1 0x1 SLOAD SWAP1 DUP2 ISZERO MUL SWAP1 PUSH1 0x40 MLOAD PUSH0 PUSH1 0x40 MLOAD DUP1 DUP4 SUB DUP2 DUP6 DUP9 DUP9 CALL SWAP4 POP POP POP POP ISZERO DUP1 ISZERO PUSH2 0x144A JUMPI RETURNDATASIZE PUSH0 DUP1 RETURNDATACOPY RETURNDATASIZE PUSH0 REVERT JUMPDEST POP PUSH2 0x14F5 JUMP JUMPDEST DUP2 PUSH20 0xFFFFFFFFFFFFFFFFFFFFFFFFFFFFFFFFFFFFFFFF AND PUSH2 0x8FC PUSH1 0x2 PUSH1 0x1 SLOAD PUSH2 0x1479 SWAP2 SWAP1 PUSH2 0x1826 JUMP JUMPDEST SWAP1 DUP2 ISZERO MUL SWAP1 PUSH1 0x40 MLOAD PUSH0 PUSH1 0x40 MLOAD DUP1 DUP4 SUB DUP2 DUP6 DUP9 DUP9 CALL SWAP4 POP POP POP POP ISZERO DUP1 ISZERO PUSH2 0x14A1 JUMPI RETURNDATASIZE PUSH0 DUP1 RETURNDATACOPY RETURNDATASIZE PUSH0 REVERT JUMPDEST POP DUP1 PUSH20 0xFFFFFFFFFFFFFFFFFFFFFFFFFFFFFFFFFFFFFFFF AND PUSH2 0x8FC PUSH1 0x2 PUSH1 0x1 SLOAD PUSH2 0x14CB SWAP2 SWAP1 PUSH2 0x1826 JUMP JUMPDEST SWAP1 DUP2 ISZERO MUL SWAP1 PUSH1 0x40 MLOAD PUSH0 PUSH1 0x40 MLOAD DUP1 DUP4 SUB DUP2 DUP6 DUP9 DUP9 CALL SWAP4 POP POP POP POP ISZERO DUP1 ISZERO PUSH2 0x14F3 JUMPI RETURNDATASIZE PUSH0 DUP1 RETURNDATACOPY RETURNDATASIZE PUSH0 REVERT JUMPDEST POP JUMPDEST JUMPDEST PUSH2 0x14FE PUSH2 0xD85 JUMP JUMPDEST POP POP POP POP JUMP JUMPDEST POP DUP1 SLOAD PUSH0 DUP3 SSTORE SWAP1 PUSH0 MSTORE PUSH1 0x20 PUSH0 KECCAK256 SWAP1 DUP2 ADD SWAP1 PUSH2 0x151F SWAP2 SWAP1 PUSH2 0x1522 JUMP JUMPDEST POP JUMP JUMPDEST JUMPDEST DUP1 DUP3 GT ISZERO PUSH2 0x1539 JUMPI PUSH0 DUP2 PUSH0 SWAP1 SSTORE POP PUSH1 0x1 ADD PUSH2 0x1523 JUMP JUMPDEST POP SWAP1 JUMP JUMPDEST PUSH0 DUP2 SWAP1 POP SWAP2 SWAP1 POP JUMP JUMPDEST PUSH2 0x154F DUP2 PUSH2 0x153D JUMP JUMPDEST DUP3 MSTORE POP POP JUMP JUMPDEST PUSH0 PUSH1 0x20 DUP3 ADD SWAP1 POP PUSH2 0x1568 PUSH0 DUP4 ADD DUP5 PUSH2 0x1546 JUMP JUMPDEST SWAP3 SWAP2 POP POP JUMP JUMPDEST PUSH0 DUP1 REVERT JUMPDEST PUSH0 PUSH20 0xFFFFFFFFFFFFFFFFFFFFFFFFFFFFFFFFFFFFFFFF DUP3 AND SWAP1 POP SWAP2 SWAP1 POP JUMP JUMPDEST PUSH0 PUSH2 0x159B DUP3 PUSH2 0x1572 JUMP JUMPDEST SWAP1 POP SWAP2 SWAP1 POP JUMP JUMPDEST PUSH2 0x15AB DUP2 PUSH2 0x1591 JUMP JUMPDEST DUP2 EQ PUSH2 0x15B5 JUMPI PUSH0 DUP1 REVERT JUMPDEST POP JUMP JUMPDEST PUSH0 DUP2 CALLDATALOAD SWAP1 POP PUSH2 0x15C6 DUP2 PUSH2 0x15A2 JUMP JUMPDEST SWAP3 SWAP2 POP POP JUMP JUMPDEST PUSH0 PUSH1 0x20 DUP3 DUP5 SUB SLT ISZERO PUSH2 0x15E1 JUMPI PUSH2 0x15E0 PUSH2 0x156E JUMP JUMPDEST JUMPDEST PUSH0 PUSH2 0x15EE DUP5 DUP3 DUP6 ADD PUSH2 0x15B8 JUMP JUMPDEST SWAP2 POP POP SWAP3 SWAP2 POP POP JUMP JUMPDEST PUSH0 DUP2 ISZERO ISZERO SWAP1 POP SWAP2 SWAP1 POP JUMP JUMPDEST PUSH2 0x160B DUP2 PUSH2 0x15F7 JUMP JUMPDEST DUP3 MSTORE POP POP JUMP JUMPDEST PUSH0 PUSH1 0x20 DUP3 ADD SWAP1 POP PUSH2 0x1624 PUSH0 DUP4 ADD DUP5 PUSH2 0x1602 JUMP JUMPDEST SWAP3 SWAP2 POP POP JUMP JUMPDEST PUSH0 DUP2 SWAP1 POP SWAP2 SWAP1 POP JUMP JUMPDEST PUSH2 0x163C DUP2 PUSH2 0x162A JUMP JUMPDEST DUP2 EQ PUSH2 0x1646 JUMPI PUSH0 DUP1 REVERT JUMPDEST POP JUMP JUMPDEST PUSH0 DUP2 CALLDATALOAD SWAP1 POP PUSH2 0x1657 DUP2 PUSH2 0x1633 JUMP JUMPDEST SWAP3 SWAP2 POP POP JUMP JUMPDEST PUSH0 PUSH1 0x20 DUP3 DUP5 SUB SLT ISZERO PUSH2 0x1672 JUMPI PUSH2 0x1671 PUSH2 0x156E JUMP JUMPDEST JUMPDEST PUSH0 PUSH2 0x167F DUP5 DUP3 DUP6 ADD PUSH2 0x1649 JUMP JUMPDEST SWAP2 POP POP SWAP3 SWAP2 POP POP JUMP JUMPDEST PUSH2 0x1691 DUP2 PUSH2 0x162A JUMP JUMPDEST DUP3 MSTORE POP POP JUMP JUMPDEST PUSH0 PUSH1 0x20 DUP3 ADD SWAP1 POP PUSH2 0x16AA PUSH0 DUP4 ADD DUP5 PUSH2 0x1688 JUMP JUMPDEST SWAP3 SWAP2 POP POP JUMP JUMPDEST PUSH2 0x16B9 DUP2 PUSH2 0x153D JUMP JUMPDEST DUP2 EQ PUSH2 0x16C3 JUMPI PUSH0 DUP1 REVERT JUMPDEST POP JUMP JUMPDEST PUSH0 DUP2 CALLDATALOAD SWAP1 POP PUSH2 0x16D4 DUP2 PUSH2 0x16B0 JUMP JUMPDEST SWAP3 SWAP2 POP POP JUMP JUMPDEST PUSH0 PUSH1 0x20 DUP3 DUP5 SUB SLT ISZERO PUSH2 0x16EF JUMPI PUSH2 0x16EE PUSH2 0x156E JUMP JUMPDEST JUMPDEST PUSH0 PUSH2 0x16FC DUP5 DUP3 DUP6 ADD PUSH2 0x16C6 JUMP JUMPDEST SWAP2 POP POP SWAP3 SWAP2 POP POP JUMP JUMPDEST PUSH2 0x170E DUP2 PUSH2 0x1591 JUMP JUMPDEST DUP3 MSTORE POP POP JUMP JUMPDEST PUSH0 PUSH1 0x20 DUP3 ADD SWAP1 POP PUSH2 0x1727 PUSH0 DUP4 ADD DUP5 PUSH2 0x1705 JUMP JUMPDEST SWAP3 SWAP2 POP POP JUMP JUMPDEST PUSH0 DUP2 MLOAD SWAP1 POP PUSH2 0x173B DUP2 PUSH2 0x16B0 JUMP JUMPDEST SWAP3 SWAP2 POP POP JUMP JUMPDEST PUSH0 PUSH1 0x20 DUP3 DUP5 SUB SLT ISZERO PUSH2 0x1756 JUMPI PUSH2 0x1755 PUSH2 0x156E JUMP JUMPDEST JUMPDEST PUSH0 PUSH2 0x1763 DUP5 DUP3 DUP6 ADD PUSH2 0x172D JUMP JUMPDEST SWAP2 POP POP SWAP3 SWAP2 POP POP JUMP JUMPDEST PUSH32 0x4E487B7100000000000000000000000000000000000000000000000000000000 PUSH0 MSTORE PUSH1 0x11 PUSH1 0x4 MSTORE PUSH1 0x24 PUSH0 REVERT JUMPDEST PUSH0 PUSH2 0x17A3 DUP3 PUSH2 0x153D JUMP JUMPDEST SWAP2 POP PUSH2 0x17AE DUP4 PUSH2 0x153D JUMP JUMPDEST SWAP3 POP DUP3 DUP3 SUB SWAP1 POP DUP2 DUP2 GT ISZERO PUSH2 0x17C6 JUMPI PUSH2 0x17C5 PUSH2 0x176C JUMP JUMPDEST JUMPDEST SWAP3 SWAP2 POP POP JUMP JUMPDEST PUSH32 0x4E487B7100000000000000000000000000000000000000000000000000000000 PUSH0 MSTORE PUSH1 0x32 PUSH1 0x4 MSTORE PUSH1 0x24 PUSH0 REVERT JUMPDEST PUSH32 0x4E487B7100000000000000000000000000000000000000000000000000000000 PUSH0 MSTORE PUSH1 0x12 PUSH1 0x4 MSTORE PUSH1 0x24 PUSH0 REVERT JUMPDEST PUSH0 PUSH2 0x1830 DUP3 PUSH2 0x153D JUMP JUMPDEST SWAP2 POP PUSH2 0x183B DUP4 PUSH2 0x153D JUMP JUMPDEST SWAP3 POP DUP3 PUSH2 0x184B JUMPI PUSH2 0x184A PUSH2 0x17F9 JUMP JUMPDEST JUMPDEST DUP3 DUP3 DIV SWAP1 POP SWAP3 SWAP2 POP POP JUMP JUMPDEST PUSH0 PUSH2 0x1860 DUP3 PUSH2 0x153D JUMP JUMPDEST SWAP2 POP PUSH2 0x186B DUP4 PUSH2 0x153D JUMP JUMPDEST SWAP3 POP DUP3 DUP3 ADD SWAP1 POP DUP1 DUP3 GT ISZERO PUSH2 0x1883 JUMPI PUSH2 0x1882 PUSH2 0x176C JUMP JUMPDEST JUMPDEST SWAP3 SWAP2 POP POP JUMP JUMPDEST PUSH0 PUSH2 0x1893 DUP3 PUSH2 0x153D JUMP JUMPDEST SWAP2 POP PUSH32 0xFFFFFFFFFFFFFFFFFFFFFFFFFFFFFFFFFFFFFFFFFFFFFFFFFFFFFFFFFFFFFFFF DUP3 SUB PUSH2 0x18C5 JUMPI PUSH2 0x18C4 PUSH2 0x176C JUMP JUMPDEST JUMPDEST PUSH1 0x1 DUP3 ADD SWAP1 POP SWAP2 SWAP1 POP JUMP JUMPDEST PUSH0 DUP2 SWAP1 POP SWAP2 SWAP1 POP JUMP JUMPDEST PUSH2 0x18EA PUSH2 0x18E5 DUP3 PUSH2 0x162A JUMP JUMPDEST PUSH2 0x18D0 JUMP JUMPDEST DUP3 MSTORE POP POP JUMP JUMPDEST PUSH0 PUSH2 0x18FB DUP3 DUP5 PUSH2 0x18D9 JUMP JUMPDEST PUSH1 0x20 DUP3 ADD SWAP2 POP DUP2 SWAP1 POP SWAP3 SWAP2 POP POP JUMP JUMPDEST PUSH0 PUSH1 0x40 DUP3 ADD SWAP1 POP PUSH2 0x191D PUSH0 DUP4 ADD DUP6 PUSH2 0x1688 JUMP JUMPDEST PUSH2 0x192A PUSH1 0x20 DUP4 ADD DUP5 PUSH2 0x1705 JUMP JUMPDEST SWAP4 SWAP3 POP POP POP JUMP JUMPDEST PUSH0 PUSH32 0xFF00000000000000000000000000000000000000000000000000000000000000 DUP3 AND SWAP1 POP SWAP2 SWAP1 POP JUMP JUMPDEST PUSH2 0x1965 DUP2 PUSH2 0x1931 JUMP JUMPDEST DUP2 EQ PUSH2 0x196F JUMPI PUSH0 DUP1 REVERT JUMPDEST POP JUMP JUMPDEST PUSH0 DUP2 MLOAD SWAP1 POP PUSH2 0x1980 DUP2 PUSH2 0x195C JUMP JUMPDEST SWAP3 SWAP2 POP POP JUMP JUMPDEST PUSH0 PUSH1 0x20 DUP3 DUP5 SUB SLT ISZERO PUSH2 0x199B JUMPI PUSH2 0x199A PUSH2 0x156E JUMP JUMPDEST JUMPDEST PUSH0 PUSH2 0x19A8 DUP5 DUP3 DUP6 ADD PUSH2 0x1972 JUMP JUMPDEST SWAP2 POP POP SWAP3 SWAP2 POP POP JUMP JUMPDEST PUSH0 PUSH2 0x19BB DUP3 PUSH2 0x153D JUMP JUMPDEST SWAP2 POP PUSH2 0x19C6 DUP4 PUSH2 0x153D JUMP JUMPDEST SWAP3 POP DUP3 PUSH2 0x19D6 JUMPI PUSH2 0x19D5 PUSH2 0x17F9 JUMP JUMPDEST JUMPDEST DUP3 DUP3 MOD SWAP1 POP SWAP3 SWAP2 POP POP JUMP INVALID LOG2 PUSH5 0x6970667358 0x22 SLT KECCAK256 SWAP10 0xAF GASLIMIT 0x23 0xC3 0xE9 0xF9 CALL DUP6 SMOD 0xE6 0xAA DUP13 0xEB SWAP5 DUP3 DIV 0x25 SWAP8 0xD3 PC PUSH10 0x733922A923EF7D5DD2A9 PUSH5 0x736F6C6343 STOP ADDMOD BYTE STOP CALLER PUSH1 0x80 PUSH1 0x40 MSTORE CALLVALUE DUP1 ISZERO PUSH1 0xE JUMPI PUSH0 DUP1 REVERT JUMPDEST POP PUSH2 0x215 DUP1 PUSH2 0x1C PUSH0 CODECOPY PUSH0 RETURN INVALID PUSH1 0x80 PUSH1 0x40 MSTORE CALLVALUE DUP1 ISZERO PUSH2 0xF JUMPI PUSH0 DUP1 REVERT JUMPDEST POP PUSH1 0x4 CALLDATASIZE LT PUSH2 0x4A JUMPI PUSH0 CALLDATALOAD PUSH1 0xE0 SHR DUP1 PUSH4 0x78E97925 EQ PUSH2 0x4E JUMPI DUP1 PUSH4 0xA63F7C53 EQ PUSH2 0x6C JUMPI DUP1 PUSH4 0xBC06B8CD EQ PUSH2 0x76 JUMPI DUP1 PUSH4 0xD97C8416 EQ PUSH2 0x94 JUMPI JUMPDEST PUSH0 DUP1 REVERT JUMPDEST PUSH2 0x56 PUSH2 0xB2 JUMP JUMPDEST PUSH1 0x40 MLOAD PUSH2 0x63 SWAP2 SWAP1 PUSH2 0x109 JUMP JUMPDEST PUSH1 0x40 MLOAD DUP1 SWAP2 SUB SWAP1 RETURN JUMPDEST PUSH2 0x74 PUSH2 0xB7 JUMP JUMPDEST STOP JUMPDEST PUSH2 0x7E PUSH2 0xBF JUMP JUMPDEST PUSH1 0x40 MLOAD PUSH2 0x8B SWAP2 SWAP1 PUSH2 0x109 JUMP JUMPDEST PUSH1 0x40 MLOAD DUP1 SWAP2 SUB SWAP1 RETURN JUMPDEST PUSH2 0x9C PUSH2 0xD2 JUMP JUMPDEST PUSH1 0x40 MLOAD PUSH2 0xA9 SWAP2 SWAP1 PUSH2 0x109 JUMP JUMPDEST PUSH1 0x40 MLOAD DUP1 SWAP2 SUB SWAP1 RETURN JUMPDEST PUSH0 SLOAD DUP2 JUMP JUMPDEST TIMESTAMP PUSH0 DUP2 SWAP1 SSTORE POP JUMP JUMPDEST PUSH0 DUP1 SLOAD TIMESTAMP PUSH2 0xCD SWAP2 SWAP1 PUSH2 0x14F JUMP JUMPDEST SWAP1 POP SWAP1 JUMP JUMPDEST PUSH0 PUSH1 0x3C PUSH0 SLOAD TIMESTAMP PUSH2 0xE2 SWAP2 SWAP1 PUSH2 0x14F JUMP JUMPDEST PUSH2 0xEC SWAP2 SWAP1 PUSH2 0x1AF JUMP JUMPDEST SWAP1 POP SWAP1 JUMP JUMPDEST PUSH0 DUP2 SWAP1 POP SWAP2 SWAP1 POP JUMP JUMPDEST PUSH2 0x103 DUP2 PUSH2 0xF1 JUMP JUMPDEST DUP3 MSTORE POP POP JUMP JUMPDEST PUSH0 PUSH1 0x20 DUP3 ADD SWAP1 POP PUSH2 0x11C PUSH0 DUP4 ADD DUP5 PUSH2 0xFA JUMP JUMPDEST SWAP3 SWAP2 POP POP JUMP JUMPDEST PUSH32 0x4E487B7100000000000000000000000000000000000000000000000000000000 PUSH0 MSTORE PUSH1 0x11 PUSH1 0x4 MSTORE PUSH1 0x24 PUSH0 REVERT JUMPDEST PUSH0 PUSH2 0x159 DUP3 PUSH2 0xF1 JUMP JUMPDEST SWAP2 POP PUSH2 0x164 DUP4 PUSH2 0xF1 JUMP JUMPDEST SWAP3 POP DUP3 DUP3 SUB SWAP1 POP DUP2 DUP2 GT ISZERO PUSH2 0x17C JUMPI PUSH2 0x17B PUSH2 0x122 JUMP JUMPDEST JUMPDEST SWAP3 SWAP2 POP POP JUMP JUMPDEST PUSH32 0x4E487B7100000000000000000000000000000000000000000000000000000000 PUSH0 MSTORE PUSH1 0x12 PUSH1 0x4 MSTORE PUSH1 0x24 PUSH0 REVERT JUMPDEST PUSH0 PUSH2 0x1B9 DUP3 PUSH2 0xF1 JUMP JUMPDEST SWAP2 POP PUSH2 0x1C4 DUP4 PUSH2 0xF1 JUMP JUMPDEST SWAP3 POP DUP3 PUSH2 0x1D4 JUMPI PUSH2 0x1D3 PUSH2 0x182 JUMP JUMPDEST JUMPDEST DUP3 DUP3 DIV SWAP1 POP SWAP3 SWAP2 POP POP JUMP INVALID LOG2 PUSH5 0x6970667358 0x22 SLT KECCAK256 0xAA 0xC7 BALANCE 0xC6 MLOAD LOG4 LT SWAP2 0xE7 DUP13 0x4C PUSH9 0xCA2CDE2E708EC23868 0xC1 0xBB 0xF8 SWAP8 SWAP4 NOT 0xBB CREATE 0xB1 0xF7 0xC1 PUSH5 0x736F6C6343 STOP ADDMOD BYTE STOP CALLER PUSH1 0x80 PUSH1 0x40 MSTORE PUSH1 0x64 PUSH0 DUP1 PUSH2 0x100 EXP DUP2 SLOAD DUP2 PUSH1 0xFF MUL NOT AND SWAP1 DUP4 PUSH1 0xFF AND MUL OR SWAP1 SSTORE POP CALLVALUE DUP1 ISZERO PUSH1 0x28 JUMPI PUSH0 DUP1 REVERT JUMPDEST POP PUSH2 0x12EE DUP1 PUSH2 0x36 PUSH0 CODECOPY PUSH0 RETURN INVALID PUSH1 0x80 PUSH1 0x40 MSTORE CALLVALUE DUP1 ISZERO PUSH2 0xF JUMPI PUSH0 DUP1 REVERT JUMPDEST POP PUSH1 0x4 CALLDATASIZE LT PUSH2 0x91 JUMPI PUSH0 CALLDATALOAD PUSH1 0xE0 SHR DUP1 PUSH4 0x6AC5DB19 GT PUSH2 0x64 JUMPI DUP1 PUSH4 0x6AC5DB19 EQ PUSH2 0x141 JUMPI DUP1 PUSH4 0x74C3D32B EQ PUSH2 0x15F JUMPI DUP1 PUSH4 0x7B43A8E6 EQ PUSH2 0x17D JUMPI DUP1 PUSH4 0x8D25AF04 EQ PUSH2 0x1AF JUMPI DUP1 PUSH4 0xAD487790 EQ PUSH2 0x1B9 JUMPI PUSH2 0x91 JUMP JUMPDEST DUP1 PUSH4 0xAFB372B EQ PUSH2 0x95 JUMPI DUP1 PUSH4 0x2379CA4C EQ PUSH2 0xC5 JUMPI DUP1 PUSH4 0x3CF5040A EQ PUSH2 0xF5 JUMPI DUP1 PUSH4 0x5A746101 EQ PUSH2 0x125 JUMPI JUMPDEST PUSH0 DUP1 REVERT JUMPDEST PUSH2 0xAF PUSH1 0x4 DUP1 CALLDATASIZE SUB DUP2 ADD SWAP1 PUSH2 0xAA SWAP2 SWAP1 PUSH2 0xB12 JUMP JUMPDEST PUSH2 0x1D5 JUMP JUMPDEST PUSH1 0x40 MLOAD PUSH2 0xBC SWAP2 SWAP1 PUSH2 0xBAD JUMP JUMPDEST PUSH1 0x40 MLOAD DUP1 SWAP2 SUB SWAP1 RETURN JUMPDEST PUSH2 0xDF PUSH1 0x4 DUP1 CALLDATASIZE SUB DUP2 ADD SWAP1 PUSH2 0xDA SWAP2 SWAP1 PUSH2 0xC00 JUMP JUMPDEST PUSH2 0x27B JUMP JUMPDEST PUSH1 0x40 MLOAD PUSH2 0xEC SWAP2 SWAP1 PUSH2 0xC65 JUMP JUMPDEST PUSH1 0x40 MLOAD DUP1 SWAP2 SUB SWAP1 RETURN JUMPDEST PUSH2 0x10F PUSH1 0x4 DUP1 CALLDATASIZE SUB DUP2 ADD SWAP1 PUSH2 0x10A SWAP2 SWAP1 PUSH2 0xC00 JUMP JUMPDEST PUSH2 0x29B JUMP JUMPDEST PUSH1 0x40 MLOAD PUSH2 0x11C SWAP2 SWAP1 PUSH2 0xC8D JUMP JUMPDEST PUSH1 0x40 MLOAD DUP1 SWAP2 SUB SWAP1 RETURN JUMPDEST PUSH2 0x13F PUSH1 0x4 DUP1 CALLDATASIZE SUB DUP2 ADD SWAP1 PUSH2 0x13A SWAP2 SWAP1 PUSH2 0xD00 JUMP JUMPDEST PUSH2 0x2CA JUMP JUMPDEST STOP JUMPDEST PUSH2 0x149 PUSH2 0x49D JUMP JUMPDEST PUSH1 0x40 MLOAD PUSH2 0x156 SWAP2 SWAP1 PUSH2 0xD59 JUMP JUMPDEST PUSH1 0x40 MLOAD DUP1 SWAP2 SUB SWAP1 RETURN JUMPDEST PUSH2 0x167 PUSH2 0x4AD JUMP JUMPDEST PUSH1 0x40 MLOAD PUSH2 0x174 SWAP2 SWAP1 PUSH2 0xC8D JUMP JUMPDEST PUSH1 0x40 MLOAD DUP1 SWAP2 SUB SWAP1 RETURN JUMPDEST PUSH2 0x197 PUSH1 0x4 DUP1 CALLDATASIZE SUB DUP2 ADD SWAP1 PUSH2 0x192 SWAP2 SWAP1 PUSH2 0xD72 JUMP JUMPDEST PUSH2 0x4B3 JUMP JUMPDEST PUSH1 0x40 MLOAD PUSH2 0x1A6 SWAP4 SWAP3 SWAP2 SWAP1 PUSH2 0xDD9 JUMP JUMPDEST PUSH1 0x40 MLOAD DUP1 SWAP2 SUB SWAP1 RETURN JUMPDEST PUSH2 0x1B7 PUSH2 0x4F9 JUMP JUMPDEST STOP JUMPDEST PUSH2 0x1D3 PUSH1 0x4 DUP1 CALLDATASIZE SUB DUP2 ADD SWAP1 PUSH2 0x1CE SWAP2 SWAP1 PUSH2 0xD00 JUMP JUMPDEST PUSH2 0x71B JUMP JUMPDEST STOP JUMPDEST PUSH1 0x2 DUP2 DUP2 SLOAD DUP2 LT PUSH2 0x1E4 JUMPI PUSH0 DUP1 REVERT JUMPDEST SWAP1 PUSH0 MSTORE PUSH1 0x20 PUSH0 KECCAK256 ADD PUSH0 SWAP2 POP SWAP1 POP DUP1 SLOAD PUSH2 0x1FC SWAP1 PUSH2 0xE3B JUMP JUMPDEST DUP1 PUSH1 0x1F ADD PUSH1 0x20 DUP1 SWAP2 DIV MUL PUSH1 0x20 ADD PUSH1 0x40 MLOAD SWAP1 DUP2 ADD PUSH1 0x40 MSTORE DUP1 SWAP3 SWAP2 SWAP1 DUP2 DUP2 MSTORE PUSH1 0x20 ADD DUP3 DUP1 SLOAD PUSH2 0x228 SWAP1 PUSH2 0xE3B JUMP JUMPDEST DUP1 ISZERO PUSH2 0x273 JUMPI DUP1 PUSH1 0x1F LT PUSH2 0x24A JUMPI PUSH2 0x100 DUP1 DUP4 SLOAD DIV MUL DUP4 MSTORE SWAP2 PUSH1 0x20 ADD SWAP2 PUSH2 0x273 JUMP JUMPDEST DUP3 ADD SWAP2 SWAP1 PUSH0 MSTORE PUSH1 0x20 PUSH0 KECCAK256 SWAP1 JUMPDEST DUP2 SLOAD DUP2 MSTORE SWAP1 PUSH1 0x1 ADD SWAP1 PUSH1 0x20 ADD DUP1 DUP4 GT PUSH2 0x256 JUMPI DUP3 SWAP1 SUB PUSH1 0x1F AND DUP3 ADD SWAP2 JUMPDEST POP POP POP POP POP DUP2 JUMP JUMPDEST PUSH0 DUP2 PUSH1 0x1F PUSH1 0x20 DUP2 LT PUSH2 0x290 JUMPI PUSH2 0x28F PUSH2 0xE6B JUMP JUMPDEST JUMPDEST BYTE PUSH1 0xF8 SHL SWAP1 POP SWAP2 SWAP1 POP JUMP JUMPDEST PUSH0 DUP2 PUSH1 0x40 MLOAD PUSH1 0x20 ADD PUSH2 0x2AD SWAP2 SWAP1 PUSH2 0xEB8 JUMP JUMPDEST PUSH1 0x40 MLOAD PUSH1 0x20 DUP2 DUP4 SUB SUB DUP2 MSTORE SWAP1 PUSH1 0x40 MSTORE DUP1 MLOAD SWAP1 PUSH1 0x20 ADD KECCAK256 SWAP1 POP SWAP2 SWAP1 POP JUMP JUMPDEST DUP2 PUSH1 0x3 PUSH0 DUP4 PUSH20 0xFFFFFFFFFFFFFFFFFFFFFFFFFFFFFFFFFFFFFFFF AND PUSH20 0xFFFFFFFFFFFFFFFFFFFFFFFFFFFFFFFFFFFFFFFF AND DUP2 MSTORE PUSH1 0x20 ADD SWAP1 DUP2 MSTORE PUSH1 0x20 ADD PUSH0 KECCAK256 PUSH0 ADD DUP2 SWAP1 SSTORE POP NUMBER PUSH1 0x3 PUSH0 DUP4 PUSH20 0xFFFFFFFFFFFFFFFFFFFFFFFFFFFFFFFFFFFFFFFF AND PUSH20 0xFFFFFFFFFFFFFFFFFFFFFFFFFFFFFFFFFFFFFFFF AND DUP2 MSTORE PUSH1 0x20 ADD SWAP1 DUP2 MSTORE PUSH1 0x20 ADD PUSH0 KECCAK256 PUSH1 0x1 ADD PUSH0 PUSH2 0x100 EXP DUP2 SLOAD DUP2 PUSH8 0xFFFFFFFFFFFFFFFF MUL NOT AND SWAP1 DUP4 PUSH8 0xFFFFFFFFFFFFFFFF AND MUL OR SWAP1 SSTORE POP PUSH0 PUSH1 0x3 PUSH0 DUP4 PUSH20 0xFFFFFFFFFFFFFFFFFFFFFFFFFFFFFFFFFFFFFFFF AND PUSH20 0xFFFFFFFFFFFFFFFFFFFFFFFFFFFFFFFFFFFFFFFF AND DUP2 MSTORE PUSH1 0x20 ADD SWAP1 DUP2 MSTORE PUSH1 0x20 ADD PUSH0 KECCAK256 PUSH1 0x1 ADD PUSH1 0x8 PUSH2 0x100 EXP DUP2 SLOAD DUP2 PUSH1 0xFF MUL NOT AND SWAP1 DUP4 ISZERO ISZERO MUL OR SWAP1 SSTORE POP PUSH32 0x3C1A1F8F38335B17F751C6DA4BA7D1865F26B3997535176F5080DE9FAD891603 DUP2 PUSH1 0x3 PUSH0 DUP5 PUSH20 0xFFFFFFFFFFFFFFFFFFFFFFFFFFFFFFFFFFFFFFFF AND PUSH20 0xFFFFFFFFFFFFFFFFFFFFFFFFFFFFFFFFFFFFFFFF AND DUP2 MSTORE PUSH1 0x20 ADD SWAP1 DUP2 MSTORE PUSH1 0x20 ADD PUSH0 KECCAK256 PUSH0 ADD SLOAD PUSH1 0x3 PUSH0 DUP6 PUSH20 0xFFFFFFFFFFFFFFFFFFFFFFFFFFFFFFFFFFFFFFFF AND PUSH20 0xFFFFFFFFFFFFFFFFFFFFFFFFFFFFFFFFFFFFFFFF AND DUP2 MSTORE PUSH1 0x20 ADD SWAP1 DUP2 MSTORE PUSH1 0x20 ADD PUSH0 KECCAK256 PUSH1 0x1 ADD PUSH0 SWAP1 SLOAD SWAP1 PUSH2 0x100 EXP SWAP1 DIV PUSH8 0xFFFFFFFFFFFFFFFF AND PUSH1 0x40 MLOAD PUSH2 0x491 SWAP4 SWAP3 SWAP2 SWAP1 PUSH2 0xEE1 JUMP JUMPDEST PUSH1 0x40 MLOAD DUP1 SWAP2 SUB SWAP1 LOG1 POP POP JUMP JUMPDEST PUSH0 DUP1 SLOAD SWAP1 PUSH2 0x100 EXP SWAP1 DIV PUSH1 0xFF AND DUP2 JUMP JUMPDEST PUSH1 0x1 SLOAD DUP2 JUMP JUMPDEST PUSH1 0x3 PUSH1 0x20 MSTORE DUP1 PUSH0 MSTORE PUSH1 0x40 PUSH0 KECCAK256 PUSH0 SWAP2 POP SWAP1 POP DUP1 PUSH0 ADD SLOAD SWAP1 DUP1 PUSH1 0x1 ADD PUSH0 SWAP1 SLOAD SWAP1 PUSH2 0x100 EXP SWAP1 DIV PUSH8 0xFFFFFFFFFFFFFFFF AND SWAP1 DUP1 PUSH1 0x1 ADD PUSH1 0x8 SWAP1 SLOAD SWAP1 PUSH2 0x100 EXP SWAP1 DIV PUSH1 0xFF AND SWAP1 POP DUP4 JUMP JUMPDEST PUSH1 0x3 PUSH0 PUSH20 0x5B38DA6A701C568545DCFCB03FCB875F56BEDDC4 PUSH20 0xFFFFFFFFFFFFFFFFFFFFFFFFFFFFFFFFFFFFFFFF AND PUSH20 0xFFFFFFFFFFFFFFFFFFFFFFFFFFFFFFFFFFFFFFFF AND DUP2 MSTORE PUSH1 0x20 ADD SWAP1 DUP2 MSTORE PUSH1 0x20 ADD PUSH0 KECCAK256 PUSH0 DUP1 DUP3 ADD PUSH0 SWAP1 SSTORE PUSH1 0x1 DUP3 ADD PUSH0 PUSH2 0x100 EXP DUP2 SLOAD SWAP1 PUSH8 0xFFFFFFFFFFFFFFFF MUL NOT AND SWAP1 SSTORE PUSH1 0x1 DUP3 ADD PUSH1 0x8 PUSH2 0x100 EXP DUP2 SLOAD SWAP1 PUSH1 0xFF MUL NOT AND SWAP1 SSTORE POP POP PUSH1 0x3 PUSH0 PUSH20 0xAB8483F64D9C6D1ECF9B849AE677DD3315835CB2 PUSH20 0xFFFFFFFFFFFFFFFFFFFFFFFFFFFFFFFFFFFFFFFF AND PUSH20 0xFFFFFFFFFFFFFFFFFFFFFFFFFFFFFFFFFFFFFFFF AND DUP2 MSTORE PUSH1 0x20 ADD SWAP1 DUP2 MSTORE PUSH1 0x20 ADD PUSH0 KECCAK256 PUSH0 DUP1 DUP3 ADD PUSH0 SWAP1 SSTORE PUSH1 0x1 DUP3 ADD PUSH0 PUSH2 0x100 EXP DUP2 SLOAD SWAP1 PUSH8 0xFFFFFFFFFFFFFFFF MUL NOT AND SWAP1 SSTORE PUSH1 0x1 DUP3 ADD PUSH1 0x8 PUSH2 0x100 EXP DUP2 SLOAD SWAP1 PUSH1 0xFF MUL NOT AND SWAP1 SSTORE POP POP PUSH1 0x3 PUSH0 PUSH20 0x4B20993BC481177EC7E8F571CECAE8A9E22C02DB PUSH20 0xFFFFFFFFFFFFFFFFFFFFFFFFFFFFFFFFFFFFFFFF AND PUSH20 0xFFFFFFFFFFFFFFFFFFFFFFFFFFFFFFFFFFFFFFFF AND DUP2 MSTORE PUSH1 0x20 ADD SWAP1 DUP2 MSTORE PUSH1 0x20 ADD PUSH0 KECCAK256 PUSH0 DUP1 DUP3 ADD PUSH0 SWAP1 SSTORE PUSH1 0x1 DUP3 ADD PUSH0 PUSH2 0x100 EXP DUP2 SLOAD SWAP1 PUSH8 0xFFFFFFFFFFFFFFFF MUL NOT AND SWAP1 SSTORE PUSH1 0x1 DUP3 ADD PUSH1 0x8 PUSH2 0x100 EXP DUP2 SLOAD SWAP1 PUSH1 0xFF MUL NOT AND SWAP1 SSTORE POP POP PUSH1 0x3 PUSH0 PUSH20 0x78731D3CA6B7E34AC0F824C42A7CC18A495CABAB PUSH20 0xFFFFFFFFFFFFFFFFFFFFFFFFFFFFFFFFFFFFFFFF AND PUSH20 0xFFFFFFFFFFFFFFFFFFFFFFFFFFFFFFFFFFFFFFFF AND DUP2 MSTORE PUSH1 0x20 ADD SWAP1 DUP2 MSTORE PUSH1 0x20 ADD PUSH0 KECCAK256 PUSH0 DUP1 DUP3 ADD PUSH0 SWAP1 SSTORE PUSH1 0x1 DUP3 ADD PUSH0 PUSH2 0x100 EXP DUP2 SLOAD SWAP1 PUSH8 0xFFFFFFFFFFFFFFFF MUL NOT AND SWAP1 SSTORE PUSH1 0x1 DUP3 ADD PUSH1 0x8 PUSH2 0x100 EXP DUP2 SLOAD SWAP1 PUSH1 0xFF MUL NOT AND SWAP1 SSTORE POP POP JUMP JUMPDEST PUSH0 ISZERO ISZERO PUSH1 0x3 PUSH0 DUP4 PUSH20 0xFFFFFFFFFFFFFFFFFFFFFFFFFFFFFFFFFFFFFFFF AND PUSH20 0xFFFFFFFFFFFFFFFFFFFFFFFFFFFFFFFFFFFFFFFF AND DUP2 MSTORE PUSH1 0x20 ADD SWAP1 DUP2 MSTORE PUSH1 0x20 ADD PUSH0 KECCAK256 PUSH1 0x1 ADD PUSH1 0x8 SWAP1 SLOAD SWAP1 PUSH2 0x100 EXP SWAP1 DIV PUSH1 0xFF AND ISZERO ISZERO EQ PUSH2 0x7AE JUMPI PUSH1 0x40 MLOAD PUSH32 0x8C379A000000000000000000000000000000000000000000000000000000000 DUP2 MSTORE PUSH1 0x4 ADD PUSH2 0x7A5 SWAP1 PUSH2 0xF96 JUMP JUMPDEST PUSH1 0x40 MLOAD DUP1 SWAP2 SUB SWAP1 REVERT JUMPDEST PUSH1 0x1 PUSH1 0x3 PUSH0 DUP4 PUSH20 0xFFFFFFFFFFFFFFFFFFFFFFFFFFFFFFFFFFFFFFFF AND PUSH20 0xFFFFFFFFFFFFFFFFFFFFFFFFFFFFFFFFFFFFFFFF AND DUP2 MSTORE PUSH1 0x20 ADD SWAP1 DUP2 MSTORE PUSH1 0x20 ADD PUSH0 KECCAK256 PUSH1 0x1 ADD PUSH1 0x8 PUSH2 0x100 EXP DUP2 SLOAD DUP2 PUSH1 0xFF MUL NOT AND SWAP1 DUP4 ISZERO ISZERO MUL OR SWAP1 SSTORE POP PUSH1 0x3 PUSH0 DUP3 PUSH20 0xFFFFFFFFFFFFFFFFFFFFFFFFFFFFFFFFFFFFFFFF AND PUSH20 0xFFFFFFFFFFFFFFFFFFFFFFFFFFFFFFFFFFFFFFFF AND DUP2 MSTORE PUSH1 0x20 ADD SWAP1 DUP2 MSTORE PUSH1 0x20 ADD PUSH0 KECCAK256 PUSH0 ADD SLOAD PUSH2 0x850 DUP4 PUSH2 0x29B JUMP JUMPDEST EQ PUSH2 0x890 JUMPI PUSH1 0x40 MLOAD PUSH32 0x8C379A000000000000000000000000000000000000000000000000000000000 DUP2 MSTORE PUSH1 0x4 ADD PUSH2 0x887 SWAP1 PUSH2 0x1024 JUMP JUMPDEST PUSH1 0x40 MLOAD DUP1 SWAP2 SUB SWAP1 REVERT JUMPDEST PUSH1 0x3 PUSH0 DUP3 PUSH20 0xFFFFFFFFFFFFFFFFFFFFFFFFFFFFFFFFFFFFFFFF AND PUSH20 0xFFFFFFFFFFFFFFFFFFFFFFFFFFFFFFFFFFFFFFFF AND DUP2 MSTORE PUSH1 0x20 ADD SWAP1 DUP2 MSTORE PUSH1 0x20 ADD PUSH0 KECCAK256 PUSH1 0x1 ADD PUSH0 SWAP1 SLOAD SWAP1 PUSH2 0x100 EXP SWAP1 DIV PUSH8 0xFFFFFFFFFFFFFFFF AND PUSH8 0xFFFFFFFFFFFFFFFF AND NUMBER PUSH8 0xFFFFFFFFFFFFFFFF AND GT PUSH2 0x939 JUMPI PUSH1 0x40 MLOAD PUSH32 0x8C379A000000000000000000000000000000000000000000000000000000000 DUP2 MSTORE PUSH1 0x4 ADD PUSH2 0x930 SWAP1 PUSH2 0x10D8 JUMP JUMPDEST PUSH1 0x40 MLOAD DUP1 SWAP2 SUB SWAP1 REVERT JUMPDEST PUSH1 0xFA PUSH1 0x3 PUSH0 DUP4 PUSH20 0xFFFFFFFFFFFFFFFFFFFFFFFFFFFFFFFFFFFFFFFF AND PUSH20 0xFFFFFFFFFFFFFFFFFFFFFFFFFFFFFFFFFFFFFFFF AND DUP2 MSTORE PUSH1 0x20 ADD SWAP1 DUP2 MSTORE PUSH1 0x20 ADD PUSH0 KECCAK256 PUSH1 0x1 ADD PUSH0 SWAP1 SLOAD SWAP1 PUSH2 0x100 EXP SWAP1 DIV PUSH8 0xFFFFFFFFFFFFFFFF AND PUSH2 0x999 SWAP2 SWAP1 PUSH2 0x1123 JUMP JUMPDEST PUSH8 0xFFFFFFFFFFFFFFFF AND NUMBER PUSH8 0xFFFFFFFFFFFFFFFF AND GT ISZERO PUSH2 0x9EF JUMPI PUSH1 0x40 MLOAD PUSH32 0x8C379A000000000000000000000000000000000000000000000000000000000 DUP2 MSTORE PUSH1 0x4 ADD PUSH2 0x9E6 SWAP1 PUSH2 0x11CE JUMP JUMPDEST PUSH1 0x40 MLOAD DUP1 SWAP2 SUB SWAP1 REVERT JUMPDEST PUSH0 PUSH1 0x3 PUSH0 DUP4 PUSH20 0xFFFFFFFFFFFFFFFFFFFFFFFFFFFFFFFFFFFFFFFF AND PUSH20 0xFFFFFFFFFFFFFFFFFFFFFFFFFFFFFFFFFFFFFFFF AND DUP2 MSTORE PUSH1 0x20 ADD SWAP1 DUP2 MSTORE PUSH1 0x20 ADD PUSH0 KECCAK256 PUSH1 0x1 ADD PUSH0 SWAP1 SLOAD SWAP1 PUSH2 0x100 EXP SWAP1 DIV PUSH8 0xFFFFFFFFFFFFFFFF AND PUSH8 0xFFFFFFFFFFFFFFFF AND BLOCKHASH SWAP1 POP PUSH0 DUP1 PUSH0 SWAP1 SLOAD SWAP1 PUSH2 0x100 EXP SWAP1 DIV PUSH1 0xFF AND PUSH1 0xFF AND DUP3 DUP6 PUSH1 0x40 MLOAD PUSH1 0x20 ADD PUSH2 0xA76 SWAP3 SWAP2 SWAP1 PUSH2 0x11EC JUMP JUMPDEST PUSH1 0x40 MLOAD PUSH1 0x20 DUP2 DUP4 SUB SUB DUP2 MSTORE SWAP1 PUSH1 0x40 MSTORE DUP1 MLOAD SWAP1 PUSH1 0x20 ADD KECCAK256 PUSH0 SHR PUSH2 0xA98 SWAP2 SWAP1 PUSH2 0x1244 JUMP JUMPDEST SWAP1 POP PUSH32 0xBC016DD1CADEAEFCB851AF7A0A93532E0023D536894B730801F7BCFE7065BCC2 DUP4 DUP6 DUP4 PUSH1 0x40 MLOAD PUSH2 0xACD SWAP4 SWAP3 SWAP2 SWAP1 PUSH2 0x1283 JUMP JUMPDEST PUSH1 0x40 MLOAD DUP1 SWAP2 SUB SWAP1 LOG1 POP POP POP POP JUMP JUMPDEST PUSH0 DUP1 REVERT JUMPDEST PUSH0 DUP2 SWAP1 POP SWAP2 SWAP1 POP JUMP JUMPDEST PUSH2 0xAF1 DUP2 PUSH2 0xADF JUMP JUMPDEST DUP2 EQ PUSH2 0xAFB JUMPI PUSH0 DUP1 REVERT JUMPDEST POP JUMP JUMPDEST PUSH0 DUP2 CALLDATALOAD SWAP1 POP PUSH2 0xB0C DUP2 PUSH2 0xAE8 JUMP JUMPDEST SWAP3 SWAP2 POP POP JUMP JUMPDEST PUSH0 PUSH1 0x20 DUP3 DUP5 SUB SLT ISZERO PUSH2 0xB27 JUMPI PUSH2 0xB26 PUSH2 0xADB JUMP JUMPDEST JUMPDEST PUSH0 PUSH2 0xB34 DUP5 DUP3 DUP6 ADD PUSH2 0xAFE JUMP JUMPDEST SWAP2 POP POP SWAP3 SWAP2 POP POP JUMP JUMPDEST PUSH0 DUP2 MLOAD SWAP1 POP SWAP2 SWAP1 POP JUMP JUMPDEST PUSH0 DUP3 DUP3 MSTORE PUSH1 0x20 DUP3 ADD SWAP1 POP SWAP3 SWAP2 POP POP JUMP JUMPDEST DUP3 DUP2 DUP4 MCOPY PUSH0 DUP4 DUP4 ADD MSTORE POP POP POP JUMP JUMPDEST PUSH0 PUSH1 0x1F NOT PUSH1 0x1F DUP4 ADD AND SWAP1 POP SWAP2 SWAP1 POP JUMP JUMPDEST PUSH0 PUSH2 0xB7F DUP3 PUSH2 0xB3D JUMP JUMPDEST PUSH2 0xB89 DUP2 DUP6 PUSH2 0xB47 JUMP JUMPDEST SWAP4 POP PUSH2 0xB99 DUP2 DUP6 PUSH1 0x20 DUP7 ADD PUSH2 0xB57 JUMP JUMPDEST PUSH2 0xBA2 DUP2 PUSH2 0xB65 JUMP JUMPDEST DUP5 ADD SWAP2 POP POP SWAP3 SWAP2 POP POP JUMP JUMPDEST PUSH0 PUSH1 0x20 DUP3 ADD SWAP1 POP DUP2 DUP2 SUB PUSH0 DUP4 ADD MSTORE PUSH2 0xBC5 DUP2 DUP5 PUSH2 0xB75 JUMP JUMPDEST SWAP1 POP SWAP3 SWAP2 POP POP JUMP JUMPDEST PUSH0 DUP2 SWAP1 POP SWAP2 SWAP1 POP JUMP JUMPDEST PUSH2 0xBDF DUP2 PUSH2 0xBCD JUMP JUMPDEST DUP2 EQ PUSH2 0xBE9 JUMPI PUSH0 DUP1 REVERT JUMPDEST POP JUMP JUMPDEST PUSH0 DUP2 CALLDATALOAD SWAP1 POP PUSH2 0xBFA DUP2 PUSH2 0xBD6 JUMP JUMPDEST SWAP3 SWAP2 POP POP JUMP JUMPDEST PUSH0 PUSH1 0x20 DUP3 DUP5 SUB SLT ISZERO PUSH2 0xC15 JUMPI PUSH2 0xC14 PUSH2 0xADB JUMP JUMPDEST JUMPDEST PUSH0 PUSH2 0xC22 DUP5 DUP3 DUP6 ADD PUSH2 0xBEC JUMP JUMPDEST SWAP2 POP POP SWAP3 SWAP2 POP POP JUMP JUMPDEST PUSH0 PUSH32 0xFF00000000000000000000000000000000000000000000000000000000000000 DUP3 AND SWAP1 POP SWAP2 SWAP1 POP JUMP JUMPDEST PUSH2 0xC5F DUP2 PUSH2 0xC2B JUMP JUMPDEST DUP3 MSTORE POP POP JUMP JUMPDEST PUSH0 PUSH1 0x20 DUP3 ADD SWAP1 POP PUSH2 0xC78 PUSH0 DUP4 ADD DUP5 PUSH2 0xC56 JUMP JUMPDEST SWAP3 SWAP2 POP POP JUMP JUMPDEST PUSH2 0xC87 DUP2 PUSH2 0xBCD JUMP JUMPDEST DUP3 MSTORE POP POP JUMP JUMPDEST PUSH0 PUSH1 0x20 DUP3 ADD SWAP1 POP PUSH2 0xCA0 PUSH0 DUP4 ADD DUP5 PUSH2 0xC7E JUMP JUMPDEST SWAP3 SWAP2 POP POP JUMP JUMPDEST PUSH0 PUSH20 0xFFFFFFFFFFFFFFFFFFFFFFFFFFFFFFFFFFFFFFFF DUP3 AND SWAP1 POP SWAP2 SWAP1 POP JUMP JUMPDEST PUSH0 PUSH2 0xCCF DUP3 PUSH2 0xCA6 JUMP JUMPDEST SWAP1 POP SWAP2 SWAP1 POP JUMP JUMPDEST PUSH2 0xCDF DUP2 PUSH2 0xCC5 JUMP JUMPDEST DUP2 EQ PUSH2 0xCE9 JUMPI PUSH0 DUP1 REVERT JUMPDEST POP JUMP JUMPDEST PUSH0 DUP2 CALLDATALOAD SWAP1 POP PUSH2 0xCFA DUP2 PUSH2 0xCD6 JUMP JUMPDEST SWAP3 SWAP2 POP POP JUMP JUMPDEST PUSH0 DUP1 PUSH1 0x40 DUP4 DUP6 SUB SLT ISZERO PUSH2 0xD16 JUMPI PUSH2 0xD15 PUSH2 0xADB JUMP JUMPDEST JUMPDEST PUSH0 PUSH2 0xD23 DUP6 DUP3 DUP7 ADD PUSH2 0xBEC JUMP JUMPDEST SWAP3 POP POP PUSH1 0x20 PUSH2 0xD34 DUP6 DUP3 DUP7 ADD PUSH2 0xCEC JUMP JUMPDEST SWAP2 POP POP SWAP3 POP SWAP3 SWAP1 POP JUMP JUMPDEST PUSH0 PUSH1 0xFF DUP3 AND SWAP1 POP SWAP2 SWAP1 POP JUMP JUMPDEST PUSH2 0xD53 DUP2 PUSH2 0xD3E JUMP JUMPDEST DUP3 MSTORE POP POP JUMP JUMPDEST PUSH0 PUSH1 0x20 DUP3 ADD SWAP1 POP PUSH2 0xD6C PUSH0 DUP4 ADD DUP5 PUSH2 0xD4A JUMP JUMPDEST SWAP3 SWAP2 POP POP JUMP JUMPDEST PUSH0 PUSH1 0x20 DUP3 DUP5 SUB SLT ISZERO PUSH2 0xD87 JUMPI PUSH2 0xD86 PUSH2 0xADB JUMP JUMPDEST JUMPDEST PUSH0 PUSH2 0xD94 DUP5 DUP3 DUP6 ADD PUSH2 0xCEC JUMP JUMPDEST SWAP2 POP POP SWAP3 SWAP2 POP POP JUMP JUMPDEST PUSH0 PUSH8 0xFFFFFFFFFFFFFFFF DUP3 AND SWAP1 POP SWAP2 SWAP1 POP JUMP JUMPDEST PUSH2 0xDB9 DUP2 PUSH2 0xD9D JUMP JUMPDEST DUP3 MSTORE POP POP JUMP JUMPDEST PUSH0 DUP2 ISZERO ISZERO SWAP1 POP SWAP2 SWAP1 POP JUMP JUMPDEST PUSH2 0xDD3 DUP2 PUSH2 0xDBF JUMP JUMPDEST DUP3 MSTORE POP POP JUMP JUMPDEST PUSH0 PUSH1 0x60 DUP3 ADD SWAP1 POP PUSH2 0xDEC PUSH0 DUP4 ADD DUP7 PUSH2 0xC7E JUMP JUMPDEST PUSH2 0xDF9 PUSH1 0x20 DUP4 ADD DUP6 PUSH2 0xDB0 JUMP JUMPDEST PUSH2 0xE06 PUSH1 0x40 DUP4 ADD DUP5 PUSH2 0xDCA JUMP JUMPDEST SWAP5 SWAP4 POP POP POP POP JUMP JUMPDEST PUSH32 0x4E487B7100000000000000000000000000000000000000000000000000000000 PUSH0 MSTORE PUSH1 0x22 PUSH1 0x4 MSTORE PUSH1 0x24 PUSH0 REVERT JUMPDEST PUSH0 PUSH1 0x2 DUP3 DIV SWAP1 POP PUSH1 0x1 DUP3 AND DUP1 PUSH2 0xE52 JUMPI PUSH1 0x7F DUP3 AND SWAP2 POP JUMPDEST PUSH1 0x20 DUP3 LT DUP2 SUB PUSH2 0xE65 JUMPI PUSH2 0xE64 PUSH2 0xE0E JUMP JUMPDEST JUMPDEST POP SWAP2 SWAP1 POP JUMP JUMPDEST PUSH32 0x4E487B7100000000000000000000000000000000000000000000000000000000 PUSH0 MSTORE PUSH1 0x32 PUSH1 0x4 MSTORE PUSH1 0x24 PUSH0 REVERT JUMPDEST PUSH0 DUP2 SWAP1 POP SWAP2 SWAP1 POP JUMP JUMPDEST PUSH2 0xEB2 PUSH2 0xEAD DUP3 PUSH2 0xBCD JUMP JUMPDEST PUSH2 0xE98 JUMP JUMPDEST DUP3 MSTORE POP POP JUMP JUMPDEST PUSH0 PUSH2 0xEC3 DUP3 DUP5 PUSH2 0xEA1 JUMP JUMPDEST PUSH1 0x20 DUP3 ADD SWAP2 POP DUP2 SWAP1 POP SWAP3 SWAP2 POP POP JUMP JUMPDEST PUSH2 0xEDB DUP2 PUSH2 0xCC5 JUMP JUMPDEST DUP3 MSTORE POP POP JUMP JUMPDEST PUSH0 PUSH1 0x60 DUP3 ADD SWAP1 POP PUSH2 0xEF4 PUSH0 DUP4 ADD DUP7 PUSH2 0xED2 JUMP JUMPDEST PUSH2 0xF01 PUSH1 0x20 DUP4 ADD DUP6 PUSH2 0xC7E JUMP JUMPDEST PUSH2 0xF0E PUSH1 0x40 DUP4 ADD DUP5 PUSH2 0xDB0 JUMP JUMPDEST SWAP5 SWAP4 POP POP POP POP JUMP JUMPDEST PUSH0 DUP3 DUP3 MSTORE PUSH1 0x20 DUP3 ADD SWAP1 POP SWAP3 SWAP2 POP POP JUMP JUMPDEST PUSH32 0x436F6D6D697452657665616C3A3A72657665616C3A20416C7265616479207265 PUSH0 DUP3 ADD MSTORE PUSH32 0x7665616C65640000000000000000000000000000000000000000000000000000 PUSH1 0x20 DUP3 ADD MSTORE POP JUMP JUMPDEST PUSH0 PUSH2 0xF80 PUSH1 0x26 DUP4 PUSH2 0xF16 JUMP JUMPDEST SWAP2 POP PUSH2 0xF8B DUP3 PUSH2 0xF26 JUMP JUMPDEST PUSH1 0x40 DUP3 ADD SWAP1 POP SWAP2 SWAP1 POP JUMP JUMPDEST PUSH0 PUSH1 0x20 DUP3 ADD SWAP1 POP DUP2 DUP2 SUB PUSH0 DUP4 ADD MSTORE PUSH2 0xFAD DUP2 PUSH2 0xF74 JUMP JUMPDEST SWAP1 POP SWAP2 SWAP1 POP JUMP JUMPDEST PUSH32 0x436F6D6D697452657665616C3A3A72657665616C3A2052657665616C65642068 PUSH0 DUP3 ADD MSTORE PUSH32 0x61736820646F6573206E6F74206D6174636820636F6D6D697400000000000000 PUSH1 0x20 DUP3 ADD MSTORE POP JUMP JUMPDEST PUSH0 PUSH2 0x100E PUSH1 0x39 DUP4 PUSH2 0xF16 JUMP JUMPDEST SWAP2 POP PUSH2 0x1019 DUP3 PUSH2 0xFB4 JUMP JUMPDEST PUSH1 0x40 DUP3 ADD SWAP1 POP SWAP2 SWAP1 POP JUMP JUMPDEST PUSH0 PUSH1 0x20 DUP3 ADD SWAP1 POP DUP2 DUP2 SUB PUSH0 DUP4 ADD MSTORE PUSH2 0x103B DUP2 PUSH2 0x1002 JUMP JUMPDEST SWAP1 POP SWAP2 SWAP1 POP JUMP JUMPDEST PUSH32 0x436F6D6D697452657665616C3A3A72657665616C3A2052657665616C20616E64 PUSH0 DUP3 ADD MSTORE PUSH32 0x20636F6D6D69742068617070656E6564206F6E207468652073616D6520626C6F PUSH1 0x20 DUP3 ADD MSTORE PUSH32 0x636B000000000000000000000000000000000000000000000000000000000000 PUSH1 0x40 DUP3 ADD MSTORE POP JUMP JUMPDEST PUSH0 PUSH2 0x10C2 PUSH1 0x42 DUP4 PUSH2 0xF16 JUMP JUMPDEST SWAP2 POP PUSH2 0x10CD DUP3 PUSH2 0x1042 JUMP JUMPDEST PUSH1 0x60 DUP3 ADD SWAP1 POP SWAP2 SWAP1 POP JUMP JUMPDEST PUSH0 PUSH1 0x20 DUP3 ADD SWAP1 POP DUP2 DUP2 SUB PUSH0 DUP4 ADD MSTORE PUSH2 0x10EF DUP2 PUSH2 0x10B6 JUMP JUMPDEST SWAP1 POP SWAP2 SWAP1 POP JUMP JUMPDEST PUSH32 0x4E487B7100000000000000000000000000000000000000000000000000000000 PUSH0 MSTORE PUSH1 0x11 PUSH1 0x4 MSTORE PUSH1 0x24 PUSH0 REVERT JUMPDEST PUSH0 PUSH2 0x112D DUP3 PUSH2 0xD9D JUMP JUMPDEST SWAP2 POP PUSH2 0x1138 DUP4 PUSH2 0xD9D JUMP JUMPDEST SWAP3 POP DUP3 DUP3 ADD SWAP1 POP PUSH8 0xFFFFFFFFFFFFFFFF DUP2 GT ISZERO PUSH2 0x1158 JUMPI PUSH2 0x1157 PUSH2 0x10F6 JUMP JUMPDEST JUMPDEST SWAP3 SWAP2 POP POP JUMP JUMPDEST PUSH32 0x436F6D6D697452657665616C3A3A72657665616C3A2052657665616C65642074 PUSH0 DUP3 ADD MSTORE PUSH32 0x6F6F206C61746500000000000000000000000000000000000000000000000000 PUSH1 0x20 DUP3 ADD MSTORE POP JUMP JUMPDEST PUSH0 PUSH2 0x11B8 PUSH1 0x27 DUP4 PUSH2 0xF16 JUMP JUMPDEST SWAP2 POP PUSH2 0x11C3 DUP3 PUSH2 0x115E JUMP JUMPDEST PUSH1 0x40 DUP3 ADD SWAP1 POP SWAP2 SWAP1 POP JUMP JUMPDEST PUSH0 PUSH1 0x20 DUP3 ADD SWAP1 POP DUP2 DUP2 SUB PUSH0 DUP4 ADD MSTORE PUSH2 0x11E5 DUP2 PUSH2 0x11AC JUMP JUMPDEST SWAP1 POP SWAP2 SWAP1 POP JUMP JUMPDEST PUSH0 PUSH2 0x11F7 DUP3 DUP6 PUSH2 0xEA1 JUMP JUMPDEST PUSH1 0x20 DUP3 ADD SWAP2 POP PUSH2 0x1207 DUP3 DUP5 PUSH2 0xEA1 JUMP JUMPDEST PUSH1 0x20 DUP3 ADD SWAP2 POP DUP2 SWAP1 POP SWAP4 SWAP3 POP POP POP JUMP JUMPDEST PUSH32 0x4E487B7100000000000000000000000000000000000000000000000000000000 PUSH0 MSTORE PUSH1 0x12 PUSH1 0x4 MSTORE PUSH1 0x24 PUSH0 REVERT JUMPDEST PUSH0 PUSH2 0x124E DUP3 PUSH2 0xADF JUMP JUMPDEST SWAP2 POP PUSH2 0x1259 DUP4 PUSH2 0xADF JUMP JUMPDEST SWAP3 POP DUP3 PUSH2 0x1269 JUMPI PUSH2 0x1268 PUSH2 0x1217 JUMP JUMPDEST JUMPDEST DUP3 DUP3 MOD SWAP1 POP SWAP3 SWAP2 POP POP JUMP JUMPDEST PUSH2 0x127D DUP2 PUSH2 0xADF JUMP JUMPDEST DUP3 MSTORE POP POP JUMP JUMPDEST PUSH0 PUSH1 0x60 DUP3 ADD SWAP1 POP PUSH2 0x1296 PUSH0 DUP4 ADD DUP7 PUSH2 0xED2 JUMP JUMPDEST PUSH2 0x12A3 PUSH1 0x20 DUP4 ADD DUP6 PUSH2 0xC7E JUMP JUMPDEST PUSH2 0x12B0 PUSH1 0x40 DUP4 ADD DUP5 PUSH2 0x1274 JUMP JUMPDEST SWAP5 SWAP4 POP POP POP POP JUMP INVALID LOG2 PUSH5 0x6970667358 0x22 SLT KECCAK256 SWAP4 PUSH30 0x25867230705778581DE340A132021846D6D99E099B1ACE002533BA619369 PUSH5 0x736F6C6343 STOP ADDMOD BYTE STOP CALLER "
				},
				"gasEstimates": {
					"creation": {
						"codeDepositCost": "1335800",
						"executionCost": "infinite",
						"totalCost": "infinite"
					},
					"external": {
						"addPlayer()": "infinite",
						"commit(bytes32)": "infinite",
						"elapsedSeconds()": "infinite",
						"getHash(bytes32)": "infinite",
						"numInput()": "2448",
						"numPlayer()": "2446",
						"player_not_played(address)": "2878",
						"players(uint256)": "5054",
						"returnRewardForFirstPlayer()": "infinite",
						"returnRewardPlayerWaitingForChoice()": "infinite",
						"reveal(bytes32)": "infinite",
						"reward()": "2492"
					},
					"internal": {
						"_checkWinnerAndPay()": "infinite",
						"input(bytes1)": "infinite",
						"resetGame()": "infinite"
					}
				},
				"methodIdentifiers": {
					"addPlayer()": "27b5db8a",
					"commit(bytes32)": "f14fcbc8",
					"elapsedSeconds()": "bc06b8cd",
					"getHash(bytes32)": "3cf5040a",
					"numInput()": "086f7815",
					"numPlayer()": "90d5d0c3",
					"player_not_played(address)": "190cf745",
					"players(uint256)": "f71d96cb",
					"returnRewardForFirstPlayer()": "99af2865",
					"returnRewardPlayerWaitingForChoice()": "0027a5af",
					"reveal(bytes32)": "701fd0f1",
					"reward()": "228cb733"
				}
			},
			"storageLayout": {
				"storage": [
					{
						"astId": 241,
						"contract": "RPS.sol:RPS",
						"label": "numPlayer",
						"offset": 0,
						"slot": "0",
						"type": "t_uint256"
					},
					{
						"astId": 244,
						"contract": "RPS.sol:RPS",
						"label": "reward",
						"offset": 0,
						"slot": "1",
						"type": "t_uint256"
					},
					{
						"astId": 248,
						"contract": "RPS.sol:RPS",
						"label": "player_choice",
						"offset": 0,
						"slot": "2",
						"type": "t_mapping(t_address,t_uint256)"
					},
					{
						"astId": 252,
						"contract": "RPS.sol:RPS",
						"label": "player_not_played",
						"offset": 0,
						"slot": "3",
						"type": "t_mapping(t_address,t_bool)"
					},
					{
						"astId": 255,
						"contract": "RPS.sol:RPS",
						"label": "players",
						"offset": 0,
						"slot": "4",
						"type": "t_array(t_address)dyn_storage"
					},
					{
						"astId": 258,
						"contract": "RPS.sol:RPS",
						"label": "numInput",
						"offset": 0,
						"slot": "5",
						"type": "t_uint256"
					},
					{
						"astId": 265,
						"contract": "RPS.sol:RPS",
						"label": "timeUnit",
						"offset": 0,
						"slot": "6",
						"type": "t_contract(TimeUnit)952"
					},
					{
						"astId": 272,
						"contract": "RPS.sol:RPS",
						"label": "commitReveal",
						"offset": 0,
						"slot": "7",
						"type": "t_contract(CommitReveal)234"
					}
				],
				"types": {
					"t_address": {
						"encoding": "inplace",
						"label": "address",
						"numberOfBytes": "20"
					},
					"t_array(t_address)dyn_storage": {
						"base": "t_address",
						"encoding": "dynamic_array",
						"label": "address[]",
						"numberOfBytes": "32"
					},
					"t_bool": {
						"encoding": "inplace",
						"label": "bool",
						"numberOfBytes": "1"
					},
					"t_contract(CommitReveal)234": {
						"encoding": "inplace",
						"label": "contract CommitReveal",
						"numberOfBytes": "20"
					},
					"t_contract(TimeUnit)952": {
						"encoding": "inplace",
						"label": "contract TimeUnit",
						"numberOfBytes": "20"
					},
					"t_mapping(t_address,t_bool)": {
						"encoding": "mapping",
						"key": "t_address",
						"label": "mapping(address => bool)",
						"numberOfBytes": "32",
						"value": "t_bool"
					},
					"t_mapping(t_address,t_uint256)": {
						"encoding": "mapping",
						"key": "t_address",
						"label": "mapping(address => uint256)",
						"numberOfBytes": "32",
						"value": "t_uint256"
					},
					"t_uint256": {
						"encoding": "inplace",
						"label": "uint256",
						"numberOfBytes": "32"
					}
				}
			},
			"userdoc": {
				"kind": "user",
				"methods": {},
				"version": 1
			}
		}
	}
}