{
	"data": {
		"bytecode": {
			"linkReferences": {},
			"object": "6080604052348015600e575f80fd5b50631234567860e01b5f806101000a81548163ffffffff021916908360e01c02179055506102738061003f5f395ff3fe608060405234801561000f575f80fd5b5060043610610034575f3560e01c80638381f58a14610038578063af5adfd914610056575b5f80fd5b610040610077565b60405161004d919061017a565b60405180910390f35b61005e610087565b60405161006e94939291906101cd565b60405180910390f35b5f8054906101000a900460e01b81565b5f805f805f805f9054906101000a900460e01b5f600481106100ac576100ab610210565b5b1a60f81b90505f805f9054906101000a900460e01b6001600481106100d4576100d3610210565b5b1a60f81b90505f805f9054906101000a900460e01b6002600481106100fc576100fb610210565b5b1a60f81b90505f805f9054906101000a900460e01b60036004811061012457610123610210565b5b1a60f81b90508383838397509750975097505050505090919293565b5f7fffffffff0000000000000000000000000000000000000000000000000000000082169050919050565b61017481610140565b82525050565b5f60208201905061018d5f83018461016b565b92915050565b5f7fff0000000000000000000000000000000000000000000000000000000000000082169050919050565b6101c781610193565b82525050565b5f6080820190506101e05f8301876101be565b6101ed60208301866101be565b6101fa60408301856101be565b61020760608301846101be565b95945050505050565b7f4e487b71000000000000000000000000000000000000000000000000000000005f52603260045260245ffdfea26469706673582212204b74e05f44a236e789d194d8b2b34f27a68ae5d80a48f966bb5526ad80c08fef64736f6c634300081a0033",
			"opcodes": "PUSH1 0x80 PUSH1 0x40 MSTORE CALLVALUE DUP1 ISZERO PUSH1 0xE JUMPI PUSH0 DUP1 REVERT JUMPDEST POP PUSH4 0x12345678 PUSH1 0xE0 SHL PUSH0 DUP1 PUSH2 0x100 EXP DUP2 SLOAD DUP2 PUSH4 0xFFFFFFFF MUL NOT AND SWAP1 DUP4 PUSH1 0xE0 SHR MUL OR SWAP1 SSTORE POP PUSH2 0x273 DUP1 PUSH2 0x3F PUSH0 CODECOPY PUSH0 RETURN INVALID PUSH1 0x80 PUSH1 0x40 MSTORE CALLVALUE DUP1 ISZERO PUSH2 0xF JUMPI PUSH0 DUP1 REVERT JUMPDEST POP PUSH1 0x4 CALLDATASIZE LT PUSH2 0x34 JUMPI PUSH0 CALLDATALOAD PUSH1 0xE0 SHR DUP1 PUSH4 0x8381F58A EQ PUSH2 0x38 JUMPI DUP1 PUSH4 0xAF5ADFD9 EQ PUSH2 0x56 JUMPI JUMPDEST PUSH0 DUP1 REVERT JUMPDEST PUSH2 0x40 PUSH2 0x77 JUMP JUMPDEST PUSH1 0x40 MLOAD PUSH2 0x4D SWAP2 SWAP1 PUSH2 0x17A JUMP JUMPDEST PUSH1 0x40 MLOAD DUP1 SWAP2 SUB SWAP1 RETURN JUMPDEST PUSH2 0x5E PUSH2 0x87 JUMP JUMPDEST PUSH1 0x40 MLOAD PUSH2 0x6E SWAP5 SWAP4 SWAP3 SWAP2 SWAP1 PUSH2 0x1CD JUMP JUMPDEST PUSH1 0x40 MLOAD DUP1 SWAP2 SUB SWAP1 RETURN JUMPDEST PUSH0 DUP1 SLOAD SWAP1 PUSH2 0x100 EXP SWAP1 DIV PUSH1 0xE0 SHL DUP2 JUMP JUMPDEST PUSH0 DUP1 PUSH0 DUP1 PUSH0 DUP1 PUSH0 SWAP1 SLOAD SWAP1 PUSH2 0x100 EXP SWAP1 DIV PUSH1 0xE0 SHL PUSH0 PUSH1 0x4 DUP2 LT PUSH2 0xAC JUMPI PUSH2 0xAB PUSH2 0x210 JUMP JUMPDEST JUMPDEST BYTE PUSH1 0xF8 SHL SWAP1 POP PUSH0 DUP1 PUSH0 SWAP1 SLOAD SWAP1 PUSH2 0x100 EXP SWAP1 DIV PUSH1 0xE0 SHL PUSH1 0x1 PUSH1 0x4 DUP2 LT PUSH2 0xD4 JUMPI PUSH2 0xD3 PUSH2 0x210 JUMP JUMPDEST JUMPDEST BYTE PUSH1 0xF8 SHL SWAP1 POP PUSH0 DUP1 PUSH0 SWAP1 SLOAD SWAP1 PUSH2 0x100 EXP SWAP1 DIV PUSH1 0xE0 SHL PUSH1 0x2 PUSH1 0x4 DUP2 LT PUSH2 0xFC JUMPI PUSH2 0xFB PUSH2 0x210 JUMP JUMPDEST JUMPDEST BYTE PUSH1 0xF8 SHL SWAP1 POP PUSH0 DUP1 PUSH0 SWAP1 SLOAD SWAP1 PUSH2 0x100 EXP SWAP1 DIV PUSH1 0xE0 SHL PUSH1 0x3 PUSH1 0x4 DUP2 LT PUSH2 0x124 JUMPI PUSH2 0x123 PUSH2 0x210 JUMP JUMPDEST JUMPDEST BYTE PUSH1 0xF8 SHL SWAP1 POP DUP4 DUP4 DUP4 DUP4 SWAP8 POP SWAP8 POP SWAP8 POP SWAP8 POP POP POP POP POP SWAP1 SWAP2 SWAP3 SWAP4 JUMP JUMPDEST PUSH0 PUSH32 0xFFFFFFFF00000000000000000000000000000000000000000000000000000000 DUP3 AND SWAP1 POP SWAP2 SWAP1 POP JUMP JUMPDEST PUSH2 0x174 DUP2 PUSH2 0x140 JUMP JUMPDEST DUP3 MSTORE POP POP JUMP JUMPDEST PUSH0 PUSH1 0x20 DUP3 ADD SWAP1 POP PUSH2 0x18D PUSH0 DUP4 ADD DUP5 PUSH2 0x16B JUMP JUMPDEST SWAP3 SWAP2 POP POP JUMP JUMPDEST PUSH0 PUSH32 0xFF00000000000000000000000000000000000000000000000000000000000000 DUP3 AND SWAP1 POP SWAP2 SWAP1 POP JUMP JUMPDEST PUSH2 0x1C7 DUP2 PUSH2 0x193 JUMP JUMPDEST DUP3 MSTORE POP POP JUMP JUMPDEST PUSH0 PUSH1 0x80 DUP3 ADD SWAP1 POP PUSH2 0x1E0 PUSH0 DUP4 ADD DUP8 PUSH2 0x1BE JUMP JUMPDEST PUSH2 0x1ED PUSH1 0x20 DUP4 ADD DUP7 PUSH2 0x1BE JUMP JUMPDEST PUSH2 0x1FA PUSH1 0x40 DUP4 ADD DUP6 PUSH2 0x1BE JUMP JUMPDEST PUSH2 0x207 PUSH1 0x60 DUP4 ADD DUP5 PUSH2 0x1BE JUMP JUMPDEST SWAP6 SWAP5 POP POP POP POP POP JUMP JUMPDEST PUSH32 0x4E487B7100000000000000000000000000000000000000000000000000000000 PUSH0 MSTORE PUSH1 0x32 PUSH1 0x4 MSTORE PUSH1 0x24 PUSH0 REVERT INVALID LOG2 PUSH5 0x6970667358 0x22 SLT KECCAK256 0x4B PUSH21 0xE05F44A236E789D194D8B2B34F27A68AE5D80A48F9 PUSH7 0xBB5526AD80C08F 0xEF PUSH5 0x736F6C6343 STOP ADDMOD BYTE STOP CALLER "
		},
		"gasEstimates": {
			"creation": {
				"codeDepositCost": "125400",
				"executionCost": "24441",
				"totalCost": "149841"
			},
			"external": {
				"getIndividualBytes()": "infinite",
				"number()": "2441"
			}
		},
		"methodIdentifiers": {
			"getIndividualBytes()": "af5adfd9",
			"number()": "8381f58a"
		}
	},
	"abi": [
		{
			"inputs": [],
			"stateMutability": "nonpayable",
			"type": "constructor"
		},
		{
			"inputs": [],
			"name": "getIndividualBytes",
			"outputs": [
				{
					"internalType": "bytes1",
					"name": "",
					"type": "bytes1"
				},
				{
					"internalType": "bytes1",
					"name": "",
					"type": "bytes1"
				},
				{
					"internalType": "bytes1",
					"name": "",
					"type": "bytes1"
				},
				{
					"internalType": "bytes1",
					"name": "",
					"type": "bytes1"
				}
			],
			"stateMutability": "view",
			"type": "function"
		},
		{
			"inputs": [],
			"name": "number",
			"outputs": [
				{
					"internalType": "bytes4",
					"name": "",
					"type": "bytes4"
				}
			],
			"stateMutability": "view",
			"type": "function"
		}
	]
}