{
	"data": {
		"bytecode": {
			"linkReferences": {},
			"object": "60806040525f80555f6001555f6005553480156019575f80fd5b50610e00806100275f395ff3fe60806040526004361061007a575f3560e01c806390d5d0c31161004d57806390d5d0c314610118578063a040478d14610142578063ce6e1c4e1461017e578063f71d96cb146101a65761007a565b8063086f78151461007e578063190cf745146100a8578063228cb733146100e457806327b5db8a1461010e575b5f80fd5b348015610089575f80fd5b506100926101e2565b60405161009f9190610b17565b60405180910390f35b3480156100b3575f80fd5b506100ce60048036038101906100c99190610b8e565b6101e8565b6040516100db9190610bd3565b60405180910390f35b3480156100ef575f80fd5b506100f8610205565b6040516101059190610b17565b60405180910390f35b61011661020b565b005b348015610123575f80fd5b5061012c6104b5565b6040516101399190610b17565b60405180910390f35b34801561014d575f80fd5b5061016860048036038101906101639190610b8e565b6104ba565b6040516101759190610b17565b60405180910390f35b348015610189575f80fd5b506101a4600480360381019061019f9190610c16565b6104cf565b005b3480156101b1575f80fd5b506101cc60048036038101906101c79190610c16565b610628565b6040516101d99190610c50565b60405180910390f35b60055481565b6003602052805f5260405f205f915054906101000a900460ff1681565b60015481565b60025f5410610218575f80fd5b735b38da6a701c568545dcfcb03fcb875f56beddc473ffffffffffffffffffffffffffffffffffffffff163373ffffffffffffffffffffffffffffffffffffffff1614806102a5575073ab8483f64d9c6d1ecf9b849ae677dd3315835cb273ffffffffffffffffffffffffffffffffffffffff163373ffffffffffffffffffffffffffffffffffffffff16145b806102ef5750734b20993bc481177ec7e8f571cecae8a9e22c02db73ffffffffffffffffffffffffffffffffffffffff163373ffffffffffffffffffffffffffffffffffffffff16145b8061033957507378731d3ca6b7e34ac0f824c42a7cc18a495cabab73ffffffffffffffffffffffffffffffffffffffff163373ffffffffffffffffffffffffffffffffffffffff16145b610341575f80fd5b5f805411156103bd5760045f8154811061035e5761035d610c69565b5b905f5260205f20015f9054906101000a900473ffffffffffffffffffffffffffffffffffffffff1673ffffffffffffffffffffffffffffffffffffffff163373ffffffffffffffffffffffffffffffffffffffff16036103bc575f80fd5b5b670de0b6b3a764000034146103d0575f80fd5b3460015f8282546103e19190610cc3565b92505081905550600160035f3373ffffffffffffffffffffffffffffffffffffffff1673ffffffffffffffffffffffffffffffffffffffff1681526020019081526020015f205f6101000a81548160ff021916908315150217905550600433908060018154018082558091505060019003905f5260205f20015f9091909190916101000a81548173ffffffffffffffffffffffffffffffffffffffff021916908373ffffffffffffffffffffffffffffffffffffffff1602179055505f808154809291906104ae90610cf6565b9190505550565b5f5481565b6002602052805f5260405f205f915090505481565b60025f54146104dc575f80fd5b60035f3373ffffffffffffffffffffffffffffffffffffffff1673ffffffffffffffffffffffffffffffffffffffff1681526020019081526020015f205f9054906101000a900460ff1661052e575f80fd5b5f81148061053c5750600181145b806105475750600281145b806105525750600381145b8061055d5750600481145b610565575f80fd5b8060025f3373ffffffffffffffffffffffffffffffffffffffff1673ffffffffffffffffffffffffffffffffffffffff1681526020019081526020015f20819055505f60035f3373ffffffffffffffffffffffffffffffffffffffff1673ffffffffffffffffffffffffffffffffffffffff1681526020019081526020015f205f6101000a81548160ff02191690831515021790555060055f81548092919061060d90610cf6565b919050555060026005540361062557610624610663565b5b50565b60048181548110610637575f80fd5b905f5260205f20015f915054906101000a900473ffffffffffffffffffffffffffffffffffffffff1681565b5f60025f60045f8154811061067b5761067a610c69565b5b905f5260205f20015f9054906101000a900473ffffffffffffffffffffffffffffffffffffffff1673ffffffffffffffffffffffffffffffffffffffff1673ffffffffffffffffffffffffffffffffffffffff1681526020019081526020015f205490505f60025f60046001815481106106f8576106f7610c69565b5b905f5260205f20015f9054906101000a900473ffffffffffffffffffffffffffffffffffffffff1673ffffffffffffffffffffffffffffffffffffffff1673ffffffffffffffffffffffffffffffffffffffff1681526020019081526020015f205490505f60045f8154811061077157610770610c69565b5b905f5260205f20015f9054906101000a900473ffffffffffffffffffffffffffffffffffffffff1690505f60046001815481106107b1576107b0610c69565b5b905f5260205f20015f9054906101000a900473ffffffffffffffffffffffffffffffffffffffff1690508260036001866107eb9190610cc3565b6107f59190610d6a565b148061080c575060038414801561080b57505f83145b5b8061082357506004841480156108225750600383145b5b8061083a57506002841480156108395750600483145b5b8061085157506003841480156108505750600283145b5b8061086857506001841480156108675750600383145b5b8061087e57505f8414801561087d5750600483145b5b8061089557506001841480156108945750600483145b5b156108e5578073ffffffffffffffffffffffffffffffffffffffff166108fc60015490811502906040515f60405180830381858888f193505050501580156108df573d5f803e3d5ffd5b50610a95565b8360036001856108f59190610cc3565b6108ff9190610d6a565b1480610916575060038314801561091557505f84145b5b8061092d575060048314801561092c5750600384145b5b8061094457506002831480156109435750600484145b5b8061095b575060038314801561095a5750600284145b5b8061097257506001831480156109715750600384145b5b8061098857505f831480156109875750600484145b5b8061099f575060018314801561099e5750600484145b5b156109ef578173ffffffffffffffffffffffffffffffffffffffff166108fc60015490811502906040515f60405180830381858888f193505050501580156109e9573d5f803e3d5ffd5b50610a94565b8173ffffffffffffffffffffffffffffffffffffffff166108fc6002600154610a189190610d9a565b90811502906040515f60405180830381858888f19350505050158015610a40573d5f803e3d5ffd5b508073ffffffffffffffffffffffffffffffffffffffff166108fc6002600154610a6a9190610d9a565b90811502906040515f60405180830381858888f19350505050158015610a92573d5f803e3d5ffd5b505b5b610a9d610aa3565b50505050565b5f80819055505f6001819055505f60058190555060045f610ac49190610ac6565b565b5080545f8255905f5260205f2090810190610ae19190610ae4565b50565b5b80821115610afb575f815f905550600101610ae5565b5090565b5f819050919050565b610b1181610aff565b82525050565b5f602082019050610b2a5f830184610b08565b92915050565b5f80fd5b5f73ffffffffffffffffffffffffffffffffffffffff82169050919050565b5f610b5d82610b34565b9050919050565b610b6d81610b53565b8114610b77575f80fd5b50565b5f81359050610b8881610b64565b92915050565b5f60208284031215610ba357610ba2610b30565b5b5f610bb084828501610b7a565b91505092915050565b5f8115159050919050565b610bcd81610bb9565b82525050565b5f602082019050610be65f830184610bc4565b92915050565b610bf581610aff565b8114610bff575f80fd5b50565b5f81359050610c1081610bec565b92915050565b5f60208284031215610c2b57610c2a610b30565b5b5f610c3884828501610c02565b91505092915050565b610c4a81610b53565b82525050565b5f602082019050610c635f830184610c41565b92915050565b7f4e487b71000000000000000000000000000000000000000000000000000000005f52603260045260245ffd5b7f4e487b71000000000000000000000000000000000000000000000000000000005f52601160045260245ffd5b5f610ccd82610aff565b9150610cd883610aff565b9250828201905080821115610cf057610cef610c96565b5b92915050565b5f610d0082610aff565b91507fffffffffffffffffffffffffffffffffffffffffffffffffffffffffffffffff8203610d3257610d31610c96565b5b600182019050919050565b7f4e487b71000000000000000000000000000000000000000000000000000000005f52601260045260245ffd5b5f610d7482610aff565b9150610d7f83610aff565b925082610d8f57610d8e610d3d565b5b828206905092915050565b5f610da482610aff565b9150610daf83610aff565b925082610dbf57610dbe610d3d565b5b82820490509291505056fea2646970667358221220def05c793b281fc2de7de417d88097d9752470a7a7e240f872ce0c052f0afa9064736f6c634300081a0033",
			"opcodes": "PUSH1 0x80 PUSH1 0x40 MSTORE PUSH0 DUP1 SSTORE PUSH0 PUSH1 0x1 SSTORE PUSH0 PUSH1 0x5 SSTORE CALLVALUE DUP1 ISZERO PUSH1 0x19 JUMPI PUSH0 DUP1 REVERT JUMPDEST POP PUSH2 0xE00 DUP1 PUSH2 0x27 PUSH0 CODECOPY PUSH0 RETURN INVALID PUSH1 0x80 PUSH1 0x40 MSTORE PUSH1 0x4 CALLDATASIZE LT PUSH2 0x7A JUMPI PUSH0 CALLDATALOAD PUSH1 0xE0 SHR DUP1 PUSH4 0x90D5D0C3 GT PUSH2 0x4D JUMPI DUP1 PUSH4 0x90D5D0C3 EQ PUSH2 0x118 JUMPI DUP1 PUSH4 0xA040478D EQ PUSH2 0x142 JUMPI DUP1 PUSH4 0xCE6E1C4E EQ PUSH2 0x17E JUMPI DUP1 PUSH4 0xF71D96CB EQ PUSH2 0x1A6 JUMPI PUSH2 0x7A JUMP JUMPDEST DUP1 PUSH4 0x86F7815 EQ PUSH2 0x7E JUMPI DUP1 PUSH4 0x190CF745 EQ PUSH2 0xA8 JUMPI DUP1 PUSH4 0x228CB733 EQ PUSH2 0xE4 JUMPI DUP1 PUSH4 0x27B5DB8A EQ PUSH2 0x10E JUMPI JUMPDEST PUSH0 DUP1 REVERT JUMPDEST CALLVALUE DUP1 ISZERO PUSH2 0x89 JUMPI PUSH0 DUP1 REVERT JUMPDEST POP PUSH2 0x92 PUSH2 0x1E2 JUMP JUMPDEST PUSH1 0x40 MLOAD PUSH2 0x9F SWAP2 SWAP1 PUSH2 0xB17 JUMP JUMPDEST PUSH1 0x40 MLOAD DUP1 SWAP2 SUB SWAP1 RETURN JUMPDEST CALLVALUE DUP1 ISZERO PUSH2 0xB3 JUMPI PUSH0 DUP1 REVERT JUMPDEST POP PUSH2 0xCE PUSH1 0x4 DUP1 CALLDATASIZE SUB DUP2 ADD SWAP1 PUSH2 0xC9 SWAP2 SWAP1 PUSH2 0xB8E JUMP JUMPDEST PUSH2 0x1E8 JUMP JUMPDEST PUSH1 0x40 MLOAD PUSH2 0xDB SWAP2 SWAP1 PUSH2 0xBD3 JUMP JUMPDEST PUSH1 0x40 MLOAD DUP1 SWAP2 SUB SWAP1 RETURN JUMPDEST CALLVALUE DUP1 ISZERO PUSH2 0xEF JUMPI PUSH0 DUP1 REVERT JUMPDEST POP PUSH2 0xF8 PUSH2 0x205 JUMP JUMPDEST PUSH1 0x40 MLOAD PUSH2 0x105 SWAP2 SWAP1 PUSH2 0xB17 JUMP JUMPDEST PUSH1 0x40 MLOAD DUP1 SWAP2 SUB SWAP1 RETURN JUMPDEST PUSH2 0x116 PUSH2 0x20B JUMP JUMPDEST STOP JUMPDEST CALLVALUE DUP1 ISZERO PUSH2 0x123 JUMPI PUSH0 DUP1 REVERT JUMPDEST POP PUSH2 0x12C PUSH2 0x4B5 JUMP JUMPDEST PUSH1 0x40 MLOAD PUSH2 0x139 SWAP2 SWAP1 PUSH2 0xB17 JUMP JUMPDEST PUSH1 0x40 MLOAD DUP1 SWAP2 SUB SWAP1 RETURN JUMPDEST CALLVALUE DUP1 ISZERO PUSH2 0x14D JUMPI PUSH0 DUP1 REVERT JUMPDEST POP PUSH2 0x168 PUSH1 0x4 DUP1 CALLDATASIZE SUB DUP2 ADD SWAP1 PUSH2 0x163 SWAP2 SWAP1 PUSH2 0xB8E JUMP JUMPDEST PUSH2 0x4BA JUMP JUMPDEST PUSH1 0x40 MLOAD PUSH2 0x175 SWAP2 SWAP1 PUSH2 0xB17 JUMP JUMPDEST PUSH1 0x40 MLOAD DUP1 SWAP2 SUB SWAP1 RETURN JUMPDEST CALLVALUE DUP1 ISZERO PUSH2 0x189 JUMPI PUSH0 DUP1 REVERT JUMPDEST POP PUSH2 0x1A4 PUSH1 0x4 DUP1 CALLDATASIZE SUB DUP2 ADD SWAP1 PUSH2 0x19F SWAP2 SWAP1 PUSH2 0xC16 JUMP JUMPDEST PUSH2 0x4CF JUMP JUMPDEST STOP JUMPDEST CALLVALUE DUP1 ISZERO PUSH2 0x1B1 JUMPI PUSH0 DUP1 REVERT JUMPDEST POP PUSH2 0x1CC PUSH1 0x4 DUP1 CALLDATASIZE SUB DUP2 ADD SWAP1 PUSH2 0x1C7 SWAP2 SWAP1 PUSH2 0xC16 JUMP JUMPDEST PUSH2 0x628 JUMP JUMPDEST PUSH1 0x40 MLOAD PUSH2 0x1D9 SWAP2 SWAP1 PUSH2 0xC50 JUMP JUMPDEST PUSH1 0x40 MLOAD DUP1 SWAP2 SUB SWAP1 RETURN JUMPDEST PUSH1 0x5 SLOAD DUP2 JUMP JUMPDEST PUSH1 0x3 PUSH1 0x20 MSTORE DUP1 PUSH0 MSTORE PUSH1 0x40 PUSH0 KECCAK256 PUSH0 SWAP2 POP SLOAD SWAP1 PUSH2 0x100 EXP SWAP1 DIV PUSH1 0xFF AND DUP2 JUMP JUMPDEST PUSH1 0x1 SLOAD DUP2 JUMP JUMPDEST PUSH1 0x2 PUSH0 SLOAD LT PUSH2 0x218 JUMPI PUSH0 DUP1 REVERT JUMPDEST PUSH20 0x5B38DA6A701C568545DCFCB03FCB875F56BEDDC4 PUSH20 0xFFFFFFFFFFFFFFFFFFFFFFFFFFFFFFFFFFFFFFFF AND CALLER PUSH20 0xFFFFFFFFFFFFFFFFFFFFFFFFFFFFFFFFFFFFFFFF AND EQ DUP1 PUSH2 0x2A5 JUMPI POP PUSH20 0xAB8483F64D9C6D1ECF9B849AE677DD3315835CB2 PUSH20 0xFFFFFFFFFFFFFFFFFFFFFFFFFFFFFFFFFFFFFFFF AND CALLER PUSH20 0xFFFFFFFFFFFFFFFFFFFFFFFFFFFFFFFFFFFFFFFF AND EQ JUMPDEST DUP1 PUSH2 0x2EF JUMPI POP PUSH20 0x4B20993BC481177EC7E8F571CECAE8A9E22C02DB PUSH20 0xFFFFFFFFFFFFFFFFFFFFFFFFFFFFFFFFFFFFFFFF AND CALLER PUSH20 0xFFFFFFFFFFFFFFFFFFFFFFFFFFFFFFFFFFFFFFFF AND EQ JUMPDEST DUP1 PUSH2 0x339 JUMPI POP PUSH20 0x78731D3CA6B7E34AC0F824C42A7CC18A495CABAB PUSH20 0xFFFFFFFFFFFFFFFFFFFFFFFFFFFFFFFFFFFFFFFF AND CALLER PUSH20 0xFFFFFFFFFFFFFFFFFFFFFFFFFFFFFFFFFFFFFFFF AND EQ JUMPDEST PUSH2 0x341 JUMPI PUSH0 DUP1 REVERT JUMPDEST PUSH0 DUP1 SLOAD GT ISZERO PUSH2 0x3BD JUMPI PUSH1 0x4 PUSH0 DUP2 SLOAD DUP2 LT PUSH2 0x35E JUMPI PUSH2 0x35D PUSH2 0xC69 JUMP JUMPDEST JUMPDEST SWAP1 PUSH0 MSTORE PUSH1 0x20 PUSH0 KECCAK256 ADD PUSH0 SWAP1 SLOAD SWAP1 PUSH2 0x100 EXP SWAP1 DIV PUSH20 0xFFFFFFFFFFFFFFFFFFFFFFFFFFFFFFFFFFFFFFFF AND PUSH20 0xFFFFFFFFFFFFFFFFFFFFFFFFFFFFFFFFFFFFFFFF AND CALLER PUSH20 0xFFFFFFFFFFFFFFFFFFFFFFFFFFFFFFFFFFFFFFFF AND SUB PUSH2 0x3BC JUMPI PUSH0 DUP1 REVERT JUMPDEST JUMPDEST PUSH8 0xDE0B6B3A7640000 CALLVALUE EQ PUSH2 0x3D0 JUMPI PUSH0 DUP1 REVERT JUMPDEST CALLVALUE PUSH1 0x1 PUSH0 DUP3 DUP3 SLOAD PUSH2 0x3E1 SWAP2 SWAP1 PUSH2 0xCC3 JUMP JUMPDEST SWAP3 POP POP DUP2 SWAP1 SSTORE POP PUSH1 0x1 PUSH1 0x3 PUSH0 CALLER PUSH20 0xFFFFFFFFFFFFFFFFFFFFFFFFFFFFFFFFFFFFFFFF AND PUSH20 0xFFFFFFFFFFFFFFFFFFFFFFFFFFFFFFFFFFFFFFFF AND DUP2 MSTORE PUSH1 0x20 ADD SWAP1 DUP2 MSTORE PUSH1 0x20 ADD PUSH0 KECCAK256 PUSH0 PUSH2 0x100 EXP DUP2 SLOAD DUP2 PUSH1 0xFF MUL NOT AND SWAP1 DUP4 ISZERO ISZERO MUL OR SWAP1 SSTORE POP PUSH1 0x4 CALLER SWAP1 DUP1 PUSH1 0x1 DUP2 SLOAD ADD DUP1 DUP3 SSTORE DUP1 SWAP2 POP POP PUSH1 0x1 SWAP1 SUB SWAP1 PUSH0 MSTORE PUSH1 0x20 PUSH0 KECCAK256 ADD PUSH0 SWAP1 SWAP2 SWAP1 SWAP2 SWAP1 SWAP2 PUSH2 0x100 EXP DUP2 SLOAD DUP2 PUSH20 0xFFFFFFFFFFFFFFFFFFFFFFFFFFFFFFFFFFFFFFFF MUL NOT AND SWAP1 DUP4 PUSH20 0xFFFFFFFFFFFFFFFFFFFFFFFFFFFFFFFFFFFFFFFF AND MUL OR SWAP1 SSTORE POP PUSH0 DUP1 DUP2 SLOAD DUP1 SWAP3 SWAP2 SWAP1 PUSH2 0x4AE SWAP1 PUSH2 0xCF6 JUMP JUMPDEST SWAP2 SWAP1 POP SSTORE POP JUMP JUMPDEST PUSH0 SLOAD DUP2 JUMP JUMPDEST PUSH1 0x2 PUSH1 0x20 MSTORE DUP1 PUSH0 MSTORE PUSH1 0x40 PUSH0 KECCAK256 PUSH0 SWAP2 POP SWAP1 POP SLOAD DUP2 JUMP JUMPDEST PUSH1 0x2 PUSH0 SLOAD EQ PUSH2 0x4DC JUMPI PUSH0 DUP1 REVERT JUMPDEST PUSH1 0x3 PUSH0 CALLER PUSH20 0xFFFFFFFFFFFFFFFFFFFFFFFFFFFFFFFFFFFFFFFF AND PUSH20 0xFFFFFFFFFFFFFFFFFFFFFFFFFFFFFFFFFFFFFFFF AND DUP2 MSTORE PUSH1 0x20 ADD SWAP1 DUP2 MSTORE PUSH1 0x20 ADD PUSH0 KECCAK256 PUSH0 SWAP1 SLOAD SWAP1 PUSH2 0x100 EXP SWAP1 DIV PUSH1 0xFF AND PUSH2 0x52E JUMPI PUSH0 DUP1 REVERT JUMPDEST PUSH0 DUP2 EQ DUP1 PUSH2 0x53C JUMPI POP PUSH1 0x1 DUP2 EQ JUMPDEST DUP1 PUSH2 0x547 JUMPI POP PUSH1 0x2 DUP2 EQ JUMPDEST DUP1 PUSH2 0x552 JUMPI POP PUSH1 0x3 DUP2 EQ JUMPDEST DUP1 PUSH2 0x55D JUMPI POP PUSH1 0x4 DUP2 EQ JUMPDEST PUSH2 0x565 JUMPI PUSH0 DUP1 REVERT JUMPDEST DUP1 PUSH1 0x2 PUSH0 CALLER PUSH20 0xFFFFFFFFFFFFFFFFFFFFFFFFFFFFFFFFFFFFFFFF AND PUSH20 0xFFFFFFFFFFFFFFFFFFFFFFFFFFFFFFFFFFFFFFFF AND DUP2 MSTORE PUSH1 0x20 ADD SWAP1 DUP2 MSTORE PUSH1 0x20 ADD PUSH0 KECCAK256 DUP2 SWAP1 SSTORE POP PUSH0 PUSH1 0x3 PUSH0 CALLER PUSH20 0xFFFFFFFFFFFFFFFFFFFFFFFFFFFFFFFFFFFFFFFF AND PUSH20 0xFFFFFFFFFFFFFFFFFFFFFFFFFFFFFFFFFFFFFFFF AND DUP2 MSTORE PUSH1 0x20 ADD SWAP1 DUP2 MSTORE PUSH1 0x20 ADD PUSH0 KECCAK256 PUSH0 PUSH2 0x100 EXP DUP2 SLOAD DUP2 PUSH1 0xFF MUL NOT AND SWAP1 DUP4 ISZERO ISZERO MUL OR SWAP1 SSTORE POP PUSH1 0x5 PUSH0 DUP2 SLOAD DUP1 SWAP3 SWAP2 SWAP1 PUSH2 0x60D SWAP1 PUSH2 0xCF6 JUMP JUMPDEST SWAP2 SWAP1 POP SSTORE POP PUSH1 0x2 PUSH1 0x5 SLOAD SUB PUSH2 0x625 JUMPI PUSH2 0x624 PUSH2 0x663 JUMP JUMPDEST JUMPDEST POP JUMP JUMPDEST PUSH1 0x4 DUP2 DUP2 SLOAD DUP2 LT PUSH2 0x637 JUMPI PUSH0 DUP1 REVERT JUMPDEST SWAP1 PUSH0 MSTORE PUSH1 0x20 PUSH0 KECCAK256 ADD PUSH0 SWAP2 POP SLOAD SWAP1 PUSH2 0x100 EXP SWAP1 DIV PUSH20 0xFFFFFFFFFFFFFFFFFFFFFFFFFFFFFFFFFFFFFFFF AND DUP2 JUMP JUMPDEST PUSH0 PUSH1 0x2 PUSH0 PUSH1 0x4 PUSH0 DUP2 SLOAD DUP2 LT PUSH2 0x67B JUMPI PUSH2 0x67A PUSH2 0xC69 JUMP JUMPDEST JUMPDEST SWAP1 PUSH0 MSTORE PUSH1 0x20 PUSH0 KECCAK256 ADD PUSH0 SWAP1 SLOAD SWAP1 PUSH2 0x100 EXP SWAP1 DIV PUSH20 0xFFFFFFFFFFFFFFFFFFFFFFFFFFFFFFFFFFFFFFFF AND PUSH20 0xFFFFFFFFFFFFFFFFFFFFFFFFFFFFFFFFFFFFFFFF AND PUSH20 0xFFFFFFFFFFFFFFFFFFFFFFFFFFFFFFFFFFFFFFFF AND DUP2 MSTORE PUSH1 0x20 ADD SWAP1 DUP2 MSTORE PUSH1 0x20 ADD PUSH0 KECCAK256 SLOAD SWAP1 POP PUSH0 PUSH1 0x2 PUSH0 PUSH1 0x4 PUSH1 0x1 DUP2 SLOAD DUP2 LT PUSH2 0x6F8 JUMPI PUSH2 0x6F7 PUSH2 0xC69 JUMP JUMPDEST JUMPDEST SWAP1 PUSH0 MSTORE PUSH1 0x20 PUSH0 KECCAK256 ADD PUSH0 SWAP1 SLOAD SWAP1 PUSH2 0x100 EXP SWAP1 DIV PUSH20 0xFFFFFFFFFFFFFFFFFFFFFFFFFFFFFFFFFFFFFFFF AND PUSH20 0xFFFFFFFFFFFFFFFFFFFFFFFFFFFFFFFFFFFFFFFF AND PUSH20 0xFFFFFFFFFFFFFFFFFFFFFFFFFFFFFFFFFFFFFFFF AND DUP2 MSTORE PUSH1 0x20 ADD SWAP1 DUP2 MSTORE PUSH1 0x20 ADD PUSH0 KECCAK256 SLOAD SWAP1 POP PUSH0 PUSH1 0x4 PUSH0 DUP2 SLOAD DUP2 LT PUSH2 0x771 JUMPI PUSH2 0x770 PUSH2 0xC69 JUMP JUMPDEST JUMPDEST SWAP1 PUSH0 MSTORE PUSH1 0x20 PUSH0 KECCAK256 ADD PUSH0 SWAP1 SLOAD SWAP1 PUSH2 0x100 EXP SWAP1 DIV PUSH20 0xFFFFFFFFFFFFFFFFFFFFFFFFFFFFFFFFFFFFFFFF AND SWAP1 POP PUSH0 PUSH1 0x4 PUSH1 0x1 DUP2 SLOAD DUP2 LT PUSH2 0x7B1 JUMPI PUSH2 0x7B0 PUSH2 0xC69 JUMP JUMPDEST JUMPDEST SWAP1 PUSH0 MSTORE PUSH1 0x20 PUSH0 KECCAK256 ADD PUSH0 SWAP1 SLOAD SWAP1 PUSH2 0x100 EXP SWAP1 DIV PUSH20 0xFFFFFFFFFFFFFFFFFFFFFFFFFFFFFFFFFFFFFFFF AND SWAP1 POP DUP3 PUSH1 0x3 PUSH1 0x1 DUP7 PUSH2 0x7EB SWAP2 SWAP1 PUSH2 0xCC3 JUMP JUMPDEST PUSH2 0x7F5 SWAP2 SWAP1 PUSH2 0xD6A JUMP JUMPDEST EQ DUP1 PUSH2 0x80C JUMPI POP PUSH1 0x3 DUP5 EQ DUP1 ISZERO PUSH2 0x80B JUMPI POP PUSH0 DUP4 EQ JUMPDEST JUMPDEST DUP1 PUSH2 0x823 JUMPI POP PUSH1 0x4 DUP5 EQ DUP1 ISZERO PUSH2 0x822 JUMPI POP PUSH1 0x3 DUP4 EQ JUMPDEST JUMPDEST DUP1 PUSH2 0x83A JUMPI POP PUSH1 0x2 DUP5 EQ DUP1 ISZERO PUSH2 0x839 JUMPI POP PUSH1 0x4 DUP4 EQ JUMPDEST JUMPDEST DUP1 PUSH2 0x851 JUMPI POP PUSH1 0x3 DUP5 EQ DUP1 ISZERO PUSH2 0x850 JUMPI POP PUSH1 0x2 DUP4 EQ JUMPDEST JUMPDEST DUP1 PUSH2 0x868 JUMPI POP PUSH1 0x1 DUP5 EQ DUP1 ISZERO PUSH2 0x867 JUMPI POP PUSH1 0x3 DUP4 EQ JUMPDEST JUMPDEST DUP1 PUSH2 0x87E JUMPI POP PUSH0 DUP5 EQ DUP1 ISZERO PUSH2 0x87D JUMPI POP PUSH1 0x4 DUP4 EQ JUMPDEST JUMPDEST DUP1 PUSH2 0x895 JUMPI POP PUSH1 0x1 DUP5 EQ DUP1 ISZERO PUSH2 0x894 JUMPI POP PUSH1 0x4 DUP4 EQ JUMPDEST JUMPDEST ISZERO PUSH2 0x8E5 JUMPI DUP1 PUSH20 0xFFFFFFFFFFFFFFFFFFFFFFFFFFFFFFFFFFFFFFFF AND PUSH2 0x8FC PUSH1 0x1 SLOAD SWAP1 DUP2 ISZERO MUL SWAP1 PUSH1 0x40 MLOAD PUSH0 PUSH1 0x40 MLOAD DUP1 DUP4 SUB DUP2 DUP6 DUP9 DUP9 CALL SWAP4 POP POP POP POP ISZERO DUP1 ISZERO PUSH2 0x8DF JUMPI RETURNDATASIZE PUSH0 DUP1 RETURNDATACOPY RETURNDATASIZE PUSH0 REVERT JUMPDEST POP PUSH2 0xA95 JUMP JUMPDEST DUP4 PUSH1 0x3 PUSH1 0x1 DUP6 PUSH2 0x8F5 SWAP2 SWAP1 PUSH2 0xCC3 JUMP JUMPDEST PUSH2 0x8FF SWAP2 SWAP1 PUSH2 0xD6A JUMP JUMPDEST EQ DUP1 PUSH2 0x916 JUMPI POP PUSH1 0x3 DUP4 EQ DUP1 ISZERO PUSH2 0x915 JUMPI POP PUSH0 DUP5 EQ JUMPDEST JUMPDEST DUP1 PUSH2 0x92D JUMPI POP PUSH1 0x4 DUP4 EQ DUP1 ISZERO PUSH2 0x92C JUMPI POP PUSH1 0x3 DUP5 EQ JUMPDEST JUMPDEST DUP1 PUSH2 0x944 JUMPI POP PUSH1 0x2 DUP4 EQ DUP1 ISZERO PUSH2 0x943 JUMPI POP PUSH1 0x4 DUP5 EQ JUMPDEST JUMPDEST DUP1 PUSH2 0x95B JUMPI POP PUSH1 0x3 DUP4 EQ DUP1 ISZERO PUSH2 0x95A JUMPI POP PUSH1 0x2 DUP5 EQ JUMPDEST JUMPDEST DUP1 PUSH2 0x972 JUMPI POP PUSH1 0x1 DUP4 EQ DUP1 ISZERO PUSH2 0x971 JUMPI POP PUSH1 0x3 DUP5 EQ JUMPDEST JUMPDEST DUP1 PUSH2 0x988 JUMPI POP PUSH0 DUP4 EQ DUP1 ISZERO PUSH2 0x987 JUMPI POP PUSH1 0x4 DUP5 EQ JUMPDEST JUMPDEST DUP1 PUSH2 0x99F JUMPI POP PUSH1 0x1 DUP4 EQ DUP1 ISZERO PUSH2 0x99E JUMPI POP PUSH1 0x4 DUP5 EQ JUMPDEST JUMPDEST ISZERO PUSH2 0x9EF JUMPI DUP2 PUSH20 0xFFFFFFFFFFFFFFFFFFFFFFFFFFFFFFFFFFFFFFFF AND PUSH2 0x8FC PUSH1 0x1 SLOAD SWAP1 DUP2 ISZERO MUL SWAP1 PUSH1 0x40 MLOAD PUSH0 PUSH1 0x40 MLOAD DUP1 DUP4 SUB DUP2 DUP6 DUP9 DUP9 CALL SWAP4 POP POP POP POP ISZERO DUP1 ISZERO PUSH2 0x9E9 JUMPI RETURNDATASIZE PUSH0 DUP1 RETURNDATACOPY RETURNDATASIZE PUSH0 REVERT JUMPDEST POP PUSH2 0xA94 JUMP JUMPDEST DUP2 PUSH20 0xFFFFFFFFFFFFFFFFFFFFFFFFFFFFFFFFFFFFFFFF AND PUSH2 0x8FC PUSH1 0x2 PUSH1 0x1 SLOAD PUSH2 0xA18 SWAP2 SWAP1 PUSH2 0xD9A JUMP JUMPDEST SWAP1 DUP2 ISZERO MUL SWAP1 PUSH1 0x40 MLOAD PUSH0 PUSH1 0x40 MLOAD DUP1 DUP4 SUB DUP2 DUP6 DUP9 DUP9 CALL SWAP4 POP POP POP POP ISZERO DUP1 ISZERO PUSH2 0xA40 JUMPI RETURNDATASIZE PUSH0 DUP1 RETURNDATACOPY RETURNDATASIZE PUSH0 REVERT JUMPDEST POP DUP1 PUSH20 0xFFFFFFFFFFFFFFFFFFFFFFFFFFFFFFFFFFFFFFFF AND PUSH2 0x8FC PUSH1 0x2 PUSH1 0x1 SLOAD PUSH2 0xA6A SWAP2 SWAP1 PUSH2 0xD9A JUMP JUMPDEST SWAP1 DUP2 ISZERO MUL SWAP1 PUSH1 0x40 MLOAD PUSH0 PUSH1 0x40 MLOAD DUP1 DUP4 SUB DUP2 DUP6 DUP9 DUP9 CALL SWAP4 POP POP POP POP ISZERO DUP1 ISZERO PUSH2 0xA92 JUMPI RETURNDATASIZE PUSH0 DUP1 RETURNDATACOPY RETURNDATASIZE PUSH0 REVERT JUMPDEST POP JUMPDEST JUMPDEST PUSH2 0xA9D PUSH2 0xAA3 JUMP JUMPDEST POP POP POP POP JUMP JUMPDEST PUSH0 DUP1 DUP2 SWAP1 SSTORE POP PUSH0 PUSH1 0x1 DUP2 SWAP1 SSTORE POP PUSH0 PUSH1 0x5 DUP2 SWAP1 SSTORE POP PUSH1 0x4 PUSH0 PUSH2 0xAC4 SWAP2 SWAP1 PUSH2 0xAC6 JUMP JUMPDEST JUMP JUMPDEST POP DUP1 SLOAD PUSH0 DUP3 SSTORE SWAP1 PUSH0 MSTORE PUSH1 0x20 PUSH0 KECCAK256 SWAP1 DUP2 ADD SWAP1 PUSH2 0xAE1 SWAP2 SWAP1 PUSH2 0xAE4 JUMP JUMPDEST POP JUMP JUMPDEST JUMPDEST DUP1 DUP3 GT ISZERO PUSH2 0xAFB JUMPI PUSH0 DUP2 PUSH0 SWAP1 SSTORE POP PUSH1 0x1 ADD PUSH2 0xAE5 JUMP JUMPDEST POP SWAP1 JUMP JUMPDEST PUSH0 DUP2 SWAP1 POP SWAP2 SWAP1 POP JUMP JUMPDEST PUSH2 0xB11 DUP2 PUSH2 0xAFF JUMP JUMPDEST DUP3 MSTORE POP POP JUMP JUMPDEST PUSH0 PUSH1 0x20 DUP3 ADD SWAP1 POP PUSH2 0xB2A PUSH0 DUP4 ADD DUP5 PUSH2 0xB08 JUMP JUMPDEST SWAP3 SWAP2 POP POP JUMP JUMPDEST PUSH0 DUP1 REVERT JUMPDEST PUSH0 PUSH20 0xFFFFFFFFFFFFFFFFFFFFFFFFFFFFFFFFFFFFFFFF DUP3 AND SWAP1 POP SWAP2 SWAP1 POP JUMP JUMPDEST PUSH0 PUSH2 0xB5D DUP3 PUSH2 0xB34 JUMP JUMPDEST SWAP1 POP SWAP2 SWAP1 POP JUMP JUMPDEST PUSH2 0xB6D DUP2 PUSH2 0xB53 JUMP JUMPDEST DUP2 EQ PUSH2 0xB77 JUMPI PUSH0 DUP1 REVERT JUMPDEST POP JUMP JUMPDEST PUSH0 DUP2 CALLDATALOAD SWAP1 POP PUSH2 0xB88 DUP2 PUSH2 0xB64 JUMP JUMPDEST SWAP3 SWAP2 POP POP JUMP JUMPDEST PUSH0 PUSH1 0x20 DUP3 DUP5 SUB SLT ISZERO PUSH2 0xBA3 JUMPI PUSH2 0xBA2 PUSH2 0xB30 JUMP JUMPDEST JUMPDEST PUSH0 PUSH2 0xBB0 DUP5 DUP3 DUP6 ADD PUSH2 0xB7A JUMP JUMPDEST SWAP2 POP POP SWAP3 SWAP2 POP POP JUMP JUMPDEST PUSH0 DUP2 ISZERO ISZERO SWAP1 POP SWAP2 SWAP1 POP JUMP JUMPDEST PUSH2 0xBCD DUP2 PUSH2 0xBB9 JUMP JUMPDEST DUP3 MSTORE POP POP JUMP JUMPDEST PUSH0 PUSH1 0x20 DUP3 ADD SWAP1 POP PUSH2 0xBE6 PUSH0 DUP4 ADD DUP5 PUSH2 0xBC4 JUMP JUMPDEST SWAP3 SWAP2 POP POP JUMP JUMPDEST PUSH2 0xBF5 DUP2 PUSH2 0xAFF JUMP JUMPDEST DUP2 EQ PUSH2 0xBFF JUMPI PUSH0 DUP1 REVERT JUMPDEST POP JUMP JUMPDEST PUSH0 DUP2 CALLDATALOAD SWAP1 POP PUSH2 0xC10 DUP2 PUSH2 0xBEC JUMP JUMPDEST SWAP3 SWAP2 POP POP JUMP JUMPDEST PUSH0 PUSH1 0x20 DUP3 DUP5 SUB SLT ISZERO PUSH2 0xC2B JUMPI PUSH2 0xC2A PUSH2 0xB30 JUMP JUMPDEST JUMPDEST PUSH0 PUSH2 0xC38 DUP5 DUP3 DUP6 ADD PUSH2 0xC02 JUMP JUMPDEST SWAP2 POP POP SWAP3 SWAP2 POP POP JUMP JUMPDEST PUSH2 0xC4A DUP2 PUSH2 0xB53 JUMP JUMPDEST DUP3 MSTORE POP POP JUMP JUMPDEST PUSH0 PUSH1 0x20 DUP3 ADD SWAP1 POP PUSH2 0xC63 PUSH0 DUP4 ADD DUP5 PUSH2 0xC41 JUMP JUMPDEST SWAP3 SWAP2 POP POP JUMP JUMPDEST PUSH32 0x4E487B7100000000000000000000000000000000000000000000000000000000 PUSH0 MSTORE PUSH1 0x32 PUSH1 0x4 MSTORE PUSH1 0x24 PUSH0 REVERT JUMPDEST PUSH32 0x4E487B7100000000000000000000000000000000000000000000000000000000 PUSH0 MSTORE PUSH1 0x11 PUSH1 0x4 MSTORE PUSH1 0x24 PUSH0 REVERT JUMPDEST PUSH0 PUSH2 0xCCD DUP3 PUSH2 0xAFF JUMP JUMPDEST SWAP2 POP PUSH2 0xCD8 DUP4 PUSH2 0xAFF JUMP JUMPDEST SWAP3 POP DUP3 DUP3 ADD SWAP1 POP DUP1 DUP3 GT ISZERO PUSH2 0xCF0 JUMPI PUSH2 0xCEF PUSH2 0xC96 JUMP JUMPDEST JUMPDEST SWAP3 SWAP2 POP POP JUMP JUMPDEST PUSH0 PUSH2 0xD00 DUP3 PUSH2 0xAFF JUMP JUMPDEST SWAP2 POP PUSH32 0xFFFFFFFFFFFFFFFFFFFFFFFFFFFFFFFFFFFFFFFFFFFFFFFFFFFFFFFFFFFFFFFF DUP3 SUB PUSH2 0xD32 JUMPI PUSH2 0xD31 PUSH2 0xC96 JUMP JUMPDEST JUMPDEST PUSH1 0x1 DUP3 ADD SWAP1 POP SWAP2 SWAP1 POP JUMP JUMPDEST PUSH32 0x4E487B7100000000000000000000000000000000000000000000000000000000 PUSH0 MSTORE PUSH1 0x12 PUSH1 0x4 MSTORE PUSH1 0x24 PUSH0 REVERT JUMPDEST PUSH0 PUSH2 0xD74 DUP3 PUSH2 0xAFF JUMP JUMPDEST SWAP2 POP PUSH2 0xD7F DUP4 PUSH2 0xAFF JUMP JUMPDEST SWAP3 POP DUP3 PUSH2 0xD8F JUMPI PUSH2 0xD8E PUSH2 0xD3D JUMP JUMPDEST JUMPDEST DUP3 DUP3 MOD SWAP1 POP SWAP3 SWAP2 POP POP JUMP JUMPDEST PUSH0 PUSH2 0xDA4 DUP3 PUSH2 0xAFF JUMP JUMPDEST SWAP2 POP PUSH2 0xDAF DUP4 PUSH2 0xAFF JUMP JUMPDEST SWAP3 POP DUP3 PUSH2 0xDBF JUMPI PUSH2 0xDBE PUSH2 0xD3D JUMP JUMPDEST JUMPDEST DUP3 DUP3 DIV SWAP1 POP SWAP3 SWAP2 POP POP JUMP INVALID LOG2 PUSH5 0x6970667358 0x22 SLT KECCAK256 0xDE CREATE TLOAD PUSH26 0x3B281FC2DE7DE417D88097D9752470A7A7E240F872CE0C052F0A STATICCALL SWAP1 PUSH5 0x736F6C6343 STOP ADDMOD BYTE STOP CALLER "
		},
		"gasEstimates": {
			"creation": {
				"codeDepositCost": "716800",
				"executionCost": "15760",
				"totalCost": "732560"
			},
			"external": {
				"addPlayer()": "infinite",
				"input(uint256)": "infinite",
				"numInput()": "2426",
				"numPlayer()": "2424",
				"player_choice(address)": "2824",
				"player_not_played(address)": "2856",
				"players(uint256)": "5010",
				"reward()": "2470"
			},
			"internal": {
				"_checkWinnerAndPay()": "infinite",
				"resetGame()": "infinite"
			}
		},
		"methodIdentifiers": {
			"addPlayer()": "27b5db8a",
			"input(uint256)": "ce6e1c4e",
			"numInput()": "086f7815",
			"numPlayer()": "90d5d0c3",
			"player_choice(address)": "a040478d",
			"player_not_played(address)": "190cf745",
			"players(uint256)": "f71d96cb",
			"reward()": "228cb733"
		}
	},
	"abi": [
		{
			"inputs": [],
			"name": "addPlayer",
			"outputs": [],
			"stateMutability": "payable",
			"type": "function"
		},
		{
			"inputs": [
				{
					"internalType": "uint256",
					"name": "choice",
					"type": "uint256"
				}
			],
			"name": "input",
			"outputs": [],
			"stateMutability": "nonpayable",
			"type": "function"
		},
		{
			"inputs": [],
			"name": "numInput",
			"outputs": [
				{
					"internalType": "uint256",
					"name": "",
					"type": "uint256"
				}
			],
			"stateMutability": "view",
			"type": "function"
		},
		{
			"inputs": [],
			"name": "numPlayer",
			"outputs": [
				{
					"internalType": "uint256",
					"name": "",
					"type": "uint256"
				}
			],
			"stateMutability": "view",
			"type": "function"
		},
		{
			"inputs": [
				{
					"internalType": "address",
					"name": "",
					"type": "address"
				}
			],
			"name": "player_choice",
			"outputs": [
				{
					"internalType": "uint256",
					"name": "",
					"type": "uint256"
				}
			],
			"stateMutability": "view",
			"type": "function"
		},
		{
			"inputs": [
				{
					"internalType": "address",
					"name": "",
					"type": "address"
				}
			],
			"name": "player_not_played",
			"outputs": [
				{
					"internalType": "bool",
					"name": "",
					"type": "bool"
				}
			],
			"stateMutability": "view",
			"type": "function"
		},
		{
			"inputs": [
				{
					"internalType": "uint256",
					"name": "",
					"type": "uint256"
				}
			],
			"name": "players",
			"outputs": [
				{
					"internalType": "address",
					"name": "",
					"type": "address"
				}
			],
			"stateMutability": "view",
			"type": "function"
		},
		{
			"inputs": [],
			"name": "reward",
			"outputs": [
				{
					"internalType": "uint256",
					"name": "",
					"type": "uint256"
				}
			],
			"stateMutability": "view",
			"type": "function"
		}
	]
}